{
	"token.sol": {
		"DIOToken": {
			"abi": [
				{
					"inputs": [],
					"stateMutability": "nonpayable",
					"type": "constructor"
				},
				{
					"anonymous": false,
					"inputs": [
						{
							"indexed": true,
							"internalType": "address",
							"name": "tokenOwner",
							"type": "address"
						},
						{
							"indexed": true,
							"internalType": "address",
							"name": "spender",
							"type": "address"
						},
						{
							"indexed": false,
							"internalType": "uint256",
							"name": "tokens",
							"type": "uint256"
						}
					],
					"name": "Approval",
					"type": "event"
				},
				{
					"anonymous": false,
					"inputs": [
						{
							"indexed": true,
							"internalType": "address",
							"name": "from",
							"type": "address"
						},
						{
							"indexed": true,
							"internalType": "address",
							"name": "to",
							"type": "address"
						},
						{
							"indexed": false,
							"internalType": "uint256",
							"name": "tokens",
							"type": "uint256"
						}
					],
					"name": "Transfer",
					"type": "event"
				},
				{
					"stateMutability": "payable",
					"type": "fallback"
				},
				{
					"inputs": [],
					"name": "_totalSupply",
					"outputs": [
						{
							"internalType": "uint256",
							"name": "",
							"type": "uint256"
						}
					],
					"stateMutability": "view",
					"type": "function"
				},
				{
					"inputs": [
						{
							"internalType": "address",
							"name": "tokenOwner",
							"type": "address"
						},
						{
							"internalType": "address",
							"name": "spender",
							"type": "address"
						}
					],
					"name": "allowance",
					"outputs": [
						{
							"internalType": "uint256",
							"name": "remaining",
							"type": "uint256"
						}
					],
					"stateMutability": "view",
					"type": "function"
				},
				{
					"inputs": [
						{
							"internalType": "address",
							"name": "spender",
							"type": "address"
						},
						{
							"internalType": "uint256",
							"name": "tokens",
							"type": "uint256"
						}
					],
					"name": "approve",
					"outputs": [
						{
							"internalType": "bool",
							"name": "success",
							"type": "bool"
						}
					],
					"stateMutability": "nonpayable",
					"type": "function"
				},
				{
					"inputs": [
						{
							"internalType": "address",
							"name": "spender",
							"type": "address"
						},
						{
							"internalType": "uint256",
							"name": "tokens",
							"type": "uint256"
						},
						{
							"internalType": "bytes",
							"name": "data",
							"type": "bytes"
						}
					],
					"name": "approveAndCall",
					"outputs": [
						{
							"internalType": "bool",
							"name": "success",
							"type": "bool"
						}
					],
					"stateMutability": "nonpayable",
					"type": "function"
				},
				{
					"inputs": [
						{
							"internalType": "address",
							"name": "tokenOwner",
							"type": "address"
						}
					],
					"name": "balanceOf",
					"outputs": [
						{
							"internalType": "uint256",
							"name": "balance",
							"type": "uint256"
						}
					],
					"stateMutability": "view",
					"type": "function"
				},
				{
					"inputs": [],
					"name": "decimals",
					"outputs": [
						{
							"internalType": "uint8",
							"name": "",
							"type": "uint8"
						}
					],
					"stateMutability": "view",
					"type": "function"
				},
				{
					"inputs": [],
					"name": "name",
					"outputs": [
						{
							"internalType": "string",
							"name": "",
							"type": "string"
						}
					],
					"stateMutability": "view",
					"type": "function"
				},
				{
					"inputs": [
						{
							"internalType": "uint256",
							"name": "a",
							"type": "uint256"
						},
						{
							"internalType": "uint256",
							"name": "b",
							"type": "uint256"
						}
					],
					"name": "safeAdd",
					"outputs": [
						{
							"internalType": "uint256",
							"name": "c",
							"type": "uint256"
						}
					],
					"stateMutability": "pure",
					"type": "function"
				},
				{
					"inputs": [
						{
							"internalType": "uint256",
							"name": "a",
							"type": "uint256"
						},
						{
							"internalType": "uint256",
							"name": "b",
							"type": "uint256"
						}
					],
					"name": "safeDiv",
					"outputs": [
						{
							"internalType": "uint256",
							"name": "c",
							"type": "uint256"
						}
					],
					"stateMutability": "pure",
					"type": "function"
				},
				{
					"inputs": [
						{
							"internalType": "uint256",
							"name": "a",
							"type": "uint256"
						},
						{
							"internalType": "uint256",
							"name": "b",
							"type": "uint256"
						}
					],
					"name": "safeMul",
					"outputs": [
						{
							"internalType": "uint256",
							"name": "c",
							"type": "uint256"
						}
					],
					"stateMutability": "pure",
					"type": "function"
				},
				{
					"inputs": [
						{
							"internalType": "uint256",
							"name": "a",
							"type": "uint256"
						},
						{
							"internalType": "uint256",
							"name": "b",
							"type": "uint256"
						}
					],
					"name": "safeSub",
					"outputs": [
						{
							"internalType": "uint256",
							"name": "c",
							"type": "uint256"
						}
					],
					"stateMutability": "pure",
					"type": "function"
				},
				{
					"inputs": [],
					"name": "symbol",
					"outputs": [
						{
							"internalType": "string",
							"name": "",
							"type": "string"
						}
					],
					"stateMutability": "view",
					"type": "function"
				},
				{
					"inputs": [],
					"name": "totalSupply",
					"outputs": [
						{
							"internalType": "uint256",
							"name": "",
							"type": "uint256"
						}
					],
					"stateMutability": "view",
					"type": "function"
				},
				{
					"inputs": [
						{
							"internalType": "address",
							"name": "to",
							"type": "address"
						},
						{
							"internalType": "uint256",
							"name": "tokens",
							"type": "uint256"
						}
					],
					"name": "transfer",
					"outputs": [
						{
							"internalType": "bool",
							"name": "success",
							"type": "bool"
						}
					],
					"stateMutability": "nonpayable",
					"type": "function"
				},
				{
					"inputs": [
						{
							"internalType": "address",
							"name": "from",
							"type": "address"
						},
						{
							"internalType": "address",
							"name": "to",
							"type": "address"
						},
						{
							"internalType": "uint256",
							"name": "tokens",
							"type": "uint256"
						}
					],
					"name": "transferFrom",
					"outputs": [
						{
							"internalType": "bool",
							"name": "success",
							"type": "bool"
						}
					],
					"stateMutability": "nonpayable",
					"type": "function"
				},
				{
					"stateMutability": "payable",
					"type": "receive"
				}
			],
			"devdoc": {
				"kind": "dev",
				"methods": {},
				"version": 1
			},
			"evm": {
				"assembly": "    /* \"token.sol\":1608:4055  contract DIOToken is ERC20Interface, SafeMath {... */\n  mstore(0x40, 0x80)\n    /* \"token.sol\":1875:2209  constructor() {... */\n  callvalue\n  dup1\n  iszero\n  tag_1\n  jumpi\n  revert(0x00, 0x00)\ntag_1:\n  pop\n    /* \"token.sol\":1900:1914  symbol = \"DIO\" */\n  mload(0x40)\n  dup1\n  0x40\n  add\n  0x40\n  mstore\n  dup1\n  0x03\n  dup2\n  mstore\n  0x20\n  add\n  0x44494f0000000000000000000000000000000000000000000000000000000000\n  dup2\n  mstore\n  pop\n    /* \"token.sol\":1900:1906  symbol */\n  0x00\n    /* \"token.sol\":1900:1914  symbol = \"DIO\" */\n  swap1\n  dup2\n  tag_4\n  swap2\n  swap1\n  tag_5\n  jump\t// in\ntag_4:\n  pop\n    /* \"token.sol\":1925:1942  name = \"DIO Coin\" */\n  mload(0x40)\n  dup1\n  0x40\n  add\n  0x40\n  mstore\n  dup1\n  0x08\n  dup2\n  mstore\n  0x20\n  add\n  0x44494f20436f696e000000000000000000000000000000000000000000000000\n  dup2\n  mstore\n  pop\n    /* \"token.sol\":1925:1929  name */\n  0x01\n    /* \"token.sol\":1925:1942  name = \"DIO Coin\" */\n  swap1\n  dup2\n  tag_6\n  swap2\n  swap1\n  tag_5\n  jump\t// in\ntag_6:\n  pop\n    /* \"token.sol\":1964:1965  2 */\n  0x02\n    /* \"token.sol\":1953:1961  decimals */\n  dup1\n  0x00\n    /* \"token.sol\":1953:1965  decimals = 2 */\n  0x0100\n  exp\n  dup2\n  sload\n  dup2\n  0xff\n  mul\n  not\n  and\n  swap1\n  dup4\n  0xff\n  and\n  mul\n  or\n  swap1\n  sstore\n  pop\n    /* \"token.sol\":1991:1997  100000 */\n  0x0186a0\n    /* \"token.sol\":1976:1988  _totalSupply */\n  0x03\n    /* \"token.sol\":1976:1997  _totalSupply = 100000 */\n  dup2\n  swap1\n  sstore\n  pop\n    /* \"token.sol\":2063:2075  _totalSupply */\n  sload(0x03)\n    /* \"token.sol\":2008:2016  balances */\n  0x04\n    /* \"token.sol\":2008:2060  balances[0xB27B0857dceBA810AabA578e8e20b3810C534B34] */\n  0x00\n    /* \"token.sol\":2017:2059  0xB27B0857dceBA810AabA578e8e20b3810C534B34 */\n  0xb27b0857dceba810aaba578e8e20b3810c534b34\n    /* \"token.sol\":2008:2060  balances[0xB27B0857dceBA810AabA578e8e20b3810C534B34] */\n  0xffffffffffffffffffffffffffffffffffffffff\n  and\n  0xffffffffffffffffffffffffffffffffffffffff\n  and\n  dup2\n  mstore\n  0x20\n  add\n  swap1\n  dup2\n  mstore\n  0x20\n  add\n  0x00\n  keccak256\n    /* \"token.sol\":2008:2075  balances[0xB27B0857dceBA810AabA578e8e20b3810C534B34] = _totalSupply */\n  dup2\n  swap1\n  sstore\n  pop\n    /* \"token.sol\":2144:2186  0xB27B0857dceBA810AabA578e8e20b3810C534B34 */\n  0xb27b0857dceba810aaba578e8e20b3810c534b34\n    /* \"token.sol\":2123:2201  Transfer(address(0), 0xB27B0857dceBA810AabA578e8e20b3810C534B34, _totalSupply) */\n  0xffffffffffffffffffffffffffffffffffffffff\n  and\n    /* \"token.sol\":2140:2141  0 */\n  0x00\n    /* \"token.sol\":2123:2201  Transfer(address(0), 0xB27B0857dceBA810AabA578e8e20b3810C534B34, _totalSupply) */\n  0xffffffffffffffffffffffffffffffffffffffff\n  and\n  0xddf252ad1be2c89b69c2b068fc378daa952ba7f163c4a11628f55a4df523b3ef\n    /* \"token.sol\":2188:2200  _totalSupply */\n  sload(0x03)\n    /* \"token.sol\":2123:2201  Transfer(address(0), 0xB27B0857dceBA810AabA578e8e20b3810C534B34, _totalSupply) */\n  mload(0x40)\n  tag_7\n  swap2\n  swap1\n  tag_8\n  jump\t// in\ntag_7:\n  mload(0x40)\n  dup1\n  swap2\n  sub\n  swap1\n  log3\n    /* \"token.sol\":1608:4055  contract DIOToken is ERC20Interface, SafeMath {... */\n  jump(tag_9)\n    /* \"#utility.yul\":7:106   */\ntag_10:\n    /* \"#utility.yul\":59:65   */\n  0x00\n    /* \"#utility.yul\":93:98   */\n  dup2\n    /* \"#utility.yul\":87:99   */\n  mload\n    /* \"#utility.yul\":77:99   */\n  swap1\n  pop\n    /* \"#utility.yul\":7:106   */\n  swap2\n  swap1\n  pop\n  jump\t// out\n    /* \"#utility.yul\":112:292   */\ntag_11:\n    /* \"#utility.yul\":160:237   */\n  0x4e487b7100000000000000000000000000000000000000000000000000000000\n    /* \"#utility.yul\":157:158   */\n  0x00\n    /* \"#utility.yul\":150:238   */\n  mstore\n    /* \"#utility.yul\":257:261   */\n  0x41\n    /* \"#utility.yul\":254:255   */\n  0x04\n    /* \"#utility.yul\":247:262   */\n  mstore\n    /* \"#utility.yul\":281:285   */\n  0x24\n    /* \"#utility.yul\":278:279   */\n  0x00\n    /* \"#utility.yul\":271:286   */\n  revert\n    /* \"#utility.yul\":298:478   */\ntag_12:\n    /* \"#utility.yul\":346:423   */\n  0x4e487b7100000000000000000000000000000000000000000000000000000000\n    /* \"#utility.yul\":343:344   */\n  0x00\n    /* \"#utility.yul\":336:424   */\n  mstore\n    /* \"#utility.yul\":443:447   */\n  0x22\n    /* \"#utility.yul\":440:441   */\n  0x04\n    /* \"#utility.yul\":433:448   */\n  mstore\n    /* \"#utility.yul\":467:471   */\n  0x24\n    /* \"#utility.yul\":464:465   */\n  0x00\n    /* \"#utility.yul\":457:472   */\n  revert\n    /* \"#utility.yul\":484:804   */\ntag_13:\n    /* \"#utility.yul\":528:534   */\n  0x00\n    /* \"#utility.yul\":565:566   */\n  0x02\n    /* \"#utility.yul\":559:563   */\n  dup3\n    /* \"#utility.yul\":555:567   */\n  div\n    /* \"#utility.yul\":545:567   */\n  swap1\n  pop\n    /* \"#utility.yul\":612:613   */\n  0x01\n    /* \"#utility.yul\":606:610   */\n  dup3\n    /* \"#utility.yul\":602:614   */\n  and\n    /* \"#utility.yul\":633:651   */\n  dup1\n    /* \"#utility.yul\":623:704   */\n  tag_36\n  jumpi\n    /* \"#utility.yul\":689:693   */\n  0x7f\n    /* \"#utility.yul\":681:687   */\n  dup3\n    /* \"#utility.yul\":677:694   */\n  and\n    /* \"#utility.yul\":667:694   */\n  swap2\n  pop\n    /* \"#utility.yul\":623:704   */\ntag_36:\n    /* \"#utility.yul\":751:753   */\n  0x20\n    /* \"#utility.yul\":743:749   */\n  dup3\n    /* \"#utility.yul\":740:754   */\n  lt\n    /* \"#utility.yul\":720:738   */\n  dup2\n    /* \"#utility.yul\":717:755   */\n  sub\n    /* \"#utility.yul\":714:798   */\n  tag_37\n  jumpi\n    /* \"#utility.yul\":770:788   */\n  tag_38\n  tag_12\n  jump\t// in\ntag_38:\n    /* \"#utility.yul\":714:798   */\ntag_37:\n    /* \"#utility.yul\":535:804   */\n  pop\n    /* \"#utility.yul\":484:804   */\n  swap2\n  swap1\n  pop\n  jump\t// out\n    /* \"#utility.yul\":810:951   */\ntag_14:\n    /* \"#utility.yul\":859:863   */\n  0x00\n    /* \"#utility.yul\":882:885   */\n  dup2\n    /* \"#utility.yul\":874:885   */\n  swap1\n  pop\n    /* \"#utility.yul\":905:908   */\n  dup2\n    /* \"#utility.yul\":902:903   */\n  0x00\n    /* \"#utility.yul\":895:909   */\n  mstore\n    /* \"#utility.yul\":939:943   */\n  0x20\n    /* \"#utility.yul\":936:937   */\n  0x00\n    /* \"#utility.yul\":926:944   */\n  keccak256\n    /* \"#utility.yul\":918:944   */\n  swap1\n  pop\n    /* \"#utility.yul\":810:951   */\n  swap2\n  swap1\n  pop\n  jump\t// out\n    /* \"#utility.yul\":957:1050   */\ntag_15:\n    /* \"#utility.yul\":994:1000   */\n  0x00\n    /* \"#utility.yul\":1041:1043   */\n  0x20\n    /* \"#utility.yul\":1036:1038   */\n  0x1f\n    /* \"#utility.yul\":1029:1034   */\n  dup4\n    /* \"#utility.yul\":1025:1039   */\n  add\n    /* \"#utility.yul\":1021:1044   */\n  div\n    /* \"#utility.yul\":1011:1044   */\n  swap1\n  pop\n    /* \"#utility.yul\":957:1050   */\n  swap2\n  swap1\n  pop\n  jump\t// out\n    /* \"#utility.yul\":1056:1163   */\ntag_16:\n    /* \"#utility.yul\":1100:1108   */\n  0x00\n    /* \"#utility.yul\":1150:1155   */\n  dup3\n    /* \"#utility.yul\":1144:1148   */\n  dup3\n    /* \"#utility.yul\":1140:1156   */\n  shl\n    /* \"#utility.yul\":1119:1156   */\n  swap1\n  pop\n    /* \"#utility.yul\":1056:1163   */\n  swap3\n  swap2\n  pop\n  pop\n  jump\t// out\n    /* \"#utility.yul\":1169:1562   */\ntag_17:\n    /* \"#utility.yul\":1238:1244   */\n  0x00\n    /* \"#utility.yul\":1288:1289   */\n  0x08\n    /* \"#utility.yul\":1276:1286   */\n  dup4\n    /* \"#utility.yul\":1272:1290   */\n  mul\n    /* \"#utility.yul\":1311:1408   */\n  tag_43\n    /* \"#utility.yul\":1341:1407   */\n  0xffffffffffffffffffffffffffffffffffffffffffffffffffffffffffffffff\n    /* \"#utility.yul\":1330:1339   */\n  dup3\n    /* \"#utility.yul\":1311:1408   */\n  tag_16\n  jump\t// in\ntag_43:\n    /* \"#utility.yul\":1429:1468   */\n  tag_44\n    /* \"#utility.yul\":1459:1467   */\n  dup7\n    /* \"#utility.yul\":1448:1457   */\n  dup4\n    /* \"#utility.yul\":1429:1468   */\n  tag_16\n  jump\t// in\ntag_44:\n    /* \"#utility.yul\":1417:1468   */\n  swap6\n  pop\n    /* \"#utility.yul\":1501:1505   */\n  dup1\n    /* \"#utility.yul\":1497:1506   */\n  not\n    /* \"#utility.yul\":1490:1495   */\n  dup5\n    /* \"#utility.yul\":1486:1507   */\n  and\n    /* \"#utility.yul\":1477:1507   */\n  swap4\n  pop\n    /* \"#utility.yul\":1550:1554   */\n  dup1\n    /* \"#utility.yul\":1540:1548   */\n  dup7\n    /* \"#utility.yul\":1536:1555   */\n  and\n    /* \"#utility.yul\":1529:1534   */\n  dup5\n    /* \"#utility.yul\":1526:1556   */\n  or\n    /* \"#utility.yul\":1516:1556   */\n  swap3\n  pop\n    /* \"#utility.yul\":1245:1562   */\n  pop\n  pop\n    /* \"#utility.yul\":1169:1562   */\n  swap4\n  swap3\n  pop\n  pop\n  pop\n  jump\t// out\n    /* \"#utility.yul\":1568:1645   */\ntag_18:\n    /* \"#utility.yul\":1605:1612   */\n  0x00\n    /* \"#utility.yul\":1634:1639   */\n  dup2\n    /* \"#utility.yul\":1623:1639   */\n  swap1\n  pop\n    /* \"#utility.yul\":1568:1645   */\n  swap2\n  swap1\n  pop\n  jump\t// out\n    /* \"#utility.yul\":1651:1711   */\ntag_19:\n    /* \"#utility.yul\":1679:1682   */\n  0x00\n    /* \"#utility.yul\":1700:1705   */\n  dup2\n    /* \"#utility.yul\":1693:1705   */\n  swap1\n  pop\n    /* \"#utility.yul\":1651:1711   */\n  swap2\n  swap1\n  pop\n  jump\t// out\n    /* \"#utility.yul\":1717:1859   */\ntag_20:\n    /* \"#utility.yul\":1767:1776   */\n  0x00\n    /* \"#utility.yul\":1800:1853   */\n  tag_48\n    /* \"#utility.yul\":1818:1852   */\n  tag_49\n    /* \"#utility.yul\":1827:1851   */\n  tag_50\n    /* \"#utility.yul\":1845:1850   */\n  dup5\n    /* \"#utility.yul\":1827:1851   */\n  tag_18\n  jump\t// in\ntag_50:\n    /* \"#utility.yul\":1818:1852   */\n  tag_19\n  jump\t// in\ntag_49:\n    /* \"#utility.yul\":1800:1853   */\n  tag_18\n  jump\t// in\ntag_48:\n    /* \"#utility.yul\":1787:1853   */\n  swap1\n  pop\n    /* \"#utility.yul\":1717:1859   */\n  swap2\n  swap1\n  pop\n  jump\t// out\n    /* \"#utility.yul\":1865:1940   */\ntag_21:\n    /* \"#utility.yul\":1908:1911   */\n  0x00\n    /* \"#utility.yul\":1929:1934   */\n  dup2\n    /* \"#utility.yul\":1922:1934   */\n  swap1\n  pop\n    /* \"#utility.yul\":1865:1940   */\n  swap2\n  swap1\n  pop\n  jump\t// out\n    /* \"#utility.yul\":1946:2215   */\ntag_22:\n    /* \"#utility.yul\":2056:2095   */\n  tag_53\n    /* \"#utility.yul\":2087:2094   */\n  dup4\n    /* \"#utility.yul\":2056:2095   */\n  tag_20\n  jump\t// in\ntag_53:\n    /* \"#utility.yul\":2117:2208   */\n  tag_54\n    /* \"#utility.yul\":2166:2207   */\n  tag_55\n    /* \"#utility.yul\":2190:2206   */\n  dup3\n    /* \"#utility.yul\":2166:2207   */\n  tag_21\n  jump\t// in\ntag_55:\n    /* \"#utility.yul\":2158:2164   */\n  dup5\n    /* \"#utility.yul\":2151:2155   */\n  dup5\n    /* \"#utility.yul\":2145:2156   */\n  sload\n    /* \"#utility.yul\":2117:2208   */\n  tag_17\n  jump\t// in\ntag_54:\n    /* \"#utility.yul\":2111:2115   */\n  dup3\n    /* \"#utility.yul\":2104:2209   */\n  sstore\n    /* \"#utility.yul\":2022:2215   */\n  pop\n    /* \"#utility.yul\":1946:2215   */\n  pop\n  pop\n  pop\n  jump\t// out\n    /* \"#utility.yul\":2221:2294   */\ntag_23:\n    /* \"#utility.yul\":2266:2269   */\n  0x00\n    /* \"#utility.yul\":2287:2288   */\n  0x00\n    /* \"#utility.yul\":2280:2288   */\n  swap1\n  pop\n    /* \"#utility.yul\":2221:2294   */\n  swap1\n  jump\t// out\n    /* \"#utility.yul\":2300:2489   */\ntag_24:\n    /* \"#utility.yul\":2377:2409   */\n  tag_58\n  tag_23\n  jump\t// in\ntag_58:\n    /* \"#utility.yul\":2418:2483   */\n  tag_59\n    /* \"#utility.yul\":2476:2482   */\n  dup2\n    /* \"#utility.yul\":2468:2474   */\n  dup5\n    /* \"#utility.yul\":2462:2466   */\n  dup5\n    /* \"#utility.yul\":2418:2483   */\n  tag_22\n  jump\t// in\ntag_59:\n    /* \"#utility.yul\":2353:2489   */\n  pop\n    /* \"#utility.yul\":2300:2489   */\n  pop\n  pop\n  jump\t// out\n    /* \"#utility.yul\":2495:2681   */\ntag_25:\n    /* \"#utility.yul\":2555:2675   */\ntag_61:\n    /* \"#utility.yul\":2572:2575   */\n  dup2\n    /* \"#utility.yul\":2565:2570   */\n  dup2\n    /* \"#utility.yul\":2562:2576   */\n  lt\n    /* \"#utility.yul\":2555:2675   */\n  iszero\n  tag_63\n  jumpi\n    /* \"#utility.yul\":2626:2665   */\n  tag_64\n    /* \"#utility.yul\":2663:2664   */\n  0x00\n    /* \"#utility.yul\":2656:2661   */\n  dup3\n    /* \"#utility.yul\":2626:2665   */\n  tag_24\n  jump\t// in\ntag_64:\n    /* \"#utility.yul\":2599:2600   */\n  0x01\n    /* \"#utility.yul\":2592:2597   */\n  dup2\n    /* \"#utility.yul\":2588:2601   */\n  add\n    /* \"#utility.yul\":2579:2601   */\n  swap1\n  pop\n    /* \"#utility.yul\":2555:2675   */\n  jump(tag_61)\ntag_63:\n    /* \"#utility.yul\":2495:2681   */\n  pop\n  pop\n  jump\t// out\n    /* \"#utility.yul\":2687:3230   */\ntag_26:\n    /* \"#utility.yul\":2788:2790   */\n  0x1f\n    /* \"#utility.yul\":2783:2786   */\n  dup3\n    /* \"#utility.yul\":2780:2791   */\n  gt\n    /* \"#utility.yul\":2777:3223   */\n  iszero\n  tag_66\n  jumpi\n    /* \"#utility.yul\":2822:2860   */\n  tag_67\n    /* \"#utility.yul\":2854:2859   */\n  dup2\n    /* \"#utility.yul\":2822:2860   */\n  tag_14\n  jump\t// in\ntag_67:\n    /* \"#utility.yul\":2906:2935   */\n  tag_68\n    /* \"#utility.yul\":2924:2934   */\n  dup5\n    /* \"#utility.yul\":2906:2935   */\n  tag_15\n  jump\t// in\ntag_68:\n    /* \"#utility.yul\":2896:2904   */\n  dup2\n    /* \"#utility.yul\":2892:2936   */\n  add\n    /* \"#utility.yul\":3089:3091   */\n  0x20\n    /* \"#utility.yul\":3077:3087   */\n  dup6\n    /* \"#utility.yul\":3074:3092   */\n  lt\n    /* \"#utility.yul\":3071:3120   */\n  iszero\n  tag_69\n  jumpi\n    /* \"#utility.yul\":3110:3118   */\n  dup2\n    /* \"#utility.yul\":3095:3118   */\n  swap1\n  pop\n    /* \"#utility.yul\":3071:3120   */\ntag_69:\n    /* \"#utility.yul\":3133:3213   */\n  tag_70\n    /* \"#utility.yul\":3189:3211   */\n  tag_71\n    /* \"#utility.yul\":3207:3210   */\n  dup6\n    /* \"#utility.yul\":3189:3211   */\n  tag_15\n  jump\t// in\ntag_71:\n    /* \"#utility.yul\":3179:3187   */\n  dup4\n    /* \"#utility.yul\":3175:3212   */\n  add\n    /* \"#utility.yul\":3162:3173   */\n  dup3\n    /* \"#utility.yul\":3133:3213   */\n  tag_25\n  jump\t// in\ntag_70:\n    /* \"#utility.yul\":2792:3223   */\n  pop\n  pop\n    /* \"#utility.yul\":2777:3223   */\ntag_66:\n    /* \"#utility.yul\":2687:3230   */\n  pop\n  pop\n  pop\n  jump\t// out\n    /* \"#utility.yul\":3236:3353   */\ntag_27:\n    /* \"#utility.yul\":3290:3298   */\n  0x00\n    /* \"#utility.yul\":3340:3345   */\n  dup3\n    /* \"#utility.yul\":3334:3338   */\n  dup3\n    /* \"#utility.yul\":3330:3346   */\n  shr\n    /* \"#utility.yul\":3309:3346   */\n  swap1\n  pop\n    /* \"#utility.yul\":3236:3353   */\n  swap3\n  swap2\n  pop\n  pop\n  jump\t// out\n    /* \"#utility.yul\":3359:3528   */\ntag_28:\n    /* \"#utility.yul\":3403:3409   */\n  0x00\n    /* \"#utility.yul\":3436:3487   */\n  tag_74\n    /* \"#utility.yul\":3484:3485   */\n  0x00\n    /* \"#utility.yul\":3480:3486   */\n  not\n    /* \"#utility.yul\":3472:3477   */\n  dup5\n    /* \"#utility.yul\":3469:3470   */\n  0x08\n    /* \"#utility.yul\":3465:3478   */\n  mul\n    /* \"#utility.yul\":3436:3487   */\n  tag_27\n  jump\t// in\ntag_74:\n    /* \"#utility.yul\":3432:3488   */\n  not\n    /* \"#utility.yul\":3517:3521   */\n  dup1\n    /* \"#utility.yul\":3511:3515   */\n  dup4\n    /* \"#utility.yul\":3507:3522   */\n  and\n    /* \"#utility.yul\":3497:3522   */\n  swap2\n  pop\n    /* \"#utility.yul\":3410:3528   */\n  pop\n    /* \"#utility.yul\":3359:3528   */\n  swap3\n  swap2\n  pop\n  pop\n  jump\t// out\n    /* \"#utility.yul\":3533:3828   */\ntag_29:\n    /* \"#utility.yul\":3609:3613   */\n  0x00\n    /* \"#utility.yul\":3755:3784   */\n  tag_76\n    /* \"#utility.yul\":3780:3783   */\n  dup4\n    /* \"#utility.yul\":3774:3778   */\n  dup4\n    /* \"#utility.yul\":3755:3784   */\n  tag_28\n  jump\t// in\ntag_76:\n    /* \"#utility.yul\":3747:3784   */\n  swap2\n  pop\n    /* \"#utility.yul\":3817:3820   */\n  dup3\n    /* \"#utility.yul\":3814:3815   */\n  0x02\n    /* \"#utility.yul\":3810:3821   */\n  mul\n    /* \"#utility.yul\":3804:3808   */\n  dup3\n    /* \"#utility.yul\":3801:3822   */\n  or\n    /* \"#utility.yul\":3793:3822   */\n  swap1\n  pop\n    /* \"#utility.yul\":3533:3828   */\n  swap3\n  swap2\n  pop\n  pop\n  jump\t// out\n    /* \"#utility.yul\":3833:5228   */\ntag_5:\n    /* \"#utility.yul\":3950:3987   */\n  tag_78\n    /* \"#utility.yul\":3983:3986   */\n  dup3\n    /* \"#utility.yul\":3950:3987   */\n  tag_10\n  jump\t// in\ntag_78:\n    /* \"#utility.yul\":4052:4070   */\n  0xffffffffffffffff\n    /* \"#utility.yul\":4044:4050   */\n  dup2\n    /* \"#utility.yul\":4041:4071   */\n  gt\n    /* \"#utility.yul\":4038:4094   */\n  iszero\n  tag_79\n  jumpi\n    /* \"#utility.yul\":4074:4092   */\n  tag_80\n  tag_11\n  jump\t// in\ntag_80:\n    /* \"#utility.yul\":4038:4094   */\ntag_79:\n    /* \"#utility.yul\":4118:4156   */\n  tag_81\n    /* \"#utility.yul\":4150:4154   */\n  dup3\n    /* \"#utility.yul\":4144:4155   */\n  sload\n    /* \"#utility.yul\":4118:4156   */\n  tag_13\n  jump\t// in\ntag_81:\n    /* \"#utility.yul\":4203:4270   */\n  tag_82\n    /* \"#utility.yul\":4263:4269   */\n  dup3\n    /* \"#utility.yul\":4255:4261   */\n  dup3\n    /* \"#utility.yul\":4249:4253   */\n  dup6\n    /* \"#utility.yul\":4203:4270   */\n  tag_26\n  jump\t// in\ntag_82:\n    /* \"#utility.yul\":4297:4298   */\n  0x00\n    /* \"#utility.yul\":4321:4325   */\n  0x20\n    /* \"#utility.yul\":4308:4325   */\n  swap1\n  pop\n    /* \"#utility.yul\":4353:4355   */\n  0x1f\n    /* \"#utility.yul\":4345:4351   */\n  dup4\n    /* \"#utility.yul\":4342:4356   */\n  gt\n    /* \"#utility.yul\":4370:4371   */\n  0x01\n    /* \"#utility.yul\":4365:4983   */\n  dup2\n  eq\n  tag_84\n  jumpi\n    /* \"#utility.yul\":5027:5028   */\n  0x00\n    /* \"#utility.yul\":5044:5050   */\n  dup5\n    /* \"#utility.yul\":5041:5118   */\n  iszero\n  tag_85\n  jumpi\n    /* \"#utility.yul\":5093:5102   */\n  dup3\n    /* \"#utility.yul\":5088:5091   */\n  dup8\n    /* \"#utility.yul\":5084:5103   */\n  add\n    /* \"#utility.yul\":5078:5104   */\n  mload\n    /* \"#utility.yul\":5069:5104   */\n  swap1\n  pop\n    /* \"#utility.yul\":5041:5118   */\ntag_85:\n    /* \"#utility.yul\":5144:5211   */\n  tag_86\n    /* \"#utility.yul\":5204:5210   */\n  dup6\n    /* \"#utility.yul\":5197:5202   */\n  dup3\n    /* \"#utility.yul\":5144:5211   */\n  tag_29\n  jump\t// in\ntag_86:\n    /* \"#utility.yul\":5138:5142   */\n  dup7\n    /* \"#utility.yul\":5131:5212   */\n  sstore\n    /* \"#utility.yul\":5000:5222   */\n  pop\n    /* \"#utility.yul\":4335:5222   */\n  jump(tag_83)\n    /* \"#utility.yul\":4365:4983   */\ntag_84:\n    /* \"#utility.yul\":4417:4421   */\n  0x1f\n    /* \"#utility.yul\":4413:4422   */\n  not\n    /* \"#utility.yul\":4405:4411   */\n  dup5\n    /* \"#utility.yul\":4401:4423   */\n  and\n    /* \"#utility.yul\":4451:4488   */\n  tag_87\n    /* \"#utility.yul\":4483:4487   */\n  dup7\n    /* \"#utility.yul\":4451:4488   */\n  tag_14\n  jump\t// in\ntag_87:\n    /* \"#utility.yul\":4510:4511   */\n  0x00\n    /* \"#utility.yul\":4524:4732   */\ntag_88:\n    /* \"#utility.yul\":4538:4545   */\n  dup3\n    /* \"#utility.yul\":4535:4536   */\n  dup2\n    /* \"#utility.yul\":4532:4546   */\n  lt\n    /* \"#utility.yul\":4524:4732   */\n  iszero\n  tag_90\n  jumpi\n    /* \"#utility.yul\":4617:4626   */\n  dup5\n    /* \"#utility.yul\":4612:4615   */\n  dup10\n    /* \"#utility.yul\":4608:4627   */\n  add\n    /* \"#utility.yul\":4602:4628   */\n  mload\n    /* \"#utility.yul\":4594:4600   */\n  dup3\n    /* \"#utility.yul\":4587:4629   */\n  sstore\n    /* \"#utility.yul\":4668:4669   */\n  0x01\n    /* \"#utility.yul\":4660:4666   */\n  dup3\n    /* \"#utility.yul\":4656:4670   */\n  add\n    /* \"#utility.yul\":4646:4670   */\n  swap2\n  pop\n    /* \"#utility.yul\":4715:4717   */\n  0x20\n    /* \"#utility.yul\":4704:4713   */\n  dup6\n    /* \"#utility.yul\":4700:4718   */\n  add\n    /* \"#utility.yul\":4687:4718   */\n  swap5\n  pop\n    /* \"#utility.yul\":4561:4565   */\n  0x20\n    /* \"#utility.yul\":4558:4559   */\n  dup2\n    /* \"#utility.yul\":4554:4566   */\n  add\n    /* \"#utility.yul\":4549:4566   */\n  swap1\n  pop\n    /* \"#utility.yul\":4524:4732   */\n  jump(tag_88)\ntag_90:\n    /* \"#utility.yul\":4760:4766   */\n  dup7\n    /* \"#utility.yul\":4751:4758   */\n  dup4\n    /* \"#utility.yul\":4748:4767   */\n  lt\n    /* \"#utility.yul\":4745:4924   */\n  iszero\n  tag_91\n  jumpi\n    /* \"#utility.yul\":4818:4827   */\n  dup5\n    /* \"#utility.yul\":4813:4816   */\n  dup10\n    /* \"#utility.yul\":4809:4828   */\n  add\n    /* \"#utility.yul\":4803:4829   */\n  mload\n    /* \"#utility.yul\":4861:4909   */\n  tag_92\n    /* \"#utility.yul\":4903:4907   */\n  0x1f\n    /* \"#utility.yul\":4895:4901   */\n  dup10\n    /* \"#utility.yul\":4891:4908   */\n  and\n    /* \"#utility.yul\":4880:4889   */\n  dup3\n    /* \"#utility.yul\":4861:4909   */\n  tag_28\n  jump\t// in\ntag_92:\n    /* \"#utility.yul\":4853:4859   */\n  dup4\n    /* \"#utility.yul\":4846:4910   */\n  sstore\n    /* \"#utility.yul\":4768:4924   */\n  pop\n    /* \"#utility.yul\":4745:4924   */\ntag_91:\n    /* \"#utility.yul\":4970:4971   */\n  0x01\n    /* \"#utility.yul\":4966:4967   */\n  0x02\n    /* \"#utility.yul\":4958:4964   */\n  dup9\n    /* \"#utility.yul\":4954:4968   */\n  mul\n    /* \"#utility.yul\":4950:4972   */\n  add\n    /* \"#utility.yul\":4944:4948   */\n  dup9\n    /* \"#utility.yul\":4937:4973   */\n  sstore\n    /* \"#utility.yul\":4372:4983   */\n  pop\n  pop\n  pop\n    /* \"#utility.yul\":4335:5222   */\ntag_83:\n  pop\n    /* \"#utility.yul\":3925:5228   */\n  pop\n  pop\n  pop\n    /* \"#utility.yul\":3833:5228   */\n  pop\n  pop\n  jump\t// out\n    /* \"#utility.yul\":5234:5352   */\ntag_30:\n    /* \"#utility.yul\":5321:5345   */\n  tag_94\n    /* \"#utility.yul\":5339:5344   */\n  dup2\n    /* \"#utility.yul\":5321:5345   */\n  tag_18\n  jump\t// in\ntag_94:\n    /* \"#utility.yul\":5316:5319   */\n  dup3\n    /* \"#utility.yul\":5309:5346   */\n  mstore\n    /* \"#utility.yul\":5234:5352   */\n  pop\n  pop\n  jump\t// out\n    /* \"#utility.yul\":5358:5580   */\ntag_8:\n    /* \"#utility.yul\":5451:5455   */\n  0x00\n    /* \"#utility.yul\":5489:5491   */\n  0x20\n    /* \"#utility.yul\":5478:5487   */\n  dup3\n    /* \"#utility.yul\":5474:5492   */\n  add\n    /* \"#utility.yul\":5466:5492   */\n  swap1\n  pop\n    /* \"#utility.yul\":5502:5573   */\n  tag_96\n    /* \"#utility.yul\":5570:5571   */\n  0x00\n    /* \"#utility.yul\":5559:5568   */\n  dup4\n    /* \"#utility.yul\":5555:5572   */\n  add\n    /* \"#utility.yul\":5546:5552   */\n  dup5\n    /* \"#utility.yul\":5502:5573   */\n  tag_30\n  jump\t// in\ntag_96:\n    /* \"#utility.yul\":5358:5580   */\n  swap3\n  swap2\n  pop\n  pop\n  jump\t// out\n    /* \"token.sol\":1608:4055  contract DIOToken is ERC20Interface, SafeMath {... */\ntag_9:\n  dataSize(sub_0)\n  dup1\n  dataOffset(sub_0)\n  0x00\n  codecopy\n  0x00\n  return\nstop\n\nsub_0: assembly {\n        /* \"token.sol\":1608:4055  contract DIOToken is ERC20Interface, SafeMath {... */\n      mstore(0x40, 0x80)\n      jumpi(tag_1, lt(calldatasize, 0x04))\n      shr(0xe0, calldataload(0x00))\n      dup1\n      0x95d89b41\n      gt\n      tag_18\n      jumpi\n      dup1\n      0xcae9ca51\n      gt\n      tag_19\n      jumpi\n      dup1\n      0xcae9ca51\n      eq\n      tag_14\n      jumpi\n      dup1\n      0xd05c78da\n      eq\n      tag_15\n      jumpi\n      dup1\n      0xdd62ed3e\n      eq\n      tag_16\n      jumpi\n      dup1\n      0xe6cb9013\n      eq\n      tag_17\n      jumpi\n      jump(tag_2)\n    tag_19:\n      dup1\n      0x95d89b41\n      eq\n      tag_10\n      jumpi\n      dup1\n      0xa293d1e8\n      eq\n      tag_11\n      jumpi\n      dup1\n      0xa9059cbb\n      eq\n      tag_12\n      jumpi\n      dup1\n      0xb5931f7c\n      eq\n      tag_13\n      jumpi\n      jump(tag_2)\n    tag_18:\n      dup1\n      0x23b872dd\n      gt\n      tag_20\n      jumpi\n      dup1\n      0x23b872dd\n      eq\n      tag_6\n      jumpi\n      dup1\n      0x313ce567\n      eq\n      tag_7\n      jumpi\n      dup1\n      0x3eaaf86b\n      eq\n      tag_8\n      jumpi\n      dup1\n      0x70a08231\n      eq\n      tag_9\n      jumpi\n      jump(tag_2)\n    tag_20:\n      dup1\n      0x06fdde03\n      eq\n      tag_3\n      jumpi\n      dup1\n      0x095ea7b3\n      eq\n      tag_4\n      jumpi\n      dup1\n      0x18160ddd\n      eq\n      tag_5\n      jumpi\n      jump(tag_2)\n    tag_1:\n      jumpi(tag_2, calldatasize)\n        /* \"token.sol\":4016:4044  revert(\"Ether not accepted\") */\n      mload(0x40)\n      0x08c379a000000000000000000000000000000000000000000000000000000000\n      dup2\n      mstore\n      0x04\n      add\n      tag_23\n      swap1\n      tag_24\n      jump\t// in\n    tag_23:\n      mload(0x40)\n      dup1\n      swap2\n      sub\n      swap1\n      revert\n        /* \"token.sol\":1608:4055  contract DIOToken is ERC20Interface, SafeMath {... */\n    tag_2:\n        /* \"token.sol\":3934:3962  revert(\"Ether not accepted\") */\n      mload(0x40)\n      0x08c379a000000000000000000000000000000000000000000000000000000000\n      dup2\n      mstore\n      0x04\n      add\n      tag_27\n      swap1\n      tag_24\n      jump\t// in\n    tag_27:\n      mload(0x40)\n      dup1\n      swap2\n      sub\n      swap1\n      revert\n        /* \"token.sol\":1688:1706  string public name */\n    tag_3:\n      callvalue\n      dup1\n      iszero\n      tag_28\n      jumpi\n      revert(0x00, 0x00)\n    tag_28:\n      pop\n      tag_29\n      tag_30\n      jump\t// in\n    tag_29:\n      mload(0x40)\n      tag_31\n      swap2\n      swap1\n      tag_32\n      jump\t// in\n    tag_31:\n      mload(0x40)\n      dup1\n      swap2\n      sub\n      swap1\n      return\n        /* \"token.sol\":2749:2957  function approve(address spender, uint tokens) public returns (bool success) {... */\n    tag_4:\n      callvalue\n      dup1\n      iszero\n      tag_33\n      jumpi\n      revert(0x00, 0x00)\n    tag_33:\n      pop\n      tag_34\n      0x04\n      dup1\n      calldatasize\n      sub\n      dup2\n      add\n      swap1\n      tag_35\n      swap2\n      swap1\n      tag_36\n      jump\t// in\n    tag_35:\n      tag_37\n      jump\t// in\n    tag_34:\n      mload(0x40)\n      tag_38\n      swap2\n      swap1\n      tag_39\n      jump\t// in\n    tag_38:\n      mload(0x40)\n      dup1\n      swap2\n      sub\n      swap1\n      return\n        /* \"token.sol\":2217:2328  function totalSupply() public view returns (uint) {... */\n    tag_5:\n      callvalue\n      dup1\n      iszero\n      tag_40\n      jumpi\n      revert(0x00, 0x00)\n    tag_40:\n      pop\n      tag_41\n      tag_42\n      jump\t// in\n    tag_41:\n      mload(0x40)\n      tag_43\n      swap2\n      swap1\n      tag_44\n      jump\t// in\n    tag_43:\n      mload(0x40)\n      dup1\n      swap2\n      sub\n      swap1\n      return\n        /* \"token.sol\":2965:3323  function transferFrom(address from, address to, uint tokens) public returns (bool success) {... */\n    tag_6:\n      callvalue\n      dup1\n      iszero\n      tag_45\n      jumpi\n      revert(0x00, 0x00)\n    tag_45:\n      pop\n      tag_46\n      0x04\n      dup1\n      calldatasize\n      sub\n      dup2\n      add\n      swap1\n      tag_47\n      swap2\n      swap1\n      tag_48\n      jump\t// in\n    tag_47:\n      tag_49\n      jump\t// in\n    tag_46:\n      mload(0x40)\n      tag_50\n      swap2\n      swap1\n      tag_39\n      jump\t// in\n    tag_50:\n      mload(0x40)\n      dup1\n      swap2\n      sub\n      swap1\n      return\n        /* \"token.sol\":1713:1734  uint8 public decimals */\n    tag_7:\n      callvalue\n      dup1\n      iszero\n      tag_51\n      jumpi\n      revert(0x00, 0x00)\n    tag_51:\n      pop\n      tag_52\n      tag_53\n      jump\t// in\n    tag_52:\n      mload(0x40)\n      tag_54\n      swap2\n      swap1\n      tag_55\n      jump\t// in\n    tag_54:\n      mload(0x40)\n      dup1\n      swap2\n      sub\n      swap1\n      return\n        /* \"token.sol\":1741:1765  uint public _totalSupply */\n    tag_8:\n      callvalue\n      dup1\n      iszero\n      tag_56\n      jumpi\n      revert(0x00, 0x00)\n    tag_56:\n      pop\n      tag_57\n      tag_58\n      jump\t// in\n    tag_57:\n      mload(0x40)\n      tag_59\n      swap2\n      swap1\n      tag_44\n      jump\t// in\n    tag_59:\n      mload(0x40)\n      dup1\n      swap2\n      sub\n      swap1\n      return\n        /* \"token.sol\":2336:2456  function balanceOf(address tokenOwner) public view returns (uint balance) {... */\n    tag_9:\n      callvalue\n      dup1\n      iszero\n      tag_60\n      jumpi\n      revert(0x00, 0x00)\n    tag_60:\n      pop\n      tag_61\n      0x04\n      dup1\n      calldatasize\n      sub\n      dup2\n      add\n      swap1\n      tag_62\n      swap2\n      swap1\n      tag_63\n      jump\t// in\n    tag_62:\n      tag_64\n      jump\t// in\n    tag_61:\n      mload(0x40)\n      tag_65\n      swap2\n      swap1\n      tag_44\n      jump\t// in\n    tag_65:\n      mload(0x40)\n      dup1\n      swap2\n      sub\n      swap1\n      return\n        /* \"token.sol\":1661:1681  string public symbol */\n    tag_10:\n      callvalue\n      dup1\n      iszero\n      tag_66\n      jumpi\n      revert(0x00, 0x00)\n    tag_66:\n      pop\n      tag_67\n      tag_68\n      jump\t// in\n    tag_67:\n      mload(0x40)\n      tag_69\n      swap2\n      swap1\n      tag_32\n      jump\t// in\n    tag_69:\n      mload(0x40)\n      dup1\n      swap2\n      sub\n      swap1\n      return\n        /* \"token.sol\":237:353  function safeSub(uint a, uint b) public pure returns (uint c) {... */\n    tag_11:\n      callvalue\n      dup1\n      iszero\n      tag_70\n      jumpi\n      revert(0x00, 0x00)\n    tag_70:\n      pop\n      tag_71\n      0x04\n      dup1\n      calldatasize\n      sub\n      dup2\n      add\n      swap1\n      tag_72\n      swap2\n      swap1\n      tag_73\n      jump\t// in\n    tag_72:\n      tag_74\n      jump\t// in\n    tag_71:\n      mload(0x40)\n      tag_75\n      swap2\n      swap1\n      tag_44\n      jump\t// in\n    tag_75:\n      mload(0x40)\n      dup1\n      swap2\n      sub\n      swap1\n      return\n        /* \"token.sol\":2464:2741  function transfer(address to, uint tokens) public returns (bool success) {... */\n    tag_12:\n      callvalue\n      dup1\n      iszero\n      tag_76\n      jumpi\n      revert(0x00, 0x00)\n    tag_76:\n      pop\n      tag_77\n      0x04\n      dup1\n      calldatasize\n      sub\n      dup2\n      add\n      swap1\n      tag_78\n      swap2\n      swap1\n      tag_36\n      jump\t// in\n    tag_78:\n      tag_79\n      jump\t// in\n    tag_77:\n      mload(0x40)\n      tag_80\n      swap2\n      swap1\n      tag_39\n      jump\t// in\n    tag_80:\n      mload(0x40)\n      dup1\n      swap2\n      sub\n      swap1\n      return\n        /* \"token.sol\":499:614  function safeDiv(uint a, uint b) public pure returns (uint c) {... */\n    tag_13:\n      callvalue\n      dup1\n      iszero\n      tag_81\n      jumpi\n      revert(0x00, 0x00)\n    tag_81:\n      pop\n      tag_82\n      0x04\n      dup1\n      calldatasize\n      sub\n      dup2\n      add\n      swap1\n      tag_83\n      swap2\n      swap1\n      tag_73\n      jump\t// in\n    tag_83:\n      tag_84\n      jump\t// in\n    tag_82:\n      mload(0x40)\n      tag_85\n      swap2\n      swap1\n      tag_44\n      jump\t// in\n    tag_85:\n      mload(0x40)\n      dup1\n      swap2\n      sub\n      swap1\n      return\n        /* \"token.sol\":3486:3819  function approveAndCall(address spender, uint tokens, bytes memory data) public returns (bool success) {... */\n    tag_14:\n      callvalue\n      dup1\n      iszero\n      tag_86\n      jumpi\n      revert(0x00, 0x00)\n    tag_86:\n      pop\n      tag_87\n      0x04\n      dup1\n      calldatasize\n      sub\n      dup2\n      add\n      swap1\n      tag_88\n      swap2\n      swap1\n      tag_89\n      jump\t// in\n    tag_88:\n      tag_90\n      jump\t// in\n    tag_87:\n      mload(0x40)\n      tag_91\n      swap2\n      swap1\n      tag_39\n      jump\t// in\n    tag_91:\n      mload(0x40)\n      dup1\n      swap2\n      sub\n      swap1\n      return\n        /* \"token.sol\":361:491  function safeMul(uint a, uint b) public pure returns (uint c) {... */\n    tag_15:\n      callvalue\n      dup1\n      iszero\n      tag_92\n      jumpi\n      revert(0x00, 0x00)\n    tag_92:\n      pop\n      tag_93\n      0x04\n      dup1\n      calldatasize\n      sub\n      dup2\n      add\n      swap1\n      tag_94\n      swap2\n      swap1\n      tag_73\n      jump\t// in\n    tag_94:\n      tag_95\n      jump\t// in\n    tag_93:\n      mload(0x40)\n      tag_96\n      swap2\n      swap1\n      tag_44\n      jump\t// in\n    tag_96:\n      mload(0x40)\n      dup1\n      swap2\n      sub\n      swap1\n      return\n        /* \"token.sol\":3331:3478  function allowance(address tokenOwner, address spender) public view returns (uint remaining) {... */\n    tag_16:\n      callvalue\n      dup1\n      iszero\n      tag_97\n      jumpi\n      revert(0x00, 0x00)\n    tag_97:\n      pop\n      tag_98\n      0x04\n      dup1\n      calldatasize\n      sub\n      dup2\n      add\n      swap1\n      tag_99\n      swap2\n      swap1\n      tag_100\n      jump\t// in\n    tag_99:\n      tag_101\n      jump\t// in\n    tag_98:\n      mload(0x40)\n      tag_102\n      swap2\n      swap1\n      tag_44\n      jump\t// in\n    tag_102:\n      mload(0x40)\n      dup1\n      swap2\n      sub\n      swap1\n      return\n        /* \"token.sol\":113:229  function safeAdd(uint a, uint b) public pure returns (uint c) {... */\n    tag_17:\n      callvalue\n      dup1\n      iszero\n      tag_103\n      jumpi\n      revert(0x00, 0x00)\n    tag_103:\n      pop\n      tag_104\n      0x04\n      dup1\n      calldatasize\n      sub\n      dup2\n      add\n      swap1\n      tag_105\n      swap2\n      swap1\n      tag_73\n      jump\t// in\n    tag_105:\n      tag_106\n      jump\t// in\n    tag_104:\n      mload(0x40)\n      tag_107\n      swap2\n      swap1\n      tag_44\n      jump\t// in\n    tag_107:\n      mload(0x40)\n      dup1\n      swap2\n      sub\n      swap1\n      return\n        /* \"token.sol\":1688:1706  string public name */\n    tag_30:\n      0x01\n      dup1\n      sload\n      tag_108\n      swap1\n      tag_109\n      jump\t// in\n    tag_108:\n      dup1\n      0x1f\n      add\n      0x20\n      dup1\n      swap2\n      div\n      mul\n      0x20\n      add\n      mload(0x40)\n      swap1\n      dup2\n      add\n      0x40\n      mstore\n      dup1\n      swap3\n      swap2\n      swap1\n      dup2\n      dup2\n      mstore\n      0x20\n      add\n      dup3\n      dup1\n      sload\n      tag_110\n      swap1\n      tag_109\n      jump\t// in\n    tag_110:\n      dup1\n      iszero\n      tag_111\n      jumpi\n      dup1\n      0x1f\n      lt\n      tag_112\n      jumpi\n      0x0100\n      dup1\n      dup4\n      sload\n      div\n      mul\n      dup4\n      mstore\n      swap2\n      0x20\n      add\n      swap2\n      jump(tag_111)\n    tag_112:\n      dup3\n      add\n      swap2\n      swap1\n      0x00\n      mstore\n      keccak256(0x00, 0x20)\n      swap1\n    tag_113:\n      dup2\n      sload\n      dup2\n      mstore\n      swap1\n      0x01\n      add\n      swap1\n      0x20\n      add\n      dup1\n      dup4\n      gt\n      tag_113\n      jumpi\n      dup3\n      swap1\n      sub\n      0x1f\n      and\n      dup3\n      add\n      swap2\n    tag_111:\n      pop\n      pop\n      pop\n      pop\n      pop\n      dup2\n      jump\t// out\n        /* \"token.sol\":2749:2957  function approve(address spender, uint tokens) public returns (bool success) {... */\n    tag_37:\n        /* \"token.sol\":2812:2824  bool success */\n      0x00\n        /* \"token.sol\":2868:2874  tokens */\n      dup2\n        /* \"token.sol\":2837:2844  allowed */\n      0x05\n        /* \"token.sol\":2837:2856  allowed[msg.sender] */\n      0x00\n        /* \"token.sol\":2845:2855  msg.sender */\n      caller\n        /* \"token.sol\":2837:2856  allowed[msg.sender] */\n      0xffffffffffffffffffffffffffffffffffffffff\n      and\n      0xffffffffffffffffffffffffffffffffffffffff\n      and\n      dup2\n      mstore\n      0x20\n      add\n      swap1\n      dup2\n      mstore\n      0x20\n      add\n      0x00\n      keccak256\n        /* \"token.sol\":2837:2865  allowed[msg.sender][spender] */\n      0x00\n        /* \"token.sol\":2857:2864  spender */\n      dup6\n        /* \"token.sol\":2837:2865  allowed[msg.sender][spender] */\n      0xffffffffffffffffffffffffffffffffffffffff\n      and\n      0xffffffffffffffffffffffffffffffffffffffff\n      and\n      dup2\n      mstore\n      0x20\n      add\n      swap1\n      dup2\n      mstore\n      0x20\n      add\n      0x00\n      keccak256\n        /* \"token.sol\":2837:2874  allowed[msg.sender][spender] = tokens */\n      dup2\n      swap1\n      sstore\n      pop\n        /* \"token.sol\":2911:2918  spender */\n      dup3\n        /* \"token.sol\":2890:2927  Approval(msg.sender, spender, tokens) */\n      0xffffffffffffffffffffffffffffffffffffffff\n      and\n        /* \"token.sol\":2899:2909  msg.sender */\n      caller\n        /* \"token.sol\":2890:2927  Approval(msg.sender, spender, tokens) */\n      0xffffffffffffffffffffffffffffffffffffffff\n      and\n      0x8c5be1e5ebec7d5bd14f71427d1e84f3dd0314c0f7b2291e5b200ac8c7c3b925\n        /* \"token.sol\":2920:2926  tokens */\n      dup5\n        /* \"token.sol\":2890:2927  Approval(msg.sender, spender, tokens) */\n      mload(0x40)\n      tag_115\n      swap2\n      swap1\n      tag_44\n      jump\t// in\n    tag_115:\n      mload(0x40)\n      dup1\n      swap2\n      sub\n      swap1\n      log3\n        /* \"token.sol\":2945:2949  true */\n      0x01\n        /* \"token.sol\":2938:2949  return true */\n      swap1\n      pop\n        /* \"token.sol\":2749:2957  function approve(address spender, uint tokens) public returns (bool success) {... */\n      swap3\n      swap2\n      pop\n      pop\n      jump\t// out\n        /* \"token.sol\":2217:2328  function totalSupply() public view returns (uint) {... */\n    tag_42:\n        /* \"token.sol\":2261:2265  uint */\n      0x00\n        /* \"token.sol\":2300:2308  balances */\n      0x04\n        /* \"token.sol\":2300:2320  balances[address(0)] */\n      0x00\n        /* \"token.sol\":2317:2318  0 */\n      0x00\n        /* \"token.sol\":2300:2320  balances[address(0)] */\n      0xffffffffffffffffffffffffffffffffffffffff\n      and\n      0xffffffffffffffffffffffffffffffffffffffff\n      and\n      dup2\n      mstore\n      0x20\n      add\n      swap1\n      dup2\n      mstore\n      0x20\n      add\n      0x00\n      keccak256\n      sload\n        /* \"token.sol\":2285:2297  _totalSupply */\n      sload(0x03)\n        /* \"token.sol\":2285:2320  _totalSupply - balances[address(0)] */\n      tag_117\n      swap2\n      swap1\n      tag_118\n      jump\t// in\n    tag_117:\n        /* \"token.sol\":2278:2320  return _totalSupply - balances[address(0)] */\n      swap1\n      pop\n        /* \"token.sol\":2217:2328  function totalSupply() public view returns (uint) {... */\n      swap1\n      jump\t// out\n        /* \"token.sol\":2965:3323  function transferFrom(address from, address to, uint tokens) public returns (bool success) {... */\n    tag_49:\n        /* \"token.sol\":3042:3054  bool success */\n      0x00\n        /* \"token.sol\":3084:3115  safeSub(balances[from], tokens) */\n      tag_120\n        /* \"token.sol\":3092:3100  balances */\n      0x04\n        /* \"token.sol\":3092:3106  balances[from] */\n      0x00\n        /* \"token.sol\":3101:3105  from */\n      dup7\n        /* \"token.sol\":3092:3106  balances[from] */\n      0xffffffffffffffffffffffffffffffffffffffff\n      and\n      0xffffffffffffffffffffffffffffffffffffffff\n      and\n      dup2\n      mstore\n      0x20\n      add\n      swap1\n      dup2\n      mstore\n      0x20\n      add\n      0x00\n      keccak256\n      sload\n        /* \"token.sol\":3108:3114  tokens */\n      dup4\n        /* \"token.sol\":3084:3091  safeSub */\n      tag_74\n        /* \"token.sol\":3084:3115  safeSub(balances[from], tokens) */\n      jump\t// in\n    tag_120:\n        /* \"token.sol\":3067:3075  balances */\n      0x04\n        /* \"token.sol\":3067:3081  balances[from] */\n      0x00\n        /* \"token.sol\":3076:3080  from */\n      dup7\n        /* \"token.sol\":3067:3081  balances[from] */\n      0xffffffffffffffffffffffffffffffffffffffff\n      and\n      0xffffffffffffffffffffffffffffffffffffffff\n      and\n      dup2\n      mstore\n      0x20\n      add\n      swap1\n      dup2\n      mstore\n      0x20\n      add\n      0x00\n      keccak256\n        /* \"token.sol\":3067:3115  balances[from] = safeSub(balances[from], tokens) */\n      dup2\n      swap1\n      sstore\n      pop\n        /* \"token.sol\":3154:3196  safeSub(allowed[from][msg.sender], tokens) */\n      tag_121\n        /* \"token.sol\":3162:3169  allowed */\n      0x05\n        /* \"token.sol\":3162:3175  allowed[from] */\n      0x00\n        /* \"token.sol\":3170:3174  from */\n      dup7\n        /* \"token.sol\":3162:3175  allowed[from] */\n      0xffffffffffffffffffffffffffffffffffffffff\n      and\n      0xffffffffffffffffffffffffffffffffffffffff\n      and\n      dup2\n      mstore\n      0x20\n      add\n      swap1\n      dup2\n      mstore\n      0x20\n      add\n      0x00\n      keccak256\n        /* \"token.sol\":3162:3187  allowed[from][msg.sender] */\n      0x00\n        /* \"token.sol\":3176:3186  msg.sender */\n      caller\n        /* \"token.sol\":3162:3187  allowed[from][msg.sender] */\n      0xffffffffffffffffffffffffffffffffffffffff\n      and\n      0xffffffffffffffffffffffffffffffffffffffff\n      and\n      dup2\n      mstore\n      0x20\n      add\n      swap1\n      dup2\n      mstore\n      0x20\n      add\n      0x00\n      keccak256\n      sload\n        /* \"token.sol\":3189:3195  tokens */\n      dup4\n        /* \"token.sol\":3154:3161  safeSub */\n      tag_74\n        /* \"token.sol\":3154:3196  safeSub(allowed[from][msg.sender], tokens) */\n      jump\t// in\n    tag_121:\n        /* \"token.sol\":3126:3133  allowed */\n      0x05\n        /* \"token.sol\":3126:3139  allowed[from] */\n      0x00\n        /* \"token.sol\":3134:3138  from */\n      dup7\n        /* \"token.sol\":3126:3139  allowed[from] */\n      0xffffffffffffffffffffffffffffffffffffffff\n      and\n      0xffffffffffffffffffffffffffffffffffffffff\n      and\n      dup2\n      mstore\n      0x20\n      add\n      swap1\n      dup2\n      mstore\n      0x20\n      add\n      0x00\n      keccak256\n        /* \"token.sol\":3126:3151  allowed[from][msg.sender] */\n      0x00\n        /* \"token.sol\":3140:3150  msg.sender */\n      caller\n        /* \"token.sol\":3126:3151  allowed[from][msg.sender] */\n      0xffffffffffffffffffffffffffffffffffffffff\n      and\n      0xffffffffffffffffffffffffffffffffffffffff\n      and\n      dup2\n      mstore\n      0x20\n      add\n      swap1\n      dup2\n      mstore\n      0x20\n      add\n      0x00\n      keccak256\n        /* \"token.sol\":3126:3196  allowed[from][msg.sender] = safeSub(allowed[from][msg.sender], tokens) */\n      dup2\n      swap1\n      sstore\n      pop\n        /* \"token.sol\":3222:3251  safeAdd(balances[to], tokens) */\n      tag_122\n        /* \"token.sol\":3230:3238  balances */\n      0x04\n        /* \"token.sol\":3230:3242  balances[to] */\n      0x00\n        /* \"token.sol\":3239:3241  to */\n      dup6\n        /* \"token.sol\":3230:3242  balances[to] */\n      0xffffffffffffffffffffffffffffffffffffffff\n      and\n      0xffffffffffffffffffffffffffffffffffffffff\n      and\n      dup2\n      mstore\n      0x20\n      add\n      swap1\n      dup2\n      mstore\n      0x20\n      add\n      0x00\n      keccak256\n      sload\n        /* \"token.sol\":3244:3250  tokens */\n      dup4\n        /* \"token.sol\":3222:3229  safeAdd */\n      tag_106\n        /* \"token.sol\":3222:3251  safeAdd(balances[to], tokens) */\n      jump\t// in\n    tag_122:\n        /* \"token.sol\":3207:3215  balances */\n      0x04\n        /* \"token.sol\":3207:3219  balances[to] */\n      0x00\n        /* \"token.sol\":3216:3218  to */\n      dup6\n        /* \"token.sol\":3207:3219  balances[to] */\n      0xffffffffffffffffffffffffffffffffffffffff\n      and\n      0xffffffffffffffffffffffffffffffffffffffff\n      and\n      dup2\n      mstore\n      0x20\n      add\n      swap1\n      dup2\n      mstore\n      0x20\n      add\n      0x00\n      keccak256\n        /* \"token.sol\":3207:3251  balances[to] = safeAdd(balances[to], tokens) */\n      dup2\n      swap1\n      sstore\n      pop\n        /* \"token.sol\":3282:3284  to */\n      dup3\n        /* \"token.sol\":3267:3293  Transfer(from, to, tokens) */\n      0xffffffffffffffffffffffffffffffffffffffff\n      and\n        /* \"token.sol\":3276:3280  from */\n      dup5\n        /* \"token.sol\":3267:3293  Transfer(from, to, tokens) */\n      0xffffffffffffffffffffffffffffffffffffffff\n      and\n      0xddf252ad1be2c89b69c2b068fc378daa952ba7f163c4a11628f55a4df523b3ef\n        /* \"token.sol\":3286:3292  tokens */\n      dup5\n        /* \"token.sol\":3267:3293  Transfer(from, to, tokens) */\n      mload(0x40)\n      tag_123\n      swap2\n      swap1\n      tag_44\n      jump\t// in\n    tag_123:\n      mload(0x40)\n      dup1\n      swap2\n      sub\n      swap1\n      log3\n        /* \"token.sol\":3311:3315  true */\n      0x01\n        /* \"token.sol\":3304:3315  return true */\n      swap1\n      pop\n        /* \"token.sol\":2965:3323  function transferFrom(address from, address to, uint tokens) public returns (bool success) {... */\n      swap4\n      swap3\n      pop\n      pop\n      pop\n      jump\t// out\n        /* \"token.sol\":1713:1734  uint8 public decimals */\n    tag_53:\n      0x02\n      0x00\n      swap1\n      sload\n      swap1\n      0x0100\n      exp\n      swap1\n      div\n      0xff\n      and\n      dup2\n      jump\t// out\n        /* \"token.sol\":1741:1765  uint public _totalSupply */\n    tag_58:\n      sload(0x03)\n      dup2\n      jump\t// out\n        /* \"token.sol\":2336:2456  function balanceOf(address tokenOwner) public view returns (uint balance) {... */\n    tag_64:\n        /* \"token.sol\":2396:2408  uint balance */\n      0x00\n        /* \"token.sol\":2428:2436  balances */\n      0x04\n        /* \"token.sol\":2428:2448  balances[tokenOwner] */\n      0x00\n        /* \"token.sol\":2437:2447  tokenOwner */\n      dup4\n        /* \"token.sol\":2428:2448  balances[tokenOwner] */\n      0xffffffffffffffffffffffffffffffffffffffff\n      and\n      0xffffffffffffffffffffffffffffffffffffffff\n      and\n      dup2\n      mstore\n      0x20\n      add\n      swap1\n      dup2\n      mstore\n      0x20\n      add\n      0x00\n      keccak256\n      sload\n        /* \"token.sol\":2421:2448  return balances[tokenOwner] */\n      swap1\n      pop\n        /* \"token.sol\":2336:2456  function balanceOf(address tokenOwner) public view returns (uint balance) {... */\n      swap2\n      swap1\n      pop\n      jump\t// out\n        /* \"token.sol\":1661:1681  string public symbol */\n    tag_68:\n      0x00\n      dup1\n      sload\n      tag_125\n      swap1\n      tag_109\n      jump\t// in\n    tag_125:\n      dup1\n      0x1f\n      add\n      0x20\n      dup1\n      swap2\n      div\n      mul\n      0x20\n      add\n      mload(0x40)\n      swap1\n      dup2\n      add\n      0x40\n      mstore\n      dup1\n      swap3\n      swap2\n      swap1\n      dup2\n      dup2\n      mstore\n      0x20\n      add\n      dup3\n      dup1\n      sload\n      tag_126\n      swap1\n      tag_109\n      jump\t// in\n    tag_126:\n      dup1\n      iszero\n      tag_127\n      jumpi\n      dup1\n      0x1f\n      lt\n      tag_128\n      jumpi\n      0x0100\n      dup1\n      dup4\n      sload\n      div\n      mul\n      dup4\n      mstore\n      swap2\n      0x20\n      add\n      swap2\n      jump(tag_127)\n    tag_128:\n      dup3\n      add\n      swap2\n      swap1\n      0x00\n      mstore\n      keccak256(0x00, 0x20)\n      swap1\n    tag_129:\n      dup2\n      sload\n      dup2\n      mstore\n      swap1\n      0x01\n      add\n      swap1\n      0x20\n      add\n      dup1\n      dup4\n      gt\n      tag_129\n      jumpi\n      dup3\n      swap1\n      sub\n      0x1f\n      and\n      dup3\n      add\n      swap2\n    tag_127:\n      pop\n      pop\n      pop\n      pop\n      pop\n      dup2\n      jump\t// out\n        /* \"token.sol\":237:353  function safeSub(uint a, uint b) public pure returns (uint c) {... */\n    tag_74:\n        /* \"token.sol\":291:297  uint c */\n      0x00\n        /* \"token.sol\":323:324  a */\n      dup3\n        /* \"token.sol\":318:319  b */\n      dup3\n        /* \"token.sol\":318:324  b <= a */\n      gt\n      iszero\n        /* \"token.sol\":310:325  require(b <= a) */\n      tag_131\n      jumpi\n      revert(0x00, 0x00)\n    tag_131:\n        /* \"token.sol\":344:345  b */\n      dup2\n        /* \"token.sol\":340:341  a */\n      dup4\n        /* \"token.sol\":340:345  a - b */\n      tag_132\n      swap2\n      swap1\n      tag_118\n      jump\t// in\n    tag_132:\n        /* \"token.sol\":336:345  c = a - b */\n      swap1\n      pop\n        /* \"token.sol\":237:353  function safeSub(uint a, uint b) public pure returns (uint c) {... */\n      swap3\n      swap2\n      pop\n      pop\n      jump\t// out\n        /* \"token.sol\":2464:2741  function transfer(address to, uint tokens) public returns (bool success) {... */\n    tag_79:\n        /* \"token.sol\":2523:2535  bool success */\n      0x00\n        /* \"token.sol\":2571:2608  safeSub(balances[msg.sender], tokens) */\n      tag_134\n        /* \"token.sol\":2579:2587  balances */\n      0x04\n        /* \"token.sol\":2579:2599  balances[msg.sender] */\n      0x00\n        /* \"token.sol\":2588:2598  msg.sender */\n      caller\n        /* \"token.sol\":2579:2599  balances[msg.sender] */\n      0xffffffffffffffffffffffffffffffffffffffff\n      and\n      0xffffffffffffffffffffffffffffffffffffffff\n      and\n      dup2\n      mstore\n      0x20\n      add\n      swap1\n      dup2\n      mstore\n      0x20\n      add\n      0x00\n      keccak256\n      sload\n        /* \"token.sol\":2601:2607  tokens */\n      dup4\n        /* \"token.sol\":2571:2578  safeSub */\n      tag_74\n        /* \"token.sol\":2571:2608  safeSub(balances[msg.sender], tokens) */\n      jump\t// in\n    tag_134:\n        /* \"token.sol\":2548:2556  balances */\n      0x04\n        /* \"token.sol\":2548:2568  balances[msg.sender] */\n      0x00\n        /* \"token.sol\":2557:2567  msg.sender */\n      caller\n        /* \"token.sol\":2548:2568  balances[msg.sender] */\n      0xffffffffffffffffffffffffffffffffffffffff\n      and\n      0xffffffffffffffffffffffffffffffffffffffff\n      and\n      dup2\n      mstore\n      0x20\n      add\n      swap1\n      dup2\n      mstore\n      0x20\n      add\n      0x00\n      keccak256\n        /* \"token.sol\":2548:2608  balances[msg.sender] = safeSub(balances[msg.sender], tokens) */\n      dup2\n      swap1\n      sstore\n      pop\n        /* \"token.sol\":2634:2663  safeAdd(balances[to], tokens) */\n      tag_135\n        /* \"token.sol\":2642:2650  balances */\n      0x04\n        /* \"token.sol\":2642:2654  balances[to] */\n      0x00\n        /* \"token.sol\":2651:2653  to */\n      dup6\n        /* \"token.sol\":2642:2654  balances[to] */\n      0xffffffffffffffffffffffffffffffffffffffff\n      and\n      0xffffffffffffffffffffffffffffffffffffffff\n      and\n      dup2\n      mstore\n      0x20\n      add\n      swap1\n      dup2\n      mstore\n      0x20\n      add\n      0x00\n      keccak256\n      sload\n        /* \"token.sol\":2656:2662  tokens */\n      dup4\n        /* \"token.sol\":2634:2641  safeAdd */\n      tag_106\n        /* \"token.sol\":2634:2663  safeAdd(balances[to], tokens) */\n      jump\t// in\n    tag_135:\n        /* \"token.sol\":2619:2627  balances */\n      0x04\n        /* \"token.sol\":2619:2631  balances[to] */\n      0x00\n        /* \"token.sol\":2628:2630  to */\n      dup6\n        /* \"token.sol\":2619:2631  balances[to] */\n      0xffffffffffffffffffffffffffffffffffffffff\n      and\n      0xffffffffffffffffffffffffffffffffffffffff\n      and\n      dup2\n      mstore\n      0x20\n      add\n      swap1\n      dup2\n      mstore\n      0x20\n      add\n      0x00\n      keccak256\n        /* \"token.sol\":2619:2663  balances[to] = safeAdd(balances[to], tokens) */\n      dup2\n      swap1\n      sstore\n      pop\n        /* \"token.sol\":2700:2702  to */\n      dup3\n        /* \"token.sol\":2679:2711  Transfer(msg.sender, to, tokens) */\n      0xffffffffffffffffffffffffffffffffffffffff\n      and\n        /* \"token.sol\":2688:2698  msg.sender */\n      caller\n        /* \"token.sol\":2679:2711  Transfer(msg.sender, to, tokens) */\n      0xffffffffffffffffffffffffffffffffffffffff\n      and\n      0xddf252ad1be2c89b69c2b068fc378daa952ba7f163c4a11628f55a4df523b3ef\n        /* \"token.sol\":2704:2710  tokens */\n      dup5\n        /* \"token.sol\":2679:2711  Transfer(msg.sender, to, tokens) */\n      mload(0x40)\n      tag_136\n      swap2\n      swap1\n      tag_44\n      jump\t// in\n    tag_136:\n      mload(0x40)\n      dup1\n      swap2\n      sub\n      swap1\n      log3\n        /* \"token.sol\":2729:2733  true */\n      0x01\n        /* \"token.sol\":2722:2733  return true */\n      swap1\n      pop\n        /* \"token.sol\":2464:2741  function transfer(address to, uint tokens) public returns (bool success) {... */\n      swap3\n      swap2\n      pop\n      pop\n      jump\t// out\n        /* \"token.sol\":499:614  function safeDiv(uint a, uint b) public pure returns (uint c) {... */\n    tag_84:\n        /* \"token.sol\":553:559  uint c */\n      0x00\n        /* \"token.sol\":584:585  0 */\n      0x00\n        /* \"token.sol\":580:581  b */\n      dup3\n        /* \"token.sol\":580:585  b > 0 */\n      gt\n        /* \"token.sol\":572:586  require(b > 0) */\n      tag_138\n      jumpi\n      revert(0x00, 0x00)\n    tag_138:\n        /* \"token.sol\":605:606  b */\n      dup2\n        /* \"token.sol\":601:602  a */\n      dup4\n        /* \"token.sol\":601:606  a / b */\n      tag_139\n      swap2\n      swap1\n      tag_140\n      jump\t// in\n    tag_139:\n        /* \"token.sol\":597:606  c = a / b */\n      swap1\n      pop\n        /* \"token.sol\":499:614  function safeDiv(uint a, uint b) public pure returns (uint c) {... */\n      swap3\n      swap2\n      pop\n      pop\n      jump\t// out\n        /* \"token.sol\":3486:3819  function approveAndCall(address spender, uint tokens, bytes memory data) public returns (bool success) {... */\n    tag_90:\n        /* \"token.sol\":3575:3587  bool success */\n      0x00\n        /* \"token.sol\":3631:3637  tokens */\n      dup3\n        /* \"token.sol\":3600:3607  allowed */\n      0x05\n        /* \"token.sol\":3600:3619  allowed[msg.sender] */\n      0x00\n        /* \"token.sol\":3608:3618  msg.sender */\n      caller\n        /* \"token.sol\":3600:3619  allowed[msg.sender] */\n      0xffffffffffffffffffffffffffffffffffffffff\n      and\n      0xffffffffffffffffffffffffffffffffffffffff\n      and\n      dup2\n      mstore\n      0x20\n      add\n      swap1\n      dup2\n      mstore\n      0x20\n      add\n      0x00\n      keccak256\n        /* \"token.sol\":3600:3628  allowed[msg.sender][spender] */\n      0x00\n        /* \"token.sol\":3620:3627  spender */\n      dup7\n        /* \"token.sol\":3600:3628  allowed[msg.sender][spender] */\n      0xffffffffffffffffffffffffffffffffffffffff\n      and\n      0xffffffffffffffffffffffffffffffffffffffff\n      and\n      dup2\n      mstore\n      0x20\n      add\n      swap1\n      dup2\n      mstore\n      0x20\n      add\n      0x00\n      keccak256\n        /* \"token.sol\":3600:3637  allowed[msg.sender][spender] = tokens */\n      dup2\n      swap1\n      sstore\n      pop\n        /* \"token.sol\":3674:3681  spender */\n      dup4\n        /* \"token.sol\":3653:3690  Approval(msg.sender, spender, tokens) */\n      0xffffffffffffffffffffffffffffffffffffffff\n      and\n        /* \"token.sol\":3662:3672  msg.sender */\n      caller\n        /* \"token.sol\":3653:3690  Approval(msg.sender, spender, tokens) */\n      0xffffffffffffffffffffffffffffffffffffffff\n      and\n      0x8c5be1e5ebec7d5bd14f71427d1e84f3dd0314c0f7b2291e5b200ac8c7c3b925\n        /* \"token.sol\":3683:3689  tokens */\n      dup6\n        /* \"token.sol\":3653:3690  Approval(msg.sender, spender, tokens) */\n      mload(0x40)\n      tag_142\n      swap2\n      swap1\n      tag_44\n      jump\t// in\n    tag_142:\n      mload(0x40)\n      dup1\n      swap2\n      sub\n      swap1\n      log3\n        /* \"token.sol\":3724:3731  spender */\n      dup4\n        /* \"token.sol\":3701:3748  ApproveAndCallFallBack(spender).receiveApproval */\n      0xffffffffffffffffffffffffffffffffffffffff\n      and\n      0x8f4ffcb1\n        /* \"token.sol\":3749:3759  msg.sender */\n      caller\n        /* \"token.sol\":3761:3767  tokens */\n      dup6\n        /* \"token.sol\":3777:3781  this */\n      address\n        /* \"token.sol\":3784:3788  data */\n      dup7\n        /* \"token.sol\":3701:3789  ApproveAndCallFallBack(spender).receiveApproval(msg.sender, tokens, address(this), data) */\n      mload(0x40)\n      dup6\n      0xffffffff\n      and\n      0xe0\n      shl\n      dup2\n      mstore\n      0x04\n      add\n      tag_143\n      swap5\n      swap4\n      swap3\n      swap2\n      swap1\n      tag_144\n      jump\t// in\n    tag_143:\n      0x00\n      mload(0x40)\n      dup1\n      dup4\n      sub\n      dup2\n      0x00\n      dup8\n      dup1\n      extcodesize\n      iszero\n      dup1\n      iszero\n      tag_145\n      jumpi\n      revert(0x00, 0x00)\n    tag_145:\n      pop\n      gas\n      call\n      iszero\n      dup1\n      iszero\n      tag_147\n      jumpi\n      returndatacopy(0x00, 0x00, returndatasize)\n      revert(0x00, returndatasize)\n    tag_147:\n      pop\n      pop\n      pop\n      pop\n        /* \"token.sol\":3807:3811  true */\n      0x01\n        /* \"token.sol\":3800:3811  return true */\n      swap1\n      pop\n        /* \"token.sol\":3486:3819  function approveAndCall(address spender, uint tokens, bytes memory data) public returns (bool success) {... */\n      swap4\n      swap3\n      pop\n      pop\n      pop\n      jump\t// out\n        /* \"token.sol\":361:491  function safeMul(uint a, uint b) public pure returns (uint c) {... */\n    tag_95:\n        /* \"token.sol\":415:421  uint c */\n      0x00\n        /* \"token.sol\":442:443  b */\n      dup2\n        /* \"token.sol\":438:439  a */\n      dup4\n        /* \"token.sol\":438:443  a * b */\n      tag_149\n      swap2\n      swap1\n      tag_150\n      jump\t// in\n    tag_149:\n        /* \"token.sol\":434:443  c = a * b */\n      swap1\n      pop\n        /* \"token.sol\":467:468  0 */\n      0x00\n        /* \"token.sol\":462:463  a */\n      dup4\n        /* \"token.sol\":462:468  a == 0 */\n      eq\n        /* \"token.sol\":462:482  a == 0 || c / a == b */\n      dup1\n      tag_151\n      jumpi\n      pop\n        /* \"token.sol\":481:482  b */\n      dup2\n        /* \"token.sol\":476:477  a */\n      dup4\n        /* \"token.sol\":472:473  c */\n      dup3\n        /* \"token.sol\":472:477  c / a */\n      tag_152\n      swap2\n      swap1\n      tag_140\n      jump\t// in\n    tag_152:\n        /* \"token.sol\":472:482  c / a == b */\n      eq\n        /* \"token.sol\":462:482  a == 0 || c / a == b */\n    tag_151:\n        /* \"token.sol\":454:483  require(a == 0 || c / a == b) */\n      tag_153\n      jumpi\n      revert(0x00, 0x00)\n    tag_153:\n        /* \"token.sol\":361:491  function safeMul(uint a, uint b) public pure returns (uint c) {... */\n      swap3\n      swap2\n      pop\n      pop\n      jump\t// out\n        /* \"token.sol\":3331:3478  function allowance(address tokenOwner, address spender) public view returns (uint remaining) {... */\n    tag_101:\n        /* \"token.sol\":3408:3422  uint remaining */\n      0x00\n        /* \"token.sol\":3442:3449  allowed */\n      0x05\n        /* \"token.sol\":3442:3461  allowed[tokenOwner] */\n      0x00\n        /* \"token.sol\":3450:3460  tokenOwner */\n      dup5\n        /* \"token.sol\":3442:3461  allowed[tokenOwner] */\n      0xffffffffffffffffffffffffffffffffffffffff\n      and\n      0xffffffffffffffffffffffffffffffffffffffff\n      and\n      dup2\n      mstore\n      0x20\n      add\n      swap1\n      dup2\n      mstore\n      0x20\n      add\n      0x00\n      keccak256\n        /* \"token.sol\":3442:3470  allowed[tokenOwner][spender] */\n      0x00\n        /* \"token.sol\":3462:3469  spender */\n      dup4\n        /* \"token.sol\":3442:3470  allowed[tokenOwner][spender] */\n      0xffffffffffffffffffffffffffffffffffffffff\n      and\n      0xffffffffffffffffffffffffffffffffffffffff\n      and\n      dup2\n      mstore\n      0x20\n      add\n      swap1\n      dup2\n      mstore\n      0x20\n      add\n      0x00\n      keccak256\n      sload\n        /* \"token.sol\":3435:3470  return allowed[tokenOwner][spender] */\n      swap1\n      pop\n        /* \"token.sol\":3331:3478  function allowance(address tokenOwner, address spender) public view returns (uint remaining) {... */\n      swap3\n      swap2\n      pop\n      pop\n      jump\t// out\n        /* \"token.sol\":113:229  function safeAdd(uint a, uint b) public pure returns (uint c) {... */\n    tag_106:\n        /* \"token.sol\":167:173  uint c */\n      0x00\n        /* \"token.sol\":194:195  b */\n      dup2\n        /* \"token.sol\":190:191  a */\n      dup4\n        /* \"token.sol\":190:195  a + b */\n      tag_156\n      swap2\n      swap1\n      tag_157\n      jump\t// in\n    tag_156:\n        /* \"token.sol\":186:195  c = a + b */\n      swap1\n      pop\n        /* \"token.sol\":219:220  a */\n      dup3\n        /* \"token.sol\":214:215  c */\n      dup2\n        /* \"token.sol\":214:220  c >= a */\n      lt\n      iszero\n        /* \"token.sol\":206:221  require(c >= a) */\n      tag_158\n      jumpi\n      revert(0x00, 0x00)\n    tag_158:\n        /* \"token.sol\":113:229  function safeAdd(uint a, uint b) public pure returns (uint c) {... */\n      swap3\n      swap2\n      pop\n      pop\n      jump\t// out\n        /* \"#utility.yul\":7:176   */\n    tag_159:\n        /* \"#utility.yul\":91:102   */\n      0x00\n        /* \"#utility.yul\":125:131   */\n      dup3\n        /* \"#utility.yul\":120:123   */\n      dup3\n        /* \"#utility.yul\":113:132   */\n      mstore\n        /* \"#utility.yul\":165:169   */\n      0x20\n        /* \"#utility.yul\":160:163   */\n      dup3\n        /* \"#utility.yul\":156:170   */\n      add\n        /* \"#utility.yul\":141:170   */\n      swap1\n      pop\n        /* \"#utility.yul\":7:176   */\n      swap3\n      swap2\n      pop\n      pop\n      jump\t// out\n        /* \"#utility.yul\":182:350   */\n    tag_160:\n        /* \"#utility.yul\":322:342   */\n      0x4574686572206e6f742061636365707465640000000000000000000000000000\n        /* \"#utility.yul\":318:319   */\n      0x00\n        /* \"#utility.yul\":310:316   */\n      dup3\n        /* \"#utility.yul\":306:320   */\n      add\n        /* \"#utility.yul\":299:343   */\n      mstore\n        /* \"#utility.yul\":182:350   */\n      pop\n      jump\t// out\n        /* \"#utility.yul\":356:722   */\n    tag_161:\n        /* \"#utility.yul\":498:501   */\n      0x00\n        /* \"#utility.yul\":519:586   */\n      tag_201\n        /* \"#utility.yul\":583:585   */\n      0x12\n        /* \"#utility.yul\":578:581   */\n      dup4\n        /* \"#utility.yul\":519:586   */\n      tag_159\n      jump\t// in\n    tag_201:\n        /* \"#utility.yul\":512:586   */\n      swap2\n      pop\n        /* \"#utility.yul\":595:688   */\n      tag_202\n        /* \"#utility.yul\":684:687   */\n      dup3\n        /* \"#utility.yul\":595:688   */\n      tag_160\n      jump\t// in\n    tag_202:\n        /* \"#utility.yul\":713:715   */\n      0x20\n        /* \"#utility.yul\":708:711   */\n      dup3\n        /* \"#utility.yul\":704:716   */\n      add\n        /* \"#utility.yul\":697:716   */\n      swap1\n      pop\n        /* \"#utility.yul\":356:722   */\n      swap2\n      swap1\n      pop\n      jump\t// out\n        /* \"#utility.yul\":728:1147   */\n    tag_24:\n        /* \"#utility.yul\":894:898   */\n      0x00\n        /* \"#utility.yul\":932:934   */\n      0x20\n        /* \"#utility.yul\":921:930   */\n      dup3\n        /* \"#utility.yul\":917:935   */\n      add\n        /* \"#utility.yul\":909:935   */\n      swap1\n      pop\n        /* \"#utility.yul\":981:990   */\n      dup2\n        /* \"#utility.yul\":975:979   */\n      dup2\n        /* \"#utility.yul\":971:991   */\n      sub\n        /* \"#utility.yul\":967:968   */\n      0x00\n        /* \"#utility.yul\":956:965   */\n      dup4\n        /* \"#utility.yul\":952:969   */\n      add\n        /* \"#utility.yul\":945:992   */\n      mstore\n        /* \"#utility.yul\":1009:1140   */\n      tag_204\n        /* \"#utility.yul\":1135:1139   */\n      dup2\n        /* \"#utility.yul\":1009:1140   */\n      tag_161\n      jump\t// in\n    tag_204:\n        /* \"#utility.yul\":1001:1140   */\n      swap1\n      pop\n        /* \"#utility.yul\":728:1147   */\n      swap2\n      swap1\n      pop\n      jump\t// out\n        /* \"#utility.yul\":1153:1252   */\n    tag_162:\n        /* \"#utility.yul\":1205:1211   */\n      0x00\n        /* \"#utility.yul\":1239:1244   */\n      dup2\n        /* \"#utility.yul\":1233:1245   */\n      mload\n        /* \"#utility.yul\":1223:1245   */\n      swap1\n      pop\n        /* \"#utility.yul\":1153:1252   */\n      swap2\n      swap1\n      pop\n      jump\t// out\n        /* \"#utility.yul\":1258:1397   */\n    tag_163:\n        /* \"#utility.yul\":1347:1353   */\n      dup3\n        /* \"#utility.yul\":1342:1345   */\n      dup2\n        /* \"#utility.yul\":1337:1340   */\n      dup4\n        /* \"#utility.yul\":1331:1354   */\n      mcopy\n        /* \"#utility.yul\":1388:1389   */\n      0x00\n        /* \"#utility.yul\":1379:1385   */\n      dup4\n        /* \"#utility.yul\":1374:1377   */\n      dup4\n        /* \"#utility.yul\":1370:1386   */\n      add\n        /* \"#utility.yul\":1363:1390   */\n      mstore\n        /* \"#utility.yul\":1258:1397   */\n      pop\n      pop\n      pop\n      jump\t// out\n        /* \"#utility.yul\":1403:1505   */\n    tag_164:\n        /* \"#utility.yul\":1444:1450   */\n      0x00\n        /* \"#utility.yul\":1495:1497   */\n      0x1f\n        /* \"#utility.yul\":1491:1498   */\n      not\n        /* \"#utility.yul\":1486:1488   */\n      0x1f\n        /* \"#utility.yul\":1479:1484   */\n      dup4\n        /* \"#utility.yul\":1475:1489   */\n      add\n        /* \"#utility.yul\":1471:1499   */\n      and\n        /* \"#utility.yul\":1461:1499   */\n      swap1\n      pop\n        /* \"#utility.yul\":1403:1505   */\n      swap2\n      swap1\n      pop\n      jump\t// out\n        /* \"#utility.yul\":1511:1888   */\n    tag_165:\n        /* \"#utility.yul\":1599:1602   */\n      0x00\n        /* \"#utility.yul\":1627:1666   */\n      tag_209\n        /* \"#utility.yul\":1660:1665   */\n      dup3\n        /* \"#utility.yul\":1627:1666   */\n      tag_162\n      jump\t// in\n    tag_209:\n        /* \"#utility.yul\":1682:1753   */\n      tag_210\n        /* \"#utility.yul\":1746:1752   */\n      dup2\n        /* \"#utility.yul\":1741:1744   */\n      dup6\n        /* \"#utility.yul\":1682:1753   */\n      tag_159\n      jump\t// in\n    tag_210:\n        /* \"#utility.yul\":1675:1753   */\n      swap4\n      pop\n        /* \"#utility.yul\":1762:1827   */\n      tag_211\n        /* \"#utility.yul\":1820:1826   */\n      dup2\n        /* \"#utility.yul\":1815:1818   */\n      dup6\n        /* \"#utility.yul\":1808:1812   */\n      0x20\n        /* \"#utility.yul\":1801:1806   */\n      dup7\n        /* \"#utility.yul\":1797:1813   */\n      add\n        /* \"#utility.yul\":1762:1827   */\n      tag_163\n      jump\t// in\n    tag_211:\n        /* \"#utility.yul\":1852:1881   */\n      tag_212\n        /* \"#utility.yul\":1874:1880   */\n      dup2\n        /* \"#utility.yul\":1852:1881   */\n      tag_164\n      jump\t// in\n    tag_212:\n        /* \"#utility.yul\":1847:1850   */\n      dup5\n        /* \"#utility.yul\":1843:1882   */\n      add\n        /* \"#utility.yul\":1836:1882   */\n      swap2\n      pop\n        /* \"#utility.yul\":1603:1888   */\n      pop\n        /* \"#utility.yul\":1511:1888   */\n      swap3\n      swap2\n      pop\n      pop\n      jump\t// out\n        /* \"#utility.yul\":1894:2207   */\n    tag_32:\n        /* \"#utility.yul\":2007:2011   */\n      0x00\n        /* \"#utility.yul\":2045:2047   */\n      0x20\n        /* \"#utility.yul\":2034:2043   */\n      dup3\n        /* \"#utility.yul\":2030:2048   */\n      add\n        /* \"#utility.yul\":2022:2048   */\n      swap1\n      pop\n        /* \"#utility.yul\":2094:2103   */\n      dup2\n        /* \"#utility.yul\":2088:2092   */\n      dup2\n        /* \"#utility.yul\":2084:2104   */\n      sub\n        /* \"#utility.yul\":2080:2081   */\n      0x00\n        /* \"#utility.yul\":2069:2078   */\n      dup4\n        /* \"#utility.yul\":2065:2082   */\n      add\n        /* \"#utility.yul\":2058:2105   */\n      mstore\n        /* \"#utility.yul\":2122:2200   */\n      tag_214\n        /* \"#utility.yul\":2195:2199   */\n      dup2\n        /* \"#utility.yul\":2186:2192   */\n      dup5\n        /* \"#utility.yul\":2122:2200   */\n      tag_165\n      jump\t// in\n    tag_214:\n        /* \"#utility.yul\":2114:2200   */\n      swap1\n      pop\n        /* \"#utility.yul\":1894:2207   */\n      swap3\n      swap2\n      pop\n      pop\n      jump\t// out\n        /* \"#utility.yul\":2213:2288   */\n    tag_166:\n        /* \"#utility.yul\":2246:2252   */\n      0x00\n        /* \"#utility.yul\":2279:2281   */\n      0x40\n        /* \"#utility.yul\":2273:2282   */\n      mload\n        /* \"#utility.yul\":2263:2282   */\n      swap1\n      pop\n        /* \"#utility.yul\":2213:2288   */\n      swap1\n      jump\t// out\n        /* \"#utility.yul\":2294:2411   */\n    tag_167:\n        /* \"#utility.yul\":2403:2404   */\n      0x00\n        /* \"#utility.yul\":2400:2401   */\n      0x00\n        /* \"#utility.yul\":2393:2405   */\n      revert\n        /* \"#utility.yul\":2417:2534   */\n    tag_168:\n        /* \"#utility.yul\":2526:2527   */\n      0x00\n        /* \"#utility.yul\":2523:2524   */\n      0x00\n        /* \"#utility.yul\":2516:2528   */\n      revert\n        /* \"#utility.yul\":2540:2666   */\n    tag_169:\n        /* \"#utility.yul\":2577:2584   */\n      0x00\n        /* \"#utility.yul\":2617:2659   */\n      0xffffffffffffffffffffffffffffffffffffffff\n        /* \"#utility.yul\":2610:2615   */\n      dup3\n        /* \"#utility.yul\":2606:2660   */\n      and\n        /* \"#utility.yul\":2595:2660   */\n      swap1\n      pop\n        /* \"#utility.yul\":2540:2666   */\n      swap2\n      swap1\n      pop\n      jump\t// out\n        /* \"#utility.yul\":2672:2768   */\n    tag_170:\n        /* \"#utility.yul\":2709:2716   */\n      0x00\n        /* \"#utility.yul\":2738:2762   */\n      tag_220\n        /* \"#utility.yul\":2756:2761   */\n      dup3\n        /* \"#utility.yul\":2738:2762   */\n      tag_169\n      jump\t// in\n    tag_220:\n        /* \"#utility.yul\":2727:2762   */\n      swap1\n      pop\n        /* \"#utility.yul\":2672:2768   */\n      swap2\n      swap1\n      pop\n      jump\t// out\n        /* \"#utility.yul\":2774:2896   */\n    tag_171:\n        /* \"#utility.yul\":2847:2871   */\n      tag_222\n        /* \"#utility.yul\":2865:2870   */\n      dup2\n        /* \"#utility.yul\":2847:2871   */\n      tag_170\n      jump\t// in\n    tag_222:\n        /* \"#utility.yul\":2840:2845   */\n      dup2\n        /* \"#utility.yul\":2837:2872   */\n      eq\n        /* \"#utility.yul\":2827:2890   */\n      tag_223\n      jumpi\n        /* \"#utility.yul\":2886:2887   */\n      0x00\n        /* \"#utility.yul\":2883:2884   */\n      0x00\n        /* \"#utility.yul\":2876:2888   */\n      revert\n        /* \"#utility.yul\":2827:2890   */\n    tag_223:\n        /* \"#utility.yul\":2774:2896   */\n      pop\n      jump\t// out\n        /* \"#utility.yul\":2902:3041   */\n    tag_172:\n        /* \"#utility.yul\":2948:2953   */\n      0x00\n        /* \"#utility.yul\":2986:2992   */\n      dup2\n        /* \"#utility.yul\":2973:2993   */\n      calldataload\n        /* \"#utility.yul\":2964:2993   */\n      swap1\n      pop\n        /* \"#utility.yul\":3002:3035   */\n      tag_225\n        /* \"#utility.yul\":3029:3034   */\n      dup2\n        /* \"#utility.yul\":3002:3035   */\n      tag_171\n      jump\t// in\n    tag_225:\n        /* \"#utility.yul\":2902:3041   */\n      swap3\n      swap2\n      pop\n      pop\n      jump\t// out\n        /* \"#utility.yul\":3047:3124   */\n    tag_173:\n        /* \"#utility.yul\":3084:3091   */\n      0x00\n        /* \"#utility.yul\":3113:3118   */\n      dup2\n        /* \"#utility.yul\":3102:3118   */\n      swap1\n      pop\n        /* \"#utility.yul\":3047:3124   */\n      swap2\n      swap1\n      pop\n      jump\t// out\n        /* \"#utility.yul\":3130:3252   */\n    tag_174:\n        /* \"#utility.yul\":3203:3227   */\n      tag_228\n        /* \"#utility.yul\":3221:3226   */\n      dup2\n        /* \"#utility.yul\":3203:3227   */\n      tag_173\n      jump\t// in\n    tag_228:\n        /* \"#utility.yul\":3196:3201   */\n      dup2\n        /* \"#utility.yul\":3193:3228   */\n      eq\n        /* \"#utility.yul\":3183:3246   */\n      tag_229\n      jumpi\n        /* \"#utility.yul\":3242:3243   */\n      0x00\n        /* \"#utility.yul\":3239:3240   */\n      0x00\n        /* \"#utility.yul\":3232:3244   */\n      revert\n        /* \"#utility.yul\":3183:3246   */\n    tag_229:\n        /* \"#utility.yul\":3130:3252   */\n      pop\n      jump\t// out\n        /* \"#utility.yul\":3258:3397   */\n    tag_175:\n        /* \"#utility.yul\":3304:3309   */\n      0x00\n        /* \"#utility.yul\":3342:3348   */\n      dup2\n        /* \"#utility.yul\":3329:3349   */\n      calldataload\n        /* \"#utility.yul\":3320:3349   */\n      swap1\n      pop\n        /* \"#utility.yul\":3358:3391   */\n      tag_231\n        /* \"#utility.yul\":3385:3390   */\n      dup2\n        /* \"#utility.yul\":3358:3391   */\n      tag_174\n      jump\t// in\n    tag_231:\n        /* \"#utility.yul\":3258:3397   */\n      swap3\n      swap2\n      pop\n      pop\n      jump\t// out\n        /* \"#utility.yul\":3403:3877   */\n    tag_36:\n        /* \"#utility.yul\":3471:3477   */\n      0x00\n        /* \"#utility.yul\":3479:3485   */\n      0x00\n        /* \"#utility.yul\":3528:3530   */\n      0x40\n        /* \"#utility.yul\":3516:3525   */\n      dup4\n        /* \"#utility.yul\":3507:3514   */\n      dup6\n        /* \"#utility.yul\":3503:3526   */\n      sub\n        /* \"#utility.yul\":3499:3531   */\n      slt\n        /* \"#utility.yul\":3496:3615   */\n      iszero\n      tag_233\n      jumpi\n        /* \"#utility.yul\":3534:3613   */\n      tag_234\n      tag_167\n      jump\t// in\n    tag_234:\n        /* \"#utility.yul\":3496:3615   */\n    tag_233:\n        /* \"#utility.yul\":3654:3655   */\n      0x00\n        /* \"#utility.yul\":3679:3732   */\n      tag_235\n        /* \"#utility.yul\":3724:3731   */\n      dup6\n        /* \"#utility.yul\":3715:3721   */\n      dup3\n        /* \"#utility.yul\":3704:3713   */\n      dup7\n        /* \"#utility.yul\":3700:3722   */\n      add\n        /* \"#utility.yul\":3679:3732   */\n      tag_172\n      jump\t// in\n    tag_235:\n        /* \"#utility.yul\":3669:3732   */\n      swap3\n      pop\n        /* \"#utility.yul\":3625:3742   */\n      pop\n        /* \"#utility.yul\":3781:3783   */\n      0x20\n        /* \"#utility.yul\":3807:3860   */\n      tag_236\n        /* \"#utility.yul\":3852:3859   */\n      dup6\n        /* \"#utility.yul\":3843:3849   */\n      dup3\n        /* \"#utility.yul\":3832:3841   */\n      dup7\n        /* \"#utility.yul\":3828:3850   */\n      add\n        /* \"#utility.yul\":3807:3860   */\n      tag_175\n      jump\t// in\n    tag_236:\n        /* \"#utility.yul\":3797:3860   */\n      swap2\n      pop\n        /* \"#utility.yul\":3752:3870   */\n      pop\n        /* \"#utility.yul\":3403:3877   */\n      swap3\n      pop\n      swap3\n      swap1\n      pop\n      jump\t// out\n        /* \"#utility.yul\":3883:3973   */\n    tag_176:\n        /* \"#utility.yul\":3917:3924   */\n      0x00\n        /* \"#utility.yul\":3960:3965   */\n      dup2\n        /* \"#utility.yul\":3953:3966   */\n      iszero\n        /* \"#utility.yul\":3946:3967   */\n      iszero\n        /* \"#utility.yul\":3935:3967   */\n      swap1\n      pop\n        /* \"#utility.yul\":3883:3973   */\n      swap2\n      swap1\n      pop\n      jump\t// out\n        /* \"#utility.yul\":3979:4088   */\n    tag_177:\n        /* \"#utility.yul\":4060:4081   */\n      tag_239\n        /* \"#utility.yul\":4075:4080   */\n      dup2\n        /* \"#utility.yul\":4060:4081   */\n      tag_176\n      jump\t// in\n    tag_239:\n        /* \"#utility.yul\":4055:4058   */\n      dup3\n        /* \"#utility.yul\":4048:4082   */\n      mstore\n        /* \"#utility.yul\":3979:4088   */\n      pop\n      pop\n      jump\t// out\n        /* \"#utility.yul\":4094:4304   */\n    tag_39:\n        /* \"#utility.yul\":4181:4185   */\n      0x00\n        /* \"#utility.yul\":4219:4221   */\n      0x20\n        /* \"#utility.yul\":4208:4217   */\n      dup3\n        /* \"#utility.yul\":4204:4222   */\n      add\n        /* \"#utility.yul\":4196:4222   */\n      swap1\n      pop\n        /* \"#utility.yul\":4232:4297   */\n      tag_241\n        /* \"#utility.yul\":4294:4295   */\n      0x00\n        /* \"#utility.yul\":4283:4292   */\n      dup4\n        /* \"#utility.yul\":4279:4296   */\n      add\n        /* \"#utility.yul\":4270:4276   */\n      dup5\n        /* \"#utility.yul\":4232:4297   */\n      tag_177\n      jump\t// in\n    tag_241:\n        /* \"#utility.yul\":4094:4304   */\n      swap3\n      swap2\n      pop\n      pop\n      jump\t// out\n        /* \"#utility.yul\":4310:4428   */\n    tag_178:\n        /* \"#utility.yul\":4397:4421   */\n      tag_243\n        /* \"#utility.yul\":4415:4420   */\n      dup2\n        /* \"#utility.yul\":4397:4421   */\n      tag_173\n      jump\t// in\n    tag_243:\n        /* \"#utility.yul\":4392:4395   */\n      dup3\n        /* \"#utility.yul\":4385:4422   */\n      mstore\n        /* \"#utility.yul\":4310:4428   */\n      pop\n      pop\n      jump\t// out\n        /* \"#utility.yul\":4434:4656   */\n    tag_44:\n        /* \"#utility.yul\":4527:4531   */\n      0x00\n        /* \"#utility.yul\":4565:4567   */\n      0x20\n        /* \"#utility.yul\":4554:4563   */\n      dup3\n        /* \"#utility.yul\":4550:4568   */\n      add\n        /* \"#utility.yul\":4542:4568   */\n      swap1\n      pop\n        /* \"#utility.yul\":4578:4649   */\n      tag_245\n        /* \"#utility.yul\":4646:4647   */\n      0x00\n        /* \"#utility.yul\":4635:4644   */\n      dup4\n        /* \"#utility.yul\":4631:4648   */\n      add\n        /* \"#utility.yul\":4622:4628   */\n      dup5\n        /* \"#utility.yul\":4578:4649   */\n      tag_178\n      jump\t// in\n    tag_245:\n        /* \"#utility.yul\":4434:4656   */\n      swap3\n      swap2\n      pop\n      pop\n      jump\t// out\n        /* \"#utility.yul\":4662:5281   */\n    tag_48:\n        /* \"#utility.yul\":4739:4745   */\n      0x00\n        /* \"#utility.yul\":4747:4753   */\n      0x00\n        /* \"#utility.yul\":4755:4761   */\n      0x00\n        /* \"#utility.yul\":4804:4806   */\n      0x60\n        /* \"#utility.yul\":4792:4801   */\n      dup5\n        /* \"#utility.yul\":4783:4790   */\n      dup7\n        /* \"#utility.yul\":4779:4802   */\n      sub\n        /* \"#utility.yul\":4775:4807   */\n      slt\n        /* \"#utility.yul\":4772:4891   */\n      iszero\n      tag_247\n      jumpi\n        /* \"#utility.yul\":4810:4889   */\n      tag_248\n      tag_167\n      jump\t// in\n    tag_248:\n        /* \"#utility.yul\":4772:4891   */\n    tag_247:\n        /* \"#utility.yul\":4930:4931   */\n      0x00\n        /* \"#utility.yul\":4955:5008   */\n      tag_249\n        /* \"#utility.yul\":5000:5007   */\n      dup7\n        /* \"#utility.yul\":4991:4997   */\n      dup3\n        /* \"#utility.yul\":4980:4989   */\n      dup8\n        /* \"#utility.yul\":4976:4998   */\n      add\n        /* \"#utility.yul\":4955:5008   */\n      tag_172\n      jump\t// in\n    tag_249:\n        /* \"#utility.yul\":4945:5008   */\n      swap4\n      pop\n        /* \"#utility.yul\":4901:5018   */\n      pop\n        /* \"#utility.yul\":5057:5059   */\n      0x20\n        /* \"#utility.yul\":5083:5136   */\n      tag_250\n        /* \"#utility.yul\":5128:5135   */\n      dup7\n        /* \"#utility.yul\":5119:5125   */\n      dup3\n        /* \"#utility.yul\":5108:5117   */\n      dup8\n        /* \"#utility.yul\":5104:5126   */\n      add\n        /* \"#utility.yul\":5083:5136   */\n      tag_172\n      jump\t// in\n    tag_250:\n        /* \"#utility.yul\":5073:5136   */\n      swap3\n      pop\n        /* \"#utility.yul\":5028:5146   */\n      pop\n        /* \"#utility.yul\":5185:5187   */\n      0x40\n        /* \"#utility.yul\":5211:5264   */\n      tag_251\n        /* \"#utility.yul\":5256:5263   */\n      dup7\n        /* \"#utility.yul\":5247:5253   */\n      dup3\n        /* \"#utility.yul\":5236:5245   */\n      dup8\n        /* \"#utility.yul\":5232:5254   */\n      add\n        /* \"#utility.yul\":5211:5264   */\n      tag_175\n      jump\t// in\n    tag_251:\n        /* \"#utility.yul\":5201:5264   */\n      swap2\n      pop\n        /* \"#utility.yul\":5156:5274   */\n      pop\n        /* \"#utility.yul\":4662:5281   */\n      swap3\n      pop\n      swap3\n      pop\n      swap3\n      jump\t// out\n        /* \"#utility.yul\":5287:5373   */\n    tag_179:\n        /* \"#utility.yul\":5322:5329   */\n      0x00\n        /* \"#utility.yul\":5362:5366   */\n      0xff\n        /* \"#utility.yul\":5355:5360   */\n      dup3\n        /* \"#utility.yul\":5351:5367   */\n      and\n        /* \"#utility.yul\":5340:5367   */\n      swap1\n      pop\n        /* \"#utility.yul\":5287:5373   */\n      swap2\n      swap1\n      pop\n      jump\t// out\n        /* \"#utility.yul\":5379:5491   */\n    tag_180:\n        /* \"#utility.yul\":5462:5484   */\n      tag_254\n        /* \"#utility.yul\":5478:5483   */\n      dup2\n        /* \"#utility.yul\":5462:5484   */\n      tag_179\n      jump\t// in\n    tag_254:\n        /* \"#utility.yul\":5457:5460   */\n      dup3\n        /* \"#utility.yul\":5450:5485   */\n      mstore\n        /* \"#utility.yul\":5379:5491   */\n      pop\n      pop\n      jump\t// out\n        /* \"#utility.yul\":5497:5711   */\n    tag_55:\n        /* \"#utility.yul\":5586:5590   */\n      0x00\n        /* \"#utility.yul\":5624:5626   */\n      0x20\n        /* \"#utility.yul\":5613:5622   */\n      dup3\n        /* \"#utility.yul\":5609:5627   */\n      add\n        /* \"#utility.yul\":5601:5627   */\n      swap1\n      pop\n        /* \"#utility.yul\":5637:5704   */\n      tag_256\n        /* \"#utility.yul\":5701:5702   */\n      0x00\n        /* \"#utility.yul\":5690:5699   */\n      dup4\n        /* \"#utility.yul\":5686:5703   */\n      add\n        /* \"#utility.yul\":5677:5683   */\n      dup5\n        /* \"#utility.yul\":5637:5704   */\n      tag_180\n      jump\t// in\n    tag_256:\n        /* \"#utility.yul\":5497:5711   */\n      swap3\n      swap2\n      pop\n      pop\n      jump\t// out\n        /* \"#utility.yul\":5717:6046   */\n    tag_63:\n        /* \"#utility.yul\":5776:5782   */\n      0x00\n        /* \"#utility.yul\":5825:5827   */\n      0x20\n        /* \"#utility.yul\":5813:5822   */\n      dup3\n        /* \"#utility.yul\":5804:5811   */\n      dup5\n        /* \"#utility.yul\":5800:5823   */\n      sub\n        /* \"#utility.yul\":5796:5828   */\n      slt\n        /* \"#utility.yul\":5793:5912   */\n      iszero\n      tag_258\n      jumpi\n        /* \"#utility.yul\":5831:5910   */\n      tag_259\n      tag_167\n      jump\t// in\n    tag_259:\n        /* \"#utility.yul\":5793:5912   */\n    tag_258:\n        /* \"#utility.yul\":5951:5952   */\n      0x00\n        /* \"#utility.yul\":5976:6029   */\n      tag_260\n        /* \"#utility.yul\":6021:6028   */\n      dup5\n        /* \"#utility.yul\":6012:6018   */\n      dup3\n        /* \"#utility.yul\":6001:6010   */\n      dup6\n        /* \"#utility.yul\":5997:6019   */\n      add\n        /* \"#utility.yul\":5976:6029   */\n      tag_172\n      jump\t// in\n    tag_260:\n        /* \"#utility.yul\":5966:6029   */\n      swap2\n      pop\n        /* \"#utility.yul\":5922:6039   */\n      pop\n        /* \"#utility.yul\":5717:6046   */\n      swap3\n      swap2\n      pop\n      pop\n      jump\t// out\n        /* \"#utility.yul\":6052:6526   */\n    tag_73:\n        /* \"#utility.yul\":6120:6126   */\n      0x00\n        /* \"#utility.yul\":6128:6134   */\n      0x00\n        /* \"#utility.yul\":6177:6179   */\n      0x40\n        /* \"#utility.yul\":6165:6174   */\n      dup4\n        /* \"#utility.yul\":6156:6163   */\n      dup6\n        /* \"#utility.yul\":6152:6175   */\n      sub\n        /* \"#utility.yul\":6148:6180   */\n      slt\n        /* \"#utility.yul\":6145:6264   */\n      iszero\n      tag_262\n      jumpi\n        /* \"#utility.yul\":6183:6262   */\n      tag_263\n      tag_167\n      jump\t// in\n    tag_263:\n        /* \"#utility.yul\":6145:6264   */\n    tag_262:\n        /* \"#utility.yul\":6303:6304   */\n      0x00\n        /* \"#utility.yul\":6328:6381   */\n      tag_264\n        /* \"#utility.yul\":6373:6380   */\n      dup6\n        /* \"#utility.yul\":6364:6370   */\n      dup3\n        /* \"#utility.yul\":6353:6362   */\n      dup7\n        /* \"#utility.yul\":6349:6371   */\n      add\n        /* \"#utility.yul\":6328:6381   */\n      tag_175\n      jump\t// in\n    tag_264:\n        /* \"#utility.yul\":6318:6381   */\n      swap3\n      pop\n        /* \"#utility.yul\":6274:6391   */\n      pop\n        /* \"#utility.yul\":6430:6432   */\n      0x20\n        /* \"#utility.yul\":6456:6509   */\n      tag_265\n        /* \"#utility.yul\":6501:6508   */\n      dup6\n        /* \"#utility.yul\":6492:6498   */\n      dup3\n        /* \"#utility.yul\":6481:6490   */\n      dup7\n        /* \"#utility.yul\":6477:6499   */\n      add\n        /* \"#utility.yul\":6456:6509   */\n      tag_175\n      jump\t// in\n    tag_265:\n        /* \"#utility.yul\":6446:6509   */\n      swap2\n      pop\n        /* \"#utility.yul\":6401:6519   */\n      pop\n        /* \"#utility.yul\":6052:6526   */\n      swap3\n      pop\n      swap3\n      swap1\n      pop\n      jump\t// out\n        /* \"#utility.yul\":6532:6649   */\n    tag_181:\n        /* \"#utility.yul\":6641:6642   */\n      0x00\n        /* \"#utility.yul\":6638:6639   */\n      0x00\n        /* \"#utility.yul\":6631:6643   */\n      revert\n        /* \"#utility.yul\":6655:6772   */\n    tag_182:\n        /* \"#utility.yul\":6764:6765   */\n      0x00\n        /* \"#utility.yul\":6761:6762   */\n      0x00\n        /* \"#utility.yul\":6754:6766   */\n      revert\n        /* \"#utility.yul\":6778:6958   */\n    tag_183:\n        /* \"#utility.yul\":6826:6903   */\n      0x4e487b7100000000000000000000000000000000000000000000000000000000\n        /* \"#utility.yul\":6823:6824   */\n      0x00\n        /* \"#utility.yul\":6816:6904   */\n      mstore\n        /* \"#utility.yul\":6923:6927   */\n      0x41\n        /* \"#utility.yul\":6920:6921   */\n      0x04\n        /* \"#utility.yul\":6913:6928   */\n      mstore\n        /* \"#utility.yul\":6947:6951   */\n      0x24\n        /* \"#utility.yul\":6944:6945   */\n      0x00\n        /* \"#utility.yul\":6937:6952   */\n      revert\n        /* \"#utility.yul\":6964:7245   */\n    tag_184:\n        /* \"#utility.yul\":7047:7074   */\n      tag_270\n        /* \"#utility.yul\":7069:7073   */\n      dup3\n        /* \"#utility.yul\":7047:7074   */\n      tag_164\n      jump\t// in\n    tag_270:\n        /* \"#utility.yul\":7039:7045   */\n      dup2\n        /* \"#utility.yul\":7035:7075   */\n      add\n        /* \"#utility.yul\":7177:7183   */\n      dup2\n        /* \"#utility.yul\":7165:7175   */\n      dup2\n        /* \"#utility.yul\":7162:7184   */\n      lt\n        /* \"#utility.yul\":7141:7159   */\n      0xffffffffffffffff\n        /* \"#utility.yul\":7129:7139   */\n      dup3\n        /* \"#utility.yul\":7126:7160   */\n      gt\n        /* \"#utility.yul\":7123:7185   */\n      or\n        /* \"#utility.yul\":7120:7208   */\n      iszero\n      tag_271\n      jumpi\n        /* \"#utility.yul\":7188:7206   */\n      tag_272\n      tag_183\n      jump\t// in\n    tag_272:\n        /* \"#utility.yul\":7120:7208   */\n    tag_271:\n        /* \"#utility.yul\":7228:7238   */\n      dup1\n        /* \"#utility.yul\":7224:7226   */\n      0x40\n        /* \"#utility.yul\":7217:7239   */\n      mstore\n        /* \"#utility.yul\":7007:7245   */\n      pop\n        /* \"#utility.yul\":6964:7245   */\n      pop\n      pop\n      jump\t// out\n        /* \"#utility.yul\":7251:7380   */\n    tag_185:\n        /* \"#utility.yul\":7285:7291   */\n      0x00\n        /* \"#utility.yul\":7312:7332   */\n      tag_274\n      tag_166\n      jump\t// in\n    tag_274:\n        /* \"#utility.yul\":7302:7332   */\n      swap1\n      pop\n        /* \"#utility.yul\":7341:7374   */\n      tag_275\n        /* \"#utility.yul\":7369:7373   */\n      dup3\n        /* \"#utility.yul\":7361:7367   */\n      dup3\n        /* \"#utility.yul\":7341:7374   */\n      tag_184\n      jump\t// in\n    tag_275:\n        /* \"#utility.yul\":7251:7380   */\n      swap2\n      swap1\n      pop\n      jump\t// out\n        /* \"#utility.yul\":7386:7693   */\n    tag_186:\n        /* \"#utility.yul\":7447:7451   */\n      0x00\n        /* \"#utility.yul\":7537:7555   */\n      0xffffffffffffffff\n        /* \"#utility.yul\":7529:7535   */\n      dup3\n        /* \"#utility.yul\":7526:7556   */\n      gt\n        /* \"#utility.yul\":7523:7579   */\n      iszero\n      tag_277\n      jumpi\n        /* \"#utility.yul\":7559:7577   */\n      tag_278\n      tag_183\n      jump\t// in\n    tag_278:\n        /* \"#utility.yul\":7523:7579   */\n    tag_277:\n        /* \"#utility.yul\":7597:7626   */\n      tag_279\n        /* \"#utility.yul\":7619:7625   */\n      dup3\n        /* \"#utility.yul\":7597:7626   */\n      tag_164\n      jump\t// in\n    tag_279:\n        /* \"#utility.yul\":7589:7626   */\n      swap1\n      pop\n        /* \"#utility.yul\":7681:7685   */\n      0x20\n        /* \"#utility.yul\":7675:7679   */\n      dup2\n        /* \"#utility.yul\":7671:7686   */\n      add\n        /* \"#utility.yul\":7663:7686   */\n      swap1\n      pop\n        /* \"#utility.yul\":7386:7693   */\n      swap2\n      swap1\n      pop\n      jump\t// out\n        /* \"#utility.yul\":7699:7847   */\n    tag_187:\n        /* \"#utility.yul\":7797:7803   */\n      dup3\n        /* \"#utility.yul\":7792:7795   */\n      dup2\n        /* \"#utility.yul\":7787:7790   */\n      dup4\n        /* \"#utility.yul\":7774:7804   */\n      calldatacopy\n        /* \"#utility.yul\":7838:7839   */\n      0x00\n        /* \"#utility.yul\":7829:7835   */\n      dup4\n        /* \"#utility.yul\":7824:7827   */\n      dup4\n        /* \"#utility.yul\":7820:7836   */\n      add\n        /* \"#utility.yul\":7813:7840   */\n      mstore\n        /* \"#utility.yul\":7699:7847   */\n      pop\n      pop\n      pop\n      jump\t// out\n        /* \"#utility.yul\":7853:8276   */\n    tag_188:\n        /* \"#utility.yul\":7930:7935   */\n      0x00\n        /* \"#utility.yul\":7955:8020   */\n      tag_282\n        /* \"#utility.yul\":7971:8019   */\n      tag_283\n        /* \"#utility.yul\":8012:8018   */\n      dup5\n        /* \"#utility.yul\":7971:8019   */\n      tag_186\n      jump\t// in\n    tag_283:\n        /* \"#utility.yul\":7955:8020   */\n      tag_185\n      jump\t// in\n    tag_282:\n        /* \"#utility.yul\":7946:8020   */\n      swap1\n      pop\n        /* \"#utility.yul\":8043:8049   */\n      dup3\n        /* \"#utility.yul\":8036:8041   */\n      dup2\n        /* \"#utility.yul\":8029:8050   */\n      mstore\n        /* \"#utility.yul\":8081:8085   */\n      0x20\n        /* \"#utility.yul\":8074:8079   */\n      dup2\n        /* \"#utility.yul\":8070:8086   */\n      add\n        /* \"#utility.yul\":8119:8122   */\n      dup5\n        /* \"#utility.yul\":8110:8116   */\n      dup5\n        /* \"#utility.yul\":8105:8108   */\n      dup5\n        /* \"#utility.yul\":8101:8117   */\n      add\n        /* \"#utility.yul\":8098:8123   */\n      gt\n        /* \"#utility.yul\":8095:8207   */\n      iszero\n      tag_284\n      jumpi\n        /* \"#utility.yul\":8126:8205   */\n      tag_285\n      tag_182\n      jump\t// in\n    tag_285:\n        /* \"#utility.yul\":8095:8207   */\n    tag_284:\n        /* \"#utility.yul\":8216:8270   */\n      tag_286\n        /* \"#utility.yul\":8263:8269   */\n      dup5\n        /* \"#utility.yul\":8258:8261   */\n      dup3\n        /* \"#utility.yul\":8253:8256   */\n      dup6\n        /* \"#utility.yul\":8216:8270   */\n      tag_187\n      jump\t// in\n    tag_286:\n        /* \"#utility.yul\":7936:8276   */\n      pop\n        /* \"#utility.yul\":7853:8276   */\n      swap4\n      swap3\n      pop\n      pop\n      pop\n      jump\t// out\n        /* \"#utility.yul\":8295:8633   */\n    tag_189:\n        /* \"#utility.yul\":8350:8355   */\n      0x00\n        /* \"#utility.yul\":8399:8402   */\n      dup3\n        /* \"#utility.yul\":8392:8396   */\n      0x1f\n        /* \"#utility.yul\":8384:8390   */\n      dup4\n        /* \"#utility.yul\":8380:8397   */\n      add\n        /* \"#utility.yul\":8376:8403   */\n      slt\n        /* \"#utility.yul\":8366:8488   */\n      tag_288\n      jumpi\n        /* \"#utility.yul\":8407:8486   */\n      tag_289\n      tag_181\n      jump\t// in\n    tag_289:\n        /* \"#utility.yul\":8366:8488   */\n    tag_288:\n        /* \"#utility.yul\":8524:8530   */\n      dup2\n        /* \"#utility.yul\":8511:8531   */\n      calldataload\n        /* \"#utility.yul\":8549:8627   */\n      tag_290\n        /* \"#utility.yul\":8623:8626   */\n      dup5\n        /* \"#utility.yul\":8615:8621   */\n      dup3\n        /* \"#utility.yul\":8608:8612   */\n      0x20\n        /* \"#utility.yul\":8600:8606   */\n      dup7\n        /* \"#utility.yul\":8596:8613   */\n      add\n        /* \"#utility.yul\":8549:8627   */\n      tag_188\n      jump\t// in\n    tag_290:\n        /* \"#utility.yul\":8540:8627   */\n      swap2\n      pop\n        /* \"#utility.yul\":8356:8633   */\n      pop\n        /* \"#utility.yul\":8295:8633   */\n      swap3\n      swap2\n      pop\n      pop\n      jump\t// out\n        /* \"#utility.yul\":8639:9436   */\n    tag_89:\n        /* \"#utility.yul\":8725:8731   */\n      0x00\n        /* \"#utility.yul\":8733:8739   */\n      0x00\n        /* \"#utility.yul\":8741:8747   */\n      0x00\n        /* \"#utility.yul\":8790:8792   */\n      0x60\n        /* \"#utility.yul\":8778:8787   */\n      dup5\n        /* \"#utility.yul\":8769:8776   */\n      dup7\n        /* \"#utility.yul\":8765:8788   */\n      sub\n        /* \"#utility.yul\":8761:8793   */\n      slt\n        /* \"#utility.yul\":8758:8877   */\n      iszero\n      tag_292\n      jumpi\n        /* \"#utility.yul\":8796:8875   */\n      tag_293\n      tag_167\n      jump\t// in\n    tag_293:\n        /* \"#utility.yul\":8758:8877   */\n    tag_292:\n        /* \"#utility.yul\":8916:8917   */\n      0x00\n        /* \"#utility.yul\":8941:8994   */\n      tag_294\n        /* \"#utility.yul\":8986:8993   */\n      dup7\n        /* \"#utility.yul\":8977:8983   */\n      dup3\n        /* \"#utility.yul\":8966:8975   */\n      dup8\n        /* \"#utility.yul\":8962:8984   */\n      add\n        /* \"#utility.yul\":8941:8994   */\n      tag_172\n      jump\t// in\n    tag_294:\n        /* \"#utility.yul\":8931:8994   */\n      swap4\n      pop\n        /* \"#utility.yul\":8887:9004   */\n      pop\n        /* \"#utility.yul\":9043:9045   */\n      0x20\n        /* \"#utility.yul\":9069:9122   */\n      tag_295\n        /* \"#utility.yul\":9114:9121   */\n      dup7\n        /* \"#utility.yul\":9105:9111   */\n      dup3\n        /* \"#utility.yul\":9094:9103   */\n      dup8\n        /* \"#utility.yul\":9090:9112   */\n      add\n        /* \"#utility.yul\":9069:9122   */\n      tag_175\n      jump\t// in\n    tag_295:\n        /* \"#utility.yul\":9059:9122   */\n      swap3\n      pop\n        /* \"#utility.yul\":9014:9132   */\n      pop\n        /* \"#utility.yul\":9199:9201   */\n      0x40\n        /* \"#utility.yul\":9188:9197   */\n      dup5\n        /* \"#utility.yul\":9184:9202   */\n      add\n        /* \"#utility.yul\":9171:9203   */\n      calldataload\n        /* \"#utility.yul\":9230:9248   */\n      0xffffffffffffffff\n        /* \"#utility.yul\":9222:9228   */\n      dup2\n        /* \"#utility.yul\":9219:9249   */\n      gt\n        /* \"#utility.yul\":9216:9333   */\n      iszero\n      tag_296\n      jumpi\n        /* \"#utility.yul\":9252:9331   */\n      tag_297\n      tag_168\n      jump\t// in\n    tag_297:\n        /* \"#utility.yul\":9216:9333   */\n    tag_296:\n        /* \"#utility.yul\":9357:9419   */\n      tag_298\n        /* \"#utility.yul\":9411:9418   */\n      dup7\n        /* \"#utility.yul\":9402:9408   */\n      dup3\n        /* \"#utility.yul\":9391:9400   */\n      dup8\n        /* \"#utility.yul\":9387:9409   */\n      add\n        /* \"#utility.yul\":9357:9419   */\n      tag_189\n      jump\t// in\n    tag_298:\n        /* \"#utility.yul\":9347:9419   */\n      swap2\n      pop\n        /* \"#utility.yul\":9142:9429   */\n      pop\n        /* \"#utility.yul\":8639:9436   */\n      swap3\n      pop\n      swap3\n      pop\n      swap3\n      jump\t// out\n        /* \"#utility.yul\":9442:9916   */\n    tag_100:\n        /* \"#utility.yul\":9510:9516   */\n      0x00\n        /* \"#utility.yul\":9518:9524   */\n      0x00\n        /* \"#utility.yul\":9567:9569   */\n      0x40\n        /* \"#utility.yul\":9555:9564   */\n      dup4\n        /* \"#utility.yul\":9546:9553   */\n      dup6\n        /* \"#utility.yul\":9542:9565   */\n      sub\n        /* \"#utility.yul\":9538:9570   */\n      slt\n        /* \"#utility.yul\":9535:9654   */\n      iszero\n      tag_300\n      jumpi\n        /* \"#utility.yul\":9573:9652   */\n      tag_301\n      tag_167\n      jump\t// in\n    tag_301:\n        /* \"#utility.yul\":9535:9654   */\n    tag_300:\n        /* \"#utility.yul\":9693:9694   */\n      0x00\n        /* \"#utility.yul\":9718:9771   */\n      tag_302\n        /* \"#utility.yul\":9763:9770   */\n      dup6\n        /* \"#utility.yul\":9754:9760   */\n      dup3\n        /* \"#utility.yul\":9743:9752   */\n      dup7\n        /* \"#utility.yul\":9739:9761   */\n      add\n        /* \"#utility.yul\":9718:9771   */\n      tag_172\n      jump\t// in\n    tag_302:\n        /* \"#utility.yul\":9708:9771   */\n      swap3\n      pop\n        /* \"#utility.yul\":9664:9781   */\n      pop\n        /* \"#utility.yul\":9820:9822   */\n      0x20\n        /* \"#utility.yul\":9846:9899   */\n      tag_303\n        /* \"#utility.yul\":9891:9898   */\n      dup6\n        /* \"#utility.yul\":9882:9888   */\n      dup3\n        /* \"#utility.yul\":9871:9880   */\n      dup7\n        /* \"#utility.yul\":9867:9889   */\n      add\n        /* \"#utility.yul\":9846:9899   */\n      tag_172\n      jump\t// in\n    tag_303:\n        /* \"#utility.yul\":9836:9899   */\n      swap2\n      pop\n        /* \"#utility.yul\":9791:9909   */\n      pop\n        /* \"#utility.yul\":9442:9916   */\n      swap3\n      pop\n      swap3\n      swap1\n      pop\n      jump\t// out\n        /* \"#utility.yul\":9922:10102   */\n    tag_190:\n        /* \"#utility.yul\":9970:10047   */\n      0x4e487b7100000000000000000000000000000000000000000000000000000000\n        /* \"#utility.yul\":9967:9968   */\n      0x00\n        /* \"#utility.yul\":9960:10048   */\n      mstore\n        /* \"#utility.yul\":10067:10071   */\n      0x22\n        /* \"#utility.yul\":10064:10065   */\n      0x04\n        /* \"#utility.yul\":10057:10072   */\n      mstore\n        /* \"#utility.yul\":10091:10095   */\n      0x24\n        /* \"#utility.yul\":10088:10089   */\n      0x00\n        /* \"#utility.yul\":10081:10096   */\n      revert\n        /* \"#utility.yul\":10108:10428   */\n    tag_109:\n        /* \"#utility.yul\":10152:10158   */\n      0x00\n        /* \"#utility.yul\":10189:10190   */\n      0x02\n        /* \"#utility.yul\":10183:10187   */\n      dup3\n        /* \"#utility.yul\":10179:10191   */\n      div\n        /* \"#utility.yul\":10169:10191   */\n      swap1\n      pop\n        /* \"#utility.yul\":10236:10237   */\n      0x01\n        /* \"#utility.yul\":10230:10234   */\n      dup3\n        /* \"#utility.yul\":10226:10238   */\n      and\n        /* \"#utility.yul\":10257:10275   */\n      dup1\n        /* \"#utility.yul\":10247:10328   */\n      tag_306\n      jumpi\n        /* \"#utility.yul\":10313:10317   */\n      0x7f\n        /* \"#utility.yul\":10305:10311   */\n      dup3\n        /* \"#utility.yul\":10301:10318   */\n      and\n        /* \"#utility.yul\":10291:10318   */\n      swap2\n      pop\n        /* \"#utility.yul\":10247:10328   */\n    tag_306:\n        /* \"#utility.yul\":10375:10377   */\n      0x20\n        /* \"#utility.yul\":10367:10373   */\n      dup3\n        /* \"#utility.yul\":10364:10378   */\n      lt\n        /* \"#utility.yul\":10344:10362   */\n      dup2\n        /* \"#utility.yul\":10341:10379   */\n      sub\n        /* \"#utility.yul\":10338:10422   */\n      tag_307\n      jumpi\n        /* \"#utility.yul\":10394:10412   */\n      tag_308\n      tag_190\n      jump\t// in\n    tag_308:\n        /* \"#utility.yul\":10338:10422   */\n    tag_307:\n        /* \"#utility.yul\":10159:10428   */\n      pop\n        /* \"#utility.yul\":10108:10428   */\n      swap2\n      swap1\n      pop\n      jump\t// out\n        /* \"#utility.yul\":10434:10614   */\n    tag_191:\n        /* \"#utility.yul\":10482:10559   */\n      0x4e487b7100000000000000000000000000000000000000000000000000000000\n        /* \"#utility.yul\":10479:10480   */\n      0x00\n        /* \"#utility.yul\":10472:10560   */\n      mstore\n        /* \"#utility.yul\":10579:10583   */\n      0x11\n        /* \"#utility.yul\":10576:10577   */\n      0x04\n        /* \"#utility.yul\":10569:10584   */\n      mstore\n        /* \"#utility.yul\":10603:10607   */\n      0x24\n        /* \"#utility.yul\":10600:10601   */\n      0x00\n        /* \"#utility.yul\":10593:10608   */\n      revert\n        /* \"#utility.yul\":10620:10814   */\n    tag_118:\n        /* \"#utility.yul\":10660:10664   */\n      0x00\n        /* \"#utility.yul\":10680:10700   */\n      tag_311\n        /* \"#utility.yul\":10698:10699   */\n      dup3\n        /* \"#utility.yul\":10680:10700   */\n      tag_173\n      jump\t// in\n    tag_311:\n        /* \"#utility.yul\":10675:10700   */\n      swap2\n      pop\n        /* \"#utility.yul\":10714:10734   */\n      tag_312\n        /* \"#utility.yul\":10732:10733   */\n      dup4\n        /* \"#utility.yul\":10714:10734   */\n      tag_173\n      jump\t// in\n    tag_312:\n        /* \"#utility.yul\":10709:10734   */\n      swap3\n      pop\n        /* \"#utility.yul\":10758:10759   */\n      dup3\n        /* \"#utility.yul\":10755:10756   */\n      dup3\n        /* \"#utility.yul\":10751:10760   */\n      sub\n        /* \"#utility.yul\":10743:10760   */\n      swap1\n      pop\n        /* \"#utility.yul\":10782:10783   */\n      dup2\n        /* \"#utility.yul\":10776:10780   */\n      dup2\n        /* \"#utility.yul\":10773:10784   */\n      gt\n        /* \"#utility.yul\":10770:10807   */\n      iszero\n      tag_313\n      jumpi\n        /* \"#utility.yul\":10787:10805   */\n      tag_314\n      tag_191\n      jump\t// in\n    tag_314:\n        /* \"#utility.yul\":10770:10807   */\n    tag_313:\n        /* \"#utility.yul\":10620:10814   */\n      swap3\n      swap2\n      pop\n      pop\n      jump\t// out\n        /* \"#utility.yul\":10820:11000   */\n    tag_192:\n        /* \"#utility.yul\":10868:10945   */\n      0x4e487b7100000000000000000000000000000000000000000000000000000000\n        /* \"#utility.yul\":10865:10866   */\n      0x00\n        /* \"#utility.yul\":10858:10946   */\n      mstore\n        /* \"#utility.yul\":10965:10969   */\n      0x12\n        /* \"#utility.yul\":10962:10963   */\n      0x04\n        /* \"#utility.yul\":10955:10970   */\n      mstore\n        /* \"#utility.yul\":10989:10993   */\n      0x24\n        /* \"#utility.yul\":10986:10987   */\n      0x00\n        /* \"#utility.yul\":10979:10994   */\n      revert\n        /* \"#utility.yul\":11006:11191   */\n    tag_140:\n        /* \"#utility.yul\":11046:11047   */\n      0x00\n        /* \"#utility.yul\":11063:11083   */\n      tag_317\n        /* \"#utility.yul\":11081:11082   */\n      dup3\n        /* \"#utility.yul\":11063:11083   */\n      tag_173\n      jump\t// in\n    tag_317:\n        /* \"#utility.yul\":11058:11083   */\n      swap2\n      pop\n        /* \"#utility.yul\":11097:11117   */\n      tag_318\n        /* \"#utility.yul\":11115:11116   */\n      dup4\n        /* \"#utility.yul\":11097:11117   */\n      tag_173\n      jump\t// in\n    tag_318:\n        /* \"#utility.yul\":11092:11117   */\n      swap3\n      pop\n        /* \"#utility.yul\":11136:11137   */\n      dup3\n        /* \"#utility.yul\":11126:11161   */\n      tag_319\n      jumpi\n        /* \"#utility.yul\":11141:11159   */\n      tag_320\n      tag_192\n      jump\t// in\n    tag_320:\n        /* \"#utility.yul\":11126:11161   */\n    tag_319:\n        /* \"#utility.yul\":11183:11184   */\n      dup3\n        /* \"#utility.yul\":11180:11181   */\n      dup3\n        /* \"#utility.yul\":11176:11185   */\n      div\n        /* \"#utility.yul\":11171:11185   */\n      swap1\n      pop\n        /* \"#utility.yul\":11006:11191   */\n      swap3\n      swap2\n      pop\n      pop\n      jump\t// out\n        /* \"#utility.yul\":11197:11315   */\n    tag_193:\n        /* \"#utility.yul\":11284:11308   */\n      tag_322\n        /* \"#utility.yul\":11302:11307   */\n      dup2\n        /* \"#utility.yul\":11284:11308   */\n      tag_170\n      jump\t// in\n    tag_322:\n        /* \"#utility.yul\":11279:11282   */\n      dup3\n        /* \"#utility.yul\":11272:11309   */\n      mstore\n        /* \"#utility.yul\":11197:11315   */\n      pop\n      pop\n      jump\t// out\n        /* \"#utility.yul\":11321:11419   */\n    tag_194:\n        /* \"#utility.yul\":11372:11378   */\n      0x00\n        /* \"#utility.yul\":11406:11411   */\n      dup2\n        /* \"#utility.yul\":11400:11412   */\n      mload\n        /* \"#utility.yul\":11390:11412   */\n      swap1\n      pop\n        /* \"#utility.yul\":11321:11419   */\n      swap2\n      swap1\n      pop\n      jump\t// out\n        /* \"#utility.yul\":11425:11593   */\n    tag_195:\n        /* \"#utility.yul\":11508:11519   */\n      0x00\n        /* \"#utility.yul\":11542:11548   */\n      dup3\n        /* \"#utility.yul\":11537:11540   */\n      dup3\n        /* \"#utility.yul\":11530:11549   */\n      mstore\n        /* \"#utility.yul\":11582:11586   */\n      0x20\n        /* \"#utility.yul\":11577:11580   */\n      dup3\n        /* \"#utility.yul\":11573:11587   */\n      add\n        /* \"#utility.yul\":11558:11587   */\n      swap1\n      pop\n        /* \"#utility.yul\":11425:11593   */\n      swap3\n      swap2\n      pop\n      pop\n      jump\t// out\n        /* \"#utility.yul\":11599:11972   */\n    tag_196:\n        /* \"#utility.yul\":11685:11688   */\n      0x00\n        /* \"#utility.yul\":11713:11751   */\n      tag_326\n        /* \"#utility.yul\":11745:11750   */\n      dup3\n        /* \"#utility.yul\":11713:11751   */\n      tag_194\n      jump\t// in\n    tag_326:\n        /* \"#utility.yul\":11767:11837   */\n      tag_327\n        /* \"#utility.yul\":11830:11836   */\n      dup2\n        /* \"#utility.yul\":11825:11828   */\n      dup6\n        /* \"#utility.yul\":11767:11837   */\n      tag_195\n      jump\t// in\n    tag_327:\n        /* \"#utility.yul\":11760:11837   */\n      swap4\n      pop\n        /* \"#utility.yul\":11846:11911   */\n      tag_328\n        /* \"#utility.yul\":11904:11910   */\n      dup2\n        /* \"#utility.yul\":11899:11902   */\n      dup6\n        /* \"#utility.yul\":11892:11896   */\n      0x20\n        /* \"#utility.yul\":11885:11890   */\n      dup7\n        /* \"#utility.yul\":11881:11897   */\n      add\n        /* \"#utility.yul\":11846:11911   */\n      tag_163\n      jump\t// in\n    tag_328:\n        /* \"#utility.yul\":11936:11965   */\n      tag_329\n        /* \"#utility.yul\":11958:11964   */\n      dup2\n        /* \"#utility.yul\":11936:11965   */\n      tag_164\n      jump\t// in\n    tag_329:\n        /* \"#utility.yul\":11931:11934   */\n      dup5\n        /* \"#utility.yul\":11927:11966   */\n      add\n        /* \"#utility.yul\":11920:11966   */\n      swap2\n      pop\n        /* \"#utility.yul\":11689:11972   */\n      pop\n        /* \"#utility.yul\":11599:11972   */\n      swap3\n      swap2\n      pop\n      pop\n      jump\t// out\n        /* \"#utility.yul\":11978:12618   */\n    tag_144:\n        /* \"#utility.yul\":12173:12177   */\n      0x00\n        /* \"#utility.yul\":12211:12214   */\n      0x80\n        /* \"#utility.yul\":12200:12209   */\n      dup3\n        /* \"#utility.yul\":12196:12215   */\n      add\n        /* \"#utility.yul\":12188:12215   */\n      swap1\n      pop\n        /* \"#utility.yul\":12225:12296   */\n      tag_331\n        /* \"#utility.yul\":12293:12294   */\n      0x00\n        /* \"#utility.yul\":12282:12291   */\n      dup4\n        /* \"#utility.yul\":12278:12295   */\n      add\n        /* \"#utility.yul\":12269:12275   */\n      dup8\n        /* \"#utility.yul\":12225:12296   */\n      tag_193\n      jump\t// in\n    tag_331:\n        /* \"#utility.yul\":12306:12378   */\n      tag_332\n        /* \"#utility.yul\":12374:12376   */\n      0x20\n        /* \"#utility.yul\":12363:12372   */\n      dup4\n        /* \"#utility.yul\":12359:12377   */\n      add\n        /* \"#utility.yul\":12350:12356   */\n      dup7\n        /* \"#utility.yul\":12306:12378   */\n      tag_178\n      jump\t// in\n    tag_332:\n        /* \"#utility.yul\":12388:12460   */\n      tag_333\n        /* \"#utility.yul\":12456:12458   */\n      0x40\n        /* \"#utility.yul\":12445:12454   */\n      dup4\n        /* \"#utility.yul\":12441:12459   */\n      add\n        /* \"#utility.yul\":12432:12438   */\n      dup6\n        /* \"#utility.yul\":12388:12460   */\n      tag_193\n      jump\t// in\n    tag_333:\n        /* \"#utility.yul\":12507:12516   */\n      dup2\n        /* \"#utility.yul\":12501:12505   */\n      dup2\n        /* \"#utility.yul\":12497:12517   */\n      sub\n        /* \"#utility.yul\":12492:12494   */\n      0x60\n        /* \"#utility.yul\":12481:12490   */\n      dup4\n        /* \"#utility.yul\":12477:12495   */\n      add\n        /* \"#utility.yul\":12470:12518   */\n      mstore\n        /* \"#utility.yul\":12535:12611   */\n      tag_334\n        /* \"#utility.yul\":12606:12610   */\n      dup2\n        /* \"#utility.yul\":12597:12603   */\n      dup5\n        /* \"#utility.yul\":12535:12611   */\n      tag_196\n      jump\t// in\n    tag_334:\n        /* \"#utility.yul\":12527:12611   */\n      swap1\n      pop\n        /* \"#utility.yul\":11978:12618   */\n      swap6\n      swap5\n      pop\n      pop\n      pop\n      pop\n      pop\n      jump\t// out\n        /* \"#utility.yul\":12624:13034   */\n    tag_150:\n        /* \"#utility.yul\":12664:12671   */\n      0x00\n        /* \"#utility.yul\":12687:12707   */\n      tag_336\n        /* \"#utility.yul\":12705:12706   */\n      dup3\n        /* \"#utility.yul\":12687:12707   */\n      tag_173\n      jump\t// in\n    tag_336:\n        /* \"#utility.yul\":12682:12707   */\n      swap2\n      pop\n        /* \"#utility.yul\":12721:12741   */\n      tag_337\n        /* \"#utility.yul\":12739:12740   */\n      dup4\n        /* \"#utility.yul\":12721:12741   */\n      tag_173\n      jump\t// in\n    tag_337:\n        /* \"#utility.yul\":12716:12741   */\n      swap3\n      pop\n        /* \"#utility.yul\":12776:12777   */\n      dup3\n        /* \"#utility.yul\":12773:12774   */\n      dup3\n        /* \"#utility.yul\":12769:12778   */\n      mul\n        /* \"#utility.yul\":12798:12828   */\n      tag_338\n        /* \"#utility.yul\":12816:12827   */\n      dup2\n        /* \"#utility.yul\":12798:12828   */\n      tag_173\n      jump\t// in\n    tag_338:\n        /* \"#utility.yul\":12787:12828   */\n      swap2\n      pop\n        /* \"#utility.yul\":12977:12978   */\n      dup3\n        /* \"#utility.yul\":12968:12975   */\n      dup3\n        /* \"#utility.yul\":12964:12979   */\n      div\n        /* \"#utility.yul\":12961:12962   */\n      dup5\n        /* \"#utility.yul\":12958:12980   */\n      eq\n        /* \"#utility.yul\":12938:12939   */\n      dup4\n        /* \"#utility.yul\":12931:12940   */\n      iszero\n        /* \"#utility.yul\":12911:12994   */\n      or\n        /* \"#utility.yul\":12888:13027   */\n      tag_339\n      jumpi\n        /* \"#utility.yul\":13007:13025   */\n      tag_340\n      tag_191\n      jump\t// in\n    tag_340:\n        /* \"#utility.yul\":12888:13027   */\n    tag_339:\n        /* \"#utility.yul\":12672:13034   */\n      pop\n        /* \"#utility.yul\":12624:13034   */\n      swap3\n      swap2\n      pop\n      pop\n      jump\t// out\n        /* \"#utility.yul\":13040:13231   */\n    tag_157:\n        /* \"#utility.yul\":13080:13083   */\n      0x00\n        /* \"#utility.yul\":13099:13119   */\n      tag_342\n        /* \"#utility.yul\":13117:13118   */\n      dup3\n        /* \"#utility.yul\":13099:13119   */\n      tag_173\n      jump\t// in\n    tag_342:\n        /* \"#utility.yul\":13094:13119   */\n      swap2\n      pop\n        /* \"#utility.yul\":13133:13153   */\n      tag_343\n        /* \"#utility.yul\":13151:13152   */\n      dup4\n        /* \"#utility.yul\":13133:13153   */\n      tag_173\n      jump\t// in\n    tag_343:\n        /* \"#utility.yul\":13128:13153   */\n      swap3\n      pop\n        /* \"#utility.yul\":13176:13177   */\n      dup3\n        /* \"#utility.yul\":13173:13174   */\n      dup3\n        /* \"#utility.yul\":13169:13178   */\n      add\n        /* \"#utility.yul\":13162:13178   */\n      swap1\n      pop\n        /* \"#utility.yul\":13197:13200   */\n      dup1\n        /* \"#utility.yul\":13194:13195   */\n      dup3\n        /* \"#utility.yul\":13191:13201   */\n      gt\n        /* \"#utility.yul\":13188:13224   */\n      iszero\n      tag_344\n      jumpi\n        /* \"#utility.yul\":13204:13222   */\n      tag_345\n      tag_191\n      jump\t// in\n    tag_345:\n        /* \"#utility.yul\":13188:13224   */\n    tag_344:\n        /* \"#utility.yul\":13040:13231   */\n      swap3\n      swap2\n      pop\n      pop\n      jump\t// out\n\n    auxdata: 0xa2646970667358221220a9d0e343353d20f7683242a8aaab44452ee6a6029ede4ba05f89c6dfd049462664736f6c634300081b0033\n}\n",
				"bytecode": {
					"linkReferences": {},
					"object": "608060405234801561000f575f5ffd5b506040518060400160405280600381526020017f44494f00000000000000000000000000000000000000000000000000000000008152505f908161005391906103d2565b506040518060400160405280600881526020017f44494f20436f696e0000000000000000000000000000000000000000000000008152506001908161009891906103d2565b506002805f6101000a81548160ff021916908360ff160217905550620186a060038190555060035460045f73b27b0857dceba810aaba578e8e20b3810c534b3473ffffffffffffffffffffffffffffffffffffffff1673ffffffffffffffffffffffffffffffffffffffff1681526020019081526020015f208190555073b27b0857dceba810aaba578e8e20b3810c534b3473ffffffffffffffffffffffffffffffffffffffff165f73ffffffffffffffffffffffffffffffffffffffff167fddf252ad1be2c89b69c2b068fc378daa952ba7f163c4a11628f55a4df523b3ef60035460405161018891906104b0565b60405180910390a36104c9565b5f81519050919050565b7f4e487b71000000000000000000000000000000000000000000000000000000005f52604160045260245ffd5b7f4e487b71000000000000000000000000000000000000000000000000000000005f52602260045260245ffd5b5f600282049050600182168061021057607f821691505b602082108103610223576102226101cc565b5b50919050565b5f819050815f5260205f209050919050565b5f6020601f8301049050919050565b5f82821b905092915050565b5f600883026102857fffffffffffffffffffffffffffffffffffffffffffffffffffffffffffffffff8261024a565b61028f868361024a565b95508019841693508086168417925050509392505050565b5f819050919050565b5f819050919050565b5f6102d36102ce6102c9846102a7565b6102b0565b6102a7565b9050919050565b5f819050919050565b6102ec836102b9565b6103006102f8826102da565b848454610256565b825550505050565b5f5f905090565b610317610308565b6103228184846102e3565b505050565b5b818110156103455761033a5f8261030f565b600181019050610328565b5050565b601f82111561038a5761035b81610229565b6103648461023b565b81016020851015610373578190505b61038761037f8561023b565b830182610327565b50505b505050565b5f82821c905092915050565b5f6103aa5f198460080261038f565b1980831691505092915050565b5f6103c2838361039b565b9150826002028217905092915050565b6103db82610195565b67ffffffffffffffff8111156103f4576103f361019f565b5b6103fe82546101f9565b610409828285610349565b5f60209050601f83116001811461043a575f8415610428578287015190505b61043285826103b7565b865550610499565b601f19841661044886610229565b5f5b8281101561046f5784890151825560018201915060208501945060208101905061044a565b8683101561048c5784890151610488601f89168261039b565b8355505b6001600288020188555050505b505050505050565b6104aa816102a7565b82525050565b5f6020820190506104c35f8301846104a1565b92915050565b611516806104d65f395ff3fe6080604052600436106100eb575f3560e01c806395d89b4111610089578063cae9ca5111610058578063cae9ca51146103a0578063d05c78da146103dc578063dd62ed3e14610418578063e6cb9013146104545761012b565b806395d89b41146102c2578063a293d1e8146102ec578063a9059cbb14610328578063b5931f7c146103645761012b565b806323b872dd116100c557806323b872dd146101f6578063313ce567146102325780633eaaf86b1461025c57806370a08231146102865761012b565b806306fdde0314610166578063095ea7b31461019057806318160ddd146101cc5761012b565b3661012b576040517f08c379a000000000000000000000000000000000000000000000000000000000815260040161012290610e0f565b60405180910390fd5b6040517f08c379a000000000000000000000000000000000000000000000000000000000815260040161015d90610e0f565b60405180910390fd5b348015610171575f5ffd5b5061017a610490565b6040516101879190610e8d565b60405180910390f35b34801561019b575f5ffd5b506101b660048036038101906101b19190610f4b565b61051c565b6040516101c39190610fa3565b60405180910390f35b3480156101d7575f5ffd5b506101e0610609565b6040516101ed9190610fcb565b60405180910390f35b348015610201575f5ffd5b5061021c60048036038101906102179190610fe4565b61065a565b6040516102299190610fa3565b60405180910390f35b34801561023d575f5ffd5b506102466108d9565b604051610253919061104f565b60405180910390f35b348015610267575f5ffd5b506102706108eb565b60405161027d9190610fcb565b60405180910390f35b348015610291575f5ffd5b506102ac60048036038101906102a79190611068565b6108f1565b6040516102b99190610fcb565b60405180910390f35b3480156102cd575f5ffd5b506102d6610937565b6040516102e39190610e8d565b60405180910390f35b3480156102f7575f5ffd5b50610312600480360381019061030d9190611093565b6109c2565b60405161031f9190610fcb565b60405180910390f35b348015610333575f5ffd5b5061034e60048036038101906103499190610f4b565b6109e3565b60405161035b9190610fa3565b60405180910390f35b34801561036f575f5ffd5b5061038a60048036038101906103859190611093565b610b63565b6040516103979190610fcb565b60405180910390f35b3480156103ab575f5ffd5b506103c660048036038101906103c191906111fd565b610b83565b6040516103d39190610fa3565b60405180910390f35b3480156103e7575f5ffd5b5061040260048036038101906103fd9190611093565b610cdd565b60405161040f9190610fcb565b60405180910390f35b348015610423575f5ffd5b5061043e60048036038101906104399190611269565b610d12565b60405161044b9190610fcb565b60405180910390f35b34801561045f575f5ffd5b5061047a60048036038101906104759190611093565b610d94565b6040516104879190610fcb565b60405180910390f35b6001805461049d906112d4565b80601f01602080910402602001604051908101604052809291908181526020018280546104c9906112d4565b80156105145780601f106104eb57610100808354040283529160200191610514565b820191905f5260205f20905b8154815290600101906020018083116104f757829003601f168201915b505050505081565b5f8160055f3373ffffffffffffffffffffffffffffffffffffffff1673ffffffffffffffffffffffffffffffffffffffff1681526020019081526020015f205f8573ffffffffffffffffffffffffffffffffffffffff1673ffffffffffffffffffffffffffffffffffffffff1681526020019081526020015f20819055508273ffffffffffffffffffffffffffffffffffffffff163373ffffffffffffffffffffffffffffffffffffffff167f8c5be1e5ebec7d5bd14f71427d1e84f3dd0314c0f7b2291e5b200ac8c7c3b925846040516105f79190610fcb565b60405180910390a36001905092915050565b5f60045f5f73ffffffffffffffffffffffffffffffffffffffff1673ffffffffffffffffffffffffffffffffffffffff1681526020019081526020015f20546003546106559190611331565b905090565b5f6106a260045f8673ffffffffffffffffffffffffffffffffffffffff1673ffffffffffffffffffffffffffffffffffffffff1681526020019081526020015f2054836109c2565b60045f8673ffffffffffffffffffffffffffffffffffffffff1673ffffffffffffffffffffffffffffffffffffffff1681526020019081526020015f208190555061076560055f8673ffffffffffffffffffffffffffffffffffffffff1673ffffffffffffffffffffffffffffffffffffffff1681526020019081526020015f205f3373ffffffffffffffffffffffffffffffffffffffff1673ffffffffffffffffffffffffffffffffffffffff1681526020019081526020015f2054836109c2565b60055f8673ffffffffffffffffffffffffffffffffffffffff1673ffffffffffffffffffffffffffffffffffffffff1681526020019081526020015f205f3373ffffffffffffffffffffffffffffffffffffffff1673ffffffffffffffffffffffffffffffffffffffff1681526020019081526020015f208190555061082860045f8573ffffffffffffffffffffffffffffffffffffffff1673ffffffffffffffffffffffffffffffffffffffff1681526020019081526020015f205483610d94565b60045f8573ffffffffffffffffffffffffffffffffffffffff1673ffffffffffffffffffffffffffffffffffffffff1681526020019081526020015f20819055508273ffffffffffffffffffffffffffffffffffffffff168473ffffffffffffffffffffffffffffffffffffffff167fddf252ad1be2c89b69c2b068fc378daa952ba7f163c4a11628f55a4df523b3ef846040516108c69190610fcb565b60405180910390a3600190509392505050565b60025f9054906101000a900460ff1681565b60035481565b5f60045f8373ffffffffffffffffffffffffffffffffffffffff1673ffffffffffffffffffffffffffffffffffffffff1681526020019081526020015f20549050919050565b5f8054610943906112d4565b80601f016020809104026020016040519081016040528092919081815260200182805461096f906112d4565b80156109ba5780601f10610991576101008083540402835291602001916109ba565b820191905f5260205f20905b81548152906001019060200180831161099d57829003601f168201915b505050505081565b5f828211156109cf575f5ffd5b81836109db9190611331565b905092915050565b5f610a2b60045f3373ffffffffffffffffffffffffffffffffffffffff1673ffffffffffffffffffffffffffffffffffffffff1681526020019081526020015f2054836109c2565b60045f3373ffffffffffffffffffffffffffffffffffffffff1673ffffffffffffffffffffffffffffffffffffffff1681526020019081526020015f2081905550610ab360045f8573ffffffffffffffffffffffffffffffffffffffff1673ffffffffffffffffffffffffffffffffffffffff1681526020019081526020015f205483610d94565b60045f8573ffffffffffffffffffffffffffffffffffffffff1673ffffffffffffffffffffffffffffffffffffffff1681526020019081526020015f20819055508273ffffffffffffffffffffffffffffffffffffffff163373ffffffffffffffffffffffffffffffffffffffff167fddf252ad1be2c89b69c2b068fc378daa952ba7f163c4a11628f55a4df523b3ef84604051610b519190610fcb565b60405180910390a36001905092915050565b5f5f8211610b6f575f5ffd5b8183610b7b9190611391565b905092915050565b5f8260055f3373ffffffffffffffffffffffffffffffffffffffff1673ffffffffffffffffffffffffffffffffffffffff1681526020019081526020015f205f8673ffffffffffffffffffffffffffffffffffffffff1673ffffffffffffffffffffffffffffffffffffffff1681526020019081526020015f20819055508373ffffffffffffffffffffffffffffffffffffffff163373ffffffffffffffffffffffffffffffffffffffff167f8c5be1e5ebec7d5bd14f71427d1e84f3dd0314c0f7b2291e5b200ac8c7c3b92585604051610c5e9190610fcb565b60405180910390a38373ffffffffffffffffffffffffffffffffffffffff16638f4ffcb1338530866040518563ffffffff1660e01b8152600401610ca59493929190611422565b5f604051808303815f87803b158015610cbc575f5ffd5b505af1158015610cce573d5f5f3e3d5ffd5b50505050600190509392505050565b5f8183610cea919061146c565b90505f831480610d045750818382610d029190611391565b145b610d0c575f5ffd5b92915050565b5f60055f8473ffffffffffffffffffffffffffffffffffffffff1673ffffffffffffffffffffffffffffffffffffffff1681526020019081526020015f205f8373ffffffffffffffffffffffffffffffffffffffff1673ffffffffffffffffffffffffffffffffffffffff1681526020019081526020015f2054905092915050565b5f8183610da191906114ad565b905082811015610daf575f5ffd5b92915050565b5f82825260208201905092915050565b7f4574686572206e6f7420616363657074656400000000000000000000000000005f82015250565b5f610df9601283610db5565b9150610e0482610dc5565b602082019050919050565b5f6020820190508181035f830152610e2681610ded565b9050919050565b5f81519050919050565b8281835e5f83830152505050565b5f601f19601f8301169050919050565b5f610e5f82610e2d565b610e698185610db5565b9350610e79818560208601610e37565b610e8281610e45565b840191505092915050565b5f6020820190508181035f830152610ea58184610e55565b905092915050565b5f604051905090565b5f5ffd5b5f5ffd5b5f73ffffffffffffffffffffffffffffffffffffffff82169050919050565b5f610ee782610ebe565b9050919050565b610ef781610edd565b8114610f01575f5ffd5b50565b5f81359050610f1281610eee565b92915050565b5f819050919050565b610f2a81610f18565b8114610f34575f5ffd5b50565b5f81359050610f4581610f21565b92915050565b5f5f60408385031215610f6157610f60610eb6565b5b5f610f6e85828601610f04565b9250506020610f7f85828601610f37565b9150509250929050565b5f8115159050919050565b610f9d81610f89565b82525050565b5f602082019050610fb65f830184610f94565b92915050565b610fc581610f18565b82525050565b5f602082019050610fde5f830184610fbc565b92915050565b5f5f5f60608486031215610ffb57610ffa610eb6565b5b5f61100886828701610f04565b935050602061101986828701610f04565b925050604061102a86828701610f37565b9150509250925092565b5f60ff82169050919050565b61104981611034565b82525050565b5f6020820190506110625f830184611040565b92915050565b5f6020828403121561107d5761107c610eb6565b5b5f61108a84828501610f04565b91505092915050565b5f5f604083850312156110a9576110a8610eb6565b5b5f6110b685828601610f37565b92505060206110c785828601610f37565b9150509250929050565b5f5ffd5b5f5ffd5b7f4e487b71000000000000000000000000000000000000000000000000000000005f52604160045260245ffd5b61110f82610e45565b810181811067ffffffffffffffff8211171561112e5761112d6110d9565b5b80604052505050565b5f611140610ead565b905061114c8282611106565b919050565b5f67ffffffffffffffff82111561116b5761116a6110d9565b5b61117482610e45565b9050602081019050919050565b828183375f83830152505050565b5f6111a161119c84611151565b611137565b9050828152602081018484840111156111bd576111bc6110d5565b5b6111c8848285611181565b509392505050565b5f82601f8301126111e4576111e36110d1565b5b81356111f484826020860161118f565b91505092915050565b5f5f5f6060848603121561121457611213610eb6565b5b5f61122186828701610f04565b935050602061123286828701610f37565b925050604084013567ffffffffffffffff81111561125357611252610eba565b5b61125f868287016111d0565b9150509250925092565b5f5f6040838503121561127f5761127e610eb6565b5b5f61128c85828601610f04565b925050602061129d85828601610f04565b9150509250929050565b7f4e487b71000000000000000000000000000000000000000000000000000000005f52602260045260245ffd5b5f60028204905060018216806112eb57607f821691505b6020821081036112fe576112fd6112a7565b5b50919050565b7f4e487b71000000000000000000000000000000000000000000000000000000005f52601160045260245ffd5b5f61133b82610f18565b915061134683610f18565b925082820390508181111561135e5761135d611304565b5b92915050565b7f4e487b71000000000000000000000000000000000000000000000000000000005f52601260045260245ffd5b5f61139b82610f18565b91506113a683610f18565b9250826113b6576113b5611364565b5b828204905092915050565b6113ca81610edd565b82525050565b5f81519050919050565b5f82825260208201905092915050565b5f6113f4826113d0565b6113fe81856113da565b935061140e818560208601610e37565b61141781610e45565b840191505092915050565b5f6080820190506114355f8301876113c1565b6114426020830186610fbc565b61144f60408301856113c1565b818103606083015261146181846113ea565b905095945050505050565b5f61147682610f18565b915061148183610f18565b925082820261148f81610f18565b915082820484148315176114a6576114a5611304565b5b5092915050565b5f6114b782610f18565b91506114c283610f18565b92508282019050808211156114da576114d9611304565b5b9291505056fea2646970667358221220a9d0e343353d20f7683242a8aaab44452ee6a6029ede4ba05f89c6dfd049462664736f6c634300081b0033",
					"opcodes": "PUSH1 0x80 PUSH1 0x40 MSTORE CALLVALUE DUP1 ISZERO PUSH2 0xF JUMPI PUSH0 PUSH0 REVERT JUMPDEST POP PUSH1 0x40 MLOAD DUP1 PUSH1 0x40 ADD PUSH1 0x40 MSTORE DUP1 PUSH1 0x3 DUP2 MSTORE PUSH1 0x20 ADD PUSH32 0x44494F0000000000000000000000000000000000000000000000000000000000 DUP2 MSTORE POP PUSH0 SWAP1 DUP2 PUSH2 0x53 SWAP2 SWAP1 PUSH2 0x3D2 JUMP JUMPDEST POP PUSH1 0x40 MLOAD DUP1 PUSH1 0x40 ADD PUSH1 0x40 MSTORE DUP1 PUSH1 0x8 DUP2 MSTORE PUSH1 0x20 ADD PUSH32 0x44494F20436F696E000000000000000000000000000000000000000000000000 DUP2 MSTORE POP PUSH1 0x1 SWAP1 DUP2 PUSH2 0x98 SWAP2 SWAP1 PUSH2 0x3D2 JUMP JUMPDEST POP PUSH1 0x2 DUP1 PUSH0 PUSH2 0x100 EXP DUP2 SLOAD DUP2 PUSH1 0xFF MUL NOT AND SWAP1 DUP4 PUSH1 0xFF AND MUL OR SWAP1 SSTORE POP PUSH3 0x186A0 PUSH1 0x3 DUP2 SWAP1 SSTORE POP PUSH1 0x3 SLOAD PUSH1 0x4 PUSH0 PUSH20 0xB27B0857DCEBA810AABA578E8E20B3810C534B34 PUSH20 0xFFFFFFFFFFFFFFFFFFFFFFFFFFFFFFFFFFFFFFFF AND PUSH20 0xFFFFFFFFFFFFFFFFFFFFFFFFFFFFFFFFFFFFFFFF AND DUP2 MSTORE PUSH1 0x20 ADD SWAP1 DUP2 MSTORE PUSH1 0x20 ADD PUSH0 KECCAK256 DUP2 SWAP1 SSTORE POP PUSH20 0xB27B0857DCEBA810AABA578E8E20B3810C534B34 PUSH20 0xFFFFFFFFFFFFFFFFFFFFFFFFFFFFFFFFFFFFFFFF AND PUSH0 PUSH20 0xFFFFFFFFFFFFFFFFFFFFFFFFFFFFFFFFFFFFFFFF AND PUSH32 0xDDF252AD1BE2C89B69C2B068FC378DAA952BA7F163C4A11628F55A4DF523B3EF PUSH1 0x3 SLOAD PUSH1 0x40 MLOAD PUSH2 0x188 SWAP2 SWAP1 PUSH2 0x4B0 JUMP JUMPDEST PUSH1 0x40 MLOAD DUP1 SWAP2 SUB SWAP1 LOG3 PUSH2 0x4C9 JUMP JUMPDEST PUSH0 DUP2 MLOAD SWAP1 POP SWAP2 SWAP1 POP JUMP JUMPDEST PUSH32 0x4E487B7100000000000000000000000000000000000000000000000000000000 PUSH0 MSTORE PUSH1 0x41 PUSH1 0x4 MSTORE PUSH1 0x24 PUSH0 REVERT JUMPDEST PUSH32 0x4E487B7100000000000000000000000000000000000000000000000000000000 PUSH0 MSTORE PUSH1 0x22 PUSH1 0x4 MSTORE PUSH1 0x24 PUSH0 REVERT JUMPDEST PUSH0 PUSH1 0x2 DUP3 DIV SWAP1 POP PUSH1 0x1 DUP3 AND DUP1 PUSH2 0x210 JUMPI PUSH1 0x7F DUP3 AND SWAP2 POP JUMPDEST PUSH1 0x20 DUP3 LT DUP2 SUB PUSH2 0x223 JUMPI PUSH2 0x222 PUSH2 0x1CC JUMP JUMPDEST JUMPDEST POP SWAP2 SWAP1 POP JUMP JUMPDEST PUSH0 DUP2 SWAP1 POP DUP2 PUSH0 MSTORE PUSH1 0x20 PUSH0 KECCAK256 SWAP1 POP SWAP2 SWAP1 POP JUMP JUMPDEST PUSH0 PUSH1 0x20 PUSH1 0x1F DUP4 ADD DIV SWAP1 POP SWAP2 SWAP1 POP JUMP JUMPDEST PUSH0 DUP3 DUP3 SHL SWAP1 POP SWAP3 SWAP2 POP POP JUMP JUMPDEST PUSH0 PUSH1 0x8 DUP4 MUL PUSH2 0x285 PUSH32 0xFFFFFFFFFFFFFFFFFFFFFFFFFFFFFFFFFFFFFFFFFFFFFFFFFFFFFFFFFFFFFFFF DUP3 PUSH2 0x24A JUMP JUMPDEST PUSH2 0x28F DUP7 DUP4 PUSH2 0x24A JUMP JUMPDEST SWAP6 POP DUP1 NOT DUP5 AND SWAP4 POP DUP1 DUP7 AND DUP5 OR SWAP3 POP POP POP SWAP4 SWAP3 POP POP POP JUMP JUMPDEST PUSH0 DUP2 SWAP1 POP SWAP2 SWAP1 POP JUMP JUMPDEST PUSH0 DUP2 SWAP1 POP SWAP2 SWAP1 POP JUMP JUMPDEST PUSH0 PUSH2 0x2D3 PUSH2 0x2CE PUSH2 0x2C9 DUP5 PUSH2 0x2A7 JUMP JUMPDEST PUSH2 0x2B0 JUMP JUMPDEST PUSH2 0x2A7 JUMP JUMPDEST SWAP1 POP SWAP2 SWAP1 POP JUMP JUMPDEST PUSH0 DUP2 SWAP1 POP SWAP2 SWAP1 POP JUMP JUMPDEST PUSH2 0x2EC DUP4 PUSH2 0x2B9 JUMP JUMPDEST PUSH2 0x300 PUSH2 0x2F8 DUP3 PUSH2 0x2DA JUMP JUMPDEST DUP5 DUP5 SLOAD PUSH2 0x256 JUMP JUMPDEST DUP3 SSTORE POP POP POP POP JUMP JUMPDEST PUSH0 PUSH0 SWAP1 POP SWAP1 JUMP JUMPDEST PUSH2 0x317 PUSH2 0x308 JUMP JUMPDEST PUSH2 0x322 DUP2 DUP5 DUP5 PUSH2 0x2E3 JUMP JUMPDEST POP POP POP JUMP JUMPDEST JUMPDEST DUP2 DUP2 LT ISZERO PUSH2 0x345 JUMPI PUSH2 0x33A PUSH0 DUP3 PUSH2 0x30F JUMP JUMPDEST PUSH1 0x1 DUP2 ADD SWAP1 POP PUSH2 0x328 JUMP JUMPDEST POP POP JUMP JUMPDEST PUSH1 0x1F DUP3 GT ISZERO PUSH2 0x38A JUMPI PUSH2 0x35B DUP2 PUSH2 0x229 JUMP JUMPDEST PUSH2 0x364 DUP5 PUSH2 0x23B JUMP JUMPDEST DUP2 ADD PUSH1 0x20 DUP6 LT ISZERO PUSH2 0x373 JUMPI DUP2 SWAP1 POP JUMPDEST PUSH2 0x387 PUSH2 0x37F DUP6 PUSH2 0x23B JUMP JUMPDEST DUP4 ADD DUP3 PUSH2 0x327 JUMP JUMPDEST POP POP JUMPDEST POP POP POP JUMP JUMPDEST PUSH0 DUP3 DUP3 SHR SWAP1 POP SWAP3 SWAP2 POP POP JUMP JUMPDEST PUSH0 PUSH2 0x3AA PUSH0 NOT DUP5 PUSH1 0x8 MUL PUSH2 0x38F JUMP JUMPDEST NOT DUP1 DUP4 AND SWAP2 POP POP SWAP3 SWAP2 POP POP JUMP JUMPDEST PUSH0 PUSH2 0x3C2 DUP4 DUP4 PUSH2 0x39B JUMP JUMPDEST SWAP2 POP DUP3 PUSH1 0x2 MUL DUP3 OR SWAP1 POP SWAP3 SWAP2 POP POP JUMP JUMPDEST PUSH2 0x3DB DUP3 PUSH2 0x195 JUMP JUMPDEST PUSH8 0xFFFFFFFFFFFFFFFF DUP2 GT ISZERO PUSH2 0x3F4 JUMPI PUSH2 0x3F3 PUSH2 0x19F JUMP JUMPDEST JUMPDEST PUSH2 0x3FE DUP3 SLOAD PUSH2 0x1F9 JUMP JUMPDEST PUSH2 0x409 DUP3 DUP3 DUP6 PUSH2 0x349 JUMP JUMPDEST PUSH0 PUSH1 0x20 SWAP1 POP PUSH1 0x1F DUP4 GT PUSH1 0x1 DUP2 EQ PUSH2 0x43A JUMPI PUSH0 DUP5 ISZERO PUSH2 0x428 JUMPI DUP3 DUP8 ADD MLOAD SWAP1 POP JUMPDEST PUSH2 0x432 DUP6 DUP3 PUSH2 0x3B7 JUMP JUMPDEST DUP7 SSTORE POP PUSH2 0x499 JUMP JUMPDEST PUSH1 0x1F NOT DUP5 AND PUSH2 0x448 DUP7 PUSH2 0x229 JUMP JUMPDEST PUSH0 JUMPDEST DUP3 DUP2 LT ISZERO PUSH2 0x46F JUMPI DUP5 DUP10 ADD MLOAD DUP3 SSTORE PUSH1 0x1 DUP3 ADD SWAP2 POP PUSH1 0x20 DUP6 ADD SWAP5 POP PUSH1 0x20 DUP2 ADD SWAP1 POP PUSH2 0x44A JUMP JUMPDEST DUP7 DUP4 LT ISZERO PUSH2 0x48C JUMPI DUP5 DUP10 ADD MLOAD PUSH2 0x488 PUSH1 0x1F DUP10 AND DUP3 PUSH2 0x39B JUMP JUMPDEST DUP4 SSTORE POP JUMPDEST PUSH1 0x1 PUSH1 0x2 DUP9 MUL ADD DUP9 SSTORE POP POP POP JUMPDEST POP POP POP POP POP POP JUMP JUMPDEST PUSH2 0x4AA DUP2 PUSH2 0x2A7 JUMP JUMPDEST DUP3 MSTORE POP POP JUMP JUMPDEST PUSH0 PUSH1 0x20 DUP3 ADD SWAP1 POP PUSH2 0x4C3 PUSH0 DUP4 ADD DUP5 PUSH2 0x4A1 JUMP JUMPDEST SWAP3 SWAP2 POP POP JUMP JUMPDEST PUSH2 0x1516 DUP1 PUSH2 0x4D6 PUSH0 CODECOPY PUSH0 RETURN INVALID PUSH1 0x80 PUSH1 0x40 MSTORE PUSH1 0x4 CALLDATASIZE LT PUSH2 0xEB JUMPI PUSH0 CALLDATALOAD PUSH1 0xE0 SHR DUP1 PUSH4 0x95D89B41 GT PUSH2 0x89 JUMPI DUP1 PUSH4 0xCAE9CA51 GT PUSH2 0x58 JUMPI DUP1 PUSH4 0xCAE9CA51 EQ PUSH2 0x3A0 JUMPI DUP1 PUSH4 0xD05C78DA EQ PUSH2 0x3DC JUMPI DUP1 PUSH4 0xDD62ED3E EQ PUSH2 0x418 JUMPI DUP1 PUSH4 0xE6CB9013 EQ PUSH2 0x454 JUMPI PUSH2 0x12B JUMP JUMPDEST DUP1 PUSH4 0x95D89B41 EQ PUSH2 0x2C2 JUMPI DUP1 PUSH4 0xA293D1E8 EQ PUSH2 0x2EC JUMPI DUP1 PUSH4 0xA9059CBB EQ PUSH2 0x328 JUMPI DUP1 PUSH4 0xB5931F7C EQ PUSH2 0x364 JUMPI PUSH2 0x12B JUMP JUMPDEST DUP1 PUSH4 0x23B872DD GT PUSH2 0xC5 JUMPI DUP1 PUSH4 0x23B872DD EQ PUSH2 0x1F6 JUMPI DUP1 PUSH4 0x313CE567 EQ PUSH2 0x232 JUMPI DUP1 PUSH4 0x3EAAF86B EQ PUSH2 0x25C JUMPI DUP1 PUSH4 0x70A08231 EQ PUSH2 0x286 JUMPI PUSH2 0x12B JUMP JUMPDEST DUP1 PUSH4 0x6FDDE03 EQ PUSH2 0x166 JUMPI DUP1 PUSH4 0x95EA7B3 EQ PUSH2 0x190 JUMPI DUP1 PUSH4 0x18160DDD EQ PUSH2 0x1CC JUMPI PUSH2 0x12B JUMP JUMPDEST CALLDATASIZE PUSH2 0x12B JUMPI PUSH1 0x40 MLOAD PUSH32 0x8C379A000000000000000000000000000000000000000000000000000000000 DUP2 MSTORE PUSH1 0x4 ADD PUSH2 0x122 SWAP1 PUSH2 0xE0F JUMP JUMPDEST PUSH1 0x40 MLOAD DUP1 SWAP2 SUB SWAP1 REVERT JUMPDEST PUSH1 0x40 MLOAD PUSH32 0x8C379A000000000000000000000000000000000000000000000000000000000 DUP2 MSTORE PUSH1 0x4 ADD PUSH2 0x15D SWAP1 PUSH2 0xE0F JUMP JUMPDEST PUSH1 0x40 MLOAD DUP1 SWAP2 SUB SWAP1 REVERT JUMPDEST CALLVALUE DUP1 ISZERO PUSH2 0x171 JUMPI PUSH0 PUSH0 REVERT JUMPDEST POP PUSH2 0x17A PUSH2 0x490 JUMP JUMPDEST PUSH1 0x40 MLOAD PUSH2 0x187 SWAP2 SWAP1 PUSH2 0xE8D JUMP JUMPDEST PUSH1 0x40 MLOAD DUP1 SWAP2 SUB SWAP1 RETURN JUMPDEST CALLVALUE DUP1 ISZERO PUSH2 0x19B JUMPI PUSH0 PUSH0 REVERT JUMPDEST POP PUSH2 0x1B6 PUSH1 0x4 DUP1 CALLDATASIZE SUB DUP2 ADD SWAP1 PUSH2 0x1B1 SWAP2 SWAP1 PUSH2 0xF4B JUMP JUMPDEST PUSH2 0x51C JUMP JUMPDEST PUSH1 0x40 MLOAD PUSH2 0x1C3 SWAP2 SWAP1 PUSH2 0xFA3 JUMP JUMPDEST PUSH1 0x40 MLOAD DUP1 SWAP2 SUB SWAP1 RETURN JUMPDEST CALLVALUE DUP1 ISZERO PUSH2 0x1D7 JUMPI PUSH0 PUSH0 REVERT JUMPDEST POP PUSH2 0x1E0 PUSH2 0x609 JUMP JUMPDEST PUSH1 0x40 MLOAD PUSH2 0x1ED SWAP2 SWAP1 PUSH2 0xFCB JUMP JUMPDEST PUSH1 0x40 MLOAD DUP1 SWAP2 SUB SWAP1 RETURN JUMPDEST CALLVALUE DUP1 ISZERO PUSH2 0x201 JUMPI PUSH0 PUSH0 REVERT JUMPDEST POP PUSH2 0x21C PUSH1 0x4 DUP1 CALLDATASIZE SUB DUP2 ADD SWAP1 PUSH2 0x217 SWAP2 SWAP1 PUSH2 0xFE4 JUMP JUMPDEST PUSH2 0x65A JUMP JUMPDEST PUSH1 0x40 MLOAD PUSH2 0x229 SWAP2 SWAP1 PUSH2 0xFA3 JUMP JUMPDEST PUSH1 0x40 MLOAD DUP1 SWAP2 SUB SWAP1 RETURN JUMPDEST CALLVALUE DUP1 ISZERO PUSH2 0x23D JUMPI PUSH0 PUSH0 REVERT JUMPDEST POP PUSH2 0x246 PUSH2 0x8D9 JUMP JUMPDEST PUSH1 0x40 MLOAD PUSH2 0x253 SWAP2 SWAP1 PUSH2 0x104F JUMP JUMPDEST PUSH1 0x40 MLOAD DUP1 SWAP2 SUB SWAP1 RETURN JUMPDEST CALLVALUE DUP1 ISZERO PUSH2 0x267 JUMPI PUSH0 PUSH0 REVERT JUMPDEST POP PUSH2 0x270 PUSH2 0x8EB JUMP JUMPDEST PUSH1 0x40 MLOAD PUSH2 0x27D SWAP2 SWAP1 PUSH2 0xFCB JUMP JUMPDEST PUSH1 0x40 MLOAD DUP1 SWAP2 SUB SWAP1 RETURN JUMPDEST CALLVALUE DUP1 ISZERO PUSH2 0x291 JUMPI PUSH0 PUSH0 REVERT JUMPDEST POP PUSH2 0x2AC PUSH1 0x4 DUP1 CALLDATASIZE SUB DUP2 ADD SWAP1 PUSH2 0x2A7 SWAP2 SWAP1 PUSH2 0x1068 JUMP JUMPDEST PUSH2 0x8F1 JUMP JUMPDEST PUSH1 0x40 MLOAD PUSH2 0x2B9 SWAP2 SWAP1 PUSH2 0xFCB JUMP JUMPDEST PUSH1 0x40 MLOAD DUP1 SWAP2 SUB SWAP1 RETURN JUMPDEST CALLVALUE DUP1 ISZERO PUSH2 0x2CD JUMPI PUSH0 PUSH0 REVERT JUMPDEST POP PUSH2 0x2D6 PUSH2 0x937 JUMP JUMPDEST PUSH1 0x40 MLOAD PUSH2 0x2E3 SWAP2 SWAP1 PUSH2 0xE8D JUMP JUMPDEST PUSH1 0x40 MLOAD DUP1 SWAP2 SUB SWAP1 RETURN JUMPDEST CALLVALUE DUP1 ISZERO PUSH2 0x2F7 JUMPI PUSH0 PUSH0 REVERT JUMPDEST POP PUSH2 0x312 PUSH1 0x4 DUP1 CALLDATASIZE SUB DUP2 ADD SWAP1 PUSH2 0x30D SWAP2 SWAP1 PUSH2 0x1093 JUMP JUMPDEST PUSH2 0x9C2 JUMP JUMPDEST PUSH1 0x40 MLOAD PUSH2 0x31F SWAP2 SWAP1 PUSH2 0xFCB JUMP JUMPDEST PUSH1 0x40 MLOAD DUP1 SWAP2 SUB SWAP1 RETURN JUMPDEST CALLVALUE DUP1 ISZERO PUSH2 0x333 JUMPI PUSH0 PUSH0 REVERT JUMPDEST POP PUSH2 0x34E PUSH1 0x4 DUP1 CALLDATASIZE SUB DUP2 ADD SWAP1 PUSH2 0x349 SWAP2 SWAP1 PUSH2 0xF4B JUMP JUMPDEST PUSH2 0x9E3 JUMP JUMPDEST PUSH1 0x40 MLOAD PUSH2 0x35B SWAP2 SWAP1 PUSH2 0xFA3 JUMP JUMPDEST PUSH1 0x40 MLOAD DUP1 SWAP2 SUB SWAP1 RETURN JUMPDEST CALLVALUE DUP1 ISZERO PUSH2 0x36F JUMPI PUSH0 PUSH0 REVERT JUMPDEST POP PUSH2 0x38A PUSH1 0x4 DUP1 CALLDATASIZE SUB DUP2 ADD SWAP1 PUSH2 0x385 SWAP2 SWAP1 PUSH2 0x1093 JUMP JUMPDEST PUSH2 0xB63 JUMP JUMPDEST PUSH1 0x40 MLOAD PUSH2 0x397 SWAP2 SWAP1 PUSH2 0xFCB JUMP JUMPDEST PUSH1 0x40 MLOAD DUP1 SWAP2 SUB SWAP1 RETURN JUMPDEST CALLVALUE DUP1 ISZERO PUSH2 0x3AB JUMPI PUSH0 PUSH0 REVERT JUMPDEST POP PUSH2 0x3C6 PUSH1 0x4 DUP1 CALLDATASIZE SUB DUP2 ADD SWAP1 PUSH2 0x3C1 SWAP2 SWAP1 PUSH2 0x11FD JUMP JUMPDEST PUSH2 0xB83 JUMP JUMPDEST PUSH1 0x40 MLOAD PUSH2 0x3D3 SWAP2 SWAP1 PUSH2 0xFA3 JUMP JUMPDEST PUSH1 0x40 MLOAD DUP1 SWAP2 SUB SWAP1 RETURN JUMPDEST CALLVALUE DUP1 ISZERO PUSH2 0x3E7 JUMPI PUSH0 PUSH0 REVERT JUMPDEST POP PUSH2 0x402 PUSH1 0x4 DUP1 CALLDATASIZE SUB DUP2 ADD SWAP1 PUSH2 0x3FD SWAP2 SWAP1 PUSH2 0x1093 JUMP JUMPDEST PUSH2 0xCDD JUMP JUMPDEST PUSH1 0x40 MLOAD PUSH2 0x40F SWAP2 SWAP1 PUSH2 0xFCB JUMP JUMPDEST PUSH1 0x40 MLOAD DUP1 SWAP2 SUB SWAP1 RETURN JUMPDEST CALLVALUE DUP1 ISZERO PUSH2 0x423 JUMPI PUSH0 PUSH0 REVERT JUMPDEST POP PUSH2 0x43E PUSH1 0x4 DUP1 CALLDATASIZE SUB DUP2 ADD SWAP1 PUSH2 0x439 SWAP2 SWAP1 PUSH2 0x1269 JUMP JUMPDEST PUSH2 0xD12 JUMP JUMPDEST PUSH1 0x40 MLOAD PUSH2 0x44B SWAP2 SWAP1 PUSH2 0xFCB JUMP JUMPDEST PUSH1 0x40 MLOAD DUP1 SWAP2 SUB SWAP1 RETURN JUMPDEST CALLVALUE DUP1 ISZERO PUSH2 0x45F JUMPI PUSH0 PUSH0 REVERT JUMPDEST POP PUSH2 0x47A PUSH1 0x4 DUP1 CALLDATASIZE SUB DUP2 ADD SWAP1 PUSH2 0x475 SWAP2 SWAP1 PUSH2 0x1093 JUMP JUMPDEST PUSH2 0xD94 JUMP JUMPDEST PUSH1 0x40 MLOAD PUSH2 0x487 SWAP2 SWAP1 PUSH2 0xFCB JUMP JUMPDEST PUSH1 0x40 MLOAD DUP1 SWAP2 SUB SWAP1 RETURN JUMPDEST PUSH1 0x1 DUP1 SLOAD PUSH2 0x49D SWAP1 PUSH2 0x12D4 JUMP JUMPDEST DUP1 PUSH1 0x1F ADD PUSH1 0x20 DUP1 SWAP2 DIV MUL PUSH1 0x20 ADD PUSH1 0x40 MLOAD SWAP1 DUP2 ADD PUSH1 0x40 MSTORE DUP1 SWAP3 SWAP2 SWAP1 DUP2 DUP2 MSTORE PUSH1 0x20 ADD DUP3 DUP1 SLOAD PUSH2 0x4C9 SWAP1 PUSH2 0x12D4 JUMP JUMPDEST DUP1 ISZERO PUSH2 0x514 JUMPI DUP1 PUSH1 0x1F LT PUSH2 0x4EB JUMPI PUSH2 0x100 DUP1 DUP4 SLOAD DIV MUL DUP4 MSTORE SWAP2 PUSH1 0x20 ADD SWAP2 PUSH2 0x514 JUMP JUMPDEST DUP3 ADD SWAP2 SWAP1 PUSH0 MSTORE PUSH1 0x20 PUSH0 KECCAK256 SWAP1 JUMPDEST DUP2 SLOAD DUP2 MSTORE SWAP1 PUSH1 0x1 ADD SWAP1 PUSH1 0x20 ADD DUP1 DUP4 GT PUSH2 0x4F7 JUMPI DUP3 SWAP1 SUB PUSH1 0x1F AND DUP3 ADD SWAP2 JUMPDEST POP POP POP POP POP DUP2 JUMP JUMPDEST PUSH0 DUP2 PUSH1 0x5 PUSH0 CALLER PUSH20 0xFFFFFFFFFFFFFFFFFFFFFFFFFFFFFFFFFFFFFFFF AND PUSH20 0xFFFFFFFFFFFFFFFFFFFFFFFFFFFFFFFFFFFFFFFF AND DUP2 MSTORE PUSH1 0x20 ADD SWAP1 DUP2 MSTORE PUSH1 0x20 ADD PUSH0 KECCAK256 PUSH0 DUP6 PUSH20 0xFFFFFFFFFFFFFFFFFFFFFFFFFFFFFFFFFFFFFFFF AND PUSH20 0xFFFFFFFFFFFFFFFFFFFFFFFFFFFFFFFFFFFFFFFF AND DUP2 MSTORE PUSH1 0x20 ADD SWAP1 DUP2 MSTORE PUSH1 0x20 ADD PUSH0 KECCAK256 DUP2 SWAP1 SSTORE POP DUP3 PUSH20 0xFFFFFFFFFFFFFFFFFFFFFFFFFFFFFFFFFFFFFFFF AND CALLER PUSH20 0xFFFFFFFFFFFFFFFFFFFFFFFFFFFFFFFFFFFFFFFF AND PUSH32 0x8C5BE1E5EBEC7D5BD14F71427D1E84F3DD0314C0F7B2291E5B200AC8C7C3B925 DUP5 PUSH1 0x40 MLOAD PUSH2 0x5F7 SWAP2 SWAP1 PUSH2 0xFCB JUMP JUMPDEST PUSH1 0x40 MLOAD DUP1 SWAP2 SUB SWAP1 LOG3 PUSH1 0x1 SWAP1 POP SWAP3 SWAP2 POP POP JUMP JUMPDEST PUSH0 PUSH1 0x4 PUSH0 PUSH0 PUSH20 0xFFFFFFFFFFFFFFFFFFFFFFFFFFFFFFFFFFFFFFFF AND PUSH20 0xFFFFFFFFFFFFFFFFFFFFFFFFFFFFFFFFFFFFFFFF AND DUP2 MSTORE PUSH1 0x20 ADD SWAP1 DUP2 MSTORE PUSH1 0x20 ADD PUSH0 KECCAK256 SLOAD PUSH1 0x3 SLOAD PUSH2 0x655 SWAP2 SWAP1 PUSH2 0x1331 JUMP JUMPDEST SWAP1 POP SWAP1 JUMP JUMPDEST PUSH0 PUSH2 0x6A2 PUSH1 0x4 PUSH0 DUP7 PUSH20 0xFFFFFFFFFFFFFFFFFFFFFFFFFFFFFFFFFFFFFFFF AND PUSH20 0xFFFFFFFFFFFFFFFFFFFFFFFFFFFFFFFFFFFFFFFF AND DUP2 MSTORE PUSH1 0x20 ADD SWAP1 DUP2 MSTORE PUSH1 0x20 ADD PUSH0 KECCAK256 SLOAD DUP4 PUSH2 0x9C2 JUMP JUMPDEST PUSH1 0x4 PUSH0 DUP7 PUSH20 0xFFFFFFFFFFFFFFFFFFFFFFFFFFFFFFFFFFFFFFFF AND PUSH20 0xFFFFFFFFFFFFFFFFFFFFFFFFFFFFFFFFFFFFFFFF AND DUP2 MSTORE PUSH1 0x20 ADD SWAP1 DUP2 MSTORE PUSH1 0x20 ADD PUSH0 KECCAK256 DUP2 SWAP1 SSTORE POP PUSH2 0x765 PUSH1 0x5 PUSH0 DUP7 PUSH20 0xFFFFFFFFFFFFFFFFFFFFFFFFFFFFFFFFFFFFFFFF AND PUSH20 0xFFFFFFFFFFFFFFFFFFFFFFFFFFFFFFFFFFFFFFFF AND DUP2 MSTORE PUSH1 0x20 ADD SWAP1 DUP2 MSTORE PUSH1 0x20 ADD PUSH0 KECCAK256 PUSH0 CALLER PUSH20 0xFFFFFFFFFFFFFFFFFFFFFFFFFFFFFFFFFFFFFFFF AND PUSH20 0xFFFFFFFFFFFFFFFFFFFFFFFFFFFFFFFFFFFFFFFF AND DUP2 MSTORE PUSH1 0x20 ADD SWAP1 DUP2 MSTORE PUSH1 0x20 ADD PUSH0 KECCAK256 SLOAD DUP4 PUSH2 0x9C2 JUMP JUMPDEST PUSH1 0x5 PUSH0 DUP7 PUSH20 0xFFFFFFFFFFFFFFFFFFFFFFFFFFFFFFFFFFFFFFFF AND PUSH20 0xFFFFFFFFFFFFFFFFFFFFFFFFFFFFFFFFFFFFFFFF AND DUP2 MSTORE PUSH1 0x20 ADD SWAP1 DUP2 MSTORE PUSH1 0x20 ADD PUSH0 KECCAK256 PUSH0 CALLER PUSH20 0xFFFFFFFFFFFFFFFFFFFFFFFFFFFFFFFFFFFFFFFF AND PUSH20 0xFFFFFFFFFFFFFFFFFFFFFFFFFFFFFFFFFFFFFFFF AND DUP2 MSTORE PUSH1 0x20 ADD SWAP1 DUP2 MSTORE PUSH1 0x20 ADD PUSH0 KECCAK256 DUP2 SWAP1 SSTORE POP PUSH2 0x828 PUSH1 0x4 PUSH0 DUP6 PUSH20 0xFFFFFFFFFFFFFFFFFFFFFFFFFFFFFFFFFFFFFFFF AND PUSH20 0xFFFFFFFFFFFFFFFFFFFFFFFFFFFFFFFFFFFFFFFF AND DUP2 MSTORE PUSH1 0x20 ADD SWAP1 DUP2 MSTORE PUSH1 0x20 ADD PUSH0 KECCAK256 SLOAD DUP4 PUSH2 0xD94 JUMP JUMPDEST PUSH1 0x4 PUSH0 DUP6 PUSH20 0xFFFFFFFFFFFFFFFFFFFFFFFFFFFFFFFFFFFFFFFF AND PUSH20 0xFFFFFFFFFFFFFFFFFFFFFFFFFFFFFFFFFFFFFFFF AND DUP2 MSTORE PUSH1 0x20 ADD SWAP1 DUP2 MSTORE PUSH1 0x20 ADD PUSH0 KECCAK256 DUP2 SWAP1 SSTORE POP DUP3 PUSH20 0xFFFFFFFFFFFFFFFFFFFFFFFFFFFFFFFFFFFFFFFF AND DUP5 PUSH20 0xFFFFFFFFFFFFFFFFFFFFFFFFFFFFFFFFFFFFFFFF AND PUSH32 0xDDF252AD1BE2C89B69C2B068FC378DAA952BA7F163C4A11628F55A4DF523B3EF DUP5 PUSH1 0x40 MLOAD PUSH2 0x8C6 SWAP2 SWAP1 PUSH2 0xFCB JUMP JUMPDEST PUSH1 0x40 MLOAD DUP1 SWAP2 SUB SWAP1 LOG3 PUSH1 0x1 SWAP1 POP SWAP4 SWAP3 POP POP POP JUMP JUMPDEST PUSH1 0x2 PUSH0 SWAP1 SLOAD SWAP1 PUSH2 0x100 EXP SWAP1 DIV PUSH1 0xFF AND DUP2 JUMP JUMPDEST PUSH1 0x3 SLOAD DUP2 JUMP JUMPDEST PUSH0 PUSH1 0x4 PUSH0 DUP4 PUSH20 0xFFFFFFFFFFFFFFFFFFFFFFFFFFFFFFFFFFFFFFFF AND PUSH20 0xFFFFFFFFFFFFFFFFFFFFFFFFFFFFFFFFFFFFFFFF AND DUP2 MSTORE PUSH1 0x20 ADD SWAP1 DUP2 MSTORE PUSH1 0x20 ADD PUSH0 KECCAK256 SLOAD SWAP1 POP SWAP2 SWAP1 POP JUMP JUMPDEST PUSH0 DUP1 SLOAD PUSH2 0x943 SWAP1 PUSH2 0x12D4 JUMP JUMPDEST DUP1 PUSH1 0x1F ADD PUSH1 0x20 DUP1 SWAP2 DIV MUL PUSH1 0x20 ADD PUSH1 0x40 MLOAD SWAP1 DUP2 ADD PUSH1 0x40 MSTORE DUP1 SWAP3 SWAP2 SWAP1 DUP2 DUP2 MSTORE PUSH1 0x20 ADD DUP3 DUP1 SLOAD PUSH2 0x96F SWAP1 PUSH2 0x12D4 JUMP JUMPDEST DUP1 ISZERO PUSH2 0x9BA JUMPI DUP1 PUSH1 0x1F LT PUSH2 0x991 JUMPI PUSH2 0x100 DUP1 DUP4 SLOAD DIV MUL DUP4 MSTORE SWAP2 PUSH1 0x20 ADD SWAP2 PUSH2 0x9BA JUMP JUMPDEST DUP3 ADD SWAP2 SWAP1 PUSH0 MSTORE PUSH1 0x20 PUSH0 KECCAK256 SWAP1 JUMPDEST DUP2 SLOAD DUP2 MSTORE SWAP1 PUSH1 0x1 ADD SWAP1 PUSH1 0x20 ADD DUP1 DUP4 GT PUSH2 0x99D JUMPI DUP3 SWAP1 SUB PUSH1 0x1F AND DUP3 ADD SWAP2 JUMPDEST POP POP POP POP POP DUP2 JUMP JUMPDEST PUSH0 DUP3 DUP3 GT ISZERO PUSH2 0x9CF JUMPI PUSH0 PUSH0 REVERT JUMPDEST DUP2 DUP4 PUSH2 0x9DB SWAP2 SWAP1 PUSH2 0x1331 JUMP JUMPDEST SWAP1 POP SWAP3 SWAP2 POP POP JUMP JUMPDEST PUSH0 PUSH2 0xA2B PUSH1 0x4 PUSH0 CALLER PUSH20 0xFFFFFFFFFFFFFFFFFFFFFFFFFFFFFFFFFFFFFFFF AND PUSH20 0xFFFFFFFFFFFFFFFFFFFFFFFFFFFFFFFFFFFFFFFF AND DUP2 MSTORE PUSH1 0x20 ADD SWAP1 DUP2 MSTORE PUSH1 0x20 ADD PUSH0 KECCAK256 SLOAD DUP4 PUSH2 0x9C2 JUMP JUMPDEST PUSH1 0x4 PUSH0 CALLER PUSH20 0xFFFFFFFFFFFFFFFFFFFFFFFFFFFFFFFFFFFFFFFF AND PUSH20 0xFFFFFFFFFFFFFFFFFFFFFFFFFFFFFFFFFFFFFFFF AND DUP2 MSTORE PUSH1 0x20 ADD SWAP1 DUP2 MSTORE PUSH1 0x20 ADD PUSH0 KECCAK256 DUP2 SWAP1 SSTORE POP PUSH2 0xAB3 PUSH1 0x4 PUSH0 DUP6 PUSH20 0xFFFFFFFFFFFFFFFFFFFFFFFFFFFFFFFFFFFFFFFF AND PUSH20 0xFFFFFFFFFFFFFFFFFFFFFFFFFFFFFFFFFFFFFFFF AND DUP2 MSTORE PUSH1 0x20 ADD SWAP1 DUP2 MSTORE PUSH1 0x20 ADD PUSH0 KECCAK256 SLOAD DUP4 PUSH2 0xD94 JUMP JUMPDEST PUSH1 0x4 PUSH0 DUP6 PUSH20 0xFFFFFFFFFFFFFFFFFFFFFFFFFFFFFFFFFFFFFFFF AND PUSH20 0xFFFFFFFFFFFFFFFFFFFFFFFFFFFFFFFFFFFFFFFF AND DUP2 MSTORE PUSH1 0x20 ADD SWAP1 DUP2 MSTORE PUSH1 0x20 ADD PUSH0 KECCAK256 DUP2 SWAP1 SSTORE POP DUP3 PUSH20 0xFFFFFFFFFFFFFFFFFFFFFFFFFFFFFFFFFFFFFFFF AND CALLER PUSH20 0xFFFFFFFFFFFFFFFFFFFFFFFFFFFFFFFFFFFFFFFF AND PUSH32 0xDDF252AD1BE2C89B69C2B068FC378DAA952BA7F163C4A11628F55A4DF523B3EF DUP5 PUSH1 0x40 MLOAD PUSH2 0xB51 SWAP2 SWAP1 PUSH2 0xFCB JUMP JUMPDEST PUSH1 0x40 MLOAD DUP1 SWAP2 SUB SWAP1 LOG3 PUSH1 0x1 SWAP1 POP SWAP3 SWAP2 POP POP JUMP JUMPDEST PUSH0 PUSH0 DUP3 GT PUSH2 0xB6F JUMPI PUSH0 PUSH0 REVERT JUMPDEST DUP2 DUP4 PUSH2 0xB7B SWAP2 SWAP1 PUSH2 0x1391 JUMP JUMPDEST SWAP1 POP SWAP3 SWAP2 POP POP JUMP JUMPDEST PUSH0 DUP3 PUSH1 0x5 PUSH0 CALLER PUSH20 0xFFFFFFFFFFFFFFFFFFFFFFFFFFFFFFFFFFFFFFFF AND PUSH20 0xFFFFFFFFFFFFFFFFFFFFFFFFFFFFFFFFFFFFFFFF AND DUP2 MSTORE PUSH1 0x20 ADD SWAP1 DUP2 MSTORE PUSH1 0x20 ADD PUSH0 KECCAK256 PUSH0 DUP7 PUSH20 0xFFFFFFFFFFFFFFFFFFFFFFFFFFFFFFFFFFFFFFFF AND PUSH20 0xFFFFFFFFFFFFFFFFFFFFFFFFFFFFFFFFFFFFFFFF AND DUP2 MSTORE PUSH1 0x20 ADD SWAP1 DUP2 MSTORE PUSH1 0x20 ADD PUSH0 KECCAK256 DUP2 SWAP1 SSTORE POP DUP4 PUSH20 0xFFFFFFFFFFFFFFFFFFFFFFFFFFFFFFFFFFFFFFFF AND CALLER PUSH20 0xFFFFFFFFFFFFFFFFFFFFFFFFFFFFFFFFFFFFFFFF AND PUSH32 0x8C5BE1E5EBEC7D5BD14F71427D1E84F3DD0314C0F7B2291E5B200AC8C7C3B925 DUP6 PUSH1 0x40 MLOAD PUSH2 0xC5E SWAP2 SWAP1 PUSH2 0xFCB JUMP JUMPDEST PUSH1 0x40 MLOAD DUP1 SWAP2 SUB SWAP1 LOG3 DUP4 PUSH20 0xFFFFFFFFFFFFFFFFFFFFFFFFFFFFFFFFFFFFFFFF AND PUSH4 0x8F4FFCB1 CALLER DUP6 ADDRESS DUP7 PUSH1 0x40 MLOAD DUP6 PUSH4 0xFFFFFFFF AND PUSH1 0xE0 SHL DUP2 MSTORE PUSH1 0x4 ADD PUSH2 0xCA5 SWAP5 SWAP4 SWAP3 SWAP2 SWAP1 PUSH2 0x1422 JUMP JUMPDEST PUSH0 PUSH1 0x40 MLOAD DUP1 DUP4 SUB DUP2 PUSH0 DUP8 DUP1 EXTCODESIZE ISZERO DUP1 ISZERO PUSH2 0xCBC JUMPI PUSH0 PUSH0 REVERT JUMPDEST POP GAS CALL ISZERO DUP1 ISZERO PUSH2 0xCCE JUMPI RETURNDATASIZE PUSH0 PUSH0 RETURNDATACOPY RETURNDATASIZE PUSH0 REVERT JUMPDEST POP POP POP POP PUSH1 0x1 SWAP1 POP SWAP4 SWAP3 POP POP POP JUMP JUMPDEST PUSH0 DUP2 DUP4 PUSH2 0xCEA SWAP2 SWAP1 PUSH2 0x146C JUMP JUMPDEST SWAP1 POP PUSH0 DUP4 EQ DUP1 PUSH2 0xD04 JUMPI POP DUP2 DUP4 DUP3 PUSH2 0xD02 SWAP2 SWAP1 PUSH2 0x1391 JUMP JUMPDEST EQ JUMPDEST PUSH2 0xD0C JUMPI PUSH0 PUSH0 REVERT JUMPDEST SWAP3 SWAP2 POP POP JUMP JUMPDEST PUSH0 PUSH1 0x5 PUSH0 DUP5 PUSH20 0xFFFFFFFFFFFFFFFFFFFFFFFFFFFFFFFFFFFFFFFF AND PUSH20 0xFFFFFFFFFFFFFFFFFFFFFFFFFFFFFFFFFFFFFFFF AND DUP2 MSTORE PUSH1 0x20 ADD SWAP1 DUP2 MSTORE PUSH1 0x20 ADD PUSH0 KECCAK256 PUSH0 DUP4 PUSH20 0xFFFFFFFFFFFFFFFFFFFFFFFFFFFFFFFFFFFFFFFF AND PUSH20 0xFFFFFFFFFFFFFFFFFFFFFFFFFFFFFFFFFFFFFFFF AND DUP2 MSTORE PUSH1 0x20 ADD SWAP1 DUP2 MSTORE PUSH1 0x20 ADD PUSH0 KECCAK256 SLOAD SWAP1 POP SWAP3 SWAP2 POP POP JUMP JUMPDEST PUSH0 DUP2 DUP4 PUSH2 0xDA1 SWAP2 SWAP1 PUSH2 0x14AD JUMP JUMPDEST SWAP1 POP DUP3 DUP2 LT ISZERO PUSH2 0xDAF JUMPI PUSH0 PUSH0 REVERT JUMPDEST SWAP3 SWAP2 POP POP JUMP JUMPDEST PUSH0 DUP3 DUP3 MSTORE PUSH1 0x20 DUP3 ADD SWAP1 POP SWAP3 SWAP2 POP POP JUMP JUMPDEST PUSH32 0x4574686572206E6F742061636365707465640000000000000000000000000000 PUSH0 DUP3 ADD MSTORE POP JUMP JUMPDEST PUSH0 PUSH2 0xDF9 PUSH1 0x12 DUP4 PUSH2 0xDB5 JUMP JUMPDEST SWAP2 POP PUSH2 0xE04 DUP3 PUSH2 0xDC5 JUMP JUMPDEST PUSH1 0x20 DUP3 ADD SWAP1 POP SWAP2 SWAP1 POP JUMP JUMPDEST PUSH0 PUSH1 0x20 DUP3 ADD SWAP1 POP DUP2 DUP2 SUB PUSH0 DUP4 ADD MSTORE PUSH2 0xE26 DUP2 PUSH2 0xDED JUMP JUMPDEST SWAP1 POP SWAP2 SWAP1 POP JUMP JUMPDEST PUSH0 DUP2 MLOAD SWAP1 POP SWAP2 SWAP1 POP JUMP JUMPDEST DUP3 DUP2 DUP4 MCOPY PUSH0 DUP4 DUP4 ADD MSTORE POP POP POP JUMP JUMPDEST PUSH0 PUSH1 0x1F NOT PUSH1 0x1F DUP4 ADD AND SWAP1 POP SWAP2 SWAP1 POP JUMP JUMPDEST PUSH0 PUSH2 0xE5F DUP3 PUSH2 0xE2D JUMP JUMPDEST PUSH2 0xE69 DUP2 DUP6 PUSH2 0xDB5 JUMP JUMPDEST SWAP4 POP PUSH2 0xE79 DUP2 DUP6 PUSH1 0x20 DUP7 ADD PUSH2 0xE37 JUMP JUMPDEST PUSH2 0xE82 DUP2 PUSH2 0xE45 JUMP JUMPDEST DUP5 ADD SWAP2 POP POP SWAP3 SWAP2 POP POP JUMP JUMPDEST PUSH0 PUSH1 0x20 DUP3 ADD SWAP1 POP DUP2 DUP2 SUB PUSH0 DUP4 ADD MSTORE PUSH2 0xEA5 DUP2 DUP5 PUSH2 0xE55 JUMP JUMPDEST SWAP1 POP SWAP3 SWAP2 POP POP JUMP JUMPDEST PUSH0 PUSH1 0x40 MLOAD SWAP1 POP SWAP1 JUMP JUMPDEST PUSH0 PUSH0 REVERT JUMPDEST PUSH0 PUSH0 REVERT JUMPDEST PUSH0 PUSH20 0xFFFFFFFFFFFFFFFFFFFFFFFFFFFFFFFFFFFFFFFF DUP3 AND SWAP1 POP SWAP2 SWAP1 POP JUMP JUMPDEST PUSH0 PUSH2 0xEE7 DUP3 PUSH2 0xEBE JUMP JUMPDEST SWAP1 POP SWAP2 SWAP1 POP JUMP JUMPDEST PUSH2 0xEF7 DUP2 PUSH2 0xEDD JUMP JUMPDEST DUP2 EQ PUSH2 0xF01 JUMPI PUSH0 PUSH0 REVERT JUMPDEST POP JUMP JUMPDEST PUSH0 DUP2 CALLDATALOAD SWAP1 POP PUSH2 0xF12 DUP2 PUSH2 0xEEE JUMP JUMPDEST SWAP3 SWAP2 POP POP JUMP JUMPDEST PUSH0 DUP2 SWAP1 POP SWAP2 SWAP1 POP JUMP JUMPDEST PUSH2 0xF2A DUP2 PUSH2 0xF18 JUMP JUMPDEST DUP2 EQ PUSH2 0xF34 JUMPI PUSH0 PUSH0 REVERT JUMPDEST POP JUMP JUMPDEST PUSH0 DUP2 CALLDATALOAD SWAP1 POP PUSH2 0xF45 DUP2 PUSH2 0xF21 JUMP JUMPDEST SWAP3 SWAP2 POP POP JUMP JUMPDEST PUSH0 PUSH0 PUSH1 0x40 DUP4 DUP6 SUB SLT ISZERO PUSH2 0xF61 JUMPI PUSH2 0xF60 PUSH2 0xEB6 JUMP JUMPDEST JUMPDEST PUSH0 PUSH2 0xF6E DUP6 DUP3 DUP7 ADD PUSH2 0xF04 JUMP JUMPDEST SWAP3 POP POP PUSH1 0x20 PUSH2 0xF7F DUP6 DUP3 DUP7 ADD PUSH2 0xF37 JUMP JUMPDEST SWAP2 POP POP SWAP3 POP SWAP3 SWAP1 POP JUMP JUMPDEST PUSH0 DUP2 ISZERO ISZERO SWAP1 POP SWAP2 SWAP1 POP JUMP JUMPDEST PUSH2 0xF9D DUP2 PUSH2 0xF89 JUMP JUMPDEST DUP3 MSTORE POP POP JUMP JUMPDEST PUSH0 PUSH1 0x20 DUP3 ADD SWAP1 POP PUSH2 0xFB6 PUSH0 DUP4 ADD DUP5 PUSH2 0xF94 JUMP JUMPDEST SWAP3 SWAP2 POP POP JUMP JUMPDEST PUSH2 0xFC5 DUP2 PUSH2 0xF18 JUMP JUMPDEST DUP3 MSTORE POP POP JUMP JUMPDEST PUSH0 PUSH1 0x20 DUP3 ADD SWAP1 POP PUSH2 0xFDE PUSH0 DUP4 ADD DUP5 PUSH2 0xFBC JUMP JUMPDEST SWAP3 SWAP2 POP POP JUMP JUMPDEST PUSH0 PUSH0 PUSH0 PUSH1 0x60 DUP5 DUP7 SUB SLT ISZERO PUSH2 0xFFB JUMPI PUSH2 0xFFA PUSH2 0xEB6 JUMP JUMPDEST JUMPDEST PUSH0 PUSH2 0x1008 DUP7 DUP3 DUP8 ADD PUSH2 0xF04 JUMP JUMPDEST SWAP4 POP POP PUSH1 0x20 PUSH2 0x1019 DUP7 DUP3 DUP8 ADD PUSH2 0xF04 JUMP JUMPDEST SWAP3 POP POP PUSH1 0x40 PUSH2 0x102A DUP7 DUP3 DUP8 ADD PUSH2 0xF37 JUMP JUMPDEST SWAP2 POP POP SWAP3 POP SWAP3 POP SWAP3 JUMP JUMPDEST PUSH0 PUSH1 0xFF DUP3 AND SWAP1 POP SWAP2 SWAP1 POP JUMP JUMPDEST PUSH2 0x1049 DUP2 PUSH2 0x1034 JUMP JUMPDEST DUP3 MSTORE POP POP JUMP JUMPDEST PUSH0 PUSH1 0x20 DUP3 ADD SWAP1 POP PUSH2 0x1062 PUSH0 DUP4 ADD DUP5 PUSH2 0x1040 JUMP JUMPDEST SWAP3 SWAP2 POP POP JUMP JUMPDEST PUSH0 PUSH1 0x20 DUP3 DUP5 SUB SLT ISZERO PUSH2 0x107D JUMPI PUSH2 0x107C PUSH2 0xEB6 JUMP JUMPDEST JUMPDEST PUSH0 PUSH2 0x108A DUP5 DUP3 DUP6 ADD PUSH2 0xF04 JUMP JUMPDEST SWAP2 POP POP SWAP3 SWAP2 POP POP JUMP JUMPDEST PUSH0 PUSH0 PUSH1 0x40 DUP4 DUP6 SUB SLT ISZERO PUSH2 0x10A9 JUMPI PUSH2 0x10A8 PUSH2 0xEB6 JUMP JUMPDEST JUMPDEST PUSH0 PUSH2 0x10B6 DUP6 DUP3 DUP7 ADD PUSH2 0xF37 JUMP JUMPDEST SWAP3 POP POP PUSH1 0x20 PUSH2 0x10C7 DUP6 DUP3 DUP7 ADD PUSH2 0xF37 JUMP JUMPDEST SWAP2 POP POP SWAP3 POP SWAP3 SWAP1 POP JUMP JUMPDEST PUSH0 PUSH0 REVERT JUMPDEST PUSH0 PUSH0 REVERT JUMPDEST PUSH32 0x4E487B7100000000000000000000000000000000000000000000000000000000 PUSH0 MSTORE PUSH1 0x41 PUSH1 0x4 MSTORE PUSH1 0x24 PUSH0 REVERT JUMPDEST PUSH2 0x110F DUP3 PUSH2 0xE45 JUMP JUMPDEST DUP2 ADD DUP2 DUP2 LT PUSH8 0xFFFFFFFFFFFFFFFF DUP3 GT OR ISZERO PUSH2 0x112E JUMPI PUSH2 0x112D PUSH2 0x10D9 JUMP JUMPDEST JUMPDEST DUP1 PUSH1 0x40 MSTORE POP POP POP JUMP JUMPDEST PUSH0 PUSH2 0x1140 PUSH2 0xEAD JUMP JUMPDEST SWAP1 POP PUSH2 0x114C DUP3 DUP3 PUSH2 0x1106 JUMP JUMPDEST SWAP2 SWAP1 POP JUMP JUMPDEST PUSH0 PUSH8 0xFFFFFFFFFFFFFFFF DUP3 GT ISZERO PUSH2 0x116B JUMPI PUSH2 0x116A PUSH2 0x10D9 JUMP JUMPDEST JUMPDEST PUSH2 0x1174 DUP3 PUSH2 0xE45 JUMP JUMPDEST SWAP1 POP PUSH1 0x20 DUP2 ADD SWAP1 POP SWAP2 SWAP1 POP JUMP JUMPDEST DUP3 DUP2 DUP4 CALLDATACOPY PUSH0 DUP4 DUP4 ADD MSTORE POP POP POP JUMP JUMPDEST PUSH0 PUSH2 0x11A1 PUSH2 0x119C DUP5 PUSH2 0x1151 JUMP JUMPDEST PUSH2 0x1137 JUMP JUMPDEST SWAP1 POP DUP3 DUP2 MSTORE PUSH1 0x20 DUP2 ADD DUP5 DUP5 DUP5 ADD GT ISZERO PUSH2 0x11BD JUMPI PUSH2 0x11BC PUSH2 0x10D5 JUMP JUMPDEST JUMPDEST PUSH2 0x11C8 DUP5 DUP3 DUP6 PUSH2 0x1181 JUMP JUMPDEST POP SWAP4 SWAP3 POP POP POP JUMP JUMPDEST PUSH0 DUP3 PUSH1 0x1F DUP4 ADD SLT PUSH2 0x11E4 JUMPI PUSH2 0x11E3 PUSH2 0x10D1 JUMP JUMPDEST JUMPDEST DUP2 CALLDATALOAD PUSH2 0x11F4 DUP5 DUP3 PUSH1 0x20 DUP7 ADD PUSH2 0x118F JUMP JUMPDEST SWAP2 POP POP SWAP3 SWAP2 POP POP JUMP JUMPDEST PUSH0 PUSH0 PUSH0 PUSH1 0x60 DUP5 DUP7 SUB SLT ISZERO PUSH2 0x1214 JUMPI PUSH2 0x1213 PUSH2 0xEB6 JUMP JUMPDEST JUMPDEST PUSH0 PUSH2 0x1221 DUP7 DUP3 DUP8 ADD PUSH2 0xF04 JUMP JUMPDEST SWAP4 POP POP PUSH1 0x20 PUSH2 0x1232 DUP7 DUP3 DUP8 ADD PUSH2 0xF37 JUMP JUMPDEST SWAP3 POP POP PUSH1 0x40 DUP5 ADD CALLDATALOAD PUSH8 0xFFFFFFFFFFFFFFFF DUP2 GT ISZERO PUSH2 0x1253 JUMPI PUSH2 0x1252 PUSH2 0xEBA JUMP JUMPDEST JUMPDEST PUSH2 0x125F DUP7 DUP3 DUP8 ADD PUSH2 0x11D0 JUMP JUMPDEST SWAP2 POP POP SWAP3 POP SWAP3 POP SWAP3 JUMP JUMPDEST PUSH0 PUSH0 PUSH1 0x40 DUP4 DUP6 SUB SLT ISZERO PUSH2 0x127F JUMPI PUSH2 0x127E PUSH2 0xEB6 JUMP JUMPDEST JUMPDEST PUSH0 PUSH2 0x128C DUP6 DUP3 DUP7 ADD PUSH2 0xF04 JUMP JUMPDEST SWAP3 POP POP PUSH1 0x20 PUSH2 0x129D DUP6 DUP3 DUP7 ADD PUSH2 0xF04 JUMP JUMPDEST SWAP2 POP POP SWAP3 POP SWAP3 SWAP1 POP JUMP JUMPDEST PUSH32 0x4E487B7100000000000000000000000000000000000000000000000000000000 PUSH0 MSTORE PUSH1 0x22 PUSH1 0x4 MSTORE PUSH1 0x24 PUSH0 REVERT JUMPDEST PUSH0 PUSH1 0x2 DUP3 DIV SWAP1 POP PUSH1 0x1 DUP3 AND DUP1 PUSH2 0x12EB JUMPI PUSH1 0x7F DUP3 AND SWAP2 POP JUMPDEST PUSH1 0x20 DUP3 LT DUP2 SUB PUSH2 0x12FE JUMPI PUSH2 0x12FD PUSH2 0x12A7 JUMP JUMPDEST JUMPDEST POP SWAP2 SWAP1 POP JUMP JUMPDEST PUSH32 0x4E487B7100000000000000000000000000000000000000000000000000000000 PUSH0 MSTORE PUSH1 0x11 PUSH1 0x4 MSTORE PUSH1 0x24 PUSH0 REVERT JUMPDEST PUSH0 PUSH2 0x133B DUP3 PUSH2 0xF18 JUMP JUMPDEST SWAP2 POP PUSH2 0x1346 DUP4 PUSH2 0xF18 JUMP JUMPDEST SWAP3 POP DUP3 DUP3 SUB SWAP1 POP DUP2 DUP2 GT ISZERO PUSH2 0x135E JUMPI PUSH2 0x135D PUSH2 0x1304 JUMP JUMPDEST JUMPDEST SWAP3 SWAP2 POP POP JUMP JUMPDEST PUSH32 0x4E487B7100000000000000000000000000000000000000000000000000000000 PUSH0 MSTORE PUSH1 0x12 PUSH1 0x4 MSTORE PUSH1 0x24 PUSH0 REVERT JUMPDEST PUSH0 PUSH2 0x139B DUP3 PUSH2 0xF18 JUMP JUMPDEST SWAP2 POP PUSH2 0x13A6 DUP4 PUSH2 0xF18 JUMP JUMPDEST SWAP3 POP DUP3 PUSH2 0x13B6 JUMPI PUSH2 0x13B5 PUSH2 0x1364 JUMP JUMPDEST JUMPDEST DUP3 DUP3 DIV SWAP1 POP SWAP3 SWAP2 POP POP JUMP JUMPDEST PUSH2 0x13CA DUP2 PUSH2 0xEDD JUMP JUMPDEST DUP3 MSTORE POP POP JUMP JUMPDEST PUSH0 DUP2 MLOAD SWAP1 POP SWAP2 SWAP1 POP JUMP JUMPDEST PUSH0 DUP3 DUP3 MSTORE PUSH1 0x20 DUP3 ADD SWAP1 POP SWAP3 SWAP2 POP POP JUMP JUMPDEST PUSH0 PUSH2 0x13F4 DUP3 PUSH2 0x13D0 JUMP JUMPDEST PUSH2 0x13FE DUP2 DUP6 PUSH2 0x13DA JUMP JUMPDEST SWAP4 POP PUSH2 0x140E DUP2 DUP6 PUSH1 0x20 DUP7 ADD PUSH2 0xE37 JUMP JUMPDEST PUSH2 0x1417 DUP2 PUSH2 0xE45 JUMP JUMPDEST DUP5 ADD SWAP2 POP POP SWAP3 SWAP2 POP POP JUMP JUMPDEST PUSH0 PUSH1 0x80 DUP3 ADD SWAP1 POP PUSH2 0x1435 PUSH0 DUP4 ADD DUP8 PUSH2 0x13C1 JUMP JUMPDEST PUSH2 0x1442 PUSH1 0x20 DUP4 ADD DUP7 PUSH2 0xFBC JUMP JUMPDEST PUSH2 0x144F PUSH1 0x40 DUP4 ADD DUP6 PUSH2 0x13C1 JUMP JUMPDEST DUP2 DUP2 SUB PUSH1 0x60 DUP4 ADD MSTORE PUSH2 0x1461 DUP2 DUP5 PUSH2 0x13EA JUMP JUMPDEST SWAP1 POP SWAP6 SWAP5 POP POP POP POP POP JUMP JUMPDEST PUSH0 PUSH2 0x1476 DUP3 PUSH2 0xF18 JUMP JUMPDEST SWAP2 POP PUSH2 0x1481 DUP4 PUSH2 0xF18 JUMP JUMPDEST SWAP3 POP DUP3 DUP3 MUL PUSH2 0x148F DUP2 PUSH2 0xF18 JUMP JUMPDEST SWAP2 POP DUP3 DUP3 DIV DUP5 EQ DUP4 ISZERO OR PUSH2 0x14A6 JUMPI PUSH2 0x14A5 PUSH2 0x1304 JUMP JUMPDEST JUMPDEST POP SWAP3 SWAP2 POP POP JUMP JUMPDEST PUSH0 PUSH2 0x14B7 DUP3 PUSH2 0xF18 JUMP JUMPDEST SWAP2 POP PUSH2 0x14C2 DUP4 PUSH2 0xF18 JUMP JUMPDEST SWAP3 POP DUP3 DUP3 ADD SWAP1 POP DUP1 DUP3 GT ISZERO PUSH2 0x14DA JUMPI PUSH2 0x14D9 PUSH2 0x1304 JUMP JUMPDEST JUMPDEST SWAP3 SWAP2 POP POP JUMP INVALID LOG2 PUSH5 0x6970667358 0x22 SLT KECCAK256 0xA9 0xD0 0xE3 NUMBER CALLDATALOAD RETURNDATASIZE KECCAK256 0xF7 PUSH9 0x3242A8AAAB44452EE6 0xA6 MUL SWAP15 0xDE 0x4B LOG0 PUSH0 DUP10 0xC6 0xDF 0xD0 BLOBHASH CHAINID 0x26 PUSH5 0x736F6C6343 STOP ADDMOD SHL STOP CALLER "
				},
				"gasEstimates": {
					"creation": {
						"codeDepositCost": "1079600",
						"executionCost": "infinite",
						"totalCost": "infinite"
					},
					"external": {
						"": "468",
						"_totalSupply()": "2492",
						"allowance(address,address)": "infinite",
						"approve(address,uint256)": "infinite",
						"approveAndCall(address,uint256,bytes)": "infinite",
						"balanceOf(address)": "2918",
						"decimals()": "2511",
						"name()": "infinite",
						"safeAdd(uint256,uint256)": "infinite",
						"safeDiv(uint256,uint256)": "infinite",
						"safeMul(uint256,uint256)": "infinite",
						"safeSub(uint256,uint256)": "infinite",
						"symbol()": "infinite",
						"totalSupply()": "infinite",
						"transfer(address,uint256)": "infinite",
						"transferFrom(address,address,uint256)": "infinite"
					}
				},
				"methodIdentifiers": {
					"_totalSupply()": "3eaaf86b",
					"allowance(address,address)": "dd62ed3e",
					"approve(address,uint256)": "095ea7b3",
					"approveAndCall(address,uint256,bytes)": "cae9ca51",
					"balanceOf(address)": "70a08231",
					"decimals()": "313ce567",
					"name()": "06fdde03",
					"safeAdd(uint256,uint256)": "e6cb9013",
					"safeDiv(uint256,uint256)": "b5931f7c",
					"safeMul(uint256,uint256)": "d05c78da",
					"safeSub(uint256,uint256)": "a293d1e8",
					"symbol()": "95d89b41",
					"totalSupply()": "18160ddd",
					"transfer(address,uint256)": "a9059cbb",
					"transferFrom(address,address,uint256)": "23b872dd"
				}
			},
			"storageLayout": {
				"storage": [
					{
						"astId": 181,
						"contract": "token.sol:DIOToken",
						"label": "symbol",
						"offset": 0,
						"slot": "0",
						"type": "t_string_storage"
					},
					{
						"astId": 183,
						"contract": "token.sol:DIOToken",
						"label": "name",
						"offset": 0,
						"slot": "1",
						"type": "t_string_storage"
					},
					{
						"astId": 185,
						"contract": "token.sol:DIOToken",
						"label": "decimals",
						"offset": 0,
						"slot": "2",
						"type": "t_uint8"
					},
					{
						"astId": 187,
						"contract": "token.sol:DIOToken",
						"label": "_totalSupply",
						"offset": 0,
						"slot": "3",
						"type": "t_uint256"
					},
					{
						"astId": 191,
						"contract": "token.sol:DIOToken",
						"label": "balances",
						"offset": 0,
						"slot": "4",
						"type": "t_mapping(t_address,t_uint256)"
					},
					{
						"astId": 197,
						"contract": "token.sol:DIOToken",
						"label": "allowed",
						"offset": 0,
						"slot": "5",
						"type": "t_mapping(t_address,t_mapping(t_address,t_uint256))"
					}
				],
				"types": {
					"t_address": {
						"encoding": "inplace",
						"label": "address",
						"numberOfBytes": "20"
					},
					"t_mapping(t_address,t_mapping(t_address,t_uint256))": {
						"encoding": "mapping",
						"key": "t_address",
						"label": "mapping(address => mapping(address => uint256))",
						"numberOfBytes": "32",
						"value": "t_mapping(t_address,t_uint256)"
					},
					"t_mapping(t_address,t_uint256)": {
						"encoding": "mapping",
						"key": "t_address",
						"label": "mapping(address => uint256)",
						"numberOfBytes": "32",
						"value": "t_uint256"
					},
					"t_string_storage": {
						"encoding": "bytes",
						"label": "string",
						"numberOfBytes": "32"
					},
					"t_uint256": {
						"encoding": "inplace",
						"label": "uint256",
						"numberOfBytes": "32"
					},
					"t_uint8": {
						"encoding": "inplace",
						"label": "uint8",
						"numberOfBytes": "1"
					}
				}
			},
			"userdoc": {
				"kind": "user",
				"methods": {},
				"version": 1
			}
		}
	}
}