{
	"contracts/token.sol": {
		"DIOToken": {
			"abi": [
				{
					"inputs": [],
					"stateMutability": "nonpayable",
					"type": "constructor"
				},
				{
					"anonymous": false,
					"inputs": [
						{
							"indexed": true,
							"internalType": "address",
							"name": "tokenOwner",
							"type": "address"
						},
						{
							"indexed": true,
							"internalType": "address",
							"name": "spender",
							"type": "address"
						},
						{
							"indexed": false,
							"internalType": "uint256",
							"name": "tokens",
							"type": "uint256"
						}
					],
					"name": "Approval",
					"type": "event"
				},
				{
					"anonymous": false,
					"inputs": [
						{
							"indexed": true,
							"internalType": "address",
							"name": "from",
							"type": "address"
						},
						{
							"indexed": true,
							"internalType": "address",
							"name": "to",
							"type": "address"
						},
						{
							"indexed": false,
							"internalType": "uint256",
							"name": "tokens",
							"type": "uint256"
						}
					],
					"name": "Transfer",
					"type": "event"
				},
				{
					"stateMutability": "payable",
					"type": "fallback"
				},
				{
					"inputs": [],
					"name": "_totalSupply",
					"outputs": [
						{
							"internalType": "uint256",
							"name": "",
							"type": "uint256"
						}
					],
					"stateMutability": "view",
					"type": "function"
				},
				{
					"inputs": [
						{
							"internalType": "address",
							"name": "tokenOwner",
							"type": "address"
						},
						{
							"internalType": "address",
							"name": "spender",
							"type": "address"
						}
					],
					"name": "allowance",
					"outputs": [
						{
							"internalType": "uint256",
							"name": "remaining",
							"type": "uint256"
						}
					],
					"stateMutability": "view",
					"type": "function"
				},
				{
					"inputs": [
						{
							"internalType": "address",
							"name": "spender",
							"type": "address"
						},
						{
							"internalType": "uint256",
							"name": "tokens",
							"type": "uint256"
						}
					],
					"name": "approve",
					"outputs": [
						{
							"internalType": "bool",
							"name": "success",
							"type": "bool"
						}
					],
					"stateMutability": "nonpayable",
					"type": "function"
				},
				{
					"inputs": [
						{
							"internalType": "address",
							"name": "spender",
							"type": "address"
						},
						{
							"internalType": "uint256",
							"name": "tokens",
							"type": "uint256"
						},
						{
							"internalType": "bytes",
							"name": "data",
							"type": "bytes"
						}
					],
					"name": "approveAndCall",
					"outputs": [
						{
							"internalType": "bool",
							"name": "success",
							"type": "bool"
						}
					],
					"stateMutability": "nonpayable",
					"type": "function"
				},
				{
					"inputs": [
						{
							"internalType": "address",
							"name": "tokenOwner",
							"type": "address"
						}
					],
					"name": "balanceOf",
					"outputs": [
						{
							"internalType": "uint256",
							"name": "balance",
							"type": "uint256"
						}
					],
					"stateMutability": "view",
					"type": "function"
				},
				{
					"inputs": [],
					"name": "decimals",
					"outputs": [
						{
							"internalType": "uint8",
							"name": "",
							"type": "uint8"
						}
					],
					"stateMutability": "view",
					"type": "function"
				},
				{
					"inputs": [],
					"name": "name",
					"outputs": [
						{
							"internalType": "string",
							"name": "",
							"type": "string"
						}
					],
					"stateMutability": "view",
					"type": "function"
				},
				{
					"inputs": [
						{
							"internalType": "uint256",
							"name": "a",
							"type": "uint256"
						},
						{
							"internalType": "uint256",
							"name": "b",
							"type": "uint256"
						}
					],
					"name": "safeAdd",
					"outputs": [
						{
							"internalType": "uint256",
							"name": "c",
							"type": "uint256"
						}
					],
					"stateMutability": "pure",
					"type": "function"
				},
				{
					"inputs": [
						{
							"internalType": "uint256",
							"name": "a",
							"type": "uint256"
						},
						{
							"internalType": "uint256",
							"name": "b",
							"type": "uint256"
						}
					],
					"name": "safeDiv",
					"outputs": [
						{
							"internalType": "uint256",
							"name": "c",
							"type": "uint256"
						}
					],
					"stateMutability": "pure",
					"type": "function"
				},
				{
					"inputs": [
						{
							"internalType": "uint256",
							"name": "a",
							"type": "uint256"
						},
						{
							"internalType": "uint256",
							"name": "b",
							"type": "uint256"
						}
					],
					"name": "safeMul",
					"outputs": [
						{
							"internalType": "uint256",
							"name": "c",
							"type": "uint256"
						}
					],
					"stateMutability": "pure",
					"type": "function"
				},
				{
					"inputs": [
						{
							"internalType": "uint256",
							"name": "a",
							"type": "uint256"
						},
						{
							"internalType": "uint256",
							"name": "b",
							"type": "uint256"
						}
					],
					"name": "safeSub",
					"outputs": [
						{
							"internalType": "uint256",
							"name": "c",
							"type": "uint256"
						}
					],
					"stateMutability": "pure",
					"type": "function"
				},
				{
					"inputs": [],
					"name": "symbol",
					"outputs": [
						{
							"internalType": "string",
							"name": "",
							"type": "string"
						}
					],
					"stateMutability": "view",
					"type": "function"
				},
				{
					"inputs": [],
					"name": "totalSupply",
					"outputs": [
						{
							"internalType": "uint256",
							"name": "",
							"type": "uint256"
						}
					],
					"stateMutability": "view",
					"type": "function"
				},
				{
					"inputs": [
						{
							"internalType": "address",
							"name": "to",
							"type": "address"
						},
						{
							"internalType": "uint256",
							"name": "tokens",
							"type": "uint256"
						}
					],
					"name": "transfer",
					"outputs": [
						{
							"internalType": "bool",
							"name": "success",
							"type": "bool"
						}
					],
					"stateMutability": "nonpayable",
					"type": "function"
				},
				{
					"inputs": [
						{
							"internalType": "address",
							"name": "from",
							"type": "address"
						},
						{
							"internalType": "address",
							"name": "to",
							"type": "address"
						},
						{
							"internalType": "uint256",
							"name": "tokens",
							"type": "uint256"
						}
					],
					"name": "transferFrom",
					"outputs": [
						{
							"internalType": "bool",
							"name": "success",
							"type": "bool"
						}
					],
					"stateMutability": "nonpayable",
					"type": "function"
				},
				{
					"stateMutability": "payable",
					"type": "receive"
				}
			],
			"devdoc": {
				"kind": "dev",
				"methods": {},
				"version": 1
			},
			"evm": {
				"assembly": "    /* \"contracts/token.sol\":1740:4242  contract DIOToken is ERC20Interface, SafeMath {... */\n  mstore(0x40, 0x80)\n    /* \"contracts/token.sol\":2007:2341  constructor() {... */\n  callvalue\n  dup1\n  iszero\n  tag_1\n  jumpi\n  0x00\n  dup1\n  revert\ntag_1:\n  pop\n    /* \"contracts/token.sol\":2032:2046  symbol = \"DIO\" */\n  mload(0x40)\n  dup1\n  0x40\n  add\n  0x40\n  mstore\n  dup1\n  0x03\n  dup2\n  mstore\n  0x20\n  add\n  0x44494f0000000000000000000000000000000000000000000000000000000000\n  dup2\n  mstore\n  pop\n    /* \"contracts/token.sol\":2032:2038  symbol */\n  0x00\n    /* \"contracts/token.sol\":2032:2046  symbol = \"DIO\" */\n  swap1\n  dup2\n  tag_4\n  swap2\n  swap1\n  tag_5\n  jump\t// in\ntag_4:\n  pop\n    /* \"contracts/token.sol\":2057:2074  name = \"DIO Coin\" */\n  mload(0x40)\n  dup1\n  0x40\n  add\n  0x40\n  mstore\n  dup1\n  0x08\n  dup2\n  mstore\n  0x20\n  add\n  0x44494f20436f696e000000000000000000000000000000000000000000000000\n  dup2\n  mstore\n  pop\n    /* \"contracts/token.sol\":2057:2061  name */\n  0x01\n    /* \"contracts/token.sol\":2057:2074  name = \"DIO Coin\" */\n  swap1\n  dup2\n  tag_6\n  swap2\n  swap1\n  tag_5\n  jump\t// in\ntag_6:\n  pop\n    /* \"contracts/token.sol\":2096:2097  2 */\n  0x02\n    /* \"contracts/token.sol\":2085:2093  decimals */\n  dup1\n  0x00\n    /* \"contracts/token.sol\":2085:2097  decimals = 2 */\n  0x0100\n  exp\n  dup2\n  sload\n  dup2\n  0xff\n  mul\n  not\n  and\n  swap1\n  dup4\n  0xff\n  and\n  mul\n  or\n  swap1\n  sstore\n  pop\n    /* \"contracts/token.sol\":2123:2129  100000 */\n  0x0186a0\n    /* \"contracts/token.sol\":2108:2120  _totalSupply */\n  0x03\n    /* \"contracts/token.sol\":2108:2129  _totalSupply = 100000 */\n  dup2\n  swap1\n  sstore\n  pop\n    /* \"contracts/token.sol\":2195:2207  _totalSupply */\n  sload(0x03)\n    /* \"contracts/token.sol\":2140:2148  balances */\n  0x04\n    /* \"contracts/token.sol\":2140:2192  balances[0xB27B0857dceBA810AabA578e8e20b3810C534B34] */\n  0x00\n    /* \"contracts/token.sol\":2149:2191  0xB27B0857dceBA810AabA578e8e20b3810C534B34 */\n  0xb27b0857dceba810aaba578e8e20b3810c534b34\n    /* \"contracts/token.sol\":2140:2192  balances[0xB27B0857dceBA810AabA578e8e20b3810C534B34] */\n  0xffffffffffffffffffffffffffffffffffffffff\n  and\n  0xffffffffffffffffffffffffffffffffffffffff\n  and\n  dup2\n  mstore\n  0x20\n  add\n  swap1\n  dup2\n  mstore\n  0x20\n  add\n  0x00\n  keccak256\n    /* \"contracts/token.sol\":2140:2207  balances[0xB27B0857dceBA810AabA578e8e20b3810C534B34] = _totalSupply */\n  dup2\n  swap1\n  sstore\n  pop\n    /* \"contracts/token.sol\":2276:2318  0xB27B0857dceBA810AabA578e8e20b3810C534B34 */\n  0xb27b0857dceba810aaba578e8e20b3810c534b34\n    /* \"contracts/token.sol\":2255:2333  Transfer(address(0), 0xB27B0857dceBA810AabA578e8e20b3810C534B34, _totalSupply) */\n  0xffffffffffffffffffffffffffffffffffffffff\n  and\n    /* \"contracts/token.sol\":2272:2273  0 */\n  0x00\n    /* \"contracts/token.sol\":2255:2333  Transfer(address(0), 0xB27B0857dceBA810AabA578e8e20b3810C534B34, _totalSupply) */\n  0xffffffffffffffffffffffffffffffffffffffff\n  and\n  0xddf252ad1be2c89b69c2b068fc378daa952ba7f163c4a11628f55a4df523b3ef\n    /* \"contracts/token.sol\":2320:2332  _totalSupply */\n  sload(0x03)\n    /* \"contracts/token.sol\":2255:2333  Transfer(address(0), 0xB27B0857dceBA810AabA578e8e20b3810C534B34, _totalSupply) */\n  mload(0x40)\n  tag_7\n  swap2\n  swap1\n  tag_8\n  jump\t// in\ntag_7:\n  mload(0x40)\n  dup1\n  swap2\n  sub\n  swap1\n  log3\n    /* \"contracts/token.sol\":1740:4242  contract DIOToken is ERC20Interface, SafeMath {... */\n  jump(tag_9)\n    /* \"#utility.yul\":7:106   */\ntag_10:\n    /* \"#utility.yul\":59:65   */\n  0x00\n    /* \"#utility.yul\":93:98   */\n  dup2\n    /* \"#utility.yul\":87:99   */\n  mload\n    /* \"#utility.yul\":77:99   */\n  swap1\n  pop\n    /* \"#utility.yul\":7:106   */\n  swap2\n  swap1\n  pop\n  jump\t// out\n    /* \"#utility.yul\":112:292   */\ntag_11:\n    /* \"#utility.yul\":160:237   */\n  0x4e487b7100000000000000000000000000000000000000000000000000000000\n    /* \"#utility.yul\":157:158   */\n  0x00\n    /* \"#utility.yul\":150:238   */\n  mstore\n    /* \"#utility.yul\":257:261   */\n  0x41\n    /* \"#utility.yul\":254:255   */\n  0x04\n    /* \"#utility.yul\":247:262   */\n  mstore\n    /* \"#utility.yul\":281:285   */\n  0x24\n    /* \"#utility.yul\":278:279   */\n  0x00\n    /* \"#utility.yul\":271:286   */\n  revert\n    /* \"#utility.yul\":298:478   */\ntag_12:\n    /* \"#utility.yul\":346:423   */\n  0x4e487b7100000000000000000000000000000000000000000000000000000000\n    /* \"#utility.yul\":343:344   */\n  0x00\n    /* \"#utility.yul\":336:424   */\n  mstore\n    /* \"#utility.yul\":443:447   */\n  0x22\n    /* \"#utility.yul\":440:441   */\n  0x04\n    /* \"#utility.yul\":433:448   */\n  mstore\n    /* \"#utility.yul\":467:471   */\n  0x24\n    /* \"#utility.yul\":464:465   */\n  0x00\n    /* \"#utility.yul\":457:472   */\n  revert\n    /* \"#utility.yul\":484:804   */\ntag_13:\n    /* \"#utility.yul\":528:534   */\n  0x00\n    /* \"#utility.yul\":565:566   */\n  0x02\n    /* \"#utility.yul\":559:563   */\n  dup3\n    /* \"#utility.yul\":555:567   */\n  div\n    /* \"#utility.yul\":545:567   */\n  swap1\n  pop\n    /* \"#utility.yul\":612:613   */\n  0x01\n    /* \"#utility.yul\":606:610   */\n  dup3\n    /* \"#utility.yul\":602:614   */\n  and\n    /* \"#utility.yul\":633:651   */\n  dup1\n    /* \"#utility.yul\":623:704   */\n  tag_36\n  jumpi\n    /* \"#utility.yul\":689:693   */\n  0x7f\n    /* \"#utility.yul\":681:687   */\n  dup3\n    /* \"#utility.yul\":677:694   */\n  and\n    /* \"#utility.yul\":667:694   */\n  swap2\n  pop\n    /* \"#utility.yul\":623:704   */\ntag_36:\n    /* \"#utility.yul\":751:753   */\n  0x20\n    /* \"#utility.yul\":743:749   */\n  dup3\n    /* \"#utility.yul\":740:754   */\n  lt\n    /* \"#utility.yul\":720:738   */\n  dup2\n    /* \"#utility.yul\":717:755   */\n  sub\n    /* \"#utility.yul\":714:798   */\n  tag_37\n  jumpi\n    /* \"#utility.yul\":770:788   */\n  tag_38\n  tag_12\n  jump\t// in\ntag_38:\n    /* \"#utility.yul\":714:798   */\ntag_37:\n    /* \"#utility.yul\":535:804   */\n  pop\n    /* \"#utility.yul\":484:804   */\n  swap2\n  swap1\n  pop\n  jump\t// out\n    /* \"#utility.yul\":810:951   */\ntag_14:\n    /* \"#utility.yul\":859:863   */\n  0x00\n    /* \"#utility.yul\":882:885   */\n  dup2\n    /* \"#utility.yul\":874:885   */\n  swap1\n  pop\n    /* \"#utility.yul\":905:908   */\n  dup2\n    /* \"#utility.yul\":902:903   */\n  0x00\n    /* \"#utility.yul\":895:909   */\n  mstore\n    /* \"#utility.yul\":939:943   */\n  0x20\n    /* \"#utility.yul\":936:937   */\n  0x00\n    /* \"#utility.yul\":926:944   */\n  keccak256\n    /* \"#utility.yul\":918:944   */\n  swap1\n  pop\n    /* \"#utility.yul\":810:951   */\n  swap2\n  swap1\n  pop\n  jump\t// out\n    /* \"#utility.yul\":957:1050   */\ntag_15:\n    /* \"#utility.yul\":994:1000   */\n  0x00\n    /* \"#utility.yul\":1041:1043   */\n  0x20\n    /* \"#utility.yul\":1036:1038   */\n  0x1f\n    /* \"#utility.yul\":1029:1034   */\n  dup4\n    /* \"#utility.yul\":1025:1039   */\n  add\n    /* \"#utility.yul\":1021:1044   */\n  div\n    /* \"#utility.yul\":1011:1044   */\n  swap1\n  pop\n    /* \"#utility.yul\":957:1050   */\n  swap2\n  swap1\n  pop\n  jump\t// out\n    /* \"#utility.yul\":1056:1163   */\ntag_16:\n    /* \"#utility.yul\":1100:1108   */\n  0x00\n    /* \"#utility.yul\":1150:1155   */\n  dup3\n    /* \"#utility.yul\":1144:1148   */\n  dup3\n    /* \"#utility.yul\":1140:1156   */\n  shl\n    /* \"#utility.yul\":1119:1156   */\n  swap1\n  pop\n    /* \"#utility.yul\":1056:1163   */\n  swap3\n  swap2\n  pop\n  pop\n  jump\t// out\n    /* \"#utility.yul\":1169:1562   */\ntag_17:\n    /* \"#utility.yul\":1238:1244   */\n  0x00\n    /* \"#utility.yul\":1288:1289   */\n  0x08\n    /* \"#utility.yul\":1276:1286   */\n  dup4\n    /* \"#utility.yul\":1272:1290   */\n  mul\n    /* \"#utility.yul\":1311:1408   */\n  tag_43\n    /* \"#utility.yul\":1341:1407   */\n  0xffffffffffffffffffffffffffffffffffffffffffffffffffffffffffffffff\n    /* \"#utility.yul\":1330:1339   */\n  dup3\n    /* \"#utility.yul\":1311:1408   */\n  tag_16\n  jump\t// in\ntag_43:\n    /* \"#utility.yul\":1429:1468   */\n  tag_44\n    /* \"#utility.yul\":1459:1467   */\n  dup7\n    /* \"#utility.yul\":1448:1457   */\n  dup4\n    /* \"#utility.yul\":1429:1468   */\n  tag_16\n  jump\t// in\ntag_44:\n    /* \"#utility.yul\":1417:1468   */\n  swap6\n  pop\n    /* \"#utility.yul\":1501:1505   */\n  dup1\n    /* \"#utility.yul\":1497:1506   */\n  not\n    /* \"#utility.yul\":1490:1495   */\n  dup5\n    /* \"#utility.yul\":1486:1507   */\n  and\n    /* \"#utility.yul\":1477:1507   */\n  swap4\n  pop\n    /* \"#utility.yul\":1550:1554   */\n  dup1\n    /* \"#utility.yul\":1540:1548   */\n  dup7\n    /* \"#utility.yul\":1536:1555   */\n  and\n    /* \"#utility.yul\":1529:1534   */\n  dup5\n    /* \"#utility.yul\":1526:1556   */\n  or\n    /* \"#utility.yul\":1516:1556   */\n  swap3\n  pop\n    /* \"#utility.yul\":1245:1562   */\n  pop\n  pop\n    /* \"#utility.yul\":1169:1562   */\n  swap4\n  swap3\n  pop\n  pop\n  pop\n  jump\t// out\n    /* \"#utility.yul\":1568:1645   */\ntag_18:\n    /* \"#utility.yul\":1605:1612   */\n  0x00\n    /* \"#utility.yul\":1634:1639   */\n  dup2\n    /* \"#utility.yul\":1623:1639   */\n  swap1\n  pop\n    /* \"#utility.yul\":1568:1645   */\n  swap2\n  swap1\n  pop\n  jump\t// out\n    /* \"#utility.yul\":1651:1711   */\ntag_19:\n    /* \"#utility.yul\":1679:1682   */\n  0x00\n    /* \"#utility.yul\":1700:1705   */\n  dup2\n    /* \"#utility.yul\":1693:1705   */\n  swap1\n  pop\n    /* \"#utility.yul\":1651:1711   */\n  swap2\n  swap1\n  pop\n  jump\t// out\n    /* \"#utility.yul\":1717:1859   */\ntag_20:\n    /* \"#utility.yul\":1767:1776   */\n  0x00\n    /* \"#utility.yul\":1800:1853   */\n  tag_48\n    /* \"#utility.yul\":1818:1852   */\n  tag_49\n    /* \"#utility.yul\":1827:1851   */\n  tag_50\n    /* \"#utility.yul\":1845:1850   */\n  dup5\n    /* \"#utility.yul\":1827:1851   */\n  tag_18\n  jump\t// in\ntag_50:\n    /* \"#utility.yul\":1818:1852   */\n  tag_19\n  jump\t// in\ntag_49:\n    /* \"#utility.yul\":1800:1853   */\n  tag_18\n  jump\t// in\ntag_48:\n    /* \"#utility.yul\":1787:1853   */\n  swap1\n  pop\n    /* \"#utility.yul\":1717:1859   */\n  swap2\n  swap1\n  pop\n  jump\t// out\n    /* \"#utility.yul\":1865:1940   */\ntag_21:\n    /* \"#utility.yul\":1908:1911   */\n  0x00\n    /* \"#utility.yul\":1929:1934   */\n  dup2\n    /* \"#utility.yul\":1922:1934   */\n  swap1\n  pop\n    /* \"#utility.yul\":1865:1940   */\n  swap2\n  swap1\n  pop\n  jump\t// out\n    /* \"#utility.yul\":1946:2215   */\ntag_22:\n    /* \"#utility.yul\":2056:2095   */\n  tag_53\n    /* \"#utility.yul\":2087:2094   */\n  dup4\n    /* \"#utility.yul\":2056:2095   */\n  tag_20\n  jump\t// in\ntag_53:\n    /* \"#utility.yul\":2117:2208   */\n  tag_54\n    /* \"#utility.yul\":2166:2207   */\n  tag_55\n    /* \"#utility.yul\":2190:2206   */\n  dup3\n    /* \"#utility.yul\":2166:2207   */\n  tag_21\n  jump\t// in\ntag_55:\n    /* \"#utility.yul\":2158:2164   */\n  dup5\n    /* \"#utility.yul\":2151:2155   */\n  dup5\n    /* \"#utility.yul\":2145:2156   */\n  sload\n    /* \"#utility.yul\":2117:2208   */\n  tag_17\n  jump\t// in\ntag_54:\n    /* \"#utility.yul\":2111:2115   */\n  dup3\n    /* \"#utility.yul\":2104:2209   */\n  sstore\n    /* \"#utility.yul\":2022:2215   */\n  pop\n    /* \"#utility.yul\":1946:2215   */\n  pop\n  pop\n  pop\n  jump\t// out\n    /* \"#utility.yul\":2221:2294   */\ntag_23:\n    /* \"#utility.yul\":2266:2269   */\n  0x00\n    /* \"#utility.yul\":2221:2294   */\n  swap1\n  jump\t// out\n    /* \"#utility.yul\":2300:2489   */\ntag_24:\n    /* \"#utility.yul\":2377:2409   */\n  tag_58\n  tag_23\n  jump\t// in\ntag_58:\n    /* \"#utility.yul\":2418:2483   */\n  tag_59\n    /* \"#utility.yul\":2476:2482   */\n  dup2\n    /* \"#utility.yul\":2468:2474   */\n  dup5\n    /* \"#utility.yul\":2462:2466   */\n  dup5\n    /* \"#utility.yul\":2418:2483   */\n  tag_22\n  jump\t// in\ntag_59:\n    /* \"#utility.yul\":2353:2489   */\n  pop\n    /* \"#utility.yul\":2300:2489   */\n  pop\n  pop\n  jump\t// out\n    /* \"#utility.yul\":2495:2681   */\ntag_25:\n    /* \"#utility.yul\":2555:2675   */\ntag_61:\n    /* \"#utility.yul\":2572:2575   */\n  dup2\n    /* \"#utility.yul\":2565:2570   */\n  dup2\n    /* \"#utility.yul\":2562:2576   */\n  lt\n    /* \"#utility.yul\":2555:2675   */\n  iszero\n  tag_63\n  jumpi\n    /* \"#utility.yul\":2626:2665   */\n  tag_64\n    /* \"#utility.yul\":2663:2664   */\n  0x00\n    /* \"#utility.yul\":2656:2661   */\n  dup3\n    /* \"#utility.yul\":2626:2665   */\n  tag_24\n  jump\t// in\ntag_64:\n    /* \"#utility.yul\":2599:2600   */\n  0x01\n    /* \"#utility.yul\":2592:2597   */\n  dup2\n    /* \"#utility.yul\":2588:2601   */\n  add\n    /* \"#utility.yul\":2579:2601   */\n  swap1\n  pop\n    /* \"#utility.yul\":2555:2675   */\n  jump(tag_61)\ntag_63:\n    /* \"#utility.yul\":2495:2681   */\n  pop\n  pop\n  jump\t// out\n    /* \"#utility.yul\":2687:3230   */\ntag_26:\n    /* \"#utility.yul\":2788:2790   */\n  0x1f\n    /* \"#utility.yul\":2783:2786   */\n  dup3\n    /* \"#utility.yul\":2780:2791   */\n  gt\n    /* \"#utility.yul\":2777:3223   */\n  iszero\n  tag_66\n  jumpi\n    /* \"#utility.yul\":2822:2860   */\n  tag_67\n    /* \"#utility.yul\":2854:2859   */\n  dup2\n    /* \"#utility.yul\":2822:2860   */\n  tag_14\n  jump\t// in\ntag_67:\n    /* \"#utility.yul\":2906:2935   */\n  tag_68\n    /* \"#utility.yul\":2924:2934   */\n  dup5\n    /* \"#utility.yul\":2906:2935   */\n  tag_15\n  jump\t// in\ntag_68:\n    /* \"#utility.yul\":2896:2904   */\n  dup2\n    /* \"#utility.yul\":2892:2936   */\n  add\n    /* \"#utility.yul\":3089:3091   */\n  0x20\n    /* \"#utility.yul\":3077:3087   */\n  dup6\n    /* \"#utility.yul\":3074:3092   */\n  lt\n    /* \"#utility.yul\":3071:3120   */\n  iszero\n  tag_69\n  jumpi\n    /* \"#utility.yul\":3110:3118   */\n  dup2\n    /* \"#utility.yul\":3095:3118   */\n  swap1\n  pop\n    /* \"#utility.yul\":3071:3120   */\ntag_69:\n    /* \"#utility.yul\":3133:3213   */\n  tag_70\n    /* \"#utility.yul\":3189:3211   */\n  tag_71\n    /* \"#utility.yul\":3207:3210   */\n  dup6\n    /* \"#utility.yul\":3189:3211   */\n  tag_15\n  jump\t// in\ntag_71:\n    /* \"#utility.yul\":3179:3187   */\n  dup4\n    /* \"#utility.yul\":3175:3212   */\n  add\n    /* \"#utility.yul\":3162:3173   */\n  dup3\n    /* \"#utility.yul\":3133:3213   */\n  tag_25\n  jump\t// in\ntag_70:\n    /* \"#utility.yul\":2792:3223   */\n  pop\n  pop\n    /* \"#utility.yul\":2777:3223   */\ntag_66:\n    /* \"#utility.yul\":2687:3230   */\n  pop\n  pop\n  pop\n  jump\t// out\n    /* \"#utility.yul\":3236:3353   */\ntag_27:\n    /* \"#utility.yul\":3290:3298   */\n  0x00\n    /* \"#utility.yul\":3340:3345   */\n  dup3\n    /* \"#utility.yul\":3334:3338   */\n  dup3\n    /* \"#utility.yul\":3330:3346   */\n  shr\n    /* \"#utility.yul\":3309:3346   */\n  swap1\n  pop\n    /* \"#utility.yul\":3236:3353   */\n  swap3\n  swap2\n  pop\n  pop\n  jump\t// out\n    /* \"#utility.yul\":3359:3528   */\ntag_28:\n    /* \"#utility.yul\":3403:3409   */\n  0x00\n    /* \"#utility.yul\":3436:3487   */\n  tag_74\n    /* \"#utility.yul\":3484:3485   */\n  0x00\n    /* \"#utility.yul\":3480:3486   */\n  not\n    /* \"#utility.yul\":3472:3477   */\n  dup5\n    /* \"#utility.yul\":3469:3470   */\n  0x08\n    /* \"#utility.yul\":3465:3478   */\n  mul\n    /* \"#utility.yul\":3436:3487   */\n  tag_27\n  jump\t// in\ntag_74:\n    /* \"#utility.yul\":3432:3488   */\n  not\n    /* \"#utility.yul\":3517:3521   */\n  dup1\n    /* \"#utility.yul\":3511:3515   */\n  dup4\n    /* \"#utility.yul\":3507:3522   */\n  and\n    /* \"#utility.yul\":3497:3522   */\n  swap2\n  pop\n    /* \"#utility.yul\":3410:3528   */\n  pop\n    /* \"#utility.yul\":3359:3528   */\n  swap3\n  swap2\n  pop\n  pop\n  jump\t// out\n    /* \"#utility.yul\":3533:3828   */\ntag_29:\n    /* \"#utility.yul\":3609:3613   */\n  0x00\n    /* \"#utility.yul\":3755:3784   */\n  tag_76\n    /* \"#utility.yul\":3780:3783   */\n  dup4\n    /* \"#utility.yul\":3774:3778   */\n  dup4\n    /* \"#utility.yul\":3755:3784   */\n  tag_28\n  jump\t// in\ntag_76:\n    /* \"#utility.yul\":3747:3784   */\n  swap2\n  pop\n    /* \"#utility.yul\":3817:3820   */\n  dup3\n    /* \"#utility.yul\":3814:3815   */\n  0x02\n    /* \"#utility.yul\":3810:3821   */\n  mul\n    /* \"#utility.yul\":3804:3808   */\n  dup3\n    /* \"#utility.yul\":3801:3822   */\n  or\n    /* \"#utility.yul\":3793:3822   */\n  swap1\n  pop\n    /* \"#utility.yul\":3533:3828   */\n  swap3\n  swap2\n  pop\n  pop\n  jump\t// out\n    /* \"#utility.yul\":3833:5228   */\ntag_5:\n    /* \"#utility.yul\":3950:3987   */\n  tag_78\n    /* \"#utility.yul\":3983:3986   */\n  dup3\n    /* \"#utility.yul\":3950:3987   */\n  tag_10\n  jump\t// in\ntag_78:\n    /* \"#utility.yul\":4052:4070   */\n  0xffffffffffffffff\n    /* \"#utility.yul\":4044:4050   */\n  dup2\n    /* \"#utility.yul\":4041:4071   */\n  gt\n    /* \"#utility.yul\":4038:4094   */\n  iszero\n  tag_79\n  jumpi\n    /* \"#utility.yul\":4074:4092   */\n  tag_80\n  tag_11\n  jump\t// in\ntag_80:\n    /* \"#utility.yul\":4038:4094   */\ntag_79:\n    /* \"#utility.yul\":4118:4156   */\n  tag_81\n    /* \"#utility.yul\":4150:4154   */\n  dup3\n    /* \"#utility.yul\":4144:4155   */\n  sload\n    /* \"#utility.yul\":4118:4156   */\n  tag_13\n  jump\t// in\ntag_81:\n    /* \"#utility.yul\":4203:4270   */\n  tag_82\n    /* \"#utility.yul\":4263:4269   */\n  dup3\n    /* \"#utility.yul\":4255:4261   */\n  dup3\n    /* \"#utility.yul\":4249:4253   */\n  dup6\n    /* \"#utility.yul\":4203:4270   */\n  tag_26\n  jump\t// in\ntag_82:\n    /* \"#utility.yul\":4297:4298   */\n  0x00\n    /* \"#utility.yul\":4321:4325   */\n  0x20\n    /* \"#utility.yul\":4308:4325   */\n  swap1\n  pop\n    /* \"#utility.yul\":4353:4355   */\n  0x1f\n    /* \"#utility.yul\":4345:4351   */\n  dup4\n    /* \"#utility.yul\":4342:4356   */\n  gt\n    /* \"#utility.yul\":4370:4371   */\n  0x01\n    /* \"#utility.yul\":4365:4983   */\n  dup2\n  eq\n  tag_84\n  jumpi\n    /* \"#utility.yul\":5027:5028   */\n  0x00\n    /* \"#utility.yul\":5044:5050   */\n  dup5\n    /* \"#utility.yul\":5041:5118   */\n  iszero\n  tag_85\n  jumpi\n    /* \"#utility.yul\":5093:5102   */\n  dup3\n    /* \"#utility.yul\":5088:5091   */\n  dup8\n    /* \"#utility.yul\":5084:5103   */\n  add\n    /* \"#utility.yul\":5078:5104   */\n  mload\n    /* \"#utility.yul\":5069:5104   */\n  swap1\n  pop\n    /* \"#utility.yul\":5041:5118   */\ntag_85:\n    /* \"#utility.yul\":5144:5211   */\n  tag_86\n    /* \"#utility.yul\":5204:5210   */\n  dup6\n    /* \"#utility.yul\":5197:5202   */\n  dup3\n    /* \"#utility.yul\":5144:5211   */\n  tag_29\n  jump\t// in\ntag_86:\n    /* \"#utility.yul\":5138:5142   */\n  dup7\n    /* \"#utility.yul\":5131:5212   */\n  sstore\n    /* \"#utility.yul\":5000:5222   */\n  pop\n    /* \"#utility.yul\":4335:5222   */\n  jump(tag_83)\n    /* \"#utility.yul\":4365:4983   */\ntag_84:\n    /* \"#utility.yul\":4417:4421   */\n  0x1f\n    /* \"#utility.yul\":4413:4422   */\n  not\n    /* \"#utility.yul\":4405:4411   */\n  dup5\n    /* \"#utility.yul\":4401:4423   */\n  and\n    /* \"#utility.yul\":4451:4488   */\n  tag_87\n    /* \"#utility.yul\":4483:4487   */\n  dup7\n    /* \"#utility.yul\":4451:4488   */\n  tag_14\n  jump\t// in\ntag_87:\n    /* \"#utility.yul\":4510:4511   */\n  0x00\n    /* \"#utility.yul\":4524:4732   */\ntag_88:\n    /* \"#utility.yul\":4538:4545   */\n  dup3\n    /* \"#utility.yul\":4535:4536   */\n  dup2\n    /* \"#utility.yul\":4532:4546   */\n  lt\n    /* \"#utility.yul\":4524:4732   */\n  iszero\n  tag_90\n  jumpi\n    /* \"#utility.yul\":4617:4626   */\n  dup5\n    /* \"#utility.yul\":4612:4615   */\n  dup10\n    /* \"#utility.yul\":4608:4627   */\n  add\n    /* \"#utility.yul\":4602:4628   */\n  mload\n    /* \"#utility.yul\":4594:4600   */\n  dup3\n    /* \"#utility.yul\":4587:4629   */\n  sstore\n    /* \"#utility.yul\":4668:4669   */\n  0x01\n    /* \"#utility.yul\":4660:4666   */\n  dup3\n    /* \"#utility.yul\":4656:4670   */\n  add\n    /* \"#utility.yul\":4646:4670   */\n  swap2\n  pop\n    /* \"#utility.yul\":4715:4717   */\n  0x20\n    /* \"#utility.yul\":4704:4713   */\n  dup6\n    /* \"#utility.yul\":4700:4718   */\n  add\n    /* \"#utility.yul\":4687:4718   */\n  swap5\n  pop\n    /* \"#utility.yul\":4561:4565   */\n  0x20\n    /* \"#utility.yul\":4558:4559   */\n  dup2\n    /* \"#utility.yul\":4554:4566   */\n  add\n    /* \"#utility.yul\":4549:4566   */\n  swap1\n  pop\n    /* \"#utility.yul\":4524:4732   */\n  jump(tag_88)\ntag_90:\n    /* \"#utility.yul\":4760:4766   */\n  dup7\n    /* \"#utility.yul\":4751:4758   */\n  dup4\n    /* \"#utility.yul\":4748:4767   */\n  lt\n    /* \"#utility.yul\":4745:4924   */\n  iszero\n  tag_91\n  jumpi\n    /* \"#utility.yul\":4818:4827   */\n  dup5\n    /* \"#utility.yul\":4813:4816   */\n  dup10\n    /* \"#utility.yul\":4809:4828   */\n  add\n    /* \"#utility.yul\":4803:4829   */\n  mload\n    /* \"#utility.yul\":4861:4909   */\n  tag_92\n    /* \"#utility.yul\":4903:4907   */\n  0x1f\n    /* \"#utility.yul\":4895:4901   */\n  dup10\n    /* \"#utility.yul\":4891:4908   */\n  and\n    /* \"#utility.yul\":4880:4889   */\n  dup3\n    /* \"#utility.yul\":4861:4909   */\n  tag_28\n  jump\t// in\ntag_92:\n    /* \"#utility.yul\":4853:4859   */\n  dup4\n    /* \"#utility.yul\":4846:4910   */\n  sstore\n    /* \"#utility.yul\":4768:4924   */\n  pop\n    /* \"#utility.yul\":4745:4924   */\ntag_91:\n    /* \"#utility.yul\":4970:4971   */\n  0x01\n    /* \"#utility.yul\":4966:4967   */\n  0x02\n    /* \"#utility.yul\":4958:4964   */\n  dup9\n    /* \"#utility.yul\":4954:4968   */\n  mul\n    /* \"#utility.yul\":4950:4972   */\n  add\n    /* \"#utility.yul\":4944:4948   */\n  dup9\n    /* \"#utility.yul\":4937:4973   */\n  sstore\n    /* \"#utility.yul\":4372:4983   */\n  pop\n  pop\n  pop\n    /* \"#utility.yul\":4335:5222   */\ntag_83:\n  pop\n    /* \"#utility.yul\":3925:5228   */\n  pop\n  pop\n  pop\n    /* \"#utility.yul\":3833:5228   */\n  pop\n  pop\n  jump\t// out\n    /* \"#utility.yul\":5234:5352   */\ntag_30:\n    /* \"#utility.yul\":5321:5345   */\n  tag_94\n    /* \"#utility.yul\":5339:5344   */\n  dup2\n    /* \"#utility.yul\":5321:5345   */\n  tag_18\n  jump\t// in\ntag_94:\n    /* \"#utility.yul\":5316:5319   */\n  dup3\n    /* \"#utility.yul\":5309:5346   */\n  mstore\n    /* \"#utility.yul\":5234:5352   */\n  pop\n  pop\n  jump\t// out\n    /* \"#utility.yul\":5358:5580   */\ntag_8:\n    /* \"#utility.yul\":5451:5455   */\n  0x00\n    /* \"#utility.yul\":5489:5491   */\n  0x20\n    /* \"#utility.yul\":5478:5487   */\n  dup3\n    /* \"#utility.yul\":5474:5492   */\n  add\n    /* \"#utility.yul\":5466:5492   */\n  swap1\n  pop\n    /* \"#utility.yul\":5502:5573   */\n  tag_96\n    /* \"#utility.yul\":5570:5571   */\n  0x00\n    /* \"#utility.yul\":5559:5568   */\n  dup4\n    /* \"#utility.yul\":5555:5572   */\n  add\n    /* \"#utility.yul\":5546:5552   */\n  dup5\n    /* \"#utility.yul\":5502:5573   */\n  tag_30\n  jump\t// in\ntag_96:\n    /* \"#utility.yul\":5358:5580   */\n  swap3\n  swap2\n  pop\n  pop\n  jump\t// out\n    /* \"contracts/token.sol\":1740:4242  contract DIOToken is ERC20Interface, SafeMath {... */\ntag_9:\n  dataSize(sub_0)\n  dup1\n  dataOffset(sub_0)\n  0x00\n  codecopy\n  0x00\n  return\nstop\n\nsub_0: assembly {\n        /* \"contracts/token.sol\":1740:4242  contract DIOToken is ERC20Interface, SafeMath {... */\n      mstore(0x40, 0x80)\n      jumpi(tag_1, lt(calldatasize, 0x04))\n      shr(0xe0, calldataload(0x00))\n      dup1\n      0x95d89b41\n      gt\n      tag_18\n      jumpi\n      dup1\n      0xcae9ca51\n      gt\n      tag_19\n      jumpi\n      dup1\n      0xcae9ca51\n      eq\n      tag_14\n      jumpi\n      dup1\n      0xd05c78da\n      eq\n      tag_15\n      jumpi\n      dup1\n      0xdd62ed3e\n      eq\n      tag_16\n      jumpi\n      dup1\n      0xe6cb9013\n      eq\n      tag_17\n      jumpi\n      jump(tag_2)\n    tag_19:\n      dup1\n      0x95d89b41\n      eq\n      tag_10\n      jumpi\n      dup1\n      0xa293d1e8\n      eq\n      tag_11\n      jumpi\n      dup1\n      0xa9059cbb\n      eq\n      tag_12\n      jumpi\n      dup1\n      0xb5931f7c\n      eq\n      tag_13\n      jumpi\n      jump(tag_2)\n    tag_18:\n      dup1\n      0x23b872dd\n      gt\n      tag_20\n      jumpi\n      dup1\n      0x23b872dd\n      eq\n      tag_6\n      jumpi\n      dup1\n      0x313ce567\n      eq\n      tag_7\n      jumpi\n      dup1\n      0x3eaaf86b\n      eq\n      tag_8\n      jumpi\n      dup1\n      0x70a08231\n      eq\n      tag_9\n      jumpi\n      jump(tag_2)\n    tag_20:\n      dup1\n      0x06fdde03\n      eq\n      tag_3\n      jumpi\n      dup1\n      0x095ea7b3\n      eq\n      tag_4\n      jumpi\n      dup1\n      0x18160ddd\n      eq\n      tag_5\n      jumpi\n      jump(tag_2)\n    tag_1:\n      jumpi(tag_2, calldatasize)\n        /* \"contracts/token.sol\":4203:4231  revert(\"Ether not accepted\") */\n      mload(0x40)\n      0x08c379a000000000000000000000000000000000000000000000000000000000\n      dup2\n      mstore\n      0x04\n      add\n      tag_23\n      swap1\n      tag_24\n      jump\t// in\n    tag_23:\n      mload(0x40)\n      dup1\n      swap2\n      sub\n      swap1\n      revert\n        /* \"contracts/token.sol\":1740:4242  contract DIOToken is ERC20Interface, SafeMath {... */\n    tag_2:\n        /* \"contracts/token.sol\":4066:4094  revert(\"Ether not accepted\") */\n      mload(0x40)\n      0x08c379a000000000000000000000000000000000000000000000000000000000\n      dup2\n      mstore\n      0x04\n      add\n      tag_27\n      swap1\n      tag_24\n      jump\t// in\n    tag_27:\n      mload(0x40)\n      dup1\n      swap2\n      sub\n      swap1\n      revert\n        /* \"contracts/token.sol\":1820:1838  string public name */\n    tag_3:\n      callvalue\n      dup1\n      iszero\n      tag_28\n      jumpi\n      0x00\n      dup1\n      revert\n    tag_28:\n      pop\n      tag_29\n      tag_30\n      jump\t// in\n    tag_29:\n      mload(0x40)\n      tag_31\n      swap2\n      swap1\n      tag_32\n      jump\t// in\n    tag_31:\n      mload(0x40)\n      dup1\n      swap2\n      sub\n      swap1\n      return\n        /* \"contracts/token.sol\":2881:3089  function approve(address spender, uint tokens) public returns (bool success) {... */\n    tag_4:\n      callvalue\n      dup1\n      iszero\n      tag_33\n      jumpi\n      0x00\n      dup1\n      revert\n    tag_33:\n      pop\n      tag_34\n      0x04\n      dup1\n      calldatasize\n      sub\n      dup2\n      add\n      swap1\n      tag_35\n      swap2\n      swap1\n      tag_36\n      jump\t// in\n    tag_35:\n      tag_37\n      jump\t// in\n    tag_34:\n      mload(0x40)\n      tag_38\n      swap2\n      swap1\n      tag_39\n      jump\t// in\n    tag_38:\n      mload(0x40)\n      dup1\n      swap2\n      sub\n      swap1\n      return\n        /* \"contracts/token.sol\":2349:2460  function totalSupply() public view returns (uint) {... */\n    tag_5:\n      callvalue\n      dup1\n      iszero\n      tag_40\n      jumpi\n      0x00\n      dup1\n      revert\n    tag_40:\n      pop\n      tag_41\n      tag_42\n      jump\t// in\n    tag_41:\n      mload(0x40)\n      tag_43\n      swap2\n      swap1\n      tag_44\n      jump\t// in\n    tag_43:\n      mload(0x40)\n      dup1\n      swap2\n      sub\n      swap1\n      return\n        /* \"contracts/token.sol\":3097:3455  function transferFrom(address from, address to, uint tokens) public returns (bool success) {... */\n    tag_6:\n      callvalue\n      dup1\n      iszero\n      tag_45\n      jumpi\n      0x00\n      dup1\n      revert\n    tag_45:\n      pop\n      tag_46\n      0x04\n      dup1\n      calldatasize\n      sub\n      dup2\n      add\n      swap1\n      tag_47\n      swap2\n      swap1\n      tag_48\n      jump\t// in\n    tag_47:\n      tag_49\n      jump\t// in\n    tag_46:\n      mload(0x40)\n      tag_50\n      swap2\n      swap1\n      tag_39\n      jump\t// in\n    tag_50:\n      mload(0x40)\n      dup1\n      swap2\n      sub\n      swap1\n      return\n        /* \"contracts/token.sol\":1845:1866  uint8 public decimals */\n    tag_7:\n      callvalue\n      dup1\n      iszero\n      tag_51\n      jumpi\n      0x00\n      dup1\n      revert\n    tag_51:\n      pop\n      tag_52\n      tag_53\n      jump\t// in\n    tag_52:\n      mload(0x40)\n      tag_54\n      swap2\n      swap1\n      tag_55\n      jump\t// in\n    tag_54:\n      mload(0x40)\n      dup1\n      swap2\n      sub\n      swap1\n      return\n        /* \"contracts/token.sol\":1873:1897  uint public _totalSupply */\n    tag_8:\n      callvalue\n      dup1\n      iszero\n      tag_56\n      jumpi\n      0x00\n      dup1\n      revert\n    tag_56:\n      pop\n      tag_57\n      tag_58\n      jump\t// in\n    tag_57:\n      mload(0x40)\n      tag_59\n      swap2\n      swap1\n      tag_44\n      jump\t// in\n    tag_59:\n      mload(0x40)\n      dup1\n      swap2\n      sub\n      swap1\n      return\n        /* \"contracts/token.sol\":2468:2588  function balanceOf(address tokenOwner) public view returns (uint balance) {... */\n    tag_9:\n      callvalue\n      dup1\n      iszero\n      tag_60\n      jumpi\n      0x00\n      dup1\n      revert\n    tag_60:\n      pop\n      tag_61\n      0x04\n      dup1\n      calldatasize\n      sub\n      dup2\n      add\n      swap1\n      tag_62\n      swap2\n      swap1\n      tag_63\n      jump\t// in\n    tag_62:\n      tag_64\n      jump\t// in\n    tag_61:\n      mload(0x40)\n      tag_65\n      swap2\n      swap1\n      tag_44\n      jump\t// in\n    tag_65:\n      mload(0x40)\n      dup1\n      swap2\n      sub\n      swap1\n      return\n        /* \"contracts/token.sol\":1793:1813  string public symbol */\n    tag_10:\n      callvalue\n      dup1\n      iszero\n      tag_66\n      jumpi\n      0x00\n      dup1\n      revert\n    tag_66:\n      pop\n      tag_67\n      tag_68\n      jump\t// in\n    tag_67:\n      mload(0x40)\n      tag_69\n      swap2\n      swap1\n      tag_32\n      jump\t// in\n    tag_69:\n      mload(0x40)\n      dup1\n      swap2\n      sub\n      swap1\n      return\n        /* \"contracts/token.sol\":268:418  function safeSub(uint a, uint b) public pure returns (uint c) {... */\n    tag_11:\n      callvalue\n      dup1\n      iszero\n      tag_70\n      jumpi\n      0x00\n      dup1\n      revert\n    tag_70:\n      pop\n      tag_71\n      0x04\n      dup1\n      calldatasize\n      sub\n      dup2\n      add\n      swap1\n      tag_72\n      swap2\n      swap1\n      tag_73\n      jump\t// in\n    tag_72:\n      tag_74\n      jump\t// in\n    tag_71:\n      mload(0x40)\n      tag_75\n      swap2\n      swap1\n      tag_44\n      jump\t// in\n    tag_75:\n      mload(0x40)\n      dup1\n      swap2\n      sub\n      swap1\n      return\n        /* \"contracts/token.sol\":2596:2873  function transfer(address to, uint tokens) public returns (bool success) {... */\n    tag_12:\n      callvalue\n      dup1\n      iszero\n      tag_76\n      jumpi\n      0x00\n      dup1\n      revert\n    tag_76:\n      pop\n      tag_77\n      0x04\n      dup1\n      calldatasize\n      sub\n      dup2\n      add\n      swap1\n      tag_78\n      swap2\n      swap1\n      tag_36\n      jump\t// in\n    tag_78:\n      tag_79\n      jump\t// in\n    tag_77:\n      mload(0x40)\n      tag_80\n      swap2\n      swap1\n      tag_39\n      jump\t// in\n    tag_80:\n      mload(0x40)\n      dup1\n      swap2\n      sub\n      swap1\n      return\n        /* \"contracts/token.sol\":601:746  function safeDiv(uint a, uint b) public pure returns (uint c) {... */\n    tag_13:\n      callvalue\n      dup1\n      iszero\n      tag_81\n      jumpi\n      0x00\n      dup1\n      revert\n    tag_81:\n      pop\n      tag_82\n      0x04\n      dup1\n      calldatasize\n      sub\n      dup2\n      add\n      swap1\n      tag_83\n      swap2\n      swap1\n      tag_73\n      jump\t// in\n    tag_83:\n      tag_84\n      jump\t// in\n    tag_82:\n      mload(0x40)\n      tag_85\n      swap2\n      swap1\n      tag_44\n      jump\t// in\n    tag_85:\n      mload(0x40)\n      dup1\n      swap2\n      sub\n      swap1\n      return\n        /* \"contracts/token.sol\":3618:3951  function approveAndCall(address spender, uint tokens, bytes memory data) public returns (bool success) {... */\n    tag_14:\n      callvalue\n      dup1\n      iszero\n      tag_86\n      jumpi\n      0x00\n      dup1\n      revert\n    tag_86:\n      pop\n      tag_87\n      0x04\n      dup1\n      calldatasize\n      sub\n      dup2\n      add\n      swap1\n      tag_88\n      swap2\n      swap1\n      tag_89\n      jump\t// in\n    tag_88:\n      tag_90\n      jump\t// in\n    tag_87:\n      mload(0x40)\n      tag_91\n      swap2\n      swap1\n      tag_39\n      jump\t// in\n    tag_91:\n      mload(0x40)\n      dup1\n      swap2\n      sub\n      swap1\n      return\n        /* \"contracts/token.sol\":426:593  function safeMul(uint a, uint b) public pure returns (uint c) {... */\n    tag_15:\n      callvalue\n      dup1\n      iszero\n      tag_92\n      jumpi\n      0x00\n      dup1\n      revert\n    tag_92:\n      pop\n      tag_93\n      0x04\n      dup1\n      calldatasize\n      sub\n      dup2\n      add\n      swap1\n      tag_94\n      swap2\n      swap1\n      tag_73\n      jump\t// in\n    tag_94:\n      tag_95\n      jump\t// in\n    tag_93:\n      mload(0x40)\n      tag_96\n      swap2\n      swap1\n      tag_44\n      jump\t// in\n    tag_96:\n      mload(0x40)\n      dup1\n      swap2\n      sub\n      swap1\n      return\n        /* \"contracts/token.sol\":3463:3610  function allowance(address tokenOwner, address spender) public view returns (uint remaining) {... */\n    tag_16:\n      callvalue\n      dup1\n      iszero\n      tag_97\n      jumpi\n      0x00\n      dup1\n      revert\n    tag_97:\n      pop\n      tag_98\n      0x04\n      dup1\n      calldatasize\n      sub\n      dup2\n      add\n      swap1\n      tag_99\n      swap2\n      swap1\n      tag_100\n      jump\t// in\n    tag_99:\n      tag_101\n      jump\t// in\n    tag_98:\n      mload(0x40)\n      tag_102\n      swap2\n      swap1\n      tag_44\n      jump\t// in\n    tag_102:\n      mload(0x40)\n      dup1\n      swap2\n      sub\n      swap1\n      return\n        /* \"contracts/token.sol\":113:260  function safeAdd(uint a, uint b) public pure returns (uint c) {... */\n    tag_17:\n      callvalue\n      dup1\n      iszero\n      tag_103\n      jumpi\n      0x00\n      dup1\n      revert\n    tag_103:\n      pop\n      tag_104\n      0x04\n      dup1\n      calldatasize\n      sub\n      dup2\n      add\n      swap1\n      tag_105\n      swap2\n      swap1\n      tag_73\n      jump\t// in\n    tag_105:\n      tag_106\n      jump\t// in\n    tag_104:\n      mload(0x40)\n      tag_107\n      swap2\n      swap1\n      tag_44\n      jump\t// in\n    tag_107:\n      mload(0x40)\n      dup1\n      swap2\n      sub\n      swap1\n      return\n        /* \"contracts/token.sol\":1820:1838  string public name */\n    tag_30:\n      0x01\n      dup1\n      sload\n      tag_108\n      swap1\n      tag_109\n      jump\t// in\n    tag_108:\n      dup1\n      0x1f\n      add\n      0x20\n      dup1\n      swap2\n      div\n      mul\n      0x20\n      add\n      mload(0x40)\n      swap1\n      dup2\n      add\n      0x40\n      mstore\n      dup1\n      swap3\n      swap2\n      swap1\n      dup2\n      dup2\n      mstore\n      0x20\n      add\n      dup3\n      dup1\n      sload\n      tag_110\n      swap1\n      tag_109\n      jump\t// in\n    tag_110:\n      dup1\n      iszero\n      tag_111\n      jumpi\n      dup1\n      0x1f\n      lt\n      tag_112\n      jumpi\n      0x0100\n      dup1\n      dup4\n      sload\n      div\n      mul\n      dup4\n      mstore\n      swap2\n      0x20\n      add\n      swap2\n      jump(tag_111)\n    tag_112:\n      dup3\n      add\n      swap2\n      swap1\n      0x00\n      mstore\n      keccak256(0x00, 0x20)\n      swap1\n    tag_113:\n      dup2\n      sload\n      dup2\n      mstore\n      swap1\n      0x01\n      add\n      swap1\n      0x20\n      add\n      dup1\n      dup4\n      gt\n      tag_113\n      jumpi\n      dup3\n      swap1\n      sub\n      0x1f\n      and\n      dup3\n      add\n      swap2\n    tag_111:\n      pop\n      pop\n      pop\n      pop\n      pop\n      dup2\n      jump\t// out\n        /* \"contracts/token.sol\":2881:3089  function approve(address spender, uint tokens) public returns (bool success) {... */\n    tag_37:\n        /* \"contracts/token.sol\":2944:2956  bool success */\n      0x00\n        /* \"contracts/token.sol\":3000:3006  tokens */\n      dup2\n        /* \"contracts/token.sol\":2969:2976  allowed */\n      0x05\n        /* \"contracts/token.sol\":2969:2988  allowed[msg.sender] */\n      0x00\n        /* \"contracts/token.sol\":2977:2987  msg.sender */\n      caller\n        /* \"contracts/token.sol\":2969:2988  allowed[msg.sender] */\n      0xffffffffffffffffffffffffffffffffffffffff\n      and\n      0xffffffffffffffffffffffffffffffffffffffff\n      and\n      dup2\n      mstore\n      0x20\n      add\n      swap1\n      dup2\n      mstore\n      0x20\n      add\n      0x00\n      keccak256\n        /* \"contracts/token.sol\":2969:2997  allowed[msg.sender][spender] */\n      0x00\n        /* \"contracts/token.sol\":2989:2996  spender */\n      dup6\n        /* \"contracts/token.sol\":2969:2997  allowed[msg.sender][spender] */\n      0xffffffffffffffffffffffffffffffffffffffff\n      and\n      0xffffffffffffffffffffffffffffffffffffffff\n      and\n      dup2\n      mstore\n      0x20\n      add\n      swap1\n      dup2\n      mstore\n      0x20\n      add\n      0x00\n      keccak256\n        /* \"contracts/token.sol\":2969:3006  allowed[msg.sender][spender] = tokens */\n      dup2\n      swap1\n      sstore\n      pop\n        /* \"contracts/token.sol\":3043:3050  spender */\n      dup3\n        /* \"contracts/token.sol\":3022:3059  Approval(msg.sender, spender, tokens) */\n      0xffffffffffffffffffffffffffffffffffffffff\n      and\n        /* \"contracts/token.sol\":3031:3041  msg.sender */\n      caller\n        /* \"contracts/token.sol\":3022:3059  Approval(msg.sender, spender, tokens) */\n      0xffffffffffffffffffffffffffffffffffffffff\n      and\n      0x8c5be1e5ebec7d5bd14f71427d1e84f3dd0314c0f7b2291e5b200ac8c7c3b925\n        /* \"contracts/token.sol\":3052:3058  tokens */\n      dup5\n        /* \"contracts/token.sol\":3022:3059  Approval(msg.sender, spender, tokens) */\n      mload(0x40)\n      tag_115\n      swap2\n      swap1\n      tag_44\n      jump\t// in\n    tag_115:\n      mload(0x40)\n      dup1\n      swap2\n      sub\n      swap1\n      log3\n        /* \"contracts/token.sol\":3077:3081  true */\n      0x01\n        /* \"contracts/token.sol\":3070:3081  return true */\n      swap1\n      pop\n        /* \"contracts/token.sol\":2881:3089  function approve(address spender, uint tokens) public returns (bool success) {... */\n      swap3\n      swap2\n      pop\n      pop\n      jump\t// out\n        /* \"contracts/token.sol\":2349:2460  function totalSupply() public view returns (uint) {... */\n    tag_42:\n        /* \"contracts/token.sol\":2393:2397  uint */\n      0x00\n        /* \"contracts/token.sol\":2432:2440  balances */\n      0x04\n        /* \"contracts/token.sol\":2432:2452  balances[address(0)] */\n      0x00\n        /* \"contracts/token.sol\":2449:2450  0 */\n      dup1\n        /* \"contracts/token.sol\":2432:2452  balances[address(0)] */\n      0xffffffffffffffffffffffffffffffffffffffff\n      and\n      0xffffffffffffffffffffffffffffffffffffffff\n      and\n      dup2\n      mstore\n      0x20\n      add\n      swap1\n      dup2\n      mstore\n      0x20\n      add\n      0x00\n      keccak256\n      sload\n        /* \"contracts/token.sol\":2417:2429  _totalSupply */\n      sload(0x03)\n        /* \"contracts/token.sol\":2417:2452  _totalSupply - balances[address(0)] */\n      tag_117\n      swap2\n      swap1\n      tag_118\n      jump\t// in\n    tag_117:\n        /* \"contracts/token.sol\":2410:2452  return _totalSupply - balances[address(0)] */\n      swap1\n      pop\n        /* \"contracts/token.sol\":2349:2460  function totalSupply() public view returns (uint) {... */\n      swap1\n      jump\t// out\n        /* \"contracts/token.sol\":3097:3455  function transferFrom(address from, address to, uint tokens) public returns (bool success) {... */\n    tag_49:\n        /* \"contracts/token.sol\":3174:3186  bool success */\n      0x00\n        /* \"contracts/token.sol\":3216:3247  safeSub(balances[from], tokens) */\n      tag_120\n        /* \"contracts/token.sol\":3224:3232  balances */\n      0x04\n        /* \"contracts/token.sol\":3224:3238  balances[from] */\n      0x00\n        /* \"contracts/token.sol\":3233:3237  from */\n      dup7\n        /* \"contracts/token.sol\":3224:3238  balances[from] */\n      0xffffffffffffffffffffffffffffffffffffffff\n      and\n      0xffffffffffffffffffffffffffffffffffffffff\n      and\n      dup2\n      mstore\n      0x20\n      add\n      swap1\n      dup2\n      mstore\n      0x20\n      add\n      0x00\n      keccak256\n      sload\n        /* \"contracts/token.sol\":3240:3246  tokens */\n      dup4\n        /* \"contracts/token.sol\":3216:3223  safeSub */\n      tag_74\n        /* \"contracts/token.sol\":3216:3247  safeSub(balances[from], tokens) */\n      jump\t// in\n    tag_120:\n        /* \"contracts/token.sol\":3199:3207  balances */\n      0x04\n        /* \"contracts/token.sol\":3199:3213  balances[from] */\n      0x00\n        /* \"contracts/token.sol\":3208:3212  from */\n      dup7\n        /* \"contracts/token.sol\":3199:3213  balances[from] */\n      0xffffffffffffffffffffffffffffffffffffffff\n      and\n      0xffffffffffffffffffffffffffffffffffffffff\n      and\n      dup2\n      mstore\n      0x20\n      add\n      swap1\n      dup2\n      mstore\n      0x20\n      add\n      0x00\n      keccak256\n        /* \"contracts/token.sol\":3199:3247  balances[from] = safeSub(balances[from], tokens) */\n      dup2\n      swap1\n      sstore\n      pop\n        /* \"contracts/token.sol\":3286:3328  safeSub(allowed[from][msg.sender], tokens) */\n      tag_121\n        /* \"contracts/token.sol\":3294:3301  allowed */\n      0x05\n        /* \"contracts/token.sol\":3294:3307  allowed[from] */\n      0x00\n        /* \"contracts/token.sol\":3302:3306  from */\n      dup7\n        /* \"contracts/token.sol\":3294:3307  allowed[from] */\n      0xffffffffffffffffffffffffffffffffffffffff\n      and\n      0xffffffffffffffffffffffffffffffffffffffff\n      and\n      dup2\n      mstore\n      0x20\n      add\n      swap1\n      dup2\n      mstore\n      0x20\n      add\n      0x00\n      keccak256\n        /* \"contracts/token.sol\":3294:3319  allowed[from][msg.sender] */\n      0x00\n        /* \"contracts/token.sol\":3308:3318  msg.sender */\n      caller\n        /* \"contracts/token.sol\":3294:3319  allowed[from][msg.sender] */\n      0xffffffffffffffffffffffffffffffffffffffff\n      and\n      0xffffffffffffffffffffffffffffffffffffffff\n      and\n      dup2\n      mstore\n      0x20\n      add\n      swap1\n      dup2\n      mstore\n      0x20\n      add\n      0x00\n      keccak256\n      sload\n        /* \"contracts/token.sol\":3321:3327  tokens */\n      dup4\n        /* \"contracts/token.sol\":3286:3293  safeSub */\n      tag_74\n        /* \"contracts/token.sol\":3286:3328  safeSub(allowed[from][msg.sender], tokens) */\n      jump\t// in\n    tag_121:\n        /* \"contracts/token.sol\":3258:3265  allowed */\n      0x05\n        /* \"contracts/token.sol\":3258:3271  allowed[from] */\n      0x00\n        /* \"contracts/token.sol\":3266:3270  from */\n      dup7\n        /* \"contracts/token.sol\":3258:3271  allowed[from] */\n      0xffffffffffffffffffffffffffffffffffffffff\n      and\n      0xffffffffffffffffffffffffffffffffffffffff\n      and\n      dup2\n      mstore\n      0x20\n      add\n      swap1\n      dup2\n      mstore\n      0x20\n      add\n      0x00\n      keccak256\n        /* \"contracts/token.sol\":3258:3283  allowed[from][msg.sender] */\n      0x00\n        /* \"contracts/token.sol\":3272:3282  msg.sender */\n      caller\n        /* \"contracts/token.sol\":3258:3283  allowed[from][msg.sender] */\n      0xffffffffffffffffffffffffffffffffffffffff\n      and\n      0xffffffffffffffffffffffffffffffffffffffff\n      and\n      dup2\n      mstore\n      0x20\n      add\n      swap1\n      dup2\n      mstore\n      0x20\n      add\n      0x00\n      keccak256\n        /* \"contracts/token.sol\":3258:3328  allowed[from][msg.sender] = safeSub(allowed[from][msg.sender], tokens) */\n      dup2\n      swap1\n      sstore\n      pop\n        /* \"contracts/token.sol\":3354:3383  safeAdd(balances[to], tokens) */\n      tag_122\n        /* \"contracts/token.sol\":3362:3370  balances */\n      0x04\n        /* \"contracts/token.sol\":3362:3374  balances[to] */\n      0x00\n        /* \"contracts/token.sol\":3371:3373  to */\n      dup6\n        /* \"contracts/token.sol\":3362:3374  balances[to] */\n      0xffffffffffffffffffffffffffffffffffffffff\n      and\n      0xffffffffffffffffffffffffffffffffffffffff\n      and\n      dup2\n      mstore\n      0x20\n      add\n      swap1\n      dup2\n      mstore\n      0x20\n      add\n      0x00\n      keccak256\n      sload\n        /* \"contracts/token.sol\":3376:3382  tokens */\n      dup4\n        /* \"contracts/token.sol\":3354:3361  safeAdd */\n      tag_106\n        /* \"contracts/token.sol\":3354:3383  safeAdd(balances[to], tokens) */\n      jump\t// in\n    tag_122:\n        /* \"contracts/token.sol\":3339:3347  balances */\n      0x04\n        /* \"contracts/token.sol\":3339:3351  balances[to] */\n      0x00\n        /* \"contracts/token.sol\":3348:3350  to */\n      dup6\n        /* \"contracts/token.sol\":3339:3351  balances[to] */\n      0xffffffffffffffffffffffffffffffffffffffff\n      and\n      0xffffffffffffffffffffffffffffffffffffffff\n      and\n      dup2\n      mstore\n      0x20\n      add\n      swap1\n      dup2\n      mstore\n      0x20\n      add\n      0x00\n      keccak256\n        /* \"contracts/token.sol\":3339:3383  balances[to] = safeAdd(balances[to], tokens) */\n      dup2\n      swap1\n      sstore\n      pop\n        /* \"contracts/token.sol\":3414:3416  to */\n      dup3\n        /* \"contracts/token.sol\":3399:3425  Transfer(from, to, tokens) */\n      0xffffffffffffffffffffffffffffffffffffffff\n      and\n        /* \"contracts/token.sol\":3408:3412  from */\n      dup5\n        /* \"contracts/token.sol\":3399:3425  Transfer(from, to, tokens) */\n      0xffffffffffffffffffffffffffffffffffffffff\n      and\n      0xddf252ad1be2c89b69c2b068fc378daa952ba7f163c4a11628f55a4df523b3ef\n        /* \"contracts/token.sol\":3418:3424  tokens */\n      dup5\n        /* \"contracts/token.sol\":3399:3425  Transfer(from, to, tokens) */\n      mload(0x40)\n      tag_123\n      swap2\n      swap1\n      tag_44\n      jump\t// in\n    tag_123:\n      mload(0x40)\n      dup1\n      swap2\n      sub\n      swap1\n      log3\n        /* \"contracts/token.sol\":3443:3447  true */\n      0x01\n        /* \"contracts/token.sol\":3436:3447  return true */\n      swap1\n      pop\n        /* \"contracts/token.sol\":3097:3455  function transferFrom(address from, address to, uint tokens) public returns (bool success) {... */\n      swap4\n      swap3\n      pop\n      pop\n      pop\n      jump\t// out\n        /* \"contracts/token.sol\":1845:1866  uint8 public decimals */\n    tag_53:\n      0x02\n      0x00\n      swap1\n      sload\n      swap1\n      0x0100\n      exp\n      swap1\n      div\n      0xff\n      and\n      dup2\n      jump\t// out\n        /* \"contracts/token.sol\":1873:1897  uint public _totalSupply */\n    tag_58:\n      sload(0x03)\n      dup2\n      jump\t// out\n        /* \"contracts/token.sol\":2468:2588  function balanceOf(address tokenOwner) public view returns (uint balance) {... */\n    tag_64:\n        /* \"contracts/token.sol\":2528:2540  uint balance */\n      0x00\n        /* \"contracts/token.sol\":2560:2568  balances */\n      0x04\n        /* \"contracts/token.sol\":2560:2580  balances[tokenOwner] */\n      0x00\n        /* \"contracts/token.sol\":2569:2579  tokenOwner */\n      dup4\n        /* \"contracts/token.sol\":2560:2580  balances[tokenOwner] */\n      0xffffffffffffffffffffffffffffffffffffffff\n      and\n      0xffffffffffffffffffffffffffffffffffffffff\n      and\n      dup2\n      mstore\n      0x20\n      add\n      swap1\n      dup2\n      mstore\n      0x20\n      add\n      0x00\n      keccak256\n      sload\n        /* \"contracts/token.sol\":2553:2580  return balances[tokenOwner] */\n      swap1\n      pop\n        /* \"contracts/token.sol\":2468:2588  function balanceOf(address tokenOwner) public view returns (uint balance) {... */\n      swap2\n      swap1\n      pop\n      jump\t// out\n        /* \"contracts/token.sol\":1793:1813  string public symbol */\n    tag_68:\n      0x00\n      dup1\n      sload\n      tag_125\n      swap1\n      tag_109\n      jump\t// in\n    tag_125:\n      dup1\n      0x1f\n      add\n      0x20\n      dup1\n      swap2\n      div\n      mul\n      0x20\n      add\n      mload(0x40)\n      swap1\n      dup2\n      add\n      0x40\n      mstore\n      dup1\n      swap3\n      swap2\n      swap1\n      dup2\n      dup2\n      mstore\n      0x20\n      add\n      dup3\n      dup1\n      sload\n      tag_126\n      swap1\n      tag_109\n      jump\t// in\n    tag_126:\n      dup1\n      iszero\n      tag_127\n      jumpi\n      dup1\n      0x1f\n      lt\n      tag_128\n      jumpi\n      0x0100\n      dup1\n      dup4\n      sload\n      div\n      mul\n      dup4\n      mstore\n      swap2\n      0x20\n      add\n      swap2\n      jump(tag_127)\n    tag_128:\n      dup3\n      add\n      swap2\n      swap1\n      0x00\n      mstore\n      keccak256(0x00, 0x20)\n      swap1\n    tag_129:\n      dup2\n      sload\n      dup2\n      mstore\n      swap1\n      0x01\n      add\n      swap1\n      0x20\n      add\n      dup1\n      dup4\n      gt\n      tag_129\n      jumpi\n      dup3\n      swap1\n      sub\n      0x1f\n      and\n      dup3\n      add\n      swap2\n    tag_127:\n      pop\n      pop\n      pop\n      pop\n      pop\n      dup2\n      jump\t// out\n        /* \"contracts/token.sol\":268:418  function safeSub(uint a, uint b) public pure returns (uint c) {... */\n    tag_74:\n        /* \"contracts/token.sol\":322:328  uint c */\n      0x00\n        /* \"contracts/token.sol\":354:355  a */\n      dup3\n        /* \"contracts/token.sol\":349:350  b */\n      dup3\n        /* \"contracts/token.sol\":349:355  b <= a */\n      gt\n      iszero\n        /* \"contracts/token.sol\":341:390  require(b <= a, \"SafeMath: subtraction overflow\") */\n      tag_131\n      jumpi\n      mload(0x40)\n      0x08c379a000000000000000000000000000000000000000000000000000000000\n      dup2\n      mstore\n      0x04\n      add\n      tag_132\n      swap1\n      tag_133\n      jump\t// in\n    tag_132:\n      mload(0x40)\n      dup1\n      swap2\n      sub\n      swap1\n      revert\n    tag_131:\n        /* \"contracts/token.sol\":409:410  b */\n      dup2\n        /* \"contracts/token.sol\":405:406  a */\n      dup4\n        /* \"contracts/token.sol\":405:410  a - b */\n      tag_134\n      swap2\n      swap1\n      tag_118\n      jump\t// in\n    tag_134:\n        /* \"contracts/token.sol\":401:410  c = a - b */\n      swap1\n      pop\n        /* \"contracts/token.sol\":268:418  function safeSub(uint a, uint b) public pure returns (uint c) {... */\n      swap3\n      swap2\n      pop\n      pop\n      jump\t// out\n        /* \"contracts/token.sol\":2596:2873  function transfer(address to, uint tokens) public returns (bool success) {... */\n    tag_79:\n        /* \"contracts/token.sol\":2655:2667  bool success */\n      0x00\n        /* \"contracts/token.sol\":2703:2740  safeSub(balances[msg.sender], tokens) */\n      tag_136\n        /* \"contracts/token.sol\":2711:2719  balances */\n      0x04\n        /* \"contracts/token.sol\":2711:2731  balances[msg.sender] */\n      0x00\n        /* \"contracts/token.sol\":2720:2730  msg.sender */\n      caller\n        /* \"contracts/token.sol\":2711:2731  balances[msg.sender] */\n      0xffffffffffffffffffffffffffffffffffffffff\n      and\n      0xffffffffffffffffffffffffffffffffffffffff\n      and\n      dup2\n      mstore\n      0x20\n      add\n      swap1\n      dup2\n      mstore\n      0x20\n      add\n      0x00\n      keccak256\n      sload\n        /* \"contracts/token.sol\":2733:2739  tokens */\n      dup4\n        /* \"contracts/token.sol\":2703:2710  safeSub */\n      tag_74\n        /* \"contracts/token.sol\":2703:2740  safeSub(balances[msg.sender], tokens) */\n      jump\t// in\n    tag_136:\n        /* \"contracts/token.sol\":2680:2688  balances */\n      0x04\n        /* \"contracts/token.sol\":2680:2700  balances[msg.sender] */\n      0x00\n        /* \"contracts/token.sol\":2689:2699  msg.sender */\n      caller\n        /* \"contracts/token.sol\":2680:2700  balances[msg.sender] */\n      0xffffffffffffffffffffffffffffffffffffffff\n      and\n      0xffffffffffffffffffffffffffffffffffffffff\n      and\n      dup2\n      mstore\n      0x20\n      add\n      swap1\n      dup2\n      mstore\n      0x20\n      add\n      0x00\n      keccak256\n        /* \"contracts/token.sol\":2680:2740  balances[msg.sender] = safeSub(balances[msg.sender], tokens) */\n      dup2\n      swap1\n      sstore\n      pop\n        /* \"contracts/token.sol\":2766:2795  safeAdd(balances[to], tokens) */\n      tag_137\n        /* \"contracts/token.sol\":2774:2782  balances */\n      0x04\n        /* \"contracts/token.sol\":2774:2786  balances[to] */\n      0x00\n        /* \"contracts/token.sol\":2783:2785  to */\n      dup6\n        /* \"contracts/token.sol\":2774:2786  balances[to] */\n      0xffffffffffffffffffffffffffffffffffffffff\n      and\n      0xffffffffffffffffffffffffffffffffffffffff\n      and\n      dup2\n      mstore\n      0x20\n      add\n      swap1\n      dup2\n      mstore\n      0x20\n      add\n      0x00\n      keccak256\n      sload\n        /* \"contracts/token.sol\":2788:2794  tokens */\n      dup4\n        /* \"contracts/token.sol\":2766:2773  safeAdd */\n      tag_106\n        /* \"contracts/token.sol\":2766:2795  safeAdd(balances[to], tokens) */\n      jump\t// in\n    tag_137:\n        /* \"contracts/token.sol\":2751:2759  balances */\n      0x04\n        /* \"contracts/token.sol\":2751:2763  balances[to] */\n      0x00\n        /* \"contracts/token.sol\":2760:2762  to */\n      dup6\n        /* \"contracts/token.sol\":2751:2763  balances[to] */\n      0xffffffffffffffffffffffffffffffffffffffff\n      and\n      0xffffffffffffffffffffffffffffffffffffffff\n      and\n      dup2\n      mstore\n      0x20\n      add\n      swap1\n      dup2\n      mstore\n      0x20\n      add\n      0x00\n      keccak256\n        /* \"contracts/token.sol\":2751:2795  balances[to] = safeAdd(balances[to], tokens) */\n      dup2\n      swap1\n      sstore\n      pop\n        /* \"contracts/token.sol\":2832:2834  to */\n      dup3\n        /* \"contracts/token.sol\":2811:2843  Transfer(msg.sender, to, tokens) */\n      0xffffffffffffffffffffffffffffffffffffffff\n      and\n        /* \"contracts/token.sol\":2820:2830  msg.sender */\n      caller\n        /* \"contracts/token.sol\":2811:2843  Transfer(msg.sender, to, tokens) */\n      0xffffffffffffffffffffffffffffffffffffffff\n      and\n      0xddf252ad1be2c89b69c2b068fc378daa952ba7f163c4a11628f55a4df523b3ef\n        /* \"contracts/token.sol\":2836:2842  tokens */\n      dup5\n        /* \"contracts/token.sol\":2811:2843  Transfer(msg.sender, to, tokens) */\n      mload(0x40)\n      tag_138\n      swap2\n      swap1\n      tag_44\n      jump\t// in\n    tag_138:\n      mload(0x40)\n      dup1\n      swap2\n      sub\n      swap1\n      log3\n        /* \"contracts/token.sol\":2861:2865  true */\n      0x01\n        /* \"contracts/token.sol\":2854:2865  return true */\n      swap1\n      pop\n        /* \"contracts/token.sol\":2596:2873  function transfer(address to, uint tokens) public returns (bool success) {... */\n      swap3\n      swap2\n      pop\n      pop\n      jump\t// out\n        /* \"contracts/token.sol\":601:746  function safeDiv(uint a, uint b) public pure returns (uint c) {... */\n    tag_84:\n        /* \"contracts/token.sol\":655:661  uint c */\n      0x00\n        /* \"contracts/token.sol\":686:687  0 */\n      dup1\n        /* \"contracts/token.sol\":682:683  b */\n      dup3\n        /* \"contracts/token.sol\":682:687  b > 0 */\n      gt\n        /* \"contracts/token.sol\":674:718  require(b > 0, \"SafeMath: division by zero\") */\n      tag_140\n      jumpi\n      mload(0x40)\n      0x08c379a000000000000000000000000000000000000000000000000000000000\n      dup2\n      mstore\n      0x04\n      add\n      tag_141\n      swap1\n      tag_142\n      jump\t// in\n    tag_141:\n      mload(0x40)\n      dup1\n      swap2\n      sub\n      swap1\n      revert\n    tag_140:\n        /* \"contracts/token.sol\":737:738  b */\n      dup2\n        /* \"contracts/token.sol\":733:734  a */\n      dup4\n        /* \"contracts/token.sol\":733:738  a / b */\n      tag_143\n      swap2\n      swap1\n      tag_144\n      jump\t// in\n    tag_143:\n        /* \"contracts/token.sol\":729:738  c = a / b */\n      swap1\n      pop\n        /* \"contracts/token.sol\":601:746  function safeDiv(uint a, uint b) public pure returns (uint c) {... */\n      swap3\n      swap2\n      pop\n      pop\n      jump\t// out\n        /* \"contracts/token.sol\":3618:3951  function approveAndCall(address spender, uint tokens, bytes memory data) public returns (bool success) {... */\n    tag_90:\n        /* \"contracts/token.sol\":3707:3719  bool success */\n      0x00\n        /* \"contracts/token.sol\":3763:3769  tokens */\n      dup3\n        /* \"contracts/token.sol\":3732:3739  allowed */\n      0x05\n        /* \"contracts/token.sol\":3732:3751  allowed[msg.sender] */\n      0x00\n        /* \"contracts/token.sol\":3740:3750  msg.sender */\n      caller\n        /* \"contracts/token.sol\":3732:3751  allowed[msg.sender] */\n      0xffffffffffffffffffffffffffffffffffffffff\n      and\n      0xffffffffffffffffffffffffffffffffffffffff\n      and\n      dup2\n      mstore\n      0x20\n      add\n      swap1\n      dup2\n      mstore\n      0x20\n      add\n      0x00\n      keccak256\n        /* \"contracts/token.sol\":3732:3760  allowed[msg.sender][spender] */\n      0x00\n        /* \"contracts/token.sol\":3752:3759  spender */\n      dup7\n        /* \"contracts/token.sol\":3732:3760  allowed[msg.sender][spender] */\n      0xffffffffffffffffffffffffffffffffffffffff\n      and\n      0xffffffffffffffffffffffffffffffffffffffff\n      and\n      dup2\n      mstore\n      0x20\n      add\n      swap1\n      dup2\n      mstore\n      0x20\n      add\n      0x00\n      keccak256\n        /* \"contracts/token.sol\":3732:3769  allowed[msg.sender][spender] = tokens */\n      dup2\n      swap1\n      sstore\n      pop\n        /* \"contracts/token.sol\":3806:3813  spender */\n      dup4\n        /* \"contracts/token.sol\":3785:3822  Approval(msg.sender, spender, tokens) */\n      0xffffffffffffffffffffffffffffffffffffffff\n      and\n        /* \"contracts/token.sol\":3794:3804  msg.sender */\n      caller\n        /* \"contracts/token.sol\":3785:3822  Approval(msg.sender, spender, tokens) */\n      0xffffffffffffffffffffffffffffffffffffffff\n      and\n      0x8c5be1e5ebec7d5bd14f71427d1e84f3dd0314c0f7b2291e5b200ac8c7c3b925\n        /* \"contracts/token.sol\":3815:3821  tokens */\n      dup6\n        /* \"contracts/token.sol\":3785:3822  Approval(msg.sender, spender, tokens) */\n      mload(0x40)\n      tag_146\n      swap2\n      swap1\n      tag_44\n      jump\t// in\n    tag_146:\n      mload(0x40)\n      dup1\n      swap2\n      sub\n      swap1\n      log3\n        /* \"contracts/token.sol\":3856:3863  spender */\n      dup4\n        /* \"contracts/token.sol\":3833:3880  ApproveAndCallFallBack(spender).receiveApproval */\n      0xffffffffffffffffffffffffffffffffffffffff\n      and\n      0x8f4ffcb1\n        /* \"contracts/token.sol\":3881:3891  msg.sender */\n      caller\n        /* \"contracts/token.sol\":3893:3899  tokens */\n      dup6\n        /* \"contracts/token.sol\":3909:3913  this */\n      address\n        /* \"contracts/token.sol\":3916:3920  data */\n      dup7\n        /* \"contracts/token.sol\":3833:3921  ApproveAndCallFallBack(spender).receiveApproval(msg.sender, tokens, address(this), data) */\n      mload(0x40)\n      dup6\n      0xffffffff\n      and\n      0xe0\n      shl\n      dup2\n      mstore\n      0x04\n      add\n      tag_147\n      swap5\n      swap4\n      swap3\n      swap2\n      swap1\n      tag_148\n      jump\t// in\n    tag_147:\n      0x00\n      mload(0x40)\n      dup1\n      dup4\n      sub\n      dup2\n      0x00\n      dup8\n      dup1\n      extcodesize\n      iszero\n      dup1\n      iszero\n      tag_149\n      jumpi\n      0x00\n      dup1\n      revert\n    tag_149:\n      pop\n      gas\n      call\n      iszero\n      dup1\n      iszero\n      tag_151\n      jumpi\n      returndatasize\n      0x00\n      dup1\n      returndatacopy\n      revert(0x00, returndatasize)\n    tag_151:\n      pop\n      pop\n      pop\n      pop\n        /* \"contracts/token.sol\":3939:3943  true */\n      0x01\n        /* \"contracts/token.sol\":3932:3943  return true */\n      swap1\n      pop\n        /* \"contracts/token.sol\":3618:3951  function approveAndCall(address spender, uint tokens, bytes memory data) public returns (bool success) {... */\n      swap4\n      swap3\n      pop\n      pop\n      pop\n      jump\t// out\n        /* \"contracts/token.sol\":426:593  function safeMul(uint a, uint b) public pure returns (uint c) {... */\n    tag_95:\n        /* \"contracts/token.sol\":480:486  uint c */\n      0x00\n        /* \"contracts/token.sol\":507:508  b */\n      dup2\n        /* \"contracts/token.sol\":503:504  a */\n      dup4\n        /* \"contracts/token.sol\":503:508  a * b */\n      tag_153\n      swap2\n      swap1\n      tag_154\n      jump\t// in\n    tag_153:\n        /* \"contracts/token.sol\":499:508  c = a * b */\n      swap1\n      pop\n        /* \"contracts/token.sol\":532:533  0 */\n      0x00\n        /* \"contracts/token.sol\":527:528  a */\n      dup4\n        /* \"contracts/token.sol\":527:533  a == 0 */\n      eq\n        /* \"contracts/token.sol\":527:547  a == 0 || c / a == b */\n      dup1\n      tag_155\n      jumpi\n      pop\n        /* \"contracts/token.sol\":546:547  b */\n      dup2\n        /* \"contracts/token.sol\":541:542  a */\n      dup4\n        /* \"contracts/token.sol\":537:538  c */\n      dup3\n        /* \"contracts/token.sol\":537:542  c / a */\n      tag_156\n      swap2\n      swap1\n      tag_144\n      jump\t// in\n    tag_156:\n        /* \"contracts/token.sol\":537:547  c / a == b */\n      eq\n        /* \"contracts/token.sol\":527:547  a == 0 || c / a == b */\n    tag_155:\n        /* \"contracts/token.sol\":519:585  require(a == 0 || c / a == b, \"SafeMath: multiplication overflow\") */\n      tag_157\n      jumpi\n      mload(0x40)\n      0x08c379a000000000000000000000000000000000000000000000000000000000\n      dup2\n      mstore\n      0x04\n      add\n      tag_158\n      swap1\n      tag_159\n      jump\t// in\n    tag_158:\n      mload(0x40)\n      dup1\n      swap2\n      sub\n      swap1\n      revert\n    tag_157:\n        /* \"contracts/token.sol\":426:593  function safeMul(uint a, uint b) public pure returns (uint c) {... */\n      swap3\n      swap2\n      pop\n      pop\n      jump\t// out\n        /* \"contracts/token.sol\":3463:3610  function allowance(address tokenOwner, address spender) public view returns (uint remaining) {... */\n    tag_101:\n        /* \"contracts/token.sol\":3540:3554  uint remaining */\n      0x00\n        /* \"contracts/token.sol\":3574:3581  allowed */\n      0x05\n        /* \"contracts/token.sol\":3574:3593  allowed[tokenOwner] */\n      0x00\n        /* \"contracts/token.sol\":3582:3592  tokenOwner */\n      dup5\n        /* \"contracts/token.sol\":3574:3593  allowed[tokenOwner] */\n      0xffffffffffffffffffffffffffffffffffffffff\n      and\n      0xffffffffffffffffffffffffffffffffffffffff\n      and\n      dup2\n      mstore\n      0x20\n      add\n      swap1\n      dup2\n      mstore\n      0x20\n      add\n      0x00\n      keccak256\n        /* \"contracts/token.sol\":3574:3602  allowed[tokenOwner][spender] */\n      0x00\n        /* \"contracts/token.sol\":3594:3601  spender */\n      dup4\n        /* \"contracts/token.sol\":3574:3602  allowed[tokenOwner][spender] */\n      0xffffffffffffffffffffffffffffffffffffffff\n      and\n      0xffffffffffffffffffffffffffffffffffffffff\n      and\n      dup2\n      mstore\n      0x20\n      add\n      swap1\n      dup2\n      mstore\n      0x20\n      add\n      0x00\n      keccak256\n      sload\n        /* \"contracts/token.sol\":3567:3602  return allowed[tokenOwner][spender] */\n      swap1\n      pop\n        /* \"contracts/token.sol\":3463:3610  function allowance(address tokenOwner, address spender) public view returns (uint remaining) {... */\n      swap3\n      swap2\n      pop\n      pop\n      jump\t// out\n        /* \"contracts/token.sol\":113:260  function safeAdd(uint a, uint b) public pure returns (uint c) {... */\n    tag_106:\n        /* \"contracts/token.sol\":167:173  uint c */\n      0x00\n        /* \"contracts/token.sol\":194:195  b */\n      dup2\n        /* \"contracts/token.sol\":190:191  a */\n      dup4\n        /* \"contracts/token.sol\":190:195  a + b */\n      tag_162\n      swap2\n      swap1\n      tag_163\n      jump\t// in\n    tag_162:\n        /* \"contracts/token.sol\":186:195  c = a + b */\n      swap1\n      pop\n        /* \"contracts/token.sol\":219:220  a */\n      dup3\n        /* \"contracts/token.sol\":214:215  c */\n      dup2\n        /* \"contracts/token.sol\":214:220  c >= a */\n      lt\n      iszero\n        /* \"contracts/token.sol\":206:252  require(c >= a, \"SafeMath: addition overflow\") */\n      tag_164\n      jumpi\n      mload(0x40)\n      0x08c379a000000000000000000000000000000000000000000000000000000000\n      dup2\n      mstore\n      0x04\n      add\n      tag_165\n      swap1\n      tag_166\n      jump\t// in\n    tag_165:\n      mload(0x40)\n      dup1\n      swap2\n      sub\n      swap1\n      revert\n    tag_164:\n        /* \"contracts/token.sol\":113:260  function safeAdd(uint a, uint b) public pure returns (uint c) {... */\n      swap3\n      swap2\n      pop\n      pop\n      jump\t// out\n        /* \"#utility.yul\":7:176   */\n    tag_167:\n        /* \"#utility.yul\":91:102   */\n      0x00\n        /* \"#utility.yul\":125:131   */\n      dup3\n        /* \"#utility.yul\":120:123   */\n      dup3\n        /* \"#utility.yul\":113:132   */\n      mstore\n        /* \"#utility.yul\":165:169   */\n      0x20\n        /* \"#utility.yul\":160:163   */\n      dup3\n        /* \"#utility.yul\":156:170   */\n      add\n        /* \"#utility.yul\":141:170   */\n      swap1\n      pop\n        /* \"#utility.yul\":7:176   */\n      swap3\n      swap2\n      pop\n      pop\n      jump\t// out\n        /* \"#utility.yul\":182:350   */\n    tag_168:\n        /* \"#utility.yul\":322:342   */\n      0x4574686572206e6f742061636365707465640000000000000000000000000000\n        /* \"#utility.yul\":318:319   */\n      0x00\n        /* \"#utility.yul\":310:316   */\n      dup3\n        /* \"#utility.yul\":306:320   */\n      add\n        /* \"#utility.yul\":299:343   */\n      mstore\n        /* \"#utility.yul\":182:350   */\n      pop\n      jump\t// out\n        /* \"#utility.yul\":356:722   */\n    tag_169:\n        /* \"#utility.yul\":498:501   */\n      0x00\n        /* \"#utility.yul\":519:586   */\n      tag_217\n        /* \"#utility.yul\":583:585   */\n      0x12\n        /* \"#utility.yul\":578:581   */\n      dup4\n        /* \"#utility.yul\":519:586   */\n      tag_167\n      jump\t// in\n    tag_217:\n        /* \"#utility.yul\":512:586   */\n      swap2\n      pop\n        /* \"#utility.yul\":595:688   */\n      tag_218\n        /* \"#utility.yul\":684:687   */\n      dup3\n        /* \"#utility.yul\":595:688   */\n      tag_168\n      jump\t// in\n    tag_218:\n        /* \"#utility.yul\":713:715   */\n      0x20\n        /* \"#utility.yul\":708:711   */\n      dup3\n        /* \"#utility.yul\":704:716   */\n      add\n        /* \"#utility.yul\":697:716   */\n      swap1\n      pop\n        /* \"#utility.yul\":356:722   */\n      swap2\n      swap1\n      pop\n      jump\t// out\n        /* \"#utility.yul\":728:1147   */\n    tag_24:\n        /* \"#utility.yul\":894:898   */\n      0x00\n        /* \"#utility.yul\":932:934   */\n      0x20\n        /* \"#utility.yul\":921:930   */\n      dup3\n        /* \"#utility.yul\":917:935   */\n      add\n        /* \"#utility.yul\":909:935   */\n      swap1\n      pop\n        /* \"#utility.yul\":981:990   */\n      dup2\n        /* \"#utility.yul\":975:979   */\n      dup2\n        /* \"#utility.yul\":971:991   */\n      sub\n        /* \"#utility.yul\":967:968   */\n      0x00\n        /* \"#utility.yul\":956:965   */\n      dup4\n        /* \"#utility.yul\":952:969   */\n      add\n        /* \"#utility.yul\":945:992   */\n      mstore\n        /* \"#utility.yul\":1009:1140   */\n      tag_220\n        /* \"#utility.yul\":1135:1139   */\n      dup2\n        /* \"#utility.yul\":1009:1140   */\n      tag_169\n      jump\t// in\n    tag_220:\n        /* \"#utility.yul\":1001:1140   */\n      swap1\n      pop\n        /* \"#utility.yul\":728:1147   */\n      swap2\n      swap1\n      pop\n      jump\t// out\n        /* \"#utility.yul\":1153:1252   */\n    tag_170:\n        /* \"#utility.yul\":1205:1211   */\n      0x00\n        /* \"#utility.yul\":1239:1244   */\n      dup2\n        /* \"#utility.yul\":1233:1245   */\n      mload\n        /* \"#utility.yul\":1223:1245   */\n      swap1\n      pop\n        /* \"#utility.yul\":1153:1252   */\n      swap2\n      swap1\n      pop\n      jump\t// out\n        /* \"#utility.yul\":1258:1397   */\n    tag_171:\n        /* \"#utility.yul\":1347:1353   */\n      dup3\n        /* \"#utility.yul\":1342:1345   */\n      dup2\n        /* \"#utility.yul\":1337:1340   */\n      dup4\n        /* \"#utility.yul\":1331:1354   */\n      mcopy\n        /* \"#utility.yul\":1388:1389   */\n      0x00\n        /* \"#utility.yul\":1379:1385   */\n      dup4\n        /* \"#utility.yul\":1374:1377   */\n      dup4\n        /* \"#utility.yul\":1370:1386   */\n      add\n        /* \"#utility.yul\":1363:1390   */\n      mstore\n        /* \"#utility.yul\":1258:1397   */\n      pop\n      pop\n      pop\n      jump\t// out\n        /* \"#utility.yul\":1403:1505   */\n    tag_172:\n        /* \"#utility.yul\":1444:1450   */\n      0x00\n        /* \"#utility.yul\":1495:1497   */\n      0x1f\n        /* \"#utility.yul\":1491:1498   */\n      not\n        /* \"#utility.yul\":1486:1488   */\n      0x1f\n        /* \"#utility.yul\":1479:1484   */\n      dup4\n        /* \"#utility.yul\":1475:1489   */\n      add\n        /* \"#utility.yul\":1471:1499   */\n      and\n        /* \"#utility.yul\":1461:1499   */\n      swap1\n      pop\n        /* \"#utility.yul\":1403:1505   */\n      swap2\n      swap1\n      pop\n      jump\t// out\n        /* \"#utility.yul\":1511:1888   */\n    tag_173:\n        /* \"#utility.yul\":1599:1602   */\n      0x00\n        /* \"#utility.yul\":1627:1666   */\n      tag_225\n        /* \"#utility.yul\":1660:1665   */\n      dup3\n        /* \"#utility.yul\":1627:1666   */\n      tag_170\n      jump\t// in\n    tag_225:\n        /* \"#utility.yul\":1682:1753   */\n      tag_226\n        /* \"#utility.yul\":1746:1752   */\n      dup2\n        /* \"#utility.yul\":1741:1744   */\n      dup6\n        /* \"#utility.yul\":1682:1753   */\n      tag_167\n      jump\t// in\n    tag_226:\n        /* \"#utility.yul\":1675:1753   */\n      swap4\n      pop\n        /* \"#utility.yul\":1762:1827   */\n      tag_227\n        /* \"#utility.yul\":1820:1826   */\n      dup2\n        /* \"#utility.yul\":1815:1818   */\n      dup6\n        /* \"#utility.yul\":1808:1812   */\n      0x20\n        /* \"#utility.yul\":1801:1806   */\n      dup7\n        /* \"#utility.yul\":1797:1813   */\n      add\n        /* \"#utility.yul\":1762:1827   */\n      tag_171\n      jump\t// in\n    tag_227:\n        /* \"#utility.yul\":1852:1881   */\n      tag_228\n        /* \"#utility.yul\":1874:1880   */\n      dup2\n        /* \"#utility.yul\":1852:1881   */\n      tag_172\n      jump\t// in\n    tag_228:\n        /* \"#utility.yul\":1847:1850   */\n      dup5\n        /* \"#utility.yul\":1843:1882   */\n      add\n        /* \"#utility.yul\":1836:1882   */\n      swap2\n      pop\n        /* \"#utility.yul\":1603:1888   */\n      pop\n        /* \"#utility.yul\":1511:1888   */\n      swap3\n      swap2\n      pop\n      pop\n      jump\t// out\n        /* \"#utility.yul\":1894:2207   */\n    tag_32:\n        /* \"#utility.yul\":2007:2011   */\n      0x00\n        /* \"#utility.yul\":2045:2047   */\n      0x20\n        /* \"#utility.yul\":2034:2043   */\n      dup3\n        /* \"#utility.yul\":2030:2048   */\n      add\n        /* \"#utility.yul\":2022:2048   */\n      swap1\n      pop\n        /* \"#utility.yul\":2094:2103   */\n      dup2\n        /* \"#utility.yul\":2088:2092   */\n      dup2\n        /* \"#utility.yul\":2084:2104   */\n      sub\n        /* \"#utility.yul\":2080:2081   */\n      0x00\n        /* \"#utility.yul\":2069:2078   */\n      dup4\n        /* \"#utility.yul\":2065:2082   */\n      add\n        /* \"#utility.yul\":2058:2105   */\n      mstore\n        /* \"#utility.yul\":2122:2200   */\n      tag_230\n        /* \"#utility.yul\":2195:2199   */\n      dup2\n        /* \"#utility.yul\":2186:2192   */\n      dup5\n        /* \"#utility.yul\":2122:2200   */\n      tag_173\n      jump\t// in\n    tag_230:\n        /* \"#utility.yul\":2114:2200   */\n      swap1\n      pop\n        /* \"#utility.yul\":1894:2207   */\n      swap3\n      swap2\n      pop\n      pop\n      jump\t// out\n        /* \"#utility.yul\":2213:2288   */\n    tag_174:\n        /* \"#utility.yul\":2246:2252   */\n      0x00\n        /* \"#utility.yul\":2279:2281   */\n      0x40\n        /* \"#utility.yul\":2273:2282   */\n      mload\n        /* \"#utility.yul\":2263:2282   */\n      swap1\n      pop\n        /* \"#utility.yul\":2213:2288   */\n      swap1\n      jump\t// out\n        /* \"#utility.yul\":2294:2411   */\n    tag_175:\n        /* \"#utility.yul\":2403:2404   */\n      0x00\n        /* \"#utility.yul\":2400:2401   */\n      dup1\n        /* \"#utility.yul\":2393:2405   */\n      revert\n        /* \"#utility.yul\":2417:2534   */\n    tag_176:\n        /* \"#utility.yul\":2526:2527   */\n      0x00\n        /* \"#utility.yul\":2523:2524   */\n      dup1\n        /* \"#utility.yul\":2516:2528   */\n      revert\n        /* \"#utility.yul\":2540:2666   */\n    tag_177:\n        /* \"#utility.yul\":2577:2584   */\n      0x00\n        /* \"#utility.yul\":2617:2659   */\n      0xffffffffffffffffffffffffffffffffffffffff\n        /* \"#utility.yul\":2610:2615   */\n      dup3\n        /* \"#utility.yul\":2606:2660   */\n      and\n        /* \"#utility.yul\":2595:2660   */\n      swap1\n      pop\n        /* \"#utility.yul\":2540:2666   */\n      swap2\n      swap1\n      pop\n      jump\t// out\n        /* \"#utility.yul\":2672:2768   */\n    tag_178:\n        /* \"#utility.yul\":2709:2716   */\n      0x00\n        /* \"#utility.yul\":2738:2762   */\n      tag_236\n        /* \"#utility.yul\":2756:2761   */\n      dup3\n        /* \"#utility.yul\":2738:2762   */\n      tag_177\n      jump\t// in\n    tag_236:\n        /* \"#utility.yul\":2727:2762   */\n      swap1\n      pop\n        /* \"#utility.yul\":2672:2768   */\n      swap2\n      swap1\n      pop\n      jump\t// out\n        /* \"#utility.yul\":2774:2896   */\n    tag_179:\n        /* \"#utility.yul\":2847:2871   */\n      tag_238\n        /* \"#utility.yul\":2865:2870   */\n      dup2\n        /* \"#utility.yul\":2847:2871   */\n      tag_178\n      jump\t// in\n    tag_238:\n        /* \"#utility.yul\":2840:2845   */\n      dup2\n        /* \"#utility.yul\":2837:2872   */\n      eq\n        /* \"#utility.yul\":2827:2890   */\n      tag_239\n      jumpi\n        /* \"#utility.yul\":2886:2887   */\n      0x00\n        /* \"#utility.yul\":2883:2884   */\n      dup1\n        /* \"#utility.yul\":2876:2888   */\n      revert\n        /* \"#utility.yul\":2827:2890   */\n    tag_239:\n        /* \"#utility.yul\":2774:2896   */\n      pop\n      jump\t// out\n        /* \"#utility.yul\":2902:3041   */\n    tag_180:\n        /* \"#utility.yul\":2948:2953   */\n      0x00\n        /* \"#utility.yul\":2986:2992   */\n      dup2\n        /* \"#utility.yul\":2973:2993   */\n      calldataload\n        /* \"#utility.yul\":2964:2993   */\n      swap1\n      pop\n        /* \"#utility.yul\":3002:3035   */\n      tag_241\n        /* \"#utility.yul\":3029:3034   */\n      dup2\n        /* \"#utility.yul\":3002:3035   */\n      tag_179\n      jump\t// in\n    tag_241:\n        /* \"#utility.yul\":2902:3041   */\n      swap3\n      swap2\n      pop\n      pop\n      jump\t// out\n        /* \"#utility.yul\":3047:3124   */\n    tag_181:\n        /* \"#utility.yul\":3084:3091   */\n      0x00\n        /* \"#utility.yul\":3113:3118   */\n      dup2\n        /* \"#utility.yul\":3102:3118   */\n      swap1\n      pop\n        /* \"#utility.yul\":3047:3124   */\n      swap2\n      swap1\n      pop\n      jump\t// out\n        /* \"#utility.yul\":3130:3252   */\n    tag_182:\n        /* \"#utility.yul\":3203:3227   */\n      tag_244\n        /* \"#utility.yul\":3221:3226   */\n      dup2\n        /* \"#utility.yul\":3203:3227   */\n      tag_181\n      jump\t// in\n    tag_244:\n        /* \"#utility.yul\":3196:3201   */\n      dup2\n        /* \"#utility.yul\":3193:3228   */\n      eq\n        /* \"#utility.yul\":3183:3246   */\n      tag_245\n      jumpi\n        /* \"#utility.yul\":3242:3243   */\n      0x00\n        /* \"#utility.yul\":3239:3240   */\n      dup1\n        /* \"#utility.yul\":3232:3244   */\n      revert\n        /* \"#utility.yul\":3183:3246   */\n    tag_245:\n        /* \"#utility.yul\":3130:3252   */\n      pop\n      jump\t// out\n        /* \"#utility.yul\":3258:3397   */\n    tag_183:\n        /* \"#utility.yul\":3304:3309   */\n      0x00\n        /* \"#utility.yul\":3342:3348   */\n      dup2\n        /* \"#utility.yul\":3329:3349   */\n      calldataload\n        /* \"#utility.yul\":3320:3349   */\n      swap1\n      pop\n        /* \"#utility.yul\":3358:3391   */\n      tag_247\n        /* \"#utility.yul\":3385:3390   */\n      dup2\n        /* \"#utility.yul\":3358:3391   */\n      tag_182\n      jump\t// in\n    tag_247:\n        /* \"#utility.yul\":3258:3397   */\n      swap3\n      swap2\n      pop\n      pop\n      jump\t// out\n        /* \"#utility.yul\":3403:3877   */\n    tag_36:\n        /* \"#utility.yul\":3471:3477   */\n      0x00\n        /* \"#utility.yul\":3479:3485   */\n      dup1\n        /* \"#utility.yul\":3528:3530   */\n      0x40\n        /* \"#utility.yul\":3516:3525   */\n      dup4\n        /* \"#utility.yul\":3507:3514   */\n      dup6\n        /* \"#utility.yul\":3503:3526   */\n      sub\n        /* \"#utility.yul\":3499:3531   */\n      slt\n        /* \"#utility.yul\":3496:3615   */\n      iszero\n      tag_249\n      jumpi\n        /* \"#utility.yul\":3534:3613   */\n      tag_250\n      tag_175\n      jump\t// in\n    tag_250:\n        /* \"#utility.yul\":3496:3615   */\n    tag_249:\n        /* \"#utility.yul\":3654:3655   */\n      0x00\n        /* \"#utility.yul\":3679:3732   */\n      tag_251\n        /* \"#utility.yul\":3724:3731   */\n      dup6\n        /* \"#utility.yul\":3715:3721   */\n      dup3\n        /* \"#utility.yul\":3704:3713   */\n      dup7\n        /* \"#utility.yul\":3700:3722   */\n      add\n        /* \"#utility.yul\":3679:3732   */\n      tag_180\n      jump\t// in\n    tag_251:\n        /* \"#utility.yul\":3669:3732   */\n      swap3\n      pop\n        /* \"#utility.yul\":3625:3742   */\n      pop\n        /* \"#utility.yul\":3781:3783   */\n      0x20\n        /* \"#utility.yul\":3807:3860   */\n      tag_252\n        /* \"#utility.yul\":3852:3859   */\n      dup6\n        /* \"#utility.yul\":3843:3849   */\n      dup3\n        /* \"#utility.yul\":3832:3841   */\n      dup7\n        /* \"#utility.yul\":3828:3850   */\n      add\n        /* \"#utility.yul\":3807:3860   */\n      tag_183\n      jump\t// in\n    tag_252:\n        /* \"#utility.yul\":3797:3860   */\n      swap2\n      pop\n        /* \"#utility.yul\":3752:3870   */\n      pop\n        /* \"#utility.yul\":3403:3877   */\n      swap3\n      pop\n      swap3\n      swap1\n      pop\n      jump\t// out\n        /* \"#utility.yul\":3883:3973   */\n    tag_184:\n        /* \"#utility.yul\":3917:3924   */\n      0x00\n        /* \"#utility.yul\":3960:3965   */\n      dup2\n        /* \"#utility.yul\":3953:3966   */\n      iszero\n        /* \"#utility.yul\":3946:3967   */\n      iszero\n        /* \"#utility.yul\":3935:3967   */\n      swap1\n      pop\n        /* \"#utility.yul\":3883:3973   */\n      swap2\n      swap1\n      pop\n      jump\t// out\n        /* \"#utility.yul\":3979:4088   */\n    tag_185:\n        /* \"#utility.yul\":4060:4081   */\n      tag_255\n        /* \"#utility.yul\":4075:4080   */\n      dup2\n        /* \"#utility.yul\":4060:4081   */\n      tag_184\n      jump\t// in\n    tag_255:\n        /* \"#utility.yul\":4055:4058   */\n      dup3\n        /* \"#utility.yul\":4048:4082   */\n      mstore\n        /* \"#utility.yul\":3979:4088   */\n      pop\n      pop\n      jump\t// out\n        /* \"#utility.yul\":4094:4304   */\n    tag_39:\n        /* \"#utility.yul\":4181:4185   */\n      0x00\n        /* \"#utility.yul\":4219:4221   */\n      0x20\n        /* \"#utility.yul\":4208:4217   */\n      dup3\n        /* \"#utility.yul\":4204:4222   */\n      add\n        /* \"#utility.yul\":4196:4222   */\n      swap1\n      pop\n        /* \"#utility.yul\":4232:4297   */\n      tag_257\n        /* \"#utility.yul\":4294:4295   */\n      0x00\n        /* \"#utility.yul\":4283:4292   */\n      dup4\n        /* \"#utility.yul\":4279:4296   */\n      add\n        /* \"#utility.yul\":4270:4276   */\n      dup5\n        /* \"#utility.yul\":4232:4297   */\n      tag_185\n      jump\t// in\n    tag_257:\n        /* \"#utility.yul\":4094:4304   */\n      swap3\n      swap2\n      pop\n      pop\n      jump\t// out\n        /* \"#utility.yul\":4310:4428   */\n    tag_186:\n        /* \"#utility.yul\":4397:4421   */\n      tag_259\n        /* \"#utility.yul\":4415:4420   */\n      dup2\n        /* \"#utility.yul\":4397:4421   */\n      tag_181\n      jump\t// in\n    tag_259:\n        /* \"#utility.yul\":4392:4395   */\n      dup3\n        /* \"#utility.yul\":4385:4422   */\n      mstore\n        /* \"#utility.yul\":4310:4428   */\n      pop\n      pop\n      jump\t// out\n        /* \"#utility.yul\":4434:4656   */\n    tag_44:\n        /* \"#utility.yul\":4527:4531   */\n      0x00\n        /* \"#utility.yul\":4565:4567   */\n      0x20\n        /* \"#utility.yul\":4554:4563   */\n      dup3\n        /* \"#utility.yul\":4550:4568   */\n      add\n        /* \"#utility.yul\":4542:4568   */\n      swap1\n      pop\n        /* \"#utility.yul\":4578:4649   */\n      tag_261\n        /* \"#utility.yul\":4646:4647   */\n      0x00\n        /* \"#utility.yul\":4635:4644   */\n      dup4\n        /* \"#utility.yul\":4631:4648   */\n      add\n        /* \"#utility.yul\":4622:4628   */\n      dup5\n        /* \"#utility.yul\":4578:4649   */\n      tag_186\n      jump\t// in\n    tag_261:\n        /* \"#utility.yul\":4434:4656   */\n      swap3\n      swap2\n      pop\n      pop\n      jump\t// out\n        /* \"#utility.yul\":4662:5281   */\n    tag_48:\n        /* \"#utility.yul\":4739:4745   */\n      0x00\n        /* \"#utility.yul\":4747:4753   */\n      dup1\n        /* \"#utility.yul\":4755:4761   */\n      0x00\n        /* \"#utility.yul\":4804:4806   */\n      0x60\n        /* \"#utility.yul\":4792:4801   */\n      dup5\n        /* \"#utility.yul\":4783:4790   */\n      dup7\n        /* \"#utility.yul\":4779:4802   */\n      sub\n        /* \"#utility.yul\":4775:4807   */\n      slt\n        /* \"#utility.yul\":4772:4891   */\n      iszero\n      tag_263\n      jumpi\n        /* \"#utility.yul\":4810:4889   */\n      tag_264\n      tag_175\n      jump\t// in\n    tag_264:\n        /* \"#utility.yul\":4772:4891   */\n    tag_263:\n        /* \"#utility.yul\":4930:4931   */\n      0x00\n        /* \"#utility.yul\":4955:5008   */\n      tag_265\n        /* \"#utility.yul\":5000:5007   */\n      dup7\n        /* \"#utility.yul\":4991:4997   */\n      dup3\n        /* \"#utility.yul\":4980:4989   */\n      dup8\n        /* \"#utility.yul\":4976:4998   */\n      add\n        /* \"#utility.yul\":4955:5008   */\n      tag_180\n      jump\t// in\n    tag_265:\n        /* \"#utility.yul\":4945:5008   */\n      swap4\n      pop\n        /* \"#utility.yul\":4901:5018   */\n      pop\n        /* \"#utility.yul\":5057:5059   */\n      0x20\n        /* \"#utility.yul\":5083:5136   */\n      tag_266\n        /* \"#utility.yul\":5128:5135   */\n      dup7\n        /* \"#utility.yul\":5119:5125   */\n      dup3\n        /* \"#utility.yul\":5108:5117   */\n      dup8\n        /* \"#utility.yul\":5104:5126   */\n      add\n        /* \"#utility.yul\":5083:5136   */\n      tag_180\n      jump\t// in\n    tag_266:\n        /* \"#utility.yul\":5073:5136   */\n      swap3\n      pop\n        /* \"#utility.yul\":5028:5146   */\n      pop\n        /* \"#utility.yul\":5185:5187   */\n      0x40\n        /* \"#utility.yul\":5211:5264   */\n      tag_267\n        /* \"#utility.yul\":5256:5263   */\n      dup7\n        /* \"#utility.yul\":5247:5253   */\n      dup3\n        /* \"#utility.yul\":5236:5245   */\n      dup8\n        /* \"#utility.yul\":5232:5254   */\n      add\n        /* \"#utility.yul\":5211:5264   */\n      tag_183\n      jump\t// in\n    tag_267:\n        /* \"#utility.yul\":5201:5264   */\n      swap2\n      pop\n        /* \"#utility.yul\":5156:5274   */\n      pop\n        /* \"#utility.yul\":4662:5281   */\n      swap3\n      pop\n      swap3\n      pop\n      swap3\n      jump\t// out\n        /* \"#utility.yul\":5287:5373   */\n    tag_187:\n        /* \"#utility.yul\":5322:5329   */\n      0x00\n        /* \"#utility.yul\":5362:5366   */\n      0xff\n        /* \"#utility.yul\":5355:5360   */\n      dup3\n        /* \"#utility.yul\":5351:5367   */\n      and\n        /* \"#utility.yul\":5340:5367   */\n      swap1\n      pop\n        /* \"#utility.yul\":5287:5373   */\n      swap2\n      swap1\n      pop\n      jump\t// out\n        /* \"#utility.yul\":5379:5491   */\n    tag_188:\n        /* \"#utility.yul\":5462:5484   */\n      tag_270\n        /* \"#utility.yul\":5478:5483   */\n      dup2\n        /* \"#utility.yul\":5462:5484   */\n      tag_187\n      jump\t// in\n    tag_270:\n        /* \"#utility.yul\":5457:5460   */\n      dup3\n        /* \"#utility.yul\":5450:5485   */\n      mstore\n        /* \"#utility.yul\":5379:5491   */\n      pop\n      pop\n      jump\t// out\n        /* \"#utility.yul\":5497:5711   */\n    tag_55:\n        /* \"#utility.yul\":5586:5590   */\n      0x00\n        /* \"#utility.yul\":5624:5626   */\n      0x20\n        /* \"#utility.yul\":5613:5622   */\n      dup3\n        /* \"#utility.yul\":5609:5627   */\n      add\n        /* \"#utility.yul\":5601:5627   */\n      swap1\n      pop\n        /* \"#utility.yul\":5637:5704   */\n      tag_272\n        /* \"#utility.yul\":5701:5702   */\n      0x00\n        /* \"#utility.yul\":5690:5699   */\n      dup4\n        /* \"#utility.yul\":5686:5703   */\n      add\n        /* \"#utility.yul\":5677:5683   */\n      dup5\n        /* \"#utility.yul\":5637:5704   */\n      tag_188\n      jump\t// in\n    tag_272:\n        /* \"#utility.yul\":5497:5711   */\n      swap3\n      swap2\n      pop\n      pop\n      jump\t// out\n        /* \"#utility.yul\":5717:6046   */\n    tag_63:\n        /* \"#utility.yul\":5776:5782   */\n      0x00\n        /* \"#utility.yul\":5825:5827   */\n      0x20\n        /* \"#utility.yul\":5813:5822   */\n      dup3\n        /* \"#utility.yul\":5804:5811   */\n      dup5\n        /* \"#utility.yul\":5800:5823   */\n      sub\n        /* \"#utility.yul\":5796:5828   */\n      slt\n        /* \"#utility.yul\":5793:5912   */\n      iszero\n      tag_274\n      jumpi\n        /* \"#utility.yul\":5831:5910   */\n      tag_275\n      tag_175\n      jump\t// in\n    tag_275:\n        /* \"#utility.yul\":5793:5912   */\n    tag_274:\n        /* \"#utility.yul\":5951:5952   */\n      0x00\n        /* \"#utility.yul\":5976:6029   */\n      tag_276\n        /* \"#utility.yul\":6021:6028   */\n      dup5\n        /* \"#utility.yul\":6012:6018   */\n      dup3\n        /* \"#utility.yul\":6001:6010   */\n      dup6\n        /* \"#utility.yul\":5997:6019   */\n      add\n        /* \"#utility.yul\":5976:6029   */\n      tag_180\n      jump\t// in\n    tag_276:\n        /* \"#utility.yul\":5966:6029   */\n      swap2\n      pop\n        /* \"#utility.yul\":5922:6039   */\n      pop\n        /* \"#utility.yul\":5717:6046   */\n      swap3\n      swap2\n      pop\n      pop\n      jump\t// out\n        /* \"#utility.yul\":6052:6526   */\n    tag_73:\n        /* \"#utility.yul\":6120:6126   */\n      0x00\n        /* \"#utility.yul\":6128:6134   */\n      dup1\n        /* \"#utility.yul\":6177:6179   */\n      0x40\n        /* \"#utility.yul\":6165:6174   */\n      dup4\n        /* \"#utility.yul\":6156:6163   */\n      dup6\n        /* \"#utility.yul\":6152:6175   */\n      sub\n        /* \"#utility.yul\":6148:6180   */\n      slt\n        /* \"#utility.yul\":6145:6264   */\n      iszero\n      tag_278\n      jumpi\n        /* \"#utility.yul\":6183:6262   */\n      tag_279\n      tag_175\n      jump\t// in\n    tag_279:\n        /* \"#utility.yul\":6145:6264   */\n    tag_278:\n        /* \"#utility.yul\":6303:6304   */\n      0x00\n        /* \"#utility.yul\":6328:6381   */\n      tag_280\n        /* \"#utility.yul\":6373:6380   */\n      dup6\n        /* \"#utility.yul\":6364:6370   */\n      dup3\n        /* \"#utility.yul\":6353:6362   */\n      dup7\n        /* \"#utility.yul\":6349:6371   */\n      add\n        /* \"#utility.yul\":6328:6381   */\n      tag_183\n      jump\t// in\n    tag_280:\n        /* \"#utility.yul\":6318:6381   */\n      swap3\n      pop\n        /* \"#utility.yul\":6274:6391   */\n      pop\n        /* \"#utility.yul\":6430:6432   */\n      0x20\n        /* \"#utility.yul\":6456:6509   */\n      tag_281\n        /* \"#utility.yul\":6501:6508   */\n      dup6\n        /* \"#utility.yul\":6492:6498   */\n      dup3\n        /* \"#utility.yul\":6481:6490   */\n      dup7\n        /* \"#utility.yul\":6477:6499   */\n      add\n        /* \"#utility.yul\":6456:6509   */\n      tag_183\n      jump\t// in\n    tag_281:\n        /* \"#utility.yul\":6446:6509   */\n      swap2\n      pop\n        /* \"#utility.yul\":6401:6519   */\n      pop\n        /* \"#utility.yul\":6052:6526   */\n      swap3\n      pop\n      swap3\n      swap1\n      pop\n      jump\t// out\n        /* \"#utility.yul\":6532:6649   */\n    tag_189:\n        /* \"#utility.yul\":6641:6642   */\n      0x00\n        /* \"#utility.yul\":6638:6639   */\n      dup1\n        /* \"#utility.yul\":6631:6643   */\n      revert\n        /* \"#utility.yul\":6655:6772   */\n    tag_190:\n        /* \"#utility.yul\":6764:6765   */\n      0x00\n        /* \"#utility.yul\":6761:6762   */\n      dup1\n        /* \"#utility.yul\":6754:6766   */\n      revert\n        /* \"#utility.yul\":6778:6958   */\n    tag_191:\n        /* \"#utility.yul\":6826:6903   */\n      0x4e487b7100000000000000000000000000000000000000000000000000000000\n        /* \"#utility.yul\":6823:6824   */\n      0x00\n        /* \"#utility.yul\":6816:6904   */\n      mstore\n        /* \"#utility.yul\":6923:6927   */\n      0x41\n        /* \"#utility.yul\":6920:6921   */\n      0x04\n        /* \"#utility.yul\":6913:6928   */\n      mstore\n        /* \"#utility.yul\":6947:6951   */\n      0x24\n        /* \"#utility.yul\":6944:6945   */\n      0x00\n        /* \"#utility.yul\":6937:6952   */\n      revert\n        /* \"#utility.yul\":6964:7245   */\n    tag_192:\n        /* \"#utility.yul\":7047:7074   */\n      tag_286\n        /* \"#utility.yul\":7069:7073   */\n      dup3\n        /* \"#utility.yul\":7047:7074   */\n      tag_172\n      jump\t// in\n    tag_286:\n        /* \"#utility.yul\":7039:7045   */\n      dup2\n        /* \"#utility.yul\":7035:7075   */\n      add\n        /* \"#utility.yul\":7177:7183   */\n      dup2\n        /* \"#utility.yul\":7165:7175   */\n      dup2\n        /* \"#utility.yul\":7162:7184   */\n      lt\n        /* \"#utility.yul\":7141:7159   */\n      0xffffffffffffffff\n        /* \"#utility.yul\":7129:7139   */\n      dup3\n        /* \"#utility.yul\":7126:7160   */\n      gt\n        /* \"#utility.yul\":7123:7185   */\n      or\n        /* \"#utility.yul\":7120:7208   */\n      iszero\n      tag_287\n      jumpi\n        /* \"#utility.yul\":7188:7206   */\n      tag_288\n      tag_191\n      jump\t// in\n    tag_288:\n        /* \"#utility.yul\":7120:7208   */\n    tag_287:\n        /* \"#utility.yul\":7228:7238   */\n      dup1\n        /* \"#utility.yul\":7224:7226   */\n      0x40\n        /* \"#utility.yul\":7217:7239   */\n      mstore\n        /* \"#utility.yul\":7007:7245   */\n      pop\n        /* \"#utility.yul\":6964:7245   */\n      pop\n      pop\n      jump\t// out\n        /* \"#utility.yul\":7251:7380   */\n    tag_193:\n        /* \"#utility.yul\":7285:7291   */\n      0x00\n        /* \"#utility.yul\":7312:7332   */\n      tag_290\n      tag_174\n      jump\t// in\n    tag_290:\n        /* \"#utility.yul\":7302:7332   */\n      swap1\n      pop\n        /* \"#utility.yul\":7341:7374   */\n      tag_291\n        /* \"#utility.yul\":7369:7373   */\n      dup3\n        /* \"#utility.yul\":7361:7367   */\n      dup3\n        /* \"#utility.yul\":7341:7374   */\n      tag_192\n      jump\t// in\n    tag_291:\n        /* \"#utility.yul\":7251:7380   */\n      swap2\n      swap1\n      pop\n      jump\t// out\n        /* \"#utility.yul\":7386:7693   */\n    tag_194:\n        /* \"#utility.yul\":7447:7451   */\n      0x00\n        /* \"#utility.yul\":7537:7555   */\n      0xffffffffffffffff\n        /* \"#utility.yul\":7529:7535   */\n      dup3\n        /* \"#utility.yul\":7526:7556   */\n      gt\n        /* \"#utility.yul\":7523:7579   */\n      iszero\n      tag_293\n      jumpi\n        /* \"#utility.yul\":7559:7577   */\n      tag_294\n      tag_191\n      jump\t// in\n    tag_294:\n        /* \"#utility.yul\":7523:7579   */\n    tag_293:\n        /* \"#utility.yul\":7597:7626   */\n      tag_295\n        /* \"#utility.yul\":7619:7625   */\n      dup3\n        /* \"#utility.yul\":7597:7626   */\n      tag_172\n      jump\t// in\n    tag_295:\n        /* \"#utility.yul\":7589:7626   */\n      swap1\n      pop\n        /* \"#utility.yul\":7681:7685   */\n      0x20\n        /* \"#utility.yul\":7675:7679   */\n      dup2\n        /* \"#utility.yul\":7671:7686   */\n      add\n        /* \"#utility.yul\":7663:7686   */\n      swap1\n      pop\n        /* \"#utility.yul\":7386:7693   */\n      swap2\n      swap1\n      pop\n      jump\t// out\n        /* \"#utility.yul\":7699:7847   */\n    tag_195:\n        /* \"#utility.yul\":7797:7803   */\n      dup3\n        /* \"#utility.yul\":7792:7795   */\n      dup2\n        /* \"#utility.yul\":7787:7790   */\n      dup4\n        /* \"#utility.yul\":7774:7804   */\n      calldatacopy\n        /* \"#utility.yul\":7838:7839   */\n      0x00\n        /* \"#utility.yul\":7829:7835   */\n      dup4\n        /* \"#utility.yul\":7824:7827   */\n      dup4\n        /* \"#utility.yul\":7820:7836   */\n      add\n        /* \"#utility.yul\":7813:7840   */\n      mstore\n        /* \"#utility.yul\":7699:7847   */\n      pop\n      pop\n      pop\n      jump\t// out\n        /* \"#utility.yul\":7853:8276   */\n    tag_196:\n        /* \"#utility.yul\":7930:7935   */\n      0x00\n        /* \"#utility.yul\":7955:8020   */\n      tag_298\n        /* \"#utility.yul\":7971:8019   */\n      tag_299\n        /* \"#utility.yul\":8012:8018   */\n      dup5\n        /* \"#utility.yul\":7971:8019   */\n      tag_194\n      jump\t// in\n    tag_299:\n        /* \"#utility.yul\":7955:8020   */\n      tag_193\n      jump\t// in\n    tag_298:\n        /* \"#utility.yul\":7946:8020   */\n      swap1\n      pop\n        /* \"#utility.yul\":8043:8049   */\n      dup3\n        /* \"#utility.yul\":8036:8041   */\n      dup2\n        /* \"#utility.yul\":8029:8050   */\n      mstore\n        /* \"#utility.yul\":8081:8085   */\n      0x20\n        /* \"#utility.yul\":8074:8079   */\n      dup2\n        /* \"#utility.yul\":8070:8086   */\n      add\n        /* \"#utility.yul\":8119:8122   */\n      dup5\n        /* \"#utility.yul\":8110:8116   */\n      dup5\n        /* \"#utility.yul\":8105:8108   */\n      dup5\n        /* \"#utility.yul\":8101:8117   */\n      add\n        /* \"#utility.yul\":8098:8123   */\n      gt\n        /* \"#utility.yul\":8095:8207   */\n      iszero\n      tag_300\n      jumpi\n        /* \"#utility.yul\":8126:8205   */\n      tag_301\n      tag_190\n      jump\t// in\n    tag_301:\n        /* \"#utility.yul\":8095:8207   */\n    tag_300:\n        /* \"#utility.yul\":8216:8270   */\n      tag_302\n        /* \"#utility.yul\":8263:8269   */\n      dup5\n        /* \"#utility.yul\":8258:8261   */\n      dup3\n        /* \"#utility.yul\":8253:8256   */\n      dup6\n        /* \"#utility.yul\":8216:8270   */\n      tag_195\n      jump\t// in\n    tag_302:\n        /* \"#utility.yul\":7936:8276   */\n      pop\n        /* \"#utility.yul\":7853:8276   */\n      swap4\n      swap3\n      pop\n      pop\n      pop\n      jump\t// out\n        /* \"#utility.yul\":8295:8633   */\n    tag_197:\n        /* \"#utility.yul\":8350:8355   */\n      0x00\n        /* \"#utility.yul\":8399:8402   */\n      dup3\n        /* \"#utility.yul\":8392:8396   */\n      0x1f\n        /* \"#utility.yul\":8384:8390   */\n      dup4\n        /* \"#utility.yul\":8380:8397   */\n      add\n        /* \"#utility.yul\":8376:8403   */\n      slt\n        /* \"#utility.yul\":8366:8488   */\n      tag_304\n      jumpi\n        /* \"#utility.yul\":8407:8486   */\n      tag_305\n      tag_189\n      jump\t// in\n    tag_305:\n        /* \"#utility.yul\":8366:8488   */\n    tag_304:\n        /* \"#utility.yul\":8524:8530   */\n      dup2\n        /* \"#utility.yul\":8511:8531   */\n      calldataload\n        /* \"#utility.yul\":8549:8627   */\n      tag_306\n        /* \"#utility.yul\":8623:8626   */\n      dup5\n        /* \"#utility.yul\":8615:8621   */\n      dup3\n        /* \"#utility.yul\":8608:8612   */\n      0x20\n        /* \"#utility.yul\":8600:8606   */\n      dup7\n        /* \"#utility.yul\":8596:8613   */\n      add\n        /* \"#utility.yul\":8549:8627   */\n      tag_196\n      jump\t// in\n    tag_306:\n        /* \"#utility.yul\":8540:8627   */\n      swap2\n      pop\n        /* \"#utility.yul\":8356:8633   */\n      pop\n        /* \"#utility.yul\":8295:8633   */\n      swap3\n      swap2\n      pop\n      pop\n      jump\t// out\n        /* \"#utility.yul\":8639:9436   */\n    tag_89:\n        /* \"#utility.yul\":8725:8731   */\n      0x00\n        /* \"#utility.yul\":8733:8739   */\n      dup1\n        /* \"#utility.yul\":8741:8747   */\n      0x00\n        /* \"#utility.yul\":8790:8792   */\n      0x60\n        /* \"#utility.yul\":8778:8787   */\n      dup5\n        /* \"#utility.yul\":8769:8776   */\n      dup7\n        /* \"#utility.yul\":8765:8788   */\n      sub\n        /* \"#utility.yul\":8761:8793   */\n      slt\n        /* \"#utility.yul\":8758:8877   */\n      iszero\n      tag_308\n      jumpi\n        /* \"#utility.yul\":8796:8875   */\n      tag_309\n      tag_175\n      jump\t// in\n    tag_309:\n        /* \"#utility.yul\":8758:8877   */\n    tag_308:\n        /* \"#utility.yul\":8916:8917   */\n      0x00\n        /* \"#utility.yul\":8941:8994   */\n      tag_310\n        /* \"#utility.yul\":8986:8993   */\n      dup7\n        /* \"#utility.yul\":8977:8983   */\n      dup3\n        /* \"#utility.yul\":8966:8975   */\n      dup8\n        /* \"#utility.yul\":8962:8984   */\n      add\n        /* \"#utility.yul\":8941:8994   */\n      tag_180\n      jump\t// in\n    tag_310:\n        /* \"#utility.yul\":8931:8994   */\n      swap4\n      pop\n        /* \"#utility.yul\":8887:9004   */\n      pop\n        /* \"#utility.yul\":9043:9045   */\n      0x20\n        /* \"#utility.yul\":9069:9122   */\n      tag_311\n        /* \"#utility.yul\":9114:9121   */\n      dup7\n        /* \"#utility.yul\":9105:9111   */\n      dup3\n        /* \"#utility.yul\":9094:9103   */\n      dup8\n        /* \"#utility.yul\":9090:9112   */\n      add\n        /* \"#utility.yul\":9069:9122   */\n      tag_183\n      jump\t// in\n    tag_311:\n        /* \"#utility.yul\":9059:9122   */\n      swap3\n      pop\n        /* \"#utility.yul\":9014:9132   */\n      pop\n        /* \"#utility.yul\":9199:9201   */\n      0x40\n        /* \"#utility.yul\":9188:9197   */\n      dup5\n        /* \"#utility.yul\":9184:9202   */\n      add\n        /* \"#utility.yul\":9171:9203   */\n      calldataload\n        /* \"#utility.yul\":9230:9248   */\n      0xffffffffffffffff\n        /* \"#utility.yul\":9222:9228   */\n      dup2\n        /* \"#utility.yul\":9219:9249   */\n      gt\n        /* \"#utility.yul\":9216:9333   */\n      iszero\n      tag_312\n      jumpi\n        /* \"#utility.yul\":9252:9331   */\n      tag_313\n      tag_176\n      jump\t// in\n    tag_313:\n        /* \"#utility.yul\":9216:9333   */\n    tag_312:\n        /* \"#utility.yul\":9357:9419   */\n      tag_314\n        /* \"#utility.yul\":9411:9418   */\n      dup7\n        /* \"#utility.yul\":9402:9408   */\n      dup3\n        /* \"#utility.yul\":9391:9400   */\n      dup8\n        /* \"#utility.yul\":9387:9409   */\n      add\n        /* \"#utility.yul\":9357:9419   */\n      tag_197\n      jump\t// in\n    tag_314:\n        /* \"#utility.yul\":9347:9419   */\n      swap2\n      pop\n        /* \"#utility.yul\":9142:9429   */\n      pop\n        /* \"#utility.yul\":8639:9436   */\n      swap3\n      pop\n      swap3\n      pop\n      swap3\n      jump\t// out\n        /* \"#utility.yul\":9442:9916   */\n    tag_100:\n        /* \"#utility.yul\":9510:9516   */\n      0x00\n        /* \"#utility.yul\":9518:9524   */\n      dup1\n        /* \"#utility.yul\":9567:9569   */\n      0x40\n        /* \"#utility.yul\":9555:9564   */\n      dup4\n        /* \"#utility.yul\":9546:9553   */\n      dup6\n        /* \"#utility.yul\":9542:9565   */\n      sub\n        /* \"#utility.yul\":9538:9570   */\n      slt\n        /* \"#utility.yul\":9535:9654   */\n      iszero\n      tag_316\n      jumpi\n        /* \"#utility.yul\":9573:9652   */\n      tag_317\n      tag_175\n      jump\t// in\n    tag_317:\n        /* \"#utility.yul\":9535:9654   */\n    tag_316:\n        /* \"#utility.yul\":9693:9694   */\n      0x00\n        /* \"#utility.yul\":9718:9771   */\n      tag_318\n        /* \"#utility.yul\":9763:9770   */\n      dup6\n        /* \"#utility.yul\":9754:9760   */\n      dup3\n        /* \"#utility.yul\":9743:9752   */\n      dup7\n        /* \"#utility.yul\":9739:9761   */\n      add\n        /* \"#utility.yul\":9718:9771   */\n      tag_180\n      jump\t// in\n    tag_318:\n        /* \"#utility.yul\":9708:9771   */\n      swap3\n      pop\n        /* \"#utility.yul\":9664:9781   */\n      pop\n        /* \"#utility.yul\":9820:9822   */\n      0x20\n        /* \"#utility.yul\":9846:9899   */\n      tag_319\n        /* \"#utility.yul\":9891:9898   */\n      dup6\n        /* \"#utility.yul\":9882:9888   */\n      dup3\n        /* \"#utility.yul\":9871:9880   */\n      dup7\n        /* \"#utility.yul\":9867:9889   */\n      add\n        /* \"#utility.yul\":9846:9899   */\n      tag_180\n      jump\t// in\n    tag_319:\n        /* \"#utility.yul\":9836:9899   */\n      swap2\n      pop\n        /* \"#utility.yul\":9791:9909   */\n      pop\n        /* \"#utility.yul\":9442:9916   */\n      swap3\n      pop\n      swap3\n      swap1\n      pop\n      jump\t// out\n        /* \"#utility.yul\":9922:10102   */\n    tag_198:\n        /* \"#utility.yul\":9970:10047   */\n      0x4e487b7100000000000000000000000000000000000000000000000000000000\n        /* \"#utility.yul\":9967:9968   */\n      0x00\n        /* \"#utility.yul\":9960:10048   */\n      mstore\n        /* \"#utility.yul\":10067:10071   */\n      0x22\n        /* \"#utility.yul\":10064:10065   */\n      0x04\n        /* \"#utility.yul\":10057:10072   */\n      mstore\n        /* \"#utility.yul\":10091:10095   */\n      0x24\n        /* \"#utility.yul\":10088:10089   */\n      0x00\n        /* \"#utility.yul\":10081:10096   */\n      revert\n        /* \"#utility.yul\":10108:10428   */\n    tag_109:\n        /* \"#utility.yul\":10152:10158   */\n      0x00\n        /* \"#utility.yul\":10189:10190   */\n      0x02\n        /* \"#utility.yul\":10183:10187   */\n      dup3\n        /* \"#utility.yul\":10179:10191   */\n      div\n        /* \"#utility.yul\":10169:10191   */\n      swap1\n      pop\n        /* \"#utility.yul\":10236:10237   */\n      0x01\n        /* \"#utility.yul\":10230:10234   */\n      dup3\n        /* \"#utility.yul\":10226:10238   */\n      and\n        /* \"#utility.yul\":10257:10275   */\n      dup1\n        /* \"#utility.yul\":10247:10328   */\n      tag_322\n      jumpi\n        /* \"#utility.yul\":10313:10317   */\n      0x7f\n        /* \"#utility.yul\":10305:10311   */\n      dup3\n        /* \"#utility.yul\":10301:10318   */\n      and\n        /* \"#utility.yul\":10291:10318   */\n      swap2\n      pop\n        /* \"#utility.yul\":10247:10328   */\n    tag_322:\n        /* \"#utility.yul\":10375:10377   */\n      0x20\n        /* \"#utility.yul\":10367:10373   */\n      dup3\n        /* \"#utility.yul\":10364:10378   */\n      lt\n        /* \"#utility.yul\":10344:10362   */\n      dup2\n        /* \"#utility.yul\":10341:10379   */\n      sub\n        /* \"#utility.yul\":10338:10422   */\n      tag_323\n      jumpi\n        /* \"#utility.yul\":10394:10412   */\n      tag_324\n      tag_198\n      jump\t// in\n    tag_324:\n        /* \"#utility.yul\":10338:10422   */\n    tag_323:\n        /* \"#utility.yul\":10159:10428   */\n      pop\n        /* \"#utility.yul\":10108:10428   */\n      swap2\n      swap1\n      pop\n      jump\t// out\n        /* \"#utility.yul\":10434:10614   */\n    tag_199:\n        /* \"#utility.yul\":10482:10559   */\n      0x4e487b7100000000000000000000000000000000000000000000000000000000\n        /* \"#utility.yul\":10479:10480   */\n      0x00\n        /* \"#utility.yul\":10472:10560   */\n      mstore\n        /* \"#utility.yul\":10579:10583   */\n      0x11\n        /* \"#utility.yul\":10576:10577   */\n      0x04\n        /* \"#utility.yul\":10569:10584   */\n      mstore\n        /* \"#utility.yul\":10603:10607   */\n      0x24\n        /* \"#utility.yul\":10600:10601   */\n      0x00\n        /* \"#utility.yul\":10593:10608   */\n      revert\n        /* \"#utility.yul\":10620:10814   */\n    tag_118:\n        /* \"#utility.yul\":10660:10664   */\n      0x00\n        /* \"#utility.yul\":10680:10700   */\n      tag_327\n        /* \"#utility.yul\":10698:10699   */\n      dup3\n        /* \"#utility.yul\":10680:10700   */\n      tag_181\n      jump\t// in\n    tag_327:\n        /* \"#utility.yul\":10675:10700   */\n      swap2\n      pop\n        /* \"#utility.yul\":10714:10734   */\n      tag_328\n        /* \"#utility.yul\":10732:10733   */\n      dup4\n        /* \"#utility.yul\":10714:10734   */\n      tag_181\n      jump\t// in\n    tag_328:\n        /* \"#utility.yul\":10709:10734   */\n      swap3\n      pop\n        /* \"#utility.yul\":10758:10759   */\n      dup3\n        /* \"#utility.yul\":10755:10756   */\n      dup3\n        /* \"#utility.yul\":10751:10760   */\n      sub\n        /* \"#utility.yul\":10743:10760   */\n      swap1\n      pop\n        /* \"#utility.yul\":10782:10783   */\n      dup2\n        /* \"#utility.yul\":10776:10780   */\n      dup2\n        /* \"#utility.yul\":10773:10784   */\n      gt\n        /* \"#utility.yul\":10770:10807   */\n      iszero\n      tag_329\n      jumpi\n        /* \"#utility.yul\":10787:10805   */\n      tag_330\n      tag_199\n      jump\t// in\n    tag_330:\n        /* \"#utility.yul\":10770:10807   */\n    tag_329:\n        /* \"#utility.yul\":10620:10814   */\n      swap3\n      swap2\n      pop\n      pop\n      jump\t// out\n        /* \"#utility.yul\":10820:11000   */\n    tag_200:\n        /* \"#utility.yul\":10960:10992   */\n      0x536166654d6174683a207375627472616374696f6e206f766572666c6f770000\n        /* \"#utility.yul\":10956:10957   */\n      0x00\n        /* \"#utility.yul\":10948:10954   */\n      dup3\n        /* \"#utility.yul\":10944:10958   */\n      add\n        /* \"#utility.yul\":10937:10993   */\n      mstore\n        /* \"#utility.yul\":10820:11000   */\n      pop\n      jump\t// out\n        /* \"#utility.yul\":11006:11372   */\n    tag_201:\n        /* \"#utility.yul\":11148:11151   */\n      0x00\n        /* \"#utility.yul\":11169:11236   */\n      tag_333\n        /* \"#utility.yul\":11233:11235   */\n      0x1e\n        /* \"#utility.yul\":11228:11231   */\n      dup4\n        /* \"#utility.yul\":11169:11236   */\n      tag_167\n      jump\t// in\n    tag_333:\n        /* \"#utility.yul\":11162:11236   */\n      swap2\n      pop\n        /* \"#utility.yul\":11245:11338   */\n      tag_334\n        /* \"#utility.yul\":11334:11337   */\n      dup3\n        /* \"#utility.yul\":11245:11338   */\n      tag_200\n      jump\t// in\n    tag_334:\n        /* \"#utility.yul\":11363:11365   */\n      0x20\n        /* \"#utility.yul\":11358:11361   */\n      dup3\n        /* \"#utility.yul\":11354:11366   */\n      add\n        /* \"#utility.yul\":11347:11366   */\n      swap1\n      pop\n        /* \"#utility.yul\":11006:11372   */\n      swap2\n      swap1\n      pop\n      jump\t// out\n        /* \"#utility.yul\":11378:11797   */\n    tag_133:\n        /* \"#utility.yul\":11544:11548   */\n      0x00\n        /* \"#utility.yul\":11582:11584   */\n      0x20\n        /* \"#utility.yul\":11571:11580   */\n      dup3\n        /* \"#utility.yul\":11567:11585   */\n      add\n        /* \"#utility.yul\":11559:11585   */\n      swap1\n      pop\n        /* \"#utility.yul\":11631:11640   */\n      dup2\n        /* \"#utility.yul\":11625:11629   */\n      dup2\n        /* \"#utility.yul\":11621:11641   */\n      sub\n        /* \"#utility.yul\":11617:11618   */\n      0x00\n        /* \"#utility.yul\":11606:11615   */\n      dup4\n        /* \"#utility.yul\":11602:11619   */\n      add\n        /* \"#utility.yul\":11595:11642   */\n      mstore\n        /* \"#utility.yul\":11659:11790   */\n      tag_336\n        /* \"#utility.yul\":11785:11789   */\n      dup2\n        /* \"#utility.yul\":11659:11790   */\n      tag_201\n      jump\t// in\n    tag_336:\n        /* \"#utility.yul\":11651:11790   */\n      swap1\n      pop\n        /* \"#utility.yul\":11378:11797   */\n      swap2\n      swap1\n      pop\n      jump\t// out\n        /* \"#utility.yul\":11803:11979   */\n    tag_202:\n        /* \"#utility.yul\":11943:11971   */\n      0x536166654d6174683a206469766973696f6e206279207a65726f000000000000\n        /* \"#utility.yul\":11939:11940   */\n      0x00\n        /* \"#utility.yul\":11931:11937   */\n      dup3\n        /* \"#utility.yul\":11927:11941   */\n      add\n        /* \"#utility.yul\":11920:11972   */\n      mstore\n        /* \"#utility.yul\":11803:11979   */\n      pop\n      jump\t// out\n        /* \"#utility.yul\":11985:12351   */\n    tag_203:\n        /* \"#utility.yul\":12127:12130   */\n      0x00\n        /* \"#utility.yul\":12148:12215   */\n      tag_339\n        /* \"#utility.yul\":12212:12214   */\n      0x1a\n        /* \"#utility.yul\":12207:12210   */\n      dup4\n        /* \"#utility.yul\":12148:12215   */\n      tag_167\n      jump\t// in\n    tag_339:\n        /* \"#utility.yul\":12141:12215   */\n      swap2\n      pop\n        /* \"#utility.yul\":12224:12317   */\n      tag_340\n        /* \"#utility.yul\":12313:12316   */\n      dup3\n        /* \"#utility.yul\":12224:12317   */\n      tag_202\n      jump\t// in\n    tag_340:\n        /* \"#utility.yul\":12342:12344   */\n      0x20\n        /* \"#utility.yul\":12337:12340   */\n      dup3\n        /* \"#utility.yul\":12333:12345   */\n      add\n        /* \"#utility.yul\":12326:12345   */\n      swap1\n      pop\n        /* \"#utility.yul\":11985:12351   */\n      swap2\n      swap1\n      pop\n      jump\t// out\n        /* \"#utility.yul\":12357:12776   */\n    tag_142:\n        /* \"#utility.yul\":12523:12527   */\n      0x00\n        /* \"#utility.yul\":12561:12563   */\n      0x20\n        /* \"#utility.yul\":12550:12559   */\n      dup3\n        /* \"#utility.yul\":12546:12564   */\n      add\n        /* \"#utility.yul\":12538:12564   */\n      swap1\n      pop\n        /* \"#utility.yul\":12610:12619   */\n      dup2\n        /* \"#utility.yul\":12604:12608   */\n      dup2\n        /* \"#utility.yul\":12600:12620   */\n      sub\n        /* \"#utility.yul\":12596:12597   */\n      0x00\n        /* \"#utility.yul\":12585:12594   */\n      dup4\n        /* \"#utility.yul\":12581:12598   */\n      add\n        /* \"#utility.yul\":12574:12621   */\n      mstore\n        /* \"#utility.yul\":12638:12769   */\n      tag_342\n        /* \"#utility.yul\":12764:12768   */\n      dup2\n        /* \"#utility.yul\":12638:12769   */\n      tag_203\n      jump\t// in\n    tag_342:\n        /* \"#utility.yul\":12630:12769   */\n      swap1\n      pop\n        /* \"#utility.yul\":12357:12776   */\n      swap2\n      swap1\n      pop\n      jump\t// out\n        /* \"#utility.yul\":12782:12962   */\n    tag_204:\n        /* \"#utility.yul\":12830:12907   */\n      0x4e487b7100000000000000000000000000000000000000000000000000000000\n        /* \"#utility.yul\":12827:12828   */\n      0x00\n        /* \"#utility.yul\":12820:12908   */\n      mstore\n        /* \"#utility.yul\":12927:12931   */\n      0x12\n        /* \"#utility.yul\":12924:12925   */\n      0x04\n        /* \"#utility.yul\":12917:12932   */\n      mstore\n        /* \"#utility.yul\":12951:12955   */\n      0x24\n        /* \"#utility.yul\":12948:12949   */\n      0x00\n        /* \"#utility.yul\":12941:12956   */\n      revert\n        /* \"#utility.yul\":12968:13153   */\n    tag_144:\n        /* \"#utility.yul\":13008:13009   */\n      0x00\n        /* \"#utility.yul\":13025:13045   */\n      tag_345\n        /* \"#utility.yul\":13043:13044   */\n      dup3\n        /* \"#utility.yul\":13025:13045   */\n      tag_181\n      jump\t// in\n    tag_345:\n        /* \"#utility.yul\":13020:13045   */\n      swap2\n      pop\n        /* \"#utility.yul\":13059:13079   */\n      tag_346\n        /* \"#utility.yul\":13077:13078   */\n      dup4\n        /* \"#utility.yul\":13059:13079   */\n      tag_181\n      jump\t// in\n    tag_346:\n        /* \"#utility.yul\":13054:13079   */\n      swap3\n      pop\n        /* \"#utility.yul\":13098:13099   */\n      dup3\n        /* \"#utility.yul\":13088:13123   */\n      tag_347\n      jumpi\n        /* \"#utility.yul\":13103:13121   */\n      tag_348\n      tag_204\n      jump\t// in\n    tag_348:\n        /* \"#utility.yul\":13088:13123   */\n    tag_347:\n        /* \"#utility.yul\":13145:13146   */\n      dup3\n        /* \"#utility.yul\":13142:13143   */\n      dup3\n        /* \"#utility.yul\":13138:13147   */\n      div\n        /* \"#utility.yul\":13133:13147   */\n      swap1\n      pop\n        /* \"#utility.yul\":12968:13153   */\n      swap3\n      swap2\n      pop\n      pop\n      jump\t// out\n        /* \"#utility.yul\":13159:13277   */\n    tag_205:\n        /* \"#utility.yul\":13246:13270   */\n      tag_350\n        /* \"#utility.yul\":13264:13269   */\n      dup2\n        /* \"#utility.yul\":13246:13270   */\n      tag_178\n      jump\t// in\n    tag_350:\n        /* \"#utility.yul\":13241:13244   */\n      dup3\n        /* \"#utility.yul\":13234:13271   */\n      mstore\n        /* \"#utility.yul\":13159:13277   */\n      pop\n      pop\n      jump\t// out\n        /* \"#utility.yul\":13283:13381   */\n    tag_206:\n        /* \"#utility.yul\":13334:13340   */\n      0x00\n        /* \"#utility.yul\":13368:13373   */\n      dup2\n        /* \"#utility.yul\":13362:13374   */\n      mload\n        /* \"#utility.yul\":13352:13374   */\n      swap1\n      pop\n        /* \"#utility.yul\":13283:13381   */\n      swap2\n      swap1\n      pop\n      jump\t// out\n        /* \"#utility.yul\":13387:13555   */\n    tag_207:\n        /* \"#utility.yul\":13470:13481   */\n      0x00\n        /* \"#utility.yul\":13504:13510   */\n      dup3\n        /* \"#utility.yul\":13499:13502   */\n      dup3\n        /* \"#utility.yul\":13492:13511   */\n      mstore\n        /* \"#utility.yul\":13544:13548   */\n      0x20\n        /* \"#utility.yul\":13539:13542   */\n      dup3\n        /* \"#utility.yul\":13535:13549   */\n      add\n        /* \"#utility.yul\":13520:13549   */\n      swap1\n      pop\n        /* \"#utility.yul\":13387:13555   */\n      swap3\n      swap2\n      pop\n      pop\n      jump\t// out\n        /* \"#utility.yul\":13561:13934   */\n    tag_208:\n        /* \"#utility.yul\":13647:13650   */\n      0x00\n        /* \"#utility.yul\":13675:13713   */\n      tag_354\n        /* \"#utility.yul\":13707:13712   */\n      dup3\n        /* \"#utility.yul\":13675:13713   */\n      tag_206\n      jump\t// in\n    tag_354:\n        /* \"#utility.yul\":13729:13799   */\n      tag_355\n        /* \"#utility.yul\":13792:13798   */\n      dup2\n        /* \"#utility.yul\":13787:13790   */\n      dup6\n        /* \"#utility.yul\":13729:13799   */\n      tag_207\n      jump\t// in\n    tag_355:\n        /* \"#utility.yul\":13722:13799   */\n      swap4\n      pop\n        /* \"#utility.yul\":13808:13873   */\n      tag_356\n        /* \"#utility.yul\":13866:13872   */\n      dup2\n        /* \"#utility.yul\":13861:13864   */\n      dup6\n        /* \"#utility.yul\":13854:13858   */\n      0x20\n        /* \"#utility.yul\":13847:13852   */\n      dup7\n        /* \"#utility.yul\":13843:13859   */\n      add\n        /* \"#utility.yul\":13808:13873   */\n      tag_171\n      jump\t// in\n    tag_356:\n        /* \"#utility.yul\":13898:13927   */\n      tag_357\n        /* \"#utility.yul\":13920:13926   */\n      dup2\n        /* \"#utility.yul\":13898:13927   */\n      tag_172\n      jump\t// in\n    tag_357:\n        /* \"#utility.yul\":13893:13896   */\n      dup5\n        /* \"#utility.yul\":13889:13928   */\n      add\n        /* \"#utility.yul\":13882:13928   */\n      swap2\n      pop\n        /* \"#utility.yul\":13651:13934   */\n      pop\n        /* \"#utility.yul\":13561:13934   */\n      swap3\n      swap2\n      pop\n      pop\n      jump\t// out\n        /* \"#utility.yul\":13940:14580   */\n    tag_148:\n        /* \"#utility.yul\":14135:14139   */\n      0x00\n        /* \"#utility.yul\":14173:14176   */\n      0x80\n        /* \"#utility.yul\":14162:14171   */\n      dup3\n        /* \"#utility.yul\":14158:14177   */\n      add\n        /* \"#utility.yul\":14150:14177   */\n      swap1\n      pop\n        /* \"#utility.yul\":14187:14258   */\n      tag_359\n        /* \"#utility.yul\":14255:14256   */\n      0x00\n        /* \"#utility.yul\":14244:14253   */\n      dup4\n        /* \"#utility.yul\":14240:14257   */\n      add\n        /* \"#utility.yul\":14231:14237   */\n      dup8\n        /* \"#utility.yul\":14187:14258   */\n      tag_205\n      jump\t// in\n    tag_359:\n        /* \"#utility.yul\":14268:14340   */\n      tag_360\n        /* \"#utility.yul\":14336:14338   */\n      0x20\n        /* \"#utility.yul\":14325:14334   */\n      dup4\n        /* \"#utility.yul\":14321:14339   */\n      add\n        /* \"#utility.yul\":14312:14318   */\n      dup7\n        /* \"#utility.yul\":14268:14340   */\n      tag_186\n      jump\t// in\n    tag_360:\n        /* \"#utility.yul\":14350:14422   */\n      tag_361\n        /* \"#utility.yul\":14418:14420   */\n      0x40\n        /* \"#utility.yul\":14407:14416   */\n      dup4\n        /* \"#utility.yul\":14403:14421   */\n      add\n        /* \"#utility.yul\":14394:14400   */\n      dup6\n        /* \"#utility.yul\":14350:14422   */\n      tag_205\n      jump\t// in\n    tag_361:\n        /* \"#utility.yul\":14469:14478   */\n      dup2\n        /* \"#utility.yul\":14463:14467   */\n      dup2\n        /* \"#utility.yul\":14459:14479   */\n      sub\n        /* \"#utility.yul\":14454:14456   */\n      0x60\n        /* \"#utility.yul\":14443:14452   */\n      dup4\n        /* \"#utility.yul\":14439:14457   */\n      add\n        /* \"#utility.yul\":14432:14480   */\n      mstore\n        /* \"#utility.yul\":14497:14573   */\n      tag_362\n        /* \"#utility.yul\":14568:14572   */\n      dup2\n        /* \"#utility.yul\":14559:14565   */\n      dup5\n        /* \"#utility.yul\":14497:14573   */\n      tag_208\n      jump\t// in\n    tag_362:\n        /* \"#utility.yul\":14489:14573   */\n      swap1\n      pop\n        /* \"#utility.yul\":13940:14580   */\n      swap6\n      swap5\n      pop\n      pop\n      pop\n      pop\n      pop\n      jump\t// out\n        /* \"#utility.yul\":14586:14996   */\n    tag_154:\n        /* \"#utility.yul\":14626:14633   */\n      0x00\n        /* \"#utility.yul\":14649:14669   */\n      tag_364\n        /* \"#utility.yul\":14667:14668   */\n      dup3\n        /* \"#utility.yul\":14649:14669   */\n      tag_181\n      jump\t// in\n    tag_364:\n        /* \"#utility.yul\":14644:14669   */\n      swap2\n      pop\n        /* \"#utility.yul\":14683:14703   */\n      tag_365\n        /* \"#utility.yul\":14701:14702   */\n      dup4\n        /* \"#utility.yul\":14683:14703   */\n      tag_181\n      jump\t// in\n    tag_365:\n        /* \"#utility.yul\":14678:14703   */\n      swap3\n      pop\n        /* \"#utility.yul\":14738:14739   */\n      dup3\n        /* \"#utility.yul\":14735:14736   */\n      dup3\n        /* \"#utility.yul\":14731:14740   */\n      mul\n        /* \"#utility.yul\":14760:14790   */\n      tag_366\n        /* \"#utility.yul\":14778:14789   */\n      dup2\n        /* \"#utility.yul\":14760:14790   */\n      tag_181\n      jump\t// in\n    tag_366:\n        /* \"#utility.yul\":14749:14790   */\n      swap2\n      pop\n        /* \"#utility.yul\":14939:14940   */\n      dup3\n        /* \"#utility.yul\":14930:14937   */\n      dup3\n        /* \"#utility.yul\":14926:14941   */\n      div\n        /* \"#utility.yul\":14923:14924   */\n      dup5\n        /* \"#utility.yul\":14920:14942   */\n      eq\n        /* \"#utility.yul\":14900:14901   */\n      dup4\n        /* \"#utility.yul\":14893:14902   */\n      iszero\n        /* \"#utility.yul\":14873:14956   */\n      or\n        /* \"#utility.yul\":14850:14989   */\n      tag_367\n      jumpi\n        /* \"#utility.yul\":14969:14987   */\n      tag_368\n      tag_199\n      jump\t// in\n    tag_368:\n        /* \"#utility.yul\":14850:14989   */\n    tag_367:\n        /* \"#utility.yul\":14634:14996   */\n      pop\n        /* \"#utility.yul\":14586:14996   */\n      swap3\n      swap2\n      pop\n      pop\n      jump\t// out\n        /* \"#utility.yul\":15002:15222   */\n    tag_209:\n        /* \"#utility.yul\":15142:15176   */\n      0x536166654d6174683a206d756c7469706c69636174696f6e206f766572666c6f\n        /* \"#utility.yul\":15138:15139   */\n      0x00\n        /* \"#utility.yul\":15130:15136   */\n      dup3\n        /* \"#utility.yul\":15126:15140   */\n      add\n        /* \"#utility.yul\":15119:15177   */\n      mstore\n        /* \"#utility.yul\":15211:15214   */\n      0x7700000000000000000000000000000000000000000000000000000000000000\n        /* \"#utility.yul\":15206:15208   */\n      0x20\n        /* \"#utility.yul\":15198:15204   */\n      dup3\n        /* \"#utility.yul\":15194:15209   */\n      add\n        /* \"#utility.yul\":15187:15215   */\n      mstore\n        /* \"#utility.yul\":15002:15222   */\n      pop\n      jump\t// out\n        /* \"#utility.yul\":15228:15594   */\n    tag_210:\n        /* \"#utility.yul\":15370:15373   */\n      0x00\n        /* \"#utility.yul\":15391:15458   */\n      tag_371\n        /* \"#utility.yul\":15455:15457   */\n      0x21\n        /* \"#utility.yul\":15450:15453   */\n      dup4\n        /* \"#utility.yul\":15391:15458   */\n      tag_167\n      jump\t// in\n    tag_371:\n        /* \"#utility.yul\":15384:15458   */\n      swap2\n      pop\n        /* \"#utility.yul\":15467:15560   */\n      tag_372\n        /* \"#utility.yul\":15556:15559   */\n      dup3\n        /* \"#utility.yul\":15467:15560   */\n      tag_209\n      jump\t// in\n    tag_372:\n        /* \"#utility.yul\":15585:15587   */\n      0x40\n        /* \"#utility.yul\":15580:15583   */\n      dup3\n        /* \"#utility.yul\":15576:15588   */\n      add\n        /* \"#utility.yul\":15569:15588   */\n      swap1\n      pop\n        /* \"#utility.yul\":15228:15594   */\n      swap2\n      swap1\n      pop\n      jump\t// out\n        /* \"#utility.yul\":15600:16019   */\n    tag_159:\n        /* \"#utility.yul\":15766:15770   */\n      0x00\n        /* \"#utility.yul\":15804:15806   */\n      0x20\n        /* \"#utility.yul\":15793:15802   */\n      dup3\n        /* \"#utility.yul\":15789:15807   */\n      add\n        /* \"#utility.yul\":15781:15807   */\n      swap1\n      pop\n        /* \"#utility.yul\":15853:15862   */\n      dup2\n        /* \"#utility.yul\":15847:15851   */\n      dup2\n        /* \"#utility.yul\":15843:15863   */\n      sub\n        /* \"#utility.yul\":15839:15840   */\n      0x00\n        /* \"#utility.yul\":15828:15837   */\n      dup4\n        /* \"#utility.yul\":15824:15841   */\n      add\n        /* \"#utility.yul\":15817:15864   */\n      mstore\n        /* \"#utility.yul\":15881:16012   */\n      tag_374\n        /* \"#utility.yul\":16007:16011   */\n      dup2\n        /* \"#utility.yul\":15881:16012   */\n      tag_210\n      jump\t// in\n    tag_374:\n        /* \"#utility.yul\":15873:16012   */\n      swap1\n      pop\n        /* \"#utility.yul\":15600:16019   */\n      swap2\n      swap1\n      pop\n      jump\t// out\n        /* \"#utility.yul\":16025:16216   */\n    tag_163:\n        /* \"#utility.yul\":16065:16068   */\n      0x00\n        /* \"#utility.yul\":16084:16104   */\n      tag_376\n        /* \"#utility.yul\":16102:16103   */\n      dup3\n        /* \"#utility.yul\":16084:16104   */\n      tag_181\n      jump\t// in\n    tag_376:\n        /* \"#utility.yul\":16079:16104   */\n      swap2\n      pop\n        /* \"#utility.yul\":16118:16138   */\n      tag_377\n        /* \"#utility.yul\":16136:16137   */\n      dup4\n        /* \"#utility.yul\":16118:16138   */\n      tag_181\n      jump\t// in\n    tag_377:\n        /* \"#utility.yul\":16113:16138   */\n      swap3\n      pop\n        /* \"#utility.yul\":16161:16162   */\n      dup3\n        /* \"#utility.yul\":16158:16159   */\n      dup3\n        /* \"#utility.yul\":16154:16163   */\n      add\n        /* \"#utility.yul\":16147:16163   */\n      swap1\n      pop\n        /* \"#utility.yul\":16182:16185   */\n      dup1\n        /* \"#utility.yul\":16179:16180   */\n      dup3\n        /* \"#utility.yul\":16176:16186   */\n      gt\n        /* \"#utility.yul\":16173:16209   */\n      iszero\n      tag_378\n      jumpi\n        /* \"#utility.yul\":16189:16207   */\n      tag_379\n      tag_199\n      jump\t// in\n    tag_379:\n        /* \"#utility.yul\":16173:16209   */\n    tag_378:\n        /* \"#utility.yul\":16025:16216   */\n      swap3\n      swap2\n      pop\n      pop\n      jump\t// out\n        /* \"#utility.yul\":16222:16399   */\n    tag_211:\n        /* \"#utility.yul\":16362:16391   */\n      0x536166654d6174683a206164646974696f6e206f766572666c6f770000000000\n        /* \"#utility.yul\":16358:16359   */\n      0x00\n        /* \"#utility.yul\":16350:16356   */\n      dup3\n        /* \"#utility.yul\":16346:16360   */\n      add\n        /* \"#utility.yul\":16339:16392   */\n      mstore\n        /* \"#utility.yul\":16222:16399   */\n      pop\n      jump\t// out\n        /* \"#utility.yul\":16405:16771   */\n    tag_212:\n        /* \"#utility.yul\":16547:16550   */\n      0x00\n        /* \"#utility.yul\":16568:16635   */\n      tag_382\n        /* \"#utility.yul\":16632:16634   */\n      0x1b\n        /* \"#utility.yul\":16627:16630   */\n      dup4\n        /* \"#utility.yul\":16568:16635   */\n      tag_167\n      jump\t// in\n    tag_382:\n        /* \"#utility.yul\":16561:16635   */\n      swap2\n      pop\n        /* \"#utility.yul\":16644:16737   */\n      tag_383\n        /* \"#utility.yul\":16733:16736   */\n      dup3\n        /* \"#utility.yul\":16644:16737   */\n      tag_211\n      jump\t// in\n    tag_383:\n        /* \"#utility.yul\":16762:16764   */\n      0x20\n        /* \"#utility.yul\":16757:16760   */\n      dup3\n        /* \"#utility.yul\":16753:16765   */\n      add\n        /* \"#utility.yul\":16746:16765   */\n      swap1\n      pop\n        /* \"#utility.yul\":16405:16771   */\n      swap2\n      swap1\n      pop\n      jump\t// out\n        /* \"#utility.yul\":16777:17196   */\n    tag_166:\n        /* \"#utility.yul\":16943:16947   */\n      0x00\n        /* \"#utility.yul\":16981:16983   */\n      0x20\n        /* \"#utility.yul\":16970:16979   */\n      dup3\n        /* \"#utility.yul\":16966:16984   */\n      add\n        /* \"#utility.yul\":16958:16984   */\n      swap1\n      pop\n        /* \"#utility.yul\":17030:17039   */\n      dup2\n        /* \"#utility.yul\":17024:17028   */\n      dup2\n        /* \"#utility.yul\":17020:17040   */\n      sub\n        /* \"#utility.yul\":17016:17017   */\n      0x00\n        /* \"#utility.yul\":17005:17014   */\n      dup4\n        /* \"#utility.yul\":17001:17018   */\n      add\n        /* \"#utility.yul\":16994:17041   */\n      mstore\n        /* \"#utility.yul\":17058:17189   */\n      tag_385\n        /* \"#utility.yul\":17184:17188   */\n      dup2\n        /* \"#utility.yul\":17058:17189   */\n      tag_212\n      jump\t// in\n    tag_385:\n        /* \"#utility.yul\":17050:17189   */\n      swap1\n      pop\n        /* \"#utility.yul\":16777:17196   */\n      swap2\n      swap1\n      pop\n      jump\t// out\n\n    auxdata: 0xa2646970667358221220ee53a69f923b79f93b58b2cf2cca3ecc90b9f65f27feed1727fb6ecf730e503c64736f6c634300081a0033\n}\n",
				"bytecode": {
					"linkReferences": {},
					"object": "608060405234801561000f575f80fd5b506040518060400160405280600381526020017f44494f00000000000000000000000000000000000000000000000000000000008152505f908161005391906103cf565b506040518060400160405280600881526020017f44494f20436f696e0000000000000000000000000000000000000000000000008152506001908161009891906103cf565b506002805f6101000a81548160ff021916908360ff160217905550620186a060038190555060035460045f73b27b0857dceba810aaba578e8e20b3810c534b3473ffffffffffffffffffffffffffffffffffffffff1673ffffffffffffffffffffffffffffffffffffffff1681526020019081526020015f208190555073b27b0857dceba810aaba578e8e20b3810c534b3473ffffffffffffffffffffffffffffffffffffffff165f73ffffffffffffffffffffffffffffffffffffffff167fddf252ad1be2c89b69c2b068fc378daa952ba7f163c4a11628f55a4df523b3ef60035460405161018891906104ad565b60405180910390a36104c6565b5f81519050919050565b7f4e487b71000000000000000000000000000000000000000000000000000000005f52604160045260245ffd5b7f4e487b71000000000000000000000000000000000000000000000000000000005f52602260045260245ffd5b5f600282049050600182168061021057607f821691505b602082108103610223576102226101cc565b5b50919050565b5f819050815f5260205f209050919050565b5f6020601f8301049050919050565b5f82821b905092915050565b5f600883026102857fffffffffffffffffffffffffffffffffffffffffffffffffffffffffffffffff8261024a565b61028f868361024a565b95508019841693508086168417925050509392505050565b5f819050919050565b5f819050919050565b5f6102d36102ce6102c9846102a7565b6102b0565b6102a7565b9050919050565b5f819050919050565b6102ec836102b9565b6103006102f8826102da565b848454610256565b825550505050565b5f90565b610314610308565b61031f8184846102e3565b505050565b5b81811015610342576103375f8261030c565b600181019050610325565b5050565b601f8211156103875761035881610229565b6103618461023b565b81016020851015610370578190505b61038461037c8561023b565b830182610324565b50505b505050565b5f82821c905092915050565b5f6103a75f198460080261038c565b1980831691505092915050565b5f6103bf8383610398565b9150826002028217905092915050565b6103d882610195565b67ffffffffffffffff8111156103f1576103f061019f565b5b6103fb82546101f9565b610406828285610346565b5f60209050601f831160018114610437575f8415610425578287015190505b61042f85826103b4565b865550610496565b601f19841661044586610229565b5f5b8281101561046c57848901518255600182019150602085019450602081019050610447565b868310156104895784890151610485601f891682610398565b8355505b6001600288020188555050505b505050505050565b6104a7816102a7565b82525050565b5f6020820190506104c05f83018461049e565b92915050565b6117b8806104d35f395ff3fe6080604052600436106100eb575f3560e01c806395d89b4111610089578063cae9ca5111610058578063cae9ca51146103a0578063d05c78da146103dc578063dd62ed3e14610418578063e6cb9013146104545761012b565b806395d89b41146102c2578063a293d1e8146102ec578063a9059cbb14610328578063b5931f7c146103645761012b565b806323b872dd116100c557806323b872dd146101f6578063313ce567146102325780633eaaf86b1461025c57806370a08231146102865761012b565b806306fdde0314610166578063095ea7b31461019057806318160ddd146101cc5761012b565b3661012b576040517f08c379a000000000000000000000000000000000000000000000000000000000815260040161012290610eeb565b60405180910390fd5b6040517f08c379a000000000000000000000000000000000000000000000000000000000815260040161015d90610eeb565b60405180910390fd5b348015610171575f80fd5b5061017a610490565b6040516101879190610f69565b60405180910390f35b34801561019b575f80fd5b506101b660048036038101906101b19190611027565b61051c565b6040516101c3919061107f565b60405180910390f35b3480156101d7575f80fd5b506101e0610609565b6040516101ed91906110a7565b60405180910390f35b348015610201575f80fd5b5061021c600480360381019061021791906110c0565b61065a565b604051610229919061107f565b60405180910390f35b34801561023d575f80fd5b506102466108d9565b604051610253919061112b565b60405180910390f35b348015610267575f80fd5b506102706108eb565b60405161027d91906110a7565b60405180910390f35b348015610291575f80fd5b506102ac60048036038101906102a79190611144565b6108f1565b6040516102b991906110a7565b60405180910390f35b3480156102cd575f80fd5b506102d6610937565b6040516102e39190610f69565b60405180910390f35b3480156102f7575f80fd5b50610312600480360381019061030d919061116f565b6109c2565b60405161031f91906110a7565b60405180910390f35b348015610333575f80fd5b5061034e60048036038101906103499190611027565b610a1a565b60405161035b919061107f565b60405180910390f35b34801561036f575f80fd5b5061038a6004803603810190610385919061116f565b610b9a565b60405161039791906110a7565b60405180910390f35b3480156103ab575f80fd5b506103c660048036038101906103c191906112d9565b610bf1565b6040516103d3919061107f565b60405180910390f35b3480156103e7575f80fd5b5061040260048036038101906103fd919061116f565b610d4b565b60405161040f91906110a7565b60405180910390f35b348015610423575f80fd5b5061043e60048036038101906104399190611345565b610db7565b60405161044b91906110a7565b60405180910390f35b34801561045f575f80fd5b5061047a6004803603810190610475919061116f565b610e39565b60405161048791906110a7565b60405180910390f35b6001805461049d906113b0565b80601f01602080910402602001604051908101604052809291908181526020018280546104c9906113b0565b80156105145780601f106104eb57610100808354040283529160200191610514565b820191905f5260205f20905b8154815290600101906020018083116104f757829003601f168201915b505050505081565b5f8160055f3373ffffffffffffffffffffffffffffffffffffffff1673ffffffffffffffffffffffffffffffffffffffff1681526020019081526020015f205f8573ffffffffffffffffffffffffffffffffffffffff1673ffffffffffffffffffffffffffffffffffffffff1681526020019081526020015f20819055508273ffffffffffffffffffffffffffffffffffffffff163373ffffffffffffffffffffffffffffffffffffffff167f8c5be1e5ebec7d5bd14f71427d1e84f3dd0314c0f7b2291e5b200ac8c7c3b925846040516105f791906110a7565b60405180910390a36001905092915050565b5f60045f8073ffffffffffffffffffffffffffffffffffffffff1673ffffffffffffffffffffffffffffffffffffffff1681526020019081526020015f2054600354610655919061140d565b905090565b5f6106a260045f8673ffffffffffffffffffffffffffffffffffffffff1673ffffffffffffffffffffffffffffffffffffffff1681526020019081526020015f2054836109c2565b60045f8673ffffffffffffffffffffffffffffffffffffffff1673ffffffffffffffffffffffffffffffffffffffff1681526020019081526020015f208190555061076560055f8673ffffffffffffffffffffffffffffffffffffffff1673ffffffffffffffffffffffffffffffffffffffff1681526020019081526020015f205f3373ffffffffffffffffffffffffffffffffffffffff1673ffffffffffffffffffffffffffffffffffffffff1681526020019081526020015f2054836109c2565b60055f8673ffffffffffffffffffffffffffffffffffffffff1673ffffffffffffffffffffffffffffffffffffffff1681526020019081526020015f205f3373ffffffffffffffffffffffffffffffffffffffff1673ffffffffffffffffffffffffffffffffffffffff1681526020019081526020015f208190555061082860045f8573ffffffffffffffffffffffffffffffffffffffff1673ffffffffffffffffffffffffffffffffffffffff1681526020019081526020015f205483610e39565b60045f8573ffffffffffffffffffffffffffffffffffffffff1673ffffffffffffffffffffffffffffffffffffffff1681526020019081526020015f20819055508273ffffffffffffffffffffffffffffffffffffffff168473ffffffffffffffffffffffffffffffffffffffff167fddf252ad1be2c89b69c2b068fc378daa952ba7f163c4a11628f55a4df523b3ef846040516108c691906110a7565b60405180910390a3600190509392505050565b60025f9054906101000a900460ff1681565b60035481565b5f60045f8373ffffffffffffffffffffffffffffffffffffffff1673ffffffffffffffffffffffffffffffffffffffff1681526020019081526020015f20549050919050565b5f8054610943906113b0565b80601f016020809104026020016040519081016040528092919081815260200182805461096f906113b0565b80156109ba5780601f10610991576101008083540402835291602001916109ba565b820191905f5260205f20905b81548152906001019060200180831161099d57829003601f168201915b505050505081565b5f82821115610a06576040517f08c379a00000000000000000000000000000000000000000000000000000000081526004016109fd9061148a565b60405180910390fd5b8183610a12919061140d565b905092915050565b5f610a6260045f3373ffffffffffffffffffffffffffffffffffffffff1673ffffffffffffffffffffffffffffffffffffffff1681526020019081526020015f2054836109c2565b60045f3373ffffffffffffffffffffffffffffffffffffffff1673ffffffffffffffffffffffffffffffffffffffff1681526020019081526020015f2081905550610aea60045f8573ffffffffffffffffffffffffffffffffffffffff1673ffffffffffffffffffffffffffffffffffffffff1681526020019081526020015f205483610e39565b60045f8573ffffffffffffffffffffffffffffffffffffffff1673ffffffffffffffffffffffffffffffffffffffff1681526020019081526020015f20819055508273ffffffffffffffffffffffffffffffffffffffff163373ffffffffffffffffffffffffffffffffffffffff167fddf252ad1be2c89b69c2b068fc378daa952ba7f163c4a11628f55a4df523b3ef84604051610b8891906110a7565b60405180910390a36001905092915050565b5f808211610bdd576040517f08c379a0000000000000000000000000000000000000000000000000000000008152600401610bd4906114f2565b60405180910390fd5b8183610be9919061153d565b905092915050565b5f8260055f3373ffffffffffffffffffffffffffffffffffffffff1673ffffffffffffffffffffffffffffffffffffffff1681526020019081526020015f205f8673ffffffffffffffffffffffffffffffffffffffff1673ffffffffffffffffffffffffffffffffffffffff1681526020019081526020015f20819055508373ffffffffffffffffffffffffffffffffffffffff163373ffffffffffffffffffffffffffffffffffffffff167f8c5be1e5ebec7d5bd14f71427d1e84f3dd0314c0f7b2291e5b200ac8c7c3b92585604051610ccc91906110a7565b60405180910390a38373ffffffffffffffffffffffffffffffffffffffff16638f4ffcb1338530866040518563ffffffff1660e01b8152600401610d1394939291906115ce565b5f604051808303815f87803b158015610d2a575f80fd5b505af1158015610d3c573d5f803e3d5ffd5b50505050600190509392505050565b5f8183610d589190611618565b90505f831480610d725750818382610d70919061153d565b145b610db1576040517f08c379a0000000000000000000000000000000000000000000000000000000008152600401610da8906116c9565b60405180910390fd5b92915050565b5f60055f8473ffffffffffffffffffffffffffffffffffffffff1673ffffffffffffffffffffffffffffffffffffffff1681526020019081526020015f205f8373ffffffffffffffffffffffffffffffffffffffff1673ffffffffffffffffffffffffffffffffffffffff1681526020019081526020015f2054905092915050565b5f8183610e4691906116e7565b905082811015610e8b576040517f08c379a0000000000000000000000000000000000000000000000000000000008152600401610e8290611764565b60405180910390fd5b92915050565b5f82825260208201905092915050565b7f4574686572206e6f7420616363657074656400000000000000000000000000005f82015250565b5f610ed5601283610e91565b9150610ee082610ea1565b602082019050919050565b5f6020820190508181035f830152610f0281610ec9565b9050919050565b5f81519050919050565b8281835e5f83830152505050565b5f601f19601f8301169050919050565b5f610f3b82610f09565b610f458185610e91565b9350610f55818560208601610f13565b610f5e81610f21565b840191505092915050565b5f6020820190508181035f830152610f818184610f31565b905092915050565b5f604051905090565b5f80fd5b5f80fd5b5f73ffffffffffffffffffffffffffffffffffffffff82169050919050565b5f610fc382610f9a565b9050919050565b610fd381610fb9565b8114610fdd575f80fd5b50565b5f81359050610fee81610fca565b92915050565b5f819050919050565b61100681610ff4565b8114611010575f80fd5b50565b5f8135905061102181610ffd565b92915050565b5f806040838503121561103d5761103c610f92565b5b5f61104a85828601610fe0565b925050602061105b85828601611013565b9150509250929050565b5f8115159050919050565b61107981611065565b82525050565b5f6020820190506110925f830184611070565b92915050565b6110a181610ff4565b82525050565b5f6020820190506110ba5f830184611098565b92915050565b5f805f606084860312156110d7576110d6610f92565b5b5f6110e486828701610fe0565b93505060206110f586828701610fe0565b925050604061110686828701611013565b9150509250925092565b5f60ff82169050919050565b61112581611110565b82525050565b5f60208201905061113e5f83018461111c565b92915050565b5f6020828403121561115957611158610f92565b5b5f61116684828501610fe0565b91505092915050565b5f806040838503121561118557611184610f92565b5b5f61119285828601611013565b92505060206111a385828601611013565b9150509250929050565b5f80fd5b5f80fd5b7f4e487b71000000000000000000000000000000000000000000000000000000005f52604160045260245ffd5b6111eb82610f21565b810181811067ffffffffffffffff8211171561120a576112096111b5565b5b80604052505050565b5f61121c610f89565b905061122882826111e2565b919050565b5f67ffffffffffffffff821115611247576112466111b5565b5b61125082610f21565b9050602081019050919050565b828183375f83830152505050565b5f61127d6112788461122d565b611213565b905082815260208101848484011115611299576112986111b1565b5b6112a484828561125d565b509392505050565b5f82601f8301126112c0576112bf6111ad565b5b81356112d084826020860161126b565b91505092915050565b5f805f606084860312156112f0576112ef610f92565b5b5f6112fd86828701610fe0565b935050602061130e86828701611013565b925050604084013567ffffffffffffffff81111561132f5761132e610f96565b5b61133b868287016112ac565b9150509250925092565b5f806040838503121561135b5761135a610f92565b5b5f61136885828601610fe0565b925050602061137985828601610fe0565b9150509250929050565b7f4e487b71000000000000000000000000000000000000000000000000000000005f52602260045260245ffd5b5f60028204905060018216806113c757607f821691505b6020821081036113da576113d9611383565b5b50919050565b7f4e487b71000000000000000000000000000000000000000000000000000000005f52601160045260245ffd5b5f61141782610ff4565b915061142283610ff4565b925082820390508181111561143a576114396113e0565b5b92915050565b7f536166654d6174683a207375627472616374696f6e206f766572666c6f7700005f82015250565b5f611474601e83610e91565b915061147f82611440565b602082019050919050565b5f6020820190508181035f8301526114a181611468565b9050919050565b7f536166654d6174683a206469766973696f6e206279207a65726f0000000000005f82015250565b5f6114dc601a83610e91565b91506114e7826114a8565b602082019050919050565b5f6020820190508181035f830152611509816114d0565b9050919050565b7f4e487b71000000000000000000000000000000000000000000000000000000005f52601260045260245ffd5b5f61154782610ff4565b915061155283610ff4565b92508261156257611561611510565b5b828204905092915050565b61157681610fb9565b82525050565b5f81519050919050565b5f82825260208201905092915050565b5f6115a08261157c565b6115aa8185611586565b93506115ba818560208601610f13565b6115c381610f21565b840191505092915050565b5f6080820190506115e15f83018761156d565b6115ee6020830186611098565b6115fb604083018561156d565b818103606083015261160d8184611596565b905095945050505050565b5f61162282610ff4565b915061162d83610ff4565b925082820261163b81610ff4565b91508282048414831517611652576116516113e0565b5b5092915050565b7f536166654d6174683a206d756c7469706c69636174696f6e206f766572666c6f5f8201527f7700000000000000000000000000000000000000000000000000000000000000602082015250565b5f6116b3602183610e91565b91506116be82611659565b604082019050919050565b5f6020820190508181035f8301526116e0816116a7565b9050919050565b5f6116f182610ff4565b91506116fc83610ff4565b9250828201905080821115611714576117136113e0565b5b92915050565b7f536166654d6174683a206164646974696f6e206f766572666c6f7700000000005f82015250565b5f61174e601b83610e91565b91506117598261171a565b602082019050919050565b5f6020820190508181035f83015261177b81611742565b905091905056fea2646970667358221220ee53a69f923b79f93b58b2cf2cca3ecc90b9f65f27feed1727fb6ecf730e503c64736f6c634300081a0033",
					"opcodes": "PUSH1 0x80 PUSH1 0x40 MSTORE CALLVALUE DUP1 ISZERO PUSH2 0xF JUMPI PUSH0 DUP1 REVERT JUMPDEST POP PUSH1 0x40 MLOAD DUP1 PUSH1 0x40 ADD PUSH1 0x40 MSTORE DUP1 PUSH1 0x3 DUP2 MSTORE PUSH1 0x20 ADD PUSH32 0x44494F0000000000000000000000000000000000000000000000000000000000 DUP2 MSTORE POP PUSH0 SWAP1 DUP2 PUSH2 0x53 SWAP2 SWAP1 PUSH2 0x3CF JUMP JUMPDEST POP PUSH1 0x40 MLOAD DUP1 PUSH1 0x40 ADD PUSH1 0x40 MSTORE DUP1 PUSH1 0x8 DUP2 MSTORE PUSH1 0x20 ADD PUSH32 0x44494F20436F696E000000000000000000000000000000000000000000000000 DUP2 MSTORE POP PUSH1 0x1 SWAP1 DUP2 PUSH2 0x98 SWAP2 SWAP1 PUSH2 0x3CF JUMP JUMPDEST POP PUSH1 0x2 DUP1 PUSH0 PUSH2 0x100 EXP DUP2 SLOAD DUP2 PUSH1 0xFF MUL NOT AND SWAP1 DUP4 PUSH1 0xFF AND MUL OR SWAP1 SSTORE POP PUSH3 0x186A0 PUSH1 0x3 DUP2 SWAP1 SSTORE POP PUSH1 0x3 SLOAD PUSH1 0x4 PUSH0 PUSH20 0xB27B0857DCEBA810AABA578E8E20B3810C534B34 PUSH20 0xFFFFFFFFFFFFFFFFFFFFFFFFFFFFFFFFFFFFFFFF AND PUSH20 0xFFFFFFFFFFFFFFFFFFFFFFFFFFFFFFFFFFFFFFFF AND DUP2 MSTORE PUSH1 0x20 ADD SWAP1 DUP2 MSTORE PUSH1 0x20 ADD PUSH0 KECCAK256 DUP2 SWAP1 SSTORE POP PUSH20 0xB27B0857DCEBA810AABA578E8E20B3810C534B34 PUSH20 0xFFFFFFFFFFFFFFFFFFFFFFFFFFFFFFFFFFFFFFFF AND PUSH0 PUSH20 0xFFFFFFFFFFFFFFFFFFFFFFFFFFFFFFFFFFFFFFFF AND PUSH32 0xDDF252AD1BE2C89B69C2B068FC378DAA952BA7F163C4A11628F55A4DF523B3EF PUSH1 0x3 SLOAD PUSH1 0x40 MLOAD PUSH2 0x188 SWAP2 SWAP1 PUSH2 0x4AD JUMP JUMPDEST PUSH1 0x40 MLOAD DUP1 SWAP2 SUB SWAP1 LOG3 PUSH2 0x4C6 JUMP JUMPDEST PUSH0 DUP2 MLOAD SWAP1 POP SWAP2 SWAP1 POP JUMP JUMPDEST PUSH32 0x4E487B7100000000000000000000000000000000000000000000000000000000 PUSH0 MSTORE PUSH1 0x41 PUSH1 0x4 MSTORE PUSH1 0x24 PUSH0 REVERT JUMPDEST PUSH32 0x4E487B7100000000000000000000000000000000000000000000000000000000 PUSH0 MSTORE PUSH1 0x22 PUSH1 0x4 MSTORE PUSH1 0x24 PUSH0 REVERT JUMPDEST PUSH0 PUSH1 0x2 DUP3 DIV SWAP1 POP PUSH1 0x1 DUP3 AND DUP1 PUSH2 0x210 JUMPI PUSH1 0x7F DUP3 AND SWAP2 POP JUMPDEST PUSH1 0x20 DUP3 LT DUP2 SUB PUSH2 0x223 JUMPI PUSH2 0x222 PUSH2 0x1CC JUMP JUMPDEST JUMPDEST POP SWAP2 SWAP1 POP JUMP JUMPDEST PUSH0 DUP2 SWAP1 POP DUP2 PUSH0 MSTORE PUSH1 0x20 PUSH0 KECCAK256 SWAP1 POP SWAP2 SWAP1 POP JUMP JUMPDEST PUSH0 PUSH1 0x20 PUSH1 0x1F DUP4 ADD DIV SWAP1 POP SWAP2 SWAP1 POP JUMP JUMPDEST PUSH0 DUP3 DUP3 SHL SWAP1 POP SWAP3 SWAP2 POP POP JUMP JUMPDEST PUSH0 PUSH1 0x8 DUP4 MUL PUSH2 0x285 PUSH32 0xFFFFFFFFFFFFFFFFFFFFFFFFFFFFFFFFFFFFFFFFFFFFFFFFFFFFFFFFFFFFFFFF DUP3 PUSH2 0x24A JUMP JUMPDEST PUSH2 0x28F DUP7 DUP4 PUSH2 0x24A JUMP JUMPDEST SWAP6 POP DUP1 NOT DUP5 AND SWAP4 POP DUP1 DUP7 AND DUP5 OR SWAP3 POP POP POP SWAP4 SWAP3 POP POP POP JUMP JUMPDEST PUSH0 DUP2 SWAP1 POP SWAP2 SWAP1 POP JUMP JUMPDEST PUSH0 DUP2 SWAP1 POP SWAP2 SWAP1 POP JUMP JUMPDEST PUSH0 PUSH2 0x2D3 PUSH2 0x2CE PUSH2 0x2C9 DUP5 PUSH2 0x2A7 JUMP JUMPDEST PUSH2 0x2B0 JUMP JUMPDEST PUSH2 0x2A7 JUMP JUMPDEST SWAP1 POP SWAP2 SWAP1 POP JUMP JUMPDEST PUSH0 DUP2 SWAP1 POP SWAP2 SWAP1 POP JUMP JUMPDEST PUSH2 0x2EC DUP4 PUSH2 0x2B9 JUMP JUMPDEST PUSH2 0x300 PUSH2 0x2F8 DUP3 PUSH2 0x2DA JUMP JUMPDEST DUP5 DUP5 SLOAD PUSH2 0x256 JUMP JUMPDEST DUP3 SSTORE POP POP POP POP JUMP JUMPDEST PUSH0 SWAP1 JUMP JUMPDEST PUSH2 0x314 PUSH2 0x308 JUMP JUMPDEST PUSH2 0x31F DUP2 DUP5 DUP5 PUSH2 0x2E3 JUMP JUMPDEST POP POP POP JUMP JUMPDEST JUMPDEST DUP2 DUP2 LT ISZERO PUSH2 0x342 JUMPI PUSH2 0x337 PUSH0 DUP3 PUSH2 0x30C JUMP JUMPDEST PUSH1 0x1 DUP2 ADD SWAP1 POP PUSH2 0x325 JUMP JUMPDEST POP POP JUMP JUMPDEST PUSH1 0x1F DUP3 GT ISZERO PUSH2 0x387 JUMPI PUSH2 0x358 DUP2 PUSH2 0x229 JUMP JUMPDEST PUSH2 0x361 DUP5 PUSH2 0x23B JUMP JUMPDEST DUP2 ADD PUSH1 0x20 DUP6 LT ISZERO PUSH2 0x370 JUMPI DUP2 SWAP1 POP JUMPDEST PUSH2 0x384 PUSH2 0x37C DUP6 PUSH2 0x23B JUMP JUMPDEST DUP4 ADD DUP3 PUSH2 0x324 JUMP JUMPDEST POP POP JUMPDEST POP POP POP JUMP JUMPDEST PUSH0 DUP3 DUP3 SHR SWAP1 POP SWAP3 SWAP2 POP POP JUMP JUMPDEST PUSH0 PUSH2 0x3A7 PUSH0 NOT DUP5 PUSH1 0x8 MUL PUSH2 0x38C JUMP JUMPDEST NOT DUP1 DUP4 AND SWAP2 POP POP SWAP3 SWAP2 POP POP JUMP JUMPDEST PUSH0 PUSH2 0x3BF DUP4 DUP4 PUSH2 0x398 JUMP JUMPDEST SWAP2 POP DUP3 PUSH1 0x2 MUL DUP3 OR SWAP1 POP SWAP3 SWAP2 POP POP JUMP JUMPDEST PUSH2 0x3D8 DUP3 PUSH2 0x195 JUMP JUMPDEST PUSH8 0xFFFFFFFFFFFFFFFF DUP2 GT ISZERO PUSH2 0x3F1 JUMPI PUSH2 0x3F0 PUSH2 0x19F JUMP JUMPDEST JUMPDEST PUSH2 0x3FB DUP3 SLOAD PUSH2 0x1F9 JUMP JUMPDEST PUSH2 0x406 DUP3 DUP3 DUP6 PUSH2 0x346 JUMP JUMPDEST PUSH0 PUSH1 0x20 SWAP1 POP PUSH1 0x1F DUP4 GT PUSH1 0x1 DUP2 EQ PUSH2 0x437 JUMPI PUSH0 DUP5 ISZERO PUSH2 0x425 JUMPI DUP3 DUP8 ADD MLOAD SWAP1 POP JUMPDEST PUSH2 0x42F DUP6 DUP3 PUSH2 0x3B4 JUMP JUMPDEST DUP7 SSTORE POP PUSH2 0x496 JUMP JUMPDEST PUSH1 0x1F NOT DUP5 AND PUSH2 0x445 DUP7 PUSH2 0x229 JUMP JUMPDEST PUSH0 JUMPDEST DUP3 DUP2 LT ISZERO PUSH2 0x46C JUMPI DUP5 DUP10 ADD MLOAD DUP3 SSTORE PUSH1 0x1 DUP3 ADD SWAP2 POP PUSH1 0x20 DUP6 ADD SWAP5 POP PUSH1 0x20 DUP2 ADD SWAP1 POP PUSH2 0x447 JUMP JUMPDEST DUP7 DUP4 LT ISZERO PUSH2 0x489 JUMPI DUP5 DUP10 ADD MLOAD PUSH2 0x485 PUSH1 0x1F DUP10 AND DUP3 PUSH2 0x398 JUMP JUMPDEST DUP4 SSTORE POP JUMPDEST PUSH1 0x1 PUSH1 0x2 DUP9 MUL ADD DUP9 SSTORE POP POP POP JUMPDEST POP POP POP POP POP POP JUMP JUMPDEST PUSH2 0x4A7 DUP2 PUSH2 0x2A7 JUMP JUMPDEST DUP3 MSTORE POP POP JUMP JUMPDEST PUSH0 PUSH1 0x20 DUP3 ADD SWAP1 POP PUSH2 0x4C0 PUSH0 DUP4 ADD DUP5 PUSH2 0x49E JUMP JUMPDEST SWAP3 SWAP2 POP POP JUMP JUMPDEST PUSH2 0x17B8 DUP1 PUSH2 0x4D3 PUSH0 CODECOPY PUSH0 RETURN INVALID PUSH1 0x80 PUSH1 0x40 MSTORE PUSH1 0x4 CALLDATASIZE LT PUSH2 0xEB JUMPI PUSH0 CALLDATALOAD PUSH1 0xE0 SHR DUP1 PUSH4 0x95D89B41 GT PUSH2 0x89 JUMPI DUP1 PUSH4 0xCAE9CA51 GT PUSH2 0x58 JUMPI DUP1 PUSH4 0xCAE9CA51 EQ PUSH2 0x3A0 JUMPI DUP1 PUSH4 0xD05C78DA EQ PUSH2 0x3DC JUMPI DUP1 PUSH4 0xDD62ED3E EQ PUSH2 0x418 JUMPI DUP1 PUSH4 0xE6CB9013 EQ PUSH2 0x454 JUMPI PUSH2 0x12B JUMP JUMPDEST DUP1 PUSH4 0x95D89B41 EQ PUSH2 0x2C2 JUMPI DUP1 PUSH4 0xA293D1E8 EQ PUSH2 0x2EC JUMPI DUP1 PUSH4 0xA9059CBB EQ PUSH2 0x328 JUMPI DUP1 PUSH4 0xB5931F7C EQ PUSH2 0x364 JUMPI PUSH2 0x12B JUMP JUMPDEST DUP1 PUSH4 0x23B872DD GT PUSH2 0xC5 JUMPI DUP1 PUSH4 0x23B872DD EQ PUSH2 0x1F6 JUMPI DUP1 PUSH4 0x313CE567 EQ PUSH2 0x232 JUMPI DUP1 PUSH4 0x3EAAF86B EQ PUSH2 0x25C JUMPI DUP1 PUSH4 0x70A08231 EQ PUSH2 0x286 JUMPI PUSH2 0x12B JUMP JUMPDEST DUP1 PUSH4 0x6FDDE03 EQ PUSH2 0x166 JUMPI DUP1 PUSH4 0x95EA7B3 EQ PUSH2 0x190 JUMPI DUP1 PUSH4 0x18160DDD EQ PUSH2 0x1CC JUMPI PUSH2 0x12B JUMP JUMPDEST CALLDATASIZE PUSH2 0x12B JUMPI PUSH1 0x40 MLOAD PUSH32 0x8C379A000000000000000000000000000000000000000000000000000000000 DUP2 MSTORE PUSH1 0x4 ADD PUSH2 0x122 SWAP1 PUSH2 0xEEB JUMP JUMPDEST PUSH1 0x40 MLOAD DUP1 SWAP2 SUB SWAP1 REVERT JUMPDEST PUSH1 0x40 MLOAD PUSH32 0x8C379A000000000000000000000000000000000000000000000000000000000 DUP2 MSTORE PUSH1 0x4 ADD PUSH2 0x15D SWAP1 PUSH2 0xEEB JUMP JUMPDEST PUSH1 0x40 MLOAD DUP1 SWAP2 SUB SWAP1 REVERT JUMPDEST CALLVALUE DUP1 ISZERO PUSH2 0x171 JUMPI PUSH0 DUP1 REVERT JUMPDEST POP PUSH2 0x17A PUSH2 0x490 JUMP JUMPDEST PUSH1 0x40 MLOAD PUSH2 0x187 SWAP2 SWAP1 PUSH2 0xF69 JUMP JUMPDEST PUSH1 0x40 MLOAD DUP1 SWAP2 SUB SWAP1 RETURN JUMPDEST CALLVALUE DUP1 ISZERO PUSH2 0x19B JUMPI PUSH0 DUP1 REVERT JUMPDEST POP PUSH2 0x1B6 PUSH1 0x4 DUP1 CALLDATASIZE SUB DUP2 ADD SWAP1 PUSH2 0x1B1 SWAP2 SWAP1 PUSH2 0x1027 JUMP JUMPDEST PUSH2 0x51C JUMP JUMPDEST PUSH1 0x40 MLOAD PUSH2 0x1C3 SWAP2 SWAP1 PUSH2 0x107F JUMP JUMPDEST PUSH1 0x40 MLOAD DUP1 SWAP2 SUB SWAP1 RETURN JUMPDEST CALLVALUE DUP1 ISZERO PUSH2 0x1D7 JUMPI PUSH0 DUP1 REVERT JUMPDEST POP PUSH2 0x1E0 PUSH2 0x609 JUMP JUMPDEST PUSH1 0x40 MLOAD PUSH2 0x1ED SWAP2 SWAP1 PUSH2 0x10A7 JUMP JUMPDEST PUSH1 0x40 MLOAD DUP1 SWAP2 SUB SWAP1 RETURN JUMPDEST CALLVALUE DUP1 ISZERO PUSH2 0x201 JUMPI PUSH0 DUP1 REVERT JUMPDEST POP PUSH2 0x21C PUSH1 0x4 DUP1 CALLDATASIZE SUB DUP2 ADD SWAP1 PUSH2 0x217 SWAP2 SWAP1 PUSH2 0x10C0 JUMP JUMPDEST PUSH2 0x65A JUMP JUMPDEST PUSH1 0x40 MLOAD PUSH2 0x229 SWAP2 SWAP1 PUSH2 0x107F JUMP JUMPDEST PUSH1 0x40 MLOAD DUP1 SWAP2 SUB SWAP1 RETURN JUMPDEST CALLVALUE DUP1 ISZERO PUSH2 0x23D JUMPI PUSH0 DUP1 REVERT JUMPDEST POP PUSH2 0x246 PUSH2 0x8D9 JUMP JUMPDEST PUSH1 0x40 MLOAD PUSH2 0x253 SWAP2 SWAP1 PUSH2 0x112B JUMP JUMPDEST PUSH1 0x40 MLOAD DUP1 SWAP2 SUB SWAP1 RETURN JUMPDEST CALLVALUE DUP1 ISZERO PUSH2 0x267 JUMPI PUSH0 DUP1 REVERT JUMPDEST POP PUSH2 0x270 PUSH2 0x8EB JUMP JUMPDEST PUSH1 0x40 MLOAD PUSH2 0x27D SWAP2 SWAP1 PUSH2 0x10A7 JUMP JUMPDEST PUSH1 0x40 MLOAD DUP1 SWAP2 SUB SWAP1 RETURN JUMPDEST CALLVALUE DUP1 ISZERO PUSH2 0x291 JUMPI PUSH0 DUP1 REVERT JUMPDEST POP PUSH2 0x2AC PUSH1 0x4 DUP1 CALLDATASIZE SUB DUP2 ADD SWAP1 PUSH2 0x2A7 SWAP2 SWAP1 PUSH2 0x1144 JUMP JUMPDEST PUSH2 0x8F1 JUMP JUMPDEST PUSH1 0x40 MLOAD PUSH2 0x2B9 SWAP2 SWAP1 PUSH2 0x10A7 JUMP JUMPDEST PUSH1 0x40 MLOAD DUP1 SWAP2 SUB SWAP1 RETURN JUMPDEST CALLVALUE DUP1 ISZERO PUSH2 0x2CD JUMPI PUSH0 DUP1 REVERT JUMPDEST POP PUSH2 0x2D6 PUSH2 0x937 JUMP JUMPDEST PUSH1 0x40 MLOAD PUSH2 0x2E3 SWAP2 SWAP1 PUSH2 0xF69 JUMP JUMPDEST PUSH1 0x40 MLOAD DUP1 SWAP2 SUB SWAP1 RETURN JUMPDEST CALLVALUE DUP1 ISZERO PUSH2 0x2F7 JUMPI PUSH0 DUP1 REVERT JUMPDEST POP PUSH2 0x312 PUSH1 0x4 DUP1 CALLDATASIZE SUB DUP2 ADD SWAP1 PUSH2 0x30D SWAP2 SWAP1 PUSH2 0x116F JUMP JUMPDEST PUSH2 0x9C2 JUMP JUMPDEST PUSH1 0x40 MLOAD PUSH2 0x31F SWAP2 SWAP1 PUSH2 0x10A7 JUMP JUMPDEST PUSH1 0x40 MLOAD DUP1 SWAP2 SUB SWAP1 RETURN JUMPDEST CALLVALUE DUP1 ISZERO PUSH2 0x333 JUMPI PUSH0 DUP1 REVERT JUMPDEST POP PUSH2 0x34E PUSH1 0x4 DUP1 CALLDATASIZE SUB DUP2 ADD SWAP1 PUSH2 0x349 SWAP2 SWAP1 PUSH2 0x1027 JUMP JUMPDEST PUSH2 0xA1A JUMP JUMPDEST PUSH1 0x40 MLOAD PUSH2 0x35B SWAP2 SWAP1 PUSH2 0x107F JUMP JUMPDEST PUSH1 0x40 MLOAD DUP1 SWAP2 SUB SWAP1 RETURN JUMPDEST CALLVALUE DUP1 ISZERO PUSH2 0x36F JUMPI PUSH0 DUP1 REVERT JUMPDEST POP PUSH2 0x38A PUSH1 0x4 DUP1 CALLDATASIZE SUB DUP2 ADD SWAP1 PUSH2 0x385 SWAP2 SWAP1 PUSH2 0x116F JUMP JUMPDEST PUSH2 0xB9A JUMP JUMPDEST PUSH1 0x40 MLOAD PUSH2 0x397 SWAP2 SWAP1 PUSH2 0x10A7 JUMP JUMPDEST PUSH1 0x40 MLOAD DUP1 SWAP2 SUB SWAP1 RETURN JUMPDEST CALLVALUE DUP1 ISZERO PUSH2 0x3AB JUMPI PUSH0 DUP1 REVERT JUMPDEST POP PUSH2 0x3C6 PUSH1 0x4 DUP1 CALLDATASIZE SUB DUP2 ADD SWAP1 PUSH2 0x3C1 SWAP2 SWAP1 PUSH2 0x12D9 JUMP JUMPDEST PUSH2 0xBF1 JUMP JUMPDEST PUSH1 0x40 MLOAD PUSH2 0x3D3 SWAP2 SWAP1 PUSH2 0x107F JUMP JUMPDEST PUSH1 0x40 MLOAD DUP1 SWAP2 SUB SWAP1 RETURN JUMPDEST CALLVALUE DUP1 ISZERO PUSH2 0x3E7 JUMPI PUSH0 DUP1 REVERT JUMPDEST POP PUSH2 0x402 PUSH1 0x4 DUP1 CALLDATASIZE SUB DUP2 ADD SWAP1 PUSH2 0x3FD SWAP2 SWAP1 PUSH2 0x116F JUMP JUMPDEST PUSH2 0xD4B JUMP JUMPDEST PUSH1 0x40 MLOAD PUSH2 0x40F SWAP2 SWAP1 PUSH2 0x10A7 JUMP JUMPDEST PUSH1 0x40 MLOAD DUP1 SWAP2 SUB SWAP1 RETURN JUMPDEST CALLVALUE DUP1 ISZERO PUSH2 0x423 JUMPI PUSH0 DUP1 REVERT JUMPDEST POP PUSH2 0x43E PUSH1 0x4 DUP1 CALLDATASIZE SUB DUP2 ADD SWAP1 PUSH2 0x439 SWAP2 SWAP1 PUSH2 0x1345 JUMP JUMPDEST PUSH2 0xDB7 JUMP JUMPDEST PUSH1 0x40 MLOAD PUSH2 0x44B SWAP2 SWAP1 PUSH2 0x10A7 JUMP JUMPDEST PUSH1 0x40 MLOAD DUP1 SWAP2 SUB SWAP1 RETURN JUMPDEST CALLVALUE DUP1 ISZERO PUSH2 0x45F JUMPI PUSH0 DUP1 REVERT JUMPDEST POP PUSH2 0x47A PUSH1 0x4 DUP1 CALLDATASIZE SUB DUP2 ADD SWAP1 PUSH2 0x475 SWAP2 SWAP1 PUSH2 0x116F JUMP JUMPDEST PUSH2 0xE39 JUMP JUMPDEST PUSH1 0x40 MLOAD PUSH2 0x487 SWAP2 SWAP1 PUSH2 0x10A7 JUMP JUMPDEST PUSH1 0x40 MLOAD DUP1 SWAP2 SUB SWAP1 RETURN JUMPDEST PUSH1 0x1 DUP1 SLOAD PUSH2 0x49D SWAP1 PUSH2 0x13B0 JUMP JUMPDEST DUP1 PUSH1 0x1F ADD PUSH1 0x20 DUP1 SWAP2 DIV MUL PUSH1 0x20 ADD PUSH1 0x40 MLOAD SWAP1 DUP2 ADD PUSH1 0x40 MSTORE DUP1 SWAP3 SWAP2 SWAP1 DUP2 DUP2 MSTORE PUSH1 0x20 ADD DUP3 DUP1 SLOAD PUSH2 0x4C9 SWAP1 PUSH2 0x13B0 JUMP JUMPDEST DUP1 ISZERO PUSH2 0x514 JUMPI DUP1 PUSH1 0x1F LT PUSH2 0x4EB JUMPI PUSH2 0x100 DUP1 DUP4 SLOAD DIV MUL DUP4 MSTORE SWAP2 PUSH1 0x20 ADD SWAP2 PUSH2 0x514 JUMP JUMPDEST DUP3 ADD SWAP2 SWAP1 PUSH0 MSTORE PUSH1 0x20 PUSH0 KECCAK256 SWAP1 JUMPDEST DUP2 SLOAD DUP2 MSTORE SWAP1 PUSH1 0x1 ADD SWAP1 PUSH1 0x20 ADD DUP1 DUP4 GT PUSH2 0x4F7 JUMPI DUP3 SWAP1 SUB PUSH1 0x1F AND DUP3 ADD SWAP2 JUMPDEST POP POP POP POP POP DUP2 JUMP JUMPDEST PUSH0 DUP2 PUSH1 0x5 PUSH0 CALLER PUSH20 0xFFFFFFFFFFFFFFFFFFFFFFFFFFFFFFFFFFFFFFFF AND PUSH20 0xFFFFFFFFFFFFFFFFFFFFFFFFFFFFFFFFFFFFFFFF AND DUP2 MSTORE PUSH1 0x20 ADD SWAP1 DUP2 MSTORE PUSH1 0x20 ADD PUSH0 KECCAK256 PUSH0 DUP6 PUSH20 0xFFFFFFFFFFFFFFFFFFFFFFFFFFFFFFFFFFFFFFFF AND PUSH20 0xFFFFFFFFFFFFFFFFFFFFFFFFFFFFFFFFFFFFFFFF AND DUP2 MSTORE PUSH1 0x20 ADD SWAP1 DUP2 MSTORE PUSH1 0x20 ADD PUSH0 KECCAK256 DUP2 SWAP1 SSTORE POP DUP3 PUSH20 0xFFFFFFFFFFFFFFFFFFFFFFFFFFFFFFFFFFFFFFFF AND CALLER PUSH20 0xFFFFFFFFFFFFFFFFFFFFFFFFFFFFFFFFFFFFFFFF AND PUSH32 0x8C5BE1E5EBEC7D5BD14F71427D1E84F3DD0314C0F7B2291E5B200AC8C7C3B925 DUP5 PUSH1 0x40 MLOAD PUSH2 0x5F7 SWAP2 SWAP1 PUSH2 0x10A7 JUMP JUMPDEST PUSH1 0x40 MLOAD DUP1 SWAP2 SUB SWAP1 LOG3 PUSH1 0x1 SWAP1 POP SWAP3 SWAP2 POP POP JUMP JUMPDEST PUSH0 PUSH1 0x4 PUSH0 DUP1 PUSH20 0xFFFFFFFFFFFFFFFFFFFFFFFFFFFFFFFFFFFFFFFF AND PUSH20 0xFFFFFFFFFFFFFFFFFFFFFFFFFFFFFFFFFFFFFFFF AND DUP2 MSTORE PUSH1 0x20 ADD SWAP1 DUP2 MSTORE PUSH1 0x20 ADD PUSH0 KECCAK256 SLOAD PUSH1 0x3 SLOAD PUSH2 0x655 SWAP2 SWAP1 PUSH2 0x140D JUMP JUMPDEST SWAP1 POP SWAP1 JUMP JUMPDEST PUSH0 PUSH2 0x6A2 PUSH1 0x4 PUSH0 DUP7 PUSH20 0xFFFFFFFFFFFFFFFFFFFFFFFFFFFFFFFFFFFFFFFF AND PUSH20 0xFFFFFFFFFFFFFFFFFFFFFFFFFFFFFFFFFFFFFFFF AND DUP2 MSTORE PUSH1 0x20 ADD SWAP1 DUP2 MSTORE PUSH1 0x20 ADD PUSH0 KECCAK256 SLOAD DUP4 PUSH2 0x9C2 JUMP JUMPDEST PUSH1 0x4 PUSH0 DUP7 PUSH20 0xFFFFFFFFFFFFFFFFFFFFFFFFFFFFFFFFFFFFFFFF AND PUSH20 0xFFFFFFFFFFFFFFFFFFFFFFFFFFFFFFFFFFFFFFFF AND DUP2 MSTORE PUSH1 0x20 ADD SWAP1 DUP2 MSTORE PUSH1 0x20 ADD PUSH0 KECCAK256 DUP2 SWAP1 SSTORE POP PUSH2 0x765 PUSH1 0x5 PUSH0 DUP7 PUSH20 0xFFFFFFFFFFFFFFFFFFFFFFFFFFFFFFFFFFFFFFFF AND PUSH20 0xFFFFFFFFFFFFFFFFFFFFFFFFFFFFFFFFFFFFFFFF AND DUP2 MSTORE PUSH1 0x20 ADD SWAP1 DUP2 MSTORE PUSH1 0x20 ADD PUSH0 KECCAK256 PUSH0 CALLER PUSH20 0xFFFFFFFFFFFFFFFFFFFFFFFFFFFFFFFFFFFFFFFF AND PUSH20 0xFFFFFFFFFFFFFFFFFFFFFFFFFFFFFFFFFFFFFFFF AND DUP2 MSTORE PUSH1 0x20 ADD SWAP1 DUP2 MSTORE PUSH1 0x20 ADD PUSH0 KECCAK256 SLOAD DUP4 PUSH2 0x9C2 JUMP JUMPDEST PUSH1 0x5 PUSH0 DUP7 PUSH20 0xFFFFFFFFFFFFFFFFFFFFFFFFFFFFFFFFFFFFFFFF AND PUSH20 0xFFFFFFFFFFFFFFFFFFFFFFFFFFFFFFFFFFFFFFFF AND DUP2 MSTORE PUSH1 0x20 ADD SWAP1 DUP2 MSTORE PUSH1 0x20 ADD PUSH0 KECCAK256 PUSH0 CALLER PUSH20 0xFFFFFFFFFFFFFFFFFFFFFFFFFFFFFFFFFFFFFFFF AND PUSH20 0xFFFFFFFFFFFFFFFFFFFFFFFFFFFFFFFFFFFFFFFF AND DUP2 MSTORE PUSH1 0x20 ADD SWAP1 DUP2 MSTORE PUSH1 0x20 ADD PUSH0 KECCAK256 DUP2 SWAP1 SSTORE POP PUSH2 0x828 PUSH1 0x4 PUSH0 DUP6 PUSH20 0xFFFFFFFFFFFFFFFFFFFFFFFFFFFFFFFFFFFFFFFF AND PUSH20 0xFFFFFFFFFFFFFFFFFFFFFFFFFFFFFFFFFFFFFFFF AND DUP2 MSTORE PUSH1 0x20 ADD SWAP1 DUP2 MSTORE PUSH1 0x20 ADD PUSH0 KECCAK256 SLOAD DUP4 PUSH2 0xE39 JUMP JUMPDEST PUSH1 0x4 PUSH0 DUP6 PUSH20 0xFFFFFFFFFFFFFFFFFFFFFFFFFFFFFFFFFFFFFFFF AND PUSH20 0xFFFFFFFFFFFFFFFFFFFFFFFFFFFFFFFFFFFFFFFF AND DUP2 MSTORE PUSH1 0x20 ADD SWAP1 DUP2 MSTORE PUSH1 0x20 ADD PUSH0 KECCAK256 DUP2 SWAP1 SSTORE POP DUP3 PUSH20 0xFFFFFFFFFFFFFFFFFFFFFFFFFFFFFFFFFFFFFFFF AND DUP5 PUSH20 0xFFFFFFFFFFFFFFFFFFFFFFFFFFFFFFFFFFFFFFFF AND PUSH32 0xDDF252AD1BE2C89B69C2B068FC378DAA952BA7F163C4A11628F55A4DF523B3EF DUP5 PUSH1 0x40 MLOAD PUSH2 0x8C6 SWAP2 SWAP1 PUSH2 0x10A7 JUMP JUMPDEST PUSH1 0x40 MLOAD DUP1 SWAP2 SUB SWAP1 LOG3 PUSH1 0x1 SWAP1 POP SWAP4 SWAP3 POP POP POP JUMP JUMPDEST PUSH1 0x2 PUSH0 SWAP1 SLOAD SWAP1 PUSH2 0x100 EXP SWAP1 DIV PUSH1 0xFF AND DUP2 JUMP JUMPDEST PUSH1 0x3 SLOAD DUP2 JUMP JUMPDEST PUSH0 PUSH1 0x4 PUSH0 DUP4 PUSH20 0xFFFFFFFFFFFFFFFFFFFFFFFFFFFFFFFFFFFFFFFF AND PUSH20 0xFFFFFFFFFFFFFFFFFFFFFFFFFFFFFFFFFFFFFFFF AND DUP2 MSTORE PUSH1 0x20 ADD SWAP1 DUP2 MSTORE PUSH1 0x20 ADD PUSH0 KECCAK256 SLOAD SWAP1 POP SWAP2 SWAP1 POP JUMP JUMPDEST PUSH0 DUP1 SLOAD PUSH2 0x943 SWAP1 PUSH2 0x13B0 JUMP JUMPDEST DUP1 PUSH1 0x1F ADD PUSH1 0x20 DUP1 SWAP2 DIV MUL PUSH1 0x20 ADD PUSH1 0x40 MLOAD SWAP1 DUP2 ADD PUSH1 0x40 MSTORE DUP1 SWAP3 SWAP2 SWAP1 DUP2 DUP2 MSTORE PUSH1 0x20 ADD DUP3 DUP1 SLOAD PUSH2 0x96F SWAP1 PUSH2 0x13B0 JUMP JUMPDEST DUP1 ISZERO PUSH2 0x9BA JUMPI DUP1 PUSH1 0x1F LT PUSH2 0x991 JUMPI PUSH2 0x100 DUP1 DUP4 SLOAD DIV MUL DUP4 MSTORE SWAP2 PUSH1 0x20 ADD SWAP2 PUSH2 0x9BA JUMP JUMPDEST DUP3 ADD SWAP2 SWAP1 PUSH0 MSTORE PUSH1 0x20 PUSH0 KECCAK256 SWAP1 JUMPDEST DUP2 SLOAD DUP2 MSTORE SWAP1 PUSH1 0x1 ADD SWAP1 PUSH1 0x20 ADD DUP1 DUP4 GT PUSH2 0x99D JUMPI DUP3 SWAP1 SUB PUSH1 0x1F AND DUP3 ADD SWAP2 JUMPDEST POP POP POP POP POP DUP2 JUMP JUMPDEST PUSH0 DUP3 DUP3 GT ISZERO PUSH2 0xA06 JUMPI PUSH1 0x40 MLOAD PUSH32 0x8C379A000000000000000000000000000000000000000000000000000000000 DUP2 MSTORE PUSH1 0x4 ADD PUSH2 0x9FD SWAP1 PUSH2 0x148A JUMP JUMPDEST PUSH1 0x40 MLOAD DUP1 SWAP2 SUB SWAP1 REVERT JUMPDEST DUP2 DUP4 PUSH2 0xA12 SWAP2 SWAP1 PUSH2 0x140D JUMP JUMPDEST SWAP1 POP SWAP3 SWAP2 POP POP JUMP JUMPDEST PUSH0 PUSH2 0xA62 PUSH1 0x4 PUSH0 CALLER PUSH20 0xFFFFFFFFFFFFFFFFFFFFFFFFFFFFFFFFFFFFFFFF AND PUSH20 0xFFFFFFFFFFFFFFFFFFFFFFFFFFFFFFFFFFFFFFFF AND DUP2 MSTORE PUSH1 0x20 ADD SWAP1 DUP2 MSTORE PUSH1 0x20 ADD PUSH0 KECCAK256 SLOAD DUP4 PUSH2 0x9C2 JUMP JUMPDEST PUSH1 0x4 PUSH0 CALLER PUSH20 0xFFFFFFFFFFFFFFFFFFFFFFFFFFFFFFFFFFFFFFFF AND PUSH20 0xFFFFFFFFFFFFFFFFFFFFFFFFFFFFFFFFFFFFFFFF AND DUP2 MSTORE PUSH1 0x20 ADD SWAP1 DUP2 MSTORE PUSH1 0x20 ADD PUSH0 KECCAK256 DUP2 SWAP1 SSTORE POP PUSH2 0xAEA PUSH1 0x4 PUSH0 DUP6 PUSH20 0xFFFFFFFFFFFFFFFFFFFFFFFFFFFFFFFFFFFFFFFF AND PUSH20 0xFFFFFFFFFFFFFFFFFFFFFFFFFFFFFFFFFFFFFFFF AND DUP2 MSTORE PUSH1 0x20 ADD SWAP1 DUP2 MSTORE PUSH1 0x20 ADD PUSH0 KECCAK256 SLOAD DUP4 PUSH2 0xE39 JUMP JUMPDEST PUSH1 0x4 PUSH0 DUP6 PUSH20 0xFFFFFFFFFFFFFFFFFFFFFFFFFFFFFFFFFFFFFFFF AND PUSH20 0xFFFFFFFFFFFFFFFFFFFFFFFFFFFFFFFFFFFFFFFF AND DUP2 MSTORE PUSH1 0x20 ADD SWAP1 DUP2 MSTORE PUSH1 0x20 ADD PUSH0 KECCAK256 DUP2 SWAP1 SSTORE POP DUP3 PUSH20 0xFFFFFFFFFFFFFFFFFFFFFFFFFFFFFFFFFFFFFFFF AND CALLER PUSH20 0xFFFFFFFFFFFFFFFFFFFFFFFFFFFFFFFFFFFFFFFF AND PUSH32 0xDDF252AD1BE2C89B69C2B068FC378DAA952BA7F163C4A11628F55A4DF523B3EF DUP5 PUSH1 0x40 MLOAD PUSH2 0xB88 SWAP2 SWAP1 PUSH2 0x10A7 JUMP JUMPDEST PUSH1 0x40 MLOAD DUP1 SWAP2 SUB SWAP1 LOG3 PUSH1 0x1 SWAP1 POP SWAP3 SWAP2 POP POP JUMP JUMPDEST PUSH0 DUP1 DUP3 GT PUSH2 0xBDD JUMPI PUSH1 0x40 MLOAD PUSH32 0x8C379A000000000000000000000000000000000000000000000000000000000 DUP2 MSTORE PUSH1 0x4 ADD PUSH2 0xBD4 SWAP1 PUSH2 0x14F2 JUMP JUMPDEST PUSH1 0x40 MLOAD DUP1 SWAP2 SUB SWAP1 REVERT JUMPDEST DUP2 DUP4 PUSH2 0xBE9 SWAP2 SWAP1 PUSH2 0x153D JUMP JUMPDEST SWAP1 POP SWAP3 SWAP2 POP POP JUMP JUMPDEST PUSH0 DUP3 PUSH1 0x5 PUSH0 CALLER PUSH20 0xFFFFFFFFFFFFFFFFFFFFFFFFFFFFFFFFFFFFFFFF AND PUSH20 0xFFFFFFFFFFFFFFFFFFFFFFFFFFFFFFFFFFFFFFFF AND DUP2 MSTORE PUSH1 0x20 ADD SWAP1 DUP2 MSTORE PUSH1 0x20 ADD PUSH0 KECCAK256 PUSH0 DUP7 PUSH20 0xFFFFFFFFFFFFFFFFFFFFFFFFFFFFFFFFFFFFFFFF AND PUSH20 0xFFFFFFFFFFFFFFFFFFFFFFFFFFFFFFFFFFFFFFFF AND DUP2 MSTORE PUSH1 0x20 ADD SWAP1 DUP2 MSTORE PUSH1 0x20 ADD PUSH0 KECCAK256 DUP2 SWAP1 SSTORE POP DUP4 PUSH20 0xFFFFFFFFFFFFFFFFFFFFFFFFFFFFFFFFFFFFFFFF AND CALLER PUSH20 0xFFFFFFFFFFFFFFFFFFFFFFFFFFFFFFFFFFFFFFFF AND PUSH32 0x8C5BE1E5EBEC7D5BD14F71427D1E84F3DD0314C0F7B2291E5B200AC8C7C3B925 DUP6 PUSH1 0x40 MLOAD PUSH2 0xCCC SWAP2 SWAP1 PUSH2 0x10A7 JUMP JUMPDEST PUSH1 0x40 MLOAD DUP1 SWAP2 SUB SWAP1 LOG3 DUP4 PUSH20 0xFFFFFFFFFFFFFFFFFFFFFFFFFFFFFFFFFFFFFFFF AND PUSH4 0x8F4FFCB1 CALLER DUP6 ADDRESS DUP7 PUSH1 0x40 MLOAD DUP6 PUSH4 0xFFFFFFFF AND PUSH1 0xE0 SHL DUP2 MSTORE PUSH1 0x4 ADD PUSH2 0xD13 SWAP5 SWAP4 SWAP3 SWAP2 SWAP1 PUSH2 0x15CE JUMP JUMPDEST PUSH0 PUSH1 0x40 MLOAD DUP1 DUP4 SUB DUP2 PUSH0 DUP8 DUP1 EXTCODESIZE ISZERO DUP1 ISZERO PUSH2 0xD2A JUMPI PUSH0 DUP1 REVERT JUMPDEST POP GAS CALL ISZERO DUP1 ISZERO PUSH2 0xD3C JUMPI RETURNDATASIZE PUSH0 DUP1 RETURNDATACOPY RETURNDATASIZE PUSH0 REVERT JUMPDEST POP POP POP POP PUSH1 0x1 SWAP1 POP SWAP4 SWAP3 POP POP POP JUMP JUMPDEST PUSH0 DUP2 DUP4 PUSH2 0xD58 SWAP2 SWAP1 PUSH2 0x1618 JUMP JUMPDEST SWAP1 POP PUSH0 DUP4 EQ DUP1 PUSH2 0xD72 JUMPI POP DUP2 DUP4 DUP3 PUSH2 0xD70 SWAP2 SWAP1 PUSH2 0x153D JUMP JUMPDEST EQ JUMPDEST PUSH2 0xDB1 JUMPI PUSH1 0x40 MLOAD PUSH32 0x8C379A000000000000000000000000000000000000000000000000000000000 DUP2 MSTORE PUSH1 0x4 ADD PUSH2 0xDA8 SWAP1 PUSH2 0x16C9 JUMP JUMPDEST PUSH1 0x40 MLOAD DUP1 SWAP2 SUB SWAP1 REVERT JUMPDEST SWAP3 SWAP2 POP POP JUMP JUMPDEST PUSH0 PUSH1 0x5 PUSH0 DUP5 PUSH20 0xFFFFFFFFFFFFFFFFFFFFFFFFFFFFFFFFFFFFFFFF AND PUSH20 0xFFFFFFFFFFFFFFFFFFFFFFFFFFFFFFFFFFFFFFFF AND DUP2 MSTORE PUSH1 0x20 ADD SWAP1 DUP2 MSTORE PUSH1 0x20 ADD PUSH0 KECCAK256 PUSH0 DUP4 PUSH20 0xFFFFFFFFFFFFFFFFFFFFFFFFFFFFFFFFFFFFFFFF AND PUSH20 0xFFFFFFFFFFFFFFFFFFFFFFFFFFFFFFFFFFFFFFFF AND DUP2 MSTORE PUSH1 0x20 ADD SWAP1 DUP2 MSTORE PUSH1 0x20 ADD PUSH0 KECCAK256 SLOAD SWAP1 POP SWAP3 SWAP2 POP POP JUMP JUMPDEST PUSH0 DUP2 DUP4 PUSH2 0xE46 SWAP2 SWAP1 PUSH2 0x16E7 JUMP JUMPDEST SWAP1 POP DUP3 DUP2 LT ISZERO PUSH2 0xE8B JUMPI PUSH1 0x40 MLOAD PUSH32 0x8C379A000000000000000000000000000000000000000000000000000000000 DUP2 MSTORE PUSH1 0x4 ADD PUSH2 0xE82 SWAP1 PUSH2 0x1764 JUMP JUMPDEST PUSH1 0x40 MLOAD DUP1 SWAP2 SUB SWAP1 REVERT JUMPDEST SWAP3 SWAP2 POP POP JUMP JUMPDEST PUSH0 DUP3 DUP3 MSTORE PUSH1 0x20 DUP3 ADD SWAP1 POP SWAP3 SWAP2 POP POP JUMP JUMPDEST PUSH32 0x4574686572206E6F742061636365707465640000000000000000000000000000 PUSH0 DUP3 ADD MSTORE POP JUMP JUMPDEST PUSH0 PUSH2 0xED5 PUSH1 0x12 DUP4 PUSH2 0xE91 JUMP JUMPDEST SWAP2 POP PUSH2 0xEE0 DUP3 PUSH2 0xEA1 JUMP JUMPDEST PUSH1 0x20 DUP3 ADD SWAP1 POP SWAP2 SWAP1 POP JUMP JUMPDEST PUSH0 PUSH1 0x20 DUP3 ADD SWAP1 POP DUP2 DUP2 SUB PUSH0 DUP4 ADD MSTORE PUSH2 0xF02 DUP2 PUSH2 0xEC9 JUMP JUMPDEST SWAP1 POP SWAP2 SWAP1 POP JUMP JUMPDEST PUSH0 DUP2 MLOAD SWAP1 POP SWAP2 SWAP1 POP JUMP JUMPDEST DUP3 DUP2 DUP4 MCOPY PUSH0 DUP4 DUP4 ADD MSTORE POP POP POP JUMP JUMPDEST PUSH0 PUSH1 0x1F NOT PUSH1 0x1F DUP4 ADD AND SWAP1 POP SWAP2 SWAP1 POP JUMP JUMPDEST PUSH0 PUSH2 0xF3B DUP3 PUSH2 0xF09 JUMP JUMPDEST PUSH2 0xF45 DUP2 DUP6 PUSH2 0xE91 JUMP JUMPDEST SWAP4 POP PUSH2 0xF55 DUP2 DUP6 PUSH1 0x20 DUP7 ADD PUSH2 0xF13 JUMP JUMPDEST PUSH2 0xF5E DUP2 PUSH2 0xF21 JUMP JUMPDEST DUP5 ADD SWAP2 POP POP SWAP3 SWAP2 POP POP JUMP JUMPDEST PUSH0 PUSH1 0x20 DUP3 ADD SWAP1 POP DUP2 DUP2 SUB PUSH0 DUP4 ADD MSTORE PUSH2 0xF81 DUP2 DUP5 PUSH2 0xF31 JUMP JUMPDEST SWAP1 POP SWAP3 SWAP2 POP POP JUMP JUMPDEST PUSH0 PUSH1 0x40 MLOAD SWAP1 POP SWAP1 JUMP JUMPDEST PUSH0 DUP1 REVERT JUMPDEST PUSH0 DUP1 REVERT JUMPDEST PUSH0 PUSH20 0xFFFFFFFFFFFFFFFFFFFFFFFFFFFFFFFFFFFFFFFF DUP3 AND SWAP1 POP SWAP2 SWAP1 POP JUMP JUMPDEST PUSH0 PUSH2 0xFC3 DUP3 PUSH2 0xF9A JUMP JUMPDEST SWAP1 POP SWAP2 SWAP1 POP JUMP JUMPDEST PUSH2 0xFD3 DUP2 PUSH2 0xFB9 JUMP JUMPDEST DUP2 EQ PUSH2 0xFDD JUMPI PUSH0 DUP1 REVERT JUMPDEST POP JUMP JUMPDEST PUSH0 DUP2 CALLDATALOAD SWAP1 POP PUSH2 0xFEE DUP2 PUSH2 0xFCA JUMP JUMPDEST SWAP3 SWAP2 POP POP JUMP JUMPDEST PUSH0 DUP2 SWAP1 POP SWAP2 SWAP1 POP JUMP JUMPDEST PUSH2 0x1006 DUP2 PUSH2 0xFF4 JUMP JUMPDEST DUP2 EQ PUSH2 0x1010 JUMPI PUSH0 DUP1 REVERT JUMPDEST POP JUMP JUMPDEST PUSH0 DUP2 CALLDATALOAD SWAP1 POP PUSH2 0x1021 DUP2 PUSH2 0xFFD JUMP JUMPDEST SWAP3 SWAP2 POP POP JUMP JUMPDEST PUSH0 DUP1 PUSH1 0x40 DUP4 DUP6 SUB SLT ISZERO PUSH2 0x103D JUMPI PUSH2 0x103C PUSH2 0xF92 JUMP JUMPDEST JUMPDEST PUSH0 PUSH2 0x104A DUP6 DUP3 DUP7 ADD PUSH2 0xFE0 JUMP JUMPDEST SWAP3 POP POP PUSH1 0x20 PUSH2 0x105B DUP6 DUP3 DUP7 ADD PUSH2 0x1013 JUMP JUMPDEST SWAP2 POP POP SWAP3 POP SWAP3 SWAP1 POP JUMP JUMPDEST PUSH0 DUP2 ISZERO ISZERO SWAP1 POP SWAP2 SWAP1 POP JUMP JUMPDEST PUSH2 0x1079 DUP2 PUSH2 0x1065 JUMP JUMPDEST DUP3 MSTORE POP POP JUMP JUMPDEST PUSH0 PUSH1 0x20 DUP3 ADD SWAP1 POP PUSH2 0x1092 PUSH0 DUP4 ADD DUP5 PUSH2 0x1070 JUMP JUMPDEST SWAP3 SWAP2 POP POP JUMP JUMPDEST PUSH2 0x10A1 DUP2 PUSH2 0xFF4 JUMP JUMPDEST DUP3 MSTORE POP POP JUMP JUMPDEST PUSH0 PUSH1 0x20 DUP3 ADD SWAP1 POP PUSH2 0x10BA PUSH0 DUP4 ADD DUP5 PUSH2 0x1098 JUMP JUMPDEST SWAP3 SWAP2 POP POP JUMP JUMPDEST PUSH0 DUP1 PUSH0 PUSH1 0x60 DUP5 DUP7 SUB SLT ISZERO PUSH2 0x10D7 JUMPI PUSH2 0x10D6 PUSH2 0xF92 JUMP JUMPDEST JUMPDEST PUSH0 PUSH2 0x10E4 DUP7 DUP3 DUP8 ADD PUSH2 0xFE0 JUMP JUMPDEST SWAP4 POP POP PUSH1 0x20 PUSH2 0x10F5 DUP7 DUP3 DUP8 ADD PUSH2 0xFE0 JUMP JUMPDEST SWAP3 POP POP PUSH1 0x40 PUSH2 0x1106 DUP7 DUP3 DUP8 ADD PUSH2 0x1013 JUMP JUMPDEST SWAP2 POP POP SWAP3 POP SWAP3 POP SWAP3 JUMP JUMPDEST PUSH0 PUSH1 0xFF DUP3 AND SWAP1 POP SWAP2 SWAP1 POP JUMP JUMPDEST PUSH2 0x1125 DUP2 PUSH2 0x1110 JUMP JUMPDEST DUP3 MSTORE POP POP JUMP JUMPDEST PUSH0 PUSH1 0x20 DUP3 ADD SWAP1 POP PUSH2 0x113E PUSH0 DUP4 ADD DUP5 PUSH2 0x111C JUMP JUMPDEST SWAP3 SWAP2 POP POP JUMP JUMPDEST PUSH0 PUSH1 0x20 DUP3 DUP5 SUB SLT ISZERO PUSH2 0x1159 JUMPI PUSH2 0x1158 PUSH2 0xF92 JUMP JUMPDEST JUMPDEST PUSH0 PUSH2 0x1166 DUP5 DUP3 DUP6 ADD PUSH2 0xFE0 JUMP JUMPDEST SWAP2 POP POP SWAP3 SWAP2 POP POP JUMP JUMPDEST PUSH0 DUP1 PUSH1 0x40 DUP4 DUP6 SUB SLT ISZERO PUSH2 0x1185 JUMPI PUSH2 0x1184 PUSH2 0xF92 JUMP JUMPDEST JUMPDEST PUSH0 PUSH2 0x1192 DUP6 DUP3 DUP7 ADD PUSH2 0x1013 JUMP JUMPDEST SWAP3 POP POP PUSH1 0x20 PUSH2 0x11A3 DUP6 DUP3 DUP7 ADD PUSH2 0x1013 JUMP JUMPDEST SWAP2 POP POP SWAP3 POP SWAP3 SWAP1 POP JUMP JUMPDEST PUSH0 DUP1 REVERT JUMPDEST PUSH0 DUP1 REVERT JUMPDEST PUSH32 0x4E487B7100000000000000000000000000000000000000000000000000000000 PUSH0 MSTORE PUSH1 0x41 PUSH1 0x4 MSTORE PUSH1 0x24 PUSH0 REVERT JUMPDEST PUSH2 0x11EB DUP3 PUSH2 0xF21 JUMP JUMPDEST DUP2 ADD DUP2 DUP2 LT PUSH8 0xFFFFFFFFFFFFFFFF DUP3 GT OR ISZERO PUSH2 0x120A JUMPI PUSH2 0x1209 PUSH2 0x11B5 JUMP JUMPDEST JUMPDEST DUP1 PUSH1 0x40 MSTORE POP POP POP JUMP JUMPDEST PUSH0 PUSH2 0x121C PUSH2 0xF89 JUMP JUMPDEST SWAP1 POP PUSH2 0x1228 DUP3 DUP3 PUSH2 0x11E2 JUMP JUMPDEST SWAP2 SWAP1 POP JUMP JUMPDEST PUSH0 PUSH8 0xFFFFFFFFFFFFFFFF DUP3 GT ISZERO PUSH2 0x1247 JUMPI PUSH2 0x1246 PUSH2 0x11B5 JUMP JUMPDEST JUMPDEST PUSH2 0x1250 DUP3 PUSH2 0xF21 JUMP JUMPDEST SWAP1 POP PUSH1 0x20 DUP2 ADD SWAP1 POP SWAP2 SWAP1 POP JUMP JUMPDEST DUP3 DUP2 DUP4 CALLDATACOPY PUSH0 DUP4 DUP4 ADD MSTORE POP POP POP JUMP JUMPDEST PUSH0 PUSH2 0x127D PUSH2 0x1278 DUP5 PUSH2 0x122D JUMP JUMPDEST PUSH2 0x1213 JUMP JUMPDEST SWAP1 POP DUP3 DUP2 MSTORE PUSH1 0x20 DUP2 ADD DUP5 DUP5 DUP5 ADD GT ISZERO PUSH2 0x1299 JUMPI PUSH2 0x1298 PUSH2 0x11B1 JUMP JUMPDEST JUMPDEST PUSH2 0x12A4 DUP5 DUP3 DUP6 PUSH2 0x125D JUMP JUMPDEST POP SWAP4 SWAP3 POP POP POP JUMP JUMPDEST PUSH0 DUP3 PUSH1 0x1F DUP4 ADD SLT PUSH2 0x12C0 JUMPI PUSH2 0x12BF PUSH2 0x11AD JUMP JUMPDEST JUMPDEST DUP2 CALLDATALOAD PUSH2 0x12D0 DUP5 DUP3 PUSH1 0x20 DUP7 ADD PUSH2 0x126B JUMP JUMPDEST SWAP2 POP POP SWAP3 SWAP2 POP POP JUMP JUMPDEST PUSH0 DUP1 PUSH0 PUSH1 0x60 DUP5 DUP7 SUB SLT ISZERO PUSH2 0x12F0 JUMPI PUSH2 0x12EF PUSH2 0xF92 JUMP JUMPDEST JUMPDEST PUSH0 PUSH2 0x12FD DUP7 DUP3 DUP8 ADD PUSH2 0xFE0 JUMP JUMPDEST SWAP4 POP POP PUSH1 0x20 PUSH2 0x130E DUP7 DUP3 DUP8 ADD PUSH2 0x1013 JUMP JUMPDEST SWAP3 POP POP PUSH1 0x40 DUP5 ADD CALLDATALOAD PUSH8 0xFFFFFFFFFFFFFFFF DUP2 GT ISZERO PUSH2 0x132F JUMPI PUSH2 0x132E PUSH2 0xF96 JUMP JUMPDEST JUMPDEST PUSH2 0x133B DUP7 DUP3 DUP8 ADD PUSH2 0x12AC JUMP JUMPDEST SWAP2 POP POP SWAP3 POP SWAP3 POP SWAP3 JUMP JUMPDEST PUSH0 DUP1 PUSH1 0x40 DUP4 DUP6 SUB SLT ISZERO PUSH2 0x135B JUMPI PUSH2 0x135A PUSH2 0xF92 JUMP JUMPDEST JUMPDEST PUSH0 PUSH2 0x1368 DUP6 DUP3 DUP7 ADD PUSH2 0xFE0 JUMP JUMPDEST SWAP3 POP POP PUSH1 0x20 PUSH2 0x1379 DUP6 DUP3 DUP7 ADD PUSH2 0xFE0 JUMP JUMPDEST SWAP2 POP POP SWAP3 POP SWAP3 SWAP1 POP JUMP JUMPDEST PUSH32 0x4E487B7100000000000000000000000000000000000000000000000000000000 PUSH0 MSTORE PUSH1 0x22 PUSH1 0x4 MSTORE PUSH1 0x24 PUSH0 REVERT JUMPDEST PUSH0 PUSH1 0x2 DUP3 DIV SWAP1 POP PUSH1 0x1 DUP3 AND DUP1 PUSH2 0x13C7 JUMPI PUSH1 0x7F DUP3 AND SWAP2 POP JUMPDEST PUSH1 0x20 DUP3 LT DUP2 SUB PUSH2 0x13DA JUMPI PUSH2 0x13D9 PUSH2 0x1383 JUMP JUMPDEST JUMPDEST POP SWAP2 SWAP1 POP JUMP JUMPDEST PUSH32 0x4E487B7100000000000000000000000000000000000000000000000000000000 PUSH0 MSTORE PUSH1 0x11 PUSH1 0x4 MSTORE PUSH1 0x24 PUSH0 REVERT JUMPDEST PUSH0 PUSH2 0x1417 DUP3 PUSH2 0xFF4 JUMP JUMPDEST SWAP2 POP PUSH2 0x1422 DUP4 PUSH2 0xFF4 JUMP JUMPDEST SWAP3 POP DUP3 DUP3 SUB SWAP1 POP DUP2 DUP2 GT ISZERO PUSH2 0x143A JUMPI PUSH2 0x1439 PUSH2 0x13E0 JUMP JUMPDEST JUMPDEST SWAP3 SWAP2 POP POP JUMP JUMPDEST PUSH32 0x536166654D6174683A207375627472616374696F6E206F766572666C6F770000 PUSH0 DUP3 ADD MSTORE POP JUMP JUMPDEST PUSH0 PUSH2 0x1474 PUSH1 0x1E DUP4 PUSH2 0xE91 JUMP JUMPDEST SWAP2 POP PUSH2 0x147F DUP3 PUSH2 0x1440 JUMP JUMPDEST PUSH1 0x20 DUP3 ADD SWAP1 POP SWAP2 SWAP1 POP JUMP JUMPDEST PUSH0 PUSH1 0x20 DUP3 ADD SWAP1 POP DUP2 DUP2 SUB PUSH0 DUP4 ADD MSTORE PUSH2 0x14A1 DUP2 PUSH2 0x1468 JUMP JUMPDEST SWAP1 POP SWAP2 SWAP1 POP JUMP JUMPDEST PUSH32 0x536166654D6174683A206469766973696F6E206279207A65726F000000000000 PUSH0 DUP3 ADD MSTORE POP JUMP JUMPDEST PUSH0 PUSH2 0x14DC PUSH1 0x1A DUP4 PUSH2 0xE91 JUMP JUMPDEST SWAP2 POP PUSH2 0x14E7 DUP3 PUSH2 0x14A8 JUMP JUMPDEST PUSH1 0x20 DUP3 ADD SWAP1 POP SWAP2 SWAP1 POP JUMP JUMPDEST PUSH0 PUSH1 0x20 DUP3 ADD SWAP1 POP DUP2 DUP2 SUB PUSH0 DUP4 ADD MSTORE PUSH2 0x1509 DUP2 PUSH2 0x14D0 JUMP JUMPDEST SWAP1 POP SWAP2 SWAP1 POP JUMP JUMPDEST PUSH32 0x4E487B7100000000000000000000000000000000000000000000000000000000 PUSH0 MSTORE PUSH1 0x12 PUSH1 0x4 MSTORE PUSH1 0x24 PUSH0 REVERT JUMPDEST PUSH0 PUSH2 0x1547 DUP3 PUSH2 0xFF4 JUMP JUMPDEST SWAP2 POP PUSH2 0x1552 DUP4 PUSH2 0xFF4 JUMP JUMPDEST SWAP3 POP DUP3 PUSH2 0x1562 JUMPI PUSH2 0x1561 PUSH2 0x1510 JUMP JUMPDEST JUMPDEST DUP3 DUP3 DIV SWAP1 POP SWAP3 SWAP2 POP POP JUMP JUMPDEST PUSH2 0x1576 DUP2 PUSH2 0xFB9 JUMP JUMPDEST DUP3 MSTORE POP POP JUMP JUMPDEST PUSH0 DUP2 MLOAD SWAP1 POP SWAP2 SWAP1 POP JUMP JUMPDEST PUSH0 DUP3 DUP3 MSTORE PUSH1 0x20 DUP3 ADD SWAP1 POP SWAP3 SWAP2 POP POP JUMP JUMPDEST PUSH0 PUSH2 0x15A0 DUP3 PUSH2 0x157C JUMP JUMPDEST PUSH2 0x15AA DUP2 DUP6 PUSH2 0x1586 JUMP JUMPDEST SWAP4 POP PUSH2 0x15BA DUP2 DUP6 PUSH1 0x20 DUP7 ADD PUSH2 0xF13 JUMP JUMPDEST PUSH2 0x15C3 DUP2 PUSH2 0xF21 JUMP JUMPDEST DUP5 ADD SWAP2 POP POP SWAP3 SWAP2 POP POP JUMP JUMPDEST PUSH0 PUSH1 0x80 DUP3 ADD SWAP1 POP PUSH2 0x15E1 PUSH0 DUP4 ADD DUP8 PUSH2 0x156D JUMP JUMPDEST PUSH2 0x15EE PUSH1 0x20 DUP4 ADD DUP7 PUSH2 0x1098 JUMP JUMPDEST PUSH2 0x15FB PUSH1 0x40 DUP4 ADD DUP6 PUSH2 0x156D JUMP JUMPDEST DUP2 DUP2 SUB PUSH1 0x60 DUP4 ADD MSTORE PUSH2 0x160D DUP2 DUP5 PUSH2 0x1596 JUMP JUMPDEST SWAP1 POP SWAP6 SWAP5 POP POP POP POP POP JUMP JUMPDEST PUSH0 PUSH2 0x1622 DUP3 PUSH2 0xFF4 JUMP JUMPDEST SWAP2 POP PUSH2 0x162D DUP4 PUSH2 0xFF4 JUMP JUMPDEST SWAP3 POP DUP3 DUP3 MUL PUSH2 0x163B DUP2 PUSH2 0xFF4 JUMP JUMPDEST SWAP2 POP DUP3 DUP3 DIV DUP5 EQ DUP4 ISZERO OR PUSH2 0x1652 JUMPI PUSH2 0x1651 PUSH2 0x13E0 JUMP JUMPDEST JUMPDEST POP SWAP3 SWAP2 POP POP JUMP JUMPDEST PUSH32 0x536166654D6174683A206D756C7469706C69636174696F6E206F766572666C6F PUSH0 DUP3 ADD MSTORE PUSH32 0x7700000000000000000000000000000000000000000000000000000000000000 PUSH1 0x20 DUP3 ADD MSTORE POP JUMP JUMPDEST PUSH0 PUSH2 0x16B3 PUSH1 0x21 DUP4 PUSH2 0xE91 JUMP JUMPDEST SWAP2 POP PUSH2 0x16BE DUP3 PUSH2 0x1659 JUMP JUMPDEST PUSH1 0x40 DUP3 ADD SWAP1 POP SWAP2 SWAP1 POP JUMP JUMPDEST PUSH0 PUSH1 0x20 DUP3 ADD SWAP1 POP DUP2 DUP2 SUB PUSH0 DUP4 ADD MSTORE PUSH2 0x16E0 DUP2 PUSH2 0x16A7 JUMP JUMPDEST SWAP1 POP SWAP2 SWAP1 POP JUMP JUMPDEST PUSH0 PUSH2 0x16F1 DUP3 PUSH2 0xFF4 JUMP JUMPDEST SWAP2 POP PUSH2 0x16FC DUP4 PUSH2 0xFF4 JUMP JUMPDEST SWAP3 POP DUP3 DUP3 ADD SWAP1 POP DUP1 DUP3 GT ISZERO PUSH2 0x1714 JUMPI PUSH2 0x1713 PUSH2 0x13E0 JUMP JUMPDEST JUMPDEST SWAP3 SWAP2 POP POP JUMP JUMPDEST PUSH32 0x536166654D6174683A206164646974696F6E206F766572666C6F770000000000 PUSH0 DUP3 ADD MSTORE POP JUMP JUMPDEST PUSH0 PUSH2 0x174E PUSH1 0x1B DUP4 PUSH2 0xE91 JUMP JUMPDEST SWAP2 POP PUSH2 0x1759 DUP3 PUSH2 0x171A JUMP JUMPDEST PUSH1 0x20 DUP3 ADD SWAP1 POP SWAP2 SWAP1 POP JUMP JUMPDEST PUSH0 PUSH1 0x20 DUP3 ADD SWAP1 POP DUP2 DUP2 SUB PUSH0 DUP4 ADD MSTORE PUSH2 0x177B DUP2 PUSH2 0x1742 JUMP JUMPDEST SWAP1 POP SWAP2 SWAP1 POP JUMP INVALID LOG2 PUSH5 0x6970667358 0x22 SLT KECCAK256 0xEE MSTORE8 0xA6 SWAP16 SWAP3 EXTCODESIZE PUSH26 0xF93B58B2CF2CCA3ECC90B9F65F27FEED1727FB6ECF730E503C64 PUSH20 0x6F6C634300081A00330000000000000000000000 "
				},
				"gasEstimates": {
					"creation": {
						"codeDepositCost": "1214400",
						"executionCost": "infinite",
						"totalCost": "infinite"
					},
					"external": {
						"": "468",
						"_totalSupply()": "2492",
						"allowance(address,address)": "infinite",
						"approve(address,uint256)": "infinite",
						"approveAndCall(address,uint256,bytes)": "infinite",
						"balanceOf(address)": "2918",
						"decimals()": "2511",
						"name()": "infinite",
						"safeAdd(uint256,uint256)": "infinite",
						"safeDiv(uint256,uint256)": "infinite",
						"safeMul(uint256,uint256)": "infinite",
						"safeSub(uint256,uint256)": "infinite",
						"symbol()": "infinite",
						"totalSupply()": "infinite",
						"transfer(address,uint256)": "infinite",
						"transferFrom(address,address,uint256)": "infinite"
					}
				},
				"methodIdentifiers": {
					"_totalSupply()": "3eaaf86b",
					"allowance(address,address)": "dd62ed3e",
					"approve(address,uint256)": "095ea7b3",
					"approveAndCall(address,uint256,bytes)": "cae9ca51",
					"balanceOf(address)": "70a08231",
					"decimals()": "313ce567",
					"name()": "06fdde03",
					"safeAdd(uint256,uint256)": "e6cb9013",
					"safeDiv(uint256,uint256)": "b5931f7c",
					"safeMul(uint256,uint256)": "d05c78da",
					"safeSub(uint256,uint256)": "a293d1e8",
					"symbol()": "95d89b41",
					"totalSupply()": "18160ddd",
					"transfer(address,uint256)": "a9059cbb",
					"transferFrom(address,address,uint256)": "23b872dd"
				}
			},
			"storageLayout": {
				"storage": [
					{
						"astId": 185,
						"contract": "contracts/token.sol:DIOToken",
						"label": "symbol",
						"offset": 0,
						"slot": "0",
						"type": "t_string_storage"
					},
					{
						"astId": 187,
						"contract": "contracts/token.sol:DIOToken",
						"label": "name",
						"offset": 0,
						"slot": "1",
						"type": "t_string_storage"
					},
					{
						"astId": 189,
						"contract": "contracts/token.sol:DIOToken",
						"label": "decimals",
						"offset": 0,
						"slot": "2",
						"type": "t_uint8"
					},
					{
						"astId": 191,
						"contract": "contracts/token.sol:DIOToken",
						"label": "_totalSupply",
						"offset": 0,
						"slot": "3",
						"type": "t_uint256"
					},
					{
						"astId": 195,
						"contract": "contracts/token.sol:DIOToken",
						"label": "balances",
						"offset": 0,
						"slot": "4",
						"type": "t_mapping(t_address,t_uint256)"
					},
					{
						"astId": 201,
						"contract": "contracts/token.sol:DIOToken",
						"label": "allowed",
						"offset": 0,
						"slot": "5",
						"type": "t_mapping(t_address,t_mapping(t_address,t_uint256))"
					}
				],
				"types": {
					"t_address": {
						"encoding": "inplace",
						"label": "address",
						"numberOfBytes": "20"
					},
					"t_mapping(t_address,t_mapping(t_address,t_uint256))": {
						"encoding": "mapping",
						"key": "t_address",
						"label": "mapping(address => mapping(address => uint256))",
						"numberOfBytes": "32",
						"value": "t_mapping(t_address,t_uint256)"
					},
					"t_mapping(t_address,t_uint256)": {
						"encoding": "mapping",
						"key": "t_address",
						"label": "mapping(address => uint256)",
						"numberOfBytes": "32",
						"value": "t_uint256"
					},
					"t_string_storage": {
						"encoding": "bytes",
						"label": "string",
						"numberOfBytes": "32"
					},
					"t_uint256": {
						"encoding": "inplace",
						"label": "uint256",
						"numberOfBytes": "32"
					},
					"t_uint8": {
						"encoding": "inplace",
						"label": "uint8",
						"numberOfBytes": "1"
					}
				}
			},
			"userdoc": {
				"kind": "user",
				"methods": {},
				"version": 1
			}
		}
	}
}