{
	"contracts/token.sol": {
		"SafeMath": {
			"abi": [
				{
					"inputs": [
						{
							"internalType": "uint256",
							"name": "a",
							"type": "uint256"
						},
						{
							"internalType": "uint256",
							"name": "b",
							"type": "uint256"
						}
					],
					"name": "safeAdd",
					"outputs": [
						{
							"internalType": "uint256",
							"name": "c",
							"type": "uint256"
						}
					],
					"stateMutability": "pure",
					"type": "function"
				},
				{
					"inputs": [
						{
							"internalType": "uint256",
							"name": "a",
							"type": "uint256"
						},
						{
							"internalType": "uint256",
							"name": "b",
							"type": "uint256"
						}
					],
					"name": "safeDiv",
					"outputs": [
						{
							"internalType": "uint256",
							"name": "c",
							"type": "uint256"
						}
					],
					"stateMutability": "pure",
					"type": "function"
				},
				{
					"inputs": [
						{
							"internalType": "uint256",
							"name": "a",
							"type": "uint256"
						},
						{
							"internalType": "uint256",
							"name": "b",
							"type": "uint256"
						}
					],
					"name": "safeMul",
					"outputs": [
						{
							"internalType": "uint256",
							"name": "c",
							"type": "uint256"
						}
					],
					"stateMutability": "pure",
					"type": "function"
				},
				{
					"inputs": [
						{
							"internalType": "uint256",
							"name": "a",
							"type": "uint256"
						},
						{
							"internalType": "uint256",
							"name": "b",
							"type": "uint256"
						}
					],
					"name": "safeSub",
					"outputs": [
						{
							"internalType": "uint256",
							"name": "c",
							"type": "uint256"
						}
					],
					"stateMutability": "pure",
					"type": "function"
				}
			],
			"devdoc": {
				"kind": "dev",
				"methods": {},
				"version": 1
			},
			"evm": {
				"assembly": "    /* \"contracts/token.sol\":86:749  contract SafeMath {... */\n  mstore(0x40, 0x80)\n  callvalue\n  dup1\n  iszero\n  tag_1\n  jumpi\n  0x00\n  dup1\n  revert\ntag_1:\n  pop\n  dataSize(sub_0)\n  dup1\n  dataOffset(sub_0)\n  0x00\n  codecopy\n  0x00\n  return\nstop\n\nsub_0: assembly {\n        /* \"contracts/token.sol\":86:749  contract SafeMath {... */\n      mstore(0x40, 0x80)\n      callvalue\n      dup1\n      iszero\n      tag_1\n      jumpi\n      0x00\n      dup1\n      revert\n    tag_1:\n      pop\n      jumpi(tag_2, lt(calldatasize, 0x04))\n      shr(0xe0, calldataload(0x00))\n      dup1\n      0xa293d1e8\n      eq\n      tag_3\n      jumpi\n      dup1\n      0xb5931f7c\n      eq\n      tag_4\n      jumpi\n      dup1\n      0xd05c78da\n      eq\n      tag_5\n      jumpi\n      dup1\n      0xe6cb9013\n      eq\n      tag_6\n      jumpi\n    tag_2:\n      0x00\n      dup1\n      revert\n        /* \"contracts/token.sol\":268:418  function safeSub(uint a, uint b) public pure returns (uint c) {... */\n    tag_3:\n      tag_7\n      0x04\n      dup1\n      calldatasize\n      sub\n      dup2\n      add\n      swap1\n      tag_8\n      swap2\n      swap1\n      tag_9\n      jump\t// in\n    tag_8:\n      tag_10\n      jump\t// in\n    tag_7:\n      mload(0x40)\n      tag_11\n      swap2\n      swap1\n      tag_12\n      jump\t// in\n    tag_11:\n      mload(0x40)\n      dup1\n      swap2\n      sub\n      swap1\n      return\n        /* \"contracts/token.sol\":601:746  function safeDiv(uint a, uint b) public pure returns (uint c) {... */\n    tag_4:\n      tag_13\n      0x04\n      dup1\n      calldatasize\n      sub\n      dup2\n      add\n      swap1\n      tag_14\n      swap2\n      swap1\n      tag_9\n      jump\t// in\n    tag_14:\n      tag_15\n      jump\t// in\n    tag_13:\n      mload(0x40)\n      tag_16\n      swap2\n      swap1\n      tag_12\n      jump\t// in\n    tag_16:\n      mload(0x40)\n      dup1\n      swap2\n      sub\n      swap1\n      return\n        /* \"contracts/token.sol\":426:593  function safeMul(uint a, uint b) public pure returns (uint c) {... */\n    tag_5:\n      tag_17\n      0x04\n      dup1\n      calldatasize\n      sub\n      dup2\n      add\n      swap1\n      tag_18\n      swap2\n      swap1\n      tag_9\n      jump\t// in\n    tag_18:\n      tag_19\n      jump\t// in\n    tag_17:\n      mload(0x40)\n      tag_20\n      swap2\n      swap1\n      tag_12\n      jump\t// in\n    tag_20:\n      mload(0x40)\n      dup1\n      swap2\n      sub\n      swap1\n      return\n        /* \"contracts/token.sol\":113:260  function safeAdd(uint a, uint b) public pure returns (uint c) {... */\n    tag_6:\n      tag_21\n      0x04\n      dup1\n      calldatasize\n      sub\n      dup2\n      add\n      swap1\n      tag_22\n      swap2\n      swap1\n      tag_9\n      jump\t// in\n    tag_22:\n      tag_23\n      jump\t// in\n    tag_21:\n      mload(0x40)\n      tag_24\n      swap2\n      swap1\n      tag_12\n      jump\t// in\n    tag_24:\n      mload(0x40)\n      dup1\n      swap2\n      sub\n      swap1\n      return\n        /* \"contracts/token.sol\":268:418  function safeSub(uint a, uint b) public pure returns (uint c) {... */\n    tag_10:\n        /* \"contracts/token.sol\":322:328  uint c */\n      0x00\n        /* \"contracts/token.sol\":354:355  a */\n      dup3\n        /* \"contracts/token.sol\":349:350  b */\n      dup3\n        /* \"contracts/token.sol\":349:355  b <= a */\n      gt\n      iszero\n        /* \"contracts/token.sol\":341:390  require(b <= a, \"SafeMath: subtraction overflow\") */\n      tag_26\n      jumpi\n      mload(0x40)\n      0x08c379a000000000000000000000000000000000000000000000000000000000\n      dup2\n      mstore\n      0x04\n      add\n      tag_27\n      swap1\n      tag_28\n      jump\t// in\n    tag_27:\n      mload(0x40)\n      dup1\n      swap2\n      sub\n      swap1\n      revert\n    tag_26:\n        /* \"contracts/token.sol\":409:410  b */\n      dup2\n        /* \"contracts/token.sol\":405:406  a */\n      dup4\n        /* \"contracts/token.sol\":405:410  a - b */\n      tag_29\n      swap2\n      swap1\n      tag_30\n      jump\t// in\n    tag_29:\n        /* \"contracts/token.sol\":401:410  c = a - b */\n      swap1\n      pop\n        /* \"contracts/token.sol\":268:418  function safeSub(uint a, uint b) public pure returns (uint c) {... */\n      swap3\n      swap2\n      pop\n      pop\n      jump\t// out\n        /* \"contracts/token.sol\":601:746  function safeDiv(uint a, uint b) public pure returns (uint c) {... */\n    tag_15:\n        /* \"contracts/token.sol\":655:661  uint c */\n      0x00\n        /* \"contracts/token.sol\":686:687  0 */\n      dup1\n        /* \"contracts/token.sol\":682:683  b */\n      dup3\n        /* \"contracts/token.sol\":682:687  b > 0 */\n      gt\n        /* \"contracts/token.sol\":674:718  require(b > 0, \"SafeMath: division by zero\") */\n      tag_32\n      jumpi\n      mload(0x40)\n      0x08c379a000000000000000000000000000000000000000000000000000000000\n      dup2\n      mstore\n      0x04\n      add\n      tag_33\n      swap1\n      tag_34\n      jump\t// in\n    tag_33:\n      mload(0x40)\n      dup1\n      swap2\n      sub\n      swap1\n      revert\n    tag_32:\n        /* \"contracts/token.sol\":737:738  b */\n      dup2\n        /* \"contracts/token.sol\":733:734  a */\n      dup4\n        /* \"contracts/token.sol\":733:738  a / b */\n      tag_35\n      swap2\n      swap1\n      tag_36\n      jump\t// in\n    tag_35:\n        /* \"contracts/token.sol\":729:738  c = a / b */\n      swap1\n      pop\n        /* \"contracts/token.sol\":601:746  function safeDiv(uint a, uint b) public pure returns (uint c) {... */\n      swap3\n      swap2\n      pop\n      pop\n      jump\t// out\n        /* \"contracts/token.sol\":426:593  function safeMul(uint a, uint b) public pure returns (uint c) {... */\n    tag_19:\n        /* \"contracts/token.sol\":480:486  uint c */\n      0x00\n        /* \"contracts/token.sol\":507:508  b */\n      dup2\n        /* \"contracts/token.sol\":503:504  a */\n      dup4\n        /* \"contracts/token.sol\":503:508  a * b */\n      tag_38\n      swap2\n      swap1\n      tag_39\n      jump\t// in\n    tag_38:\n        /* \"contracts/token.sol\":499:508  c = a * b */\n      swap1\n      pop\n        /* \"contracts/token.sol\":532:533  0 */\n      0x00\n        /* \"contracts/token.sol\":527:528  a */\n      dup4\n        /* \"contracts/token.sol\":527:533  a == 0 */\n      eq\n        /* \"contracts/token.sol\":527:547  a == 0 || c / a == b */\n      dup1\n      tag_40\n      jumpi\n      pop\n        /* \"contracts/token.sol\":546:547  b */\n      dup2\n        /* \"contracts/token.sol\":541:542  a */\n      dup4\n        /* \"contracts/token.sol\":537:538  c */\n      dup3\n        /* \"contracts/token.sol\":537:542  c / a */\n      tag_41\n      swap2\n      swap1\n      tag_36\n      jump\t// in\n    tag_41:\n        /* \"contracts/token.sol\":537:547  c / a == b */\n      eq\n        /* \"contracts/token.sol\":527:547  a == 0 || c / a == b */\n    tag_40:\n        /* \"contracts/token.sol\":519:585  require(a == 0 || c / a == b, \"SafeMath: multiplication overflow\") */\n      tag_42\n      jumpi\n      mload(0x40)\n      0x08c379a000000000000000000000000000000000000000000000000000000000\n      dup2\n      mstore\n      0x04\n      add\n      tag_43\n      swap1\n      tag_44\n      jump\t// in\n    tag_43:\n      mload(0x40)\n      dup1\n      swap2\n      sub\n      swap1\n      revert\n    tag_42:\n        /* \"contracts/token.sol\":426:593  function safeMul(uint a, uint b) public pure returns (uint c) {... */\n      swap3\n      swap2\n      pop\n      pop\n      jump\t// out\n        /* \"contracts/token.sol\":113:260  function safeAdd(uint a, uint b) public pure returns (uint c) {... */\n    tag_23:\n        /* \"contracts/token.sol\":167:173  uint c */\n      0x00\n        /* \"contracts/token.sol\":194:195  b */\n      dup2\n        /* \"contracts/token.sol\":190:191  a */\n      dup4\n        /* \"contracts/token.sol\":190:195  a + b */\n      tag_46\n      swap2\n      swap1\n      tag_47\n      jump\t// in\n    tag_46:\n        /* \"contracts/token.sol\":186:195  c = a + b */\n      swap1\n      pop\n        /* \"contracts/token.sol\":219:220  a */\n      dup3\n        /* \"contracts/token.sol\":214:215  c */\n      dup2\n        /* \"contracts/token.sol\":214:220  c >= a */\n      lt\n      iszero\n        /* \"contracts/token.sol\":206:252  require(c >= a, \"SafeMath: addition overflow\") */\n      tag_48\n      jumpi\n      mload(0x40)\n      0x08c379a000000000000000000000000000000000000000000000000000000000\n      dup2\n      mstore\n      0x04\n      add\n      tag_49\n      swap1\n      tag_50\n      jump\t// in\n    tag_49:\n      mload(0x40)\n      dup1\n      swap2\n      sub\n      swap1\n      revert\n    tag_48:\n        /* \"contracts/token.sol\":113:260  function safeAdd(uint a, uint b) public pure returns (uint c) {... */\n      swap3\n      swap2\n      pop\n      pop\n      jump\t// out\n        /* \"#utility.yul\":88:205   */\n    tag_52:\n        /* \"#utility.yul\":197:198   */\n      0x00\n        /* \"#utility.yul\":194:195   */\n      dup1\n        /* \"#utility.yul\":187:199   */\n      revert\n        /* \"#utility.yul\":334:411   */\n    tag_54:\n        /* \"#utility.yul\":371:378   */\n      0x00\n        /* \"#utility.yul\":400:405   */\n      dup2\n        /* \"#utility.yul\":389:405   */\n      swap1\n      pop\n        /* \"#utility.yul\":334:411   */\n      swap2\n      swap1\n      pop\n      jump\t// out\n        /* \"#utility.yul\":417:539   */\n    tag_55:\n        /* \"#utility.yul\":490:514   */\n      tag_75\n        /* \"#utility.yul\":508:513   */\n      dup2\n        /* \"#utility.yul\":490:514   */\n      tag_54\n      jump\t// in\n    tag_75:\n        /* \"#utility.yul\":483:488   */\n      dup2\n        /* \"#utility.yul\":480:515   */\n      eq\n        /* \"#utility.yul\":470:533   */\n      tag_76\n      jumpi\n        /* \"#utility.yul\":529:530   */\n      0x00\n        /* \"#utility.yul\":526:527   */\n      dup1\n        /* \"#utility.yul\":519:531   */\n      revert\n        /* \"#utility.yul\":470:533   */\n    tag_76:\n        /* \"#utility.yul\":417:539   */\n      pop\n      jump\t// out\n        /* \"#utility.yul\":545:684   */\n    tag_56:\n        /* \"#utility.yul\":591:596   */\n      0x00\n        /* \"#utility.yul\":629:635   */\n      dup2\n        /* \"#utility.yul\":616:636   */\n      calldataload\n        /* \"#utility.yul\":607:636   */\n      swap1\n      pop\n        /* \"#utility.yul\":645:678   */\n      tag_78\n        /* \"#utility.yul\":672:677   */\n      dup2\n        /* \"#utility.yul\":645:678   */\n      tag_55\n      jump\t// in\n    tag_78:\n        /* \"#utility.yul\":545:684   */\n      swap3\n      swap2\n      pop\n      pop\n      jump\t// out\n        /* \"#utility.yul\":690:1164   */\n    tag_9:\n        /* \"#utility.yul\":758:764   */\n      0x00\n        /* \"#utility.yul\":766:772   */\n      dup1\n        /* \"#utility.yul\":815:817   */\n      0x40\n        /* \"#utility.yul\":803:812   */\n      dup4\n        /* \"#utility.yul\":794:801   */\n      dup6\n        /* \"#utility.yul\":790:813   */\n      sub\n        /* \"#utility.yul\":786:818   */\n      slt\n        /* \"#utility.yul\":783:902   */\n      iszero\n      tag_80\n      jumpi\n        /* \"#utility.yul\":821:900   */\n      tag_81\n      tag_52\n      jump\t// in\n    tag_81:\n        /* \"#utility.yul\":783:902   */\n    tag_80:\n        /* \"#utility.yul\":941:942   */\n      0x00\n        /* \"#utility.yul\":966:1019   */\n      tag_82\n        /* \"#utility.yul\":1011:1018   */\n      dup6\n        /* \"#utility.yul\":1002:1008   */\n      dup3\n        /* \"#utility.yul\":991:1000   */\n      dup7\n        /* \"#utility.yul\":987:1009   */\n      add\n        /* \"#utility.yul\":966:1019   */\n      tag_56\n      jump\t// in\n    tag_82:\n        /* \"#utility.yul\":956:1019   */\n      swap3\n      pop\n        /* \"#utility.yul\":912:1029   */\n      pop\n        /* \"#utility.yul\":1068:1070   */\n      0x20\n        /* \"#utility.yul\":1094:1147   */\n      tag_83\n        /* \"#utility.yul\":1139:1146   */\n      dup6\n        /* \"#utility.yul\":1130:1136   */\n      dup3\n        /* \"#utility.yul\":1119:1128   */\n      dup7\n        /* \"#utility.yul\":1115:1137   */\n      add\n        /* \"#utility.yul\":1094:1147   */\n      tag_56\n      jump\t// in\n    tag_83:\n        /* \"#utility.yul\":1084:1147   */\n      swap2\n      pop\n        /* \"#utility.yul\":1039:1157   */\n      pop\n        /* \"#utility.yul\":690:1164   */\n      swap3\n      pop\n      swap3\n      swap1\n      pop\n      jump\t// out\n        /* \"#utility.yul\":1170:1288   */\n    tag_57:\n        /* \"#utility.yul\":1257:1281   */\n      tag_85\n        /* \"#utility.yul\":1275:1280   */\n      dup2\n        /* \"#utility.yul\":1257:1281   */\n      tag_54\n      jump\t// in\n    tag_85:\n        /* \"#utility.yul\":1252:1255   */\n      dup3\n        /* \"#utility.yul\":1245:1282   */\n      mstore\n        /* \"#utility.yul\":1170:1288   */\n      pop\n      pop\n      jump\t// out\n        /* \"#utility.yul\":1294:1516   */\n    tag_12:\n        /* \"#utility.yul\":1387:1391   */\n      0x00\n        /* \"#utility.yul\":1425:1427   */\n      0x20\n        /* \"#utility.yul\":1414:1423   */\n      dup3\n        /* \"#utility.yul\":1410:1428   */\n      add\n        /* \"#utility.yul\":1402:1428   */\n      swap1\n      pop\n        /* \"#utility.yul\":1438:1509   */\n      tag_87\n        /* \"#utility.yul\":1506:1507   */\n      0x00\n        /* \"#utility.yul\":1495:1504   */\n      dup4\n        /* \"#utility.yul\":1491:1508   */\n      add\n        /* \"#utility.yul\":1482:1488   */\n      dup5\n        /* \"#utility.yul\":1438:1509   */\n      tag_57\n      jump\t// in\n    tag_87:\n        /* \"#utility.yul\":1294:1516   */\n      swap3\n      swap2\n      pop\n      pop\n      jump\t// out\n        /* \"#utility.yul\":1522:1691   */\n    tag_58:\n        /* \"#utility.yul\":1606:1617   */\n      0x00\n        /* \"#utility.yul\":1640:1646   */\n      dup3\n        /* \"#utility.yul\":1635:1638   */\n      dup3\n        /* \"#utility.yul\":1628:1647   */\n      mstore\n        /* \"#utility.yul\":1680:1684   */\n      0x20\n        /* \"#utility.yul\":1675:1678   */\n      dup3\n        /* \"#utility.yul\":1671:1685   */\n      add\n        /* \"#utility.yul\":1656:1685   */\n      swap1\n      pop\n        /* \"#utility.yul\":1522:1691   */\n      swap3\n      swap2\n      pop\n      pop\n      jump\t// out\n        /* \"#utility.yul\":1697:1877   */\n    tag_59:\n        /* \"#utility.yul\":1837:1869   */\n      0x536166654d6174683a207375627472616374696f6e206f766572666c6f770000\n        /* \"#utility.yul\":1833:1834   */\n      0x00\n        /* \"#utility.yul\":1825:1831   */\n      dup3\n        /* \"#utility.yul\":1821:1835   */\n      add\n        /* \"#utility.yul\":1814:1870   */\n      mstore\n        /* \"#utility.yul\":1697:1877   */\n      pop\n      jump\t// out\n        /* \"#utility.yul\":1883:2249   */\n    tag_60:\n        /* \"#utility.yul\":2025:2028   */\n      0x00\n        /* \"#utility.yul\":2046:2113   */\n      tag_91\n        /* \"#utility.yul\":2110:2112   */\n      0x1e\n        /* \"#utility.yul\":2105:2108   */\n      dup4\n        /* \"#utility.yul\":2046:2113   */\n      tag_58\n      jump\t// in\n    tag_91:\n        /* \"#utility.yul\":2039:2113   */\n      swap2\n      pop\n        /* \"#utility.yul\":2122:2215   */\n      tag_92\n        /* \"#utility.yul\":2211:2214   */\n      dup3\n        /* \"#utility.yul\":2122:2215   */\n      tag_59\n      jump\t// in\n    tag_92:\n        /* \"#utility.yul\":2240:2242   */\n      0x20\n        /* \"#utility.yul\":2235:2238   */\n      dup3\n        /* \"#utility.yul\":2231:2243   */\n      add\n        /* \"#utility.yul\":2224:2243   */\n      swap1\n      pop\n        /* \"#utility.yul\":1883:2249   */\n      swap2\n      swap1\n      pop\n      jump\t// out\n        /* \"#utility.yul\":2255:2674   */\n    tag_28:\n        /* \"#utility.yul\":2421:2425   */\n      0x00\n        /* \"#utility.yul\":2459:2461   */\n      0x20\n        /* \"#utility.yul\":2448:2457   */\n      dup3\n        /* \"#utility.yul\":2444:2462   */\n      add\n        /* \"#utility.yul\":2436:2462   */\n      swap1\n      pop\n        /* \"#utility.yul\":2508:2517   */\n      dup2\n        /* \"#utility.yul\":2502:2506   */\n      dup2\n        /* \"#utility.yul\":2498:2518   */\n      sub\n        /* \"#utility.yul\":2494:2495   */\n      0x00\n        /* \"#utility.yul\":2483:2492   */\n      dup4\n        /* \"#utility.yul\":2479:2496   */\n      add\n        /* \"#utility.yul\":2472:2519   */\n      mstore\n        /* \"#utility.yul\":2536:2667   */\n      tag_94\n        /* \"#utility.yul\":2662:2666   */\n      dup2\n        /* \"#utility.yul\":2536:2667   */\n      tag_60\n      jump\t// in\n    tag_94:\n        /* \"#utility.yul\":2528:2667   */\n      swap1\n      pop\n        /* \"#utility.yul\":2255:2674   */\n      swap2\n      swap1\n      pop\n      jump\t// out\n        /* \"#utility.yul\":2680:2860   */\n    tag_61:\n        /* \"#utility.yul\":2728:2805   */\n      0x4e487b7100000000000000000000000000000000000000000000000000000000\n        /* \"#utility.yul\":2725:2726   */\n      0x00\n        /* \"#utility.yul\":2718:2806   */\n      mstore\n        /* \"#utility.yul\":2825:2829   */\n      0x11\n        /* \"#utility.yul\":2822:2823   */\n      0x04\n        /* \"#utility.yul\":2815:2830   */\n      mstore\n        /* \"#utility.yul\":2849:2853   */\n      0x24\n        /* \"#utility.yul\":2846:2847   */\n      0x00\n        /* \"#utility.yul\":2839:2854   */\n      revert\n        /* \"#utility.yul\":2866:3060   */\n    tag_30:\n        /* \"#utility.yul\":2906:2910   */\n      0x00\n        /* \"#utility.yul\":2926:2946   */\n      tag_97\n        /* \"#utility.yul\":2944:2945   */\n      dup3\n        /* \"#utility.yul\":2926:2946   */\n      tag_54\n      jump\t// in\n    tag_97:\n        /* \"#utility.yul\":2921:2946   */\n      swap2\n      pop\n        /* \"#utility.yul\":2960:2980   */\n      tag_98\n        /* \"#utility.yul\":2978:2979   */\n      dup4\n        /* \"#utility.yul\":2960:2980   */\n      tag_54\n      jump\t// in\n    tag_98:\n        /* \"#utility.yul\":2955:2980   */\n      swap3\n      pop\n        /* \"#utility.yul\":3004:3005   */\n      dup3\n        /* \"#utility.yul\":3001:3002   */\n      dup3\n        /* \"#utility.yul\":2997:3006   */\n      sub\n        /* \"#utility.yul\":2989:3006   */\n      swap1\n      pop\n        /* \"#utility.yul\":3028:3029   */\n      dup2\n        /* \"#utility.yul\":3022:3026   */\n      dup2\n        /* \"#utility.yul\":3019:3030   */\n      gt\n        /* \"#utility.yul\":3016:3053   */\n      iszero\n      tag_99\n      jumpi\n        /* \"#utility.yul\":3033:3051   */\n      tag_100\n      tag_61\n      jump\t// in\n    tag_100:\n        /* \"#utility.yul\":3016:3053   */\n    tag_99:\n        /* \"#utility.yul\":2866:3060   */\n      swap3\n      swap2\n      pop\n      pop\n      jump\t// out\n        /* \"#utility.yul\":3066:3242   */\n    tag_62:\n        /* \"#utility.yul\":3206:3234   */\n      0x536166654d6174683a206469766973696f6e206279207a65726f000000000000\n        /* \"#utility.yul\":3202:3203   */\n      0x00\n        /* \"#utility.yul\":3194:3200   */\n      dup3\n        /* \"#utility.yul\":3190:3204   */\n      add\n        /* \"#utility.yul\":3183:3235   */\n      mstore\n        /* \"#utility.yul\":3066:3242   */\n      pop\n      jump\t// out\n        /* \"#utility.yul\":3248:3614   */\n    tag_63:\n        /* \"#utility.yul\":3390:3393   */\n      0x00\n        /* \"#utility.yul\":3411:3478   */\n      tag_103\n        /* \"#utility.yul\":3475:3477   */\n      0x1a\n        /* \"#utility.yul\":3470:3473   */\n      dup4\n        /* \"#utility.yul\":3411:3478   */\n      tag_58\n      jump\t// in\n    tag_103:\n        /* \"#utility.yul\":3404:3478   */\n      swap2\n      pop\n        /* \"#utility.yul\":3487:3580   */\n      tag_104\n        /* \"#utility.yul\":3576:3579   */\n      dup3\n        /* \"#utility.yul\":3487:3580   */\n      tag_62\n      jump\t// in\n    tag_104:\n        /* \"#utility.yul\":3605:3607   */\n      0x20\n        /* \"#utility.yul\":3600:3603   */\n      dup3\n        /* \"#utility.yul\":3596:3608   */\n      add\n        /* \"#utility.yul\":3589:3608   */\n      swap1\n      pop\n        /* \"#utility.yul\":3248:3614   */\n      swap2\n      swap1\n      pop\n      jump\t// out\n        /* \"#utility.yul\":3620:4039   */\n    tag_34:\n        /* \"#utility.yul\":3786:3790   */\n      0x00\n        /* \"#utility.yul\":3824:3826   */\n      0x20\n        /* \"#utility.yul\":3813:3822   */\n      dup3\n        /* \"#utility.yul\":3809:3827   */\n      add\n        /* \"#utility.yul\":3801:3827   */\n      swap1\n      pop\n        /* \"#utility.yul\":3873:3882   */\n      dup2\n        /* \"#utility.yul\":3867:3871   */\n      dup2\n        /* \"#utility.yul\":3863:3883   */\n      sub\n        /* \"#utility.yul\":3859:3860   */\n      0x00\n        /* \"#utility.yul\":3848:3857   */\n      dup4\n        /* \"#utility.yul\":3844:3861   */\n      add\n        /* \"#utility.yul\":3837:3884   */\n      mstore\n        /* \"#utility.yul\":3901:4032   */\n      tag_106\n        /* \"#utility.yul\":4027:4031   */\n      dup2\n        /* \"#utility.yul\":3901:4032   */\n      tag_63\n      jump\t// in\n    tag_106:\n        /* \"#utility.yul\":3893:4032   */\n      swap1\n      pop\n        /* \"#utility.yul\":3620:4039   */\n      swap2\n      swap1\n      pop\n      jump\t// out\n        /* \"#utility.yul\":4045:4225   */\n    tag_64:\n        /* \"#utility.yul\":4093:4170   */\n      0x4e487b7100000000000000000000000000000000000000000000000000000000\n        /* \"#utility.yul\":4090:4091   */\n      0x00\n        /* \"#utility.yul\":4083:4171   */\n      mstore\n        /* \"#utility.yul\":4190:4194   */\n      0x12\n        /* \"#utility.yul\":4187:4188   */\n      0x04\n        /* \"#utility.yul\":4180:4195   */\n      mstore\n        /* \"#utility.yul\":4214:4218   */\n      0x24\n        /* \"#utility.yul\":4211:4212   */\n      0x00\n        /* \"#utility.yul\":4204:4219   */\n      revert\n        /* \"#utility.yul\":4231:4416   */\n    tag_36:\n        /* \"#utility.yul\":4271:4272   */\n      0x00\n        /* \"#utility.yul\":4288:4308   */\n      tag_109\n        /* \"#utility.yul\":4306:4307   */\n      dup3\n        /* \"#utility.yul\":4288:4308   */\n      tag_54\n      jump\t// in\n    tag_109:\n        /* \"#utility.yul\":4283:4308   */\n      swap2\n      pop\n        /* \"#utility.yul\":4322:4342   */\n      tag_110\n        /* \"#utility.yul\":4340:4341   */\n      dup4\n        /* \"#utility.yul\":4322:4342   */\n      tag_54\n      jump\t// in\n    tag_110:\n        /* \"#utility.yul\":4317:4342   */\n      swap3\n      pop\n        /* \"#utility.yul\":4361:4362   */\n      dup3\n        /* \"#utility.yul\":4351:4386   */\n      tag_111\n      jumpi\n        /* \"#utility.yul\":4366:4384   */\n      tag_112\n      tag_64\n      jump\t// in\n    tag_112:\n        /* \"#utility.yul\":4351:4386   */\n    tag_111:\n        /* \"#utility.yul\":4408:4409   */\n      dup3\n        /* \"#utility.yul\":4405:4406   */\n      dup3\n        /* \"#utility.yul\":4401:4410   */\n      div\n        /* \"#utility.yul\":4396:4410   */\n      swap1\n      pop\n        /* \"#utility.yul\":4231:4416   */\n      swap3\n      swap2\n      pop\n      pop\n      jump\t// out\n        /* \"#utility.yul\":4422:4832   */\n    tag_39:\n        /* \"#utility.yul\":4462:4469   */\n      0x00\n        /* \"#utility.yul\":4485:4505   */\n      tag_114\n        /* \"#utility.yul\":4503:4504   */\n      dup3\n        /* \"#utility.yul\":4485:4505   */\n      tag_54\n      jump\t// in\n    tag_114:\n        /* \"#utility.yul\":4480:4505   */\n      swap2\n      pop\n        /* \"#utility.yul\":4519:4539   */\n      tag_115\n        /* \"#utility.yul\":4537:4538   */\n      dup4\n        /* \"#utility.yul\":4519:4539   */\n      tag_54\n      jump\t// in\n    tag_115:\n        /* \"#utility.yul\":4514:4539   */\n      swap3\n      pop\n        /* \"#utility.yul\":4574:4575   */\n      dup3\n        /* \"#utility.yul\":4571:4572   */\n      dup3\n        /* \"#utility.yul\":4567:4576   */\n      mul\n        /* \"#utility.yul\":4596:4626   */\n      tag_116\n        /* \"#utility.yul\":4614:4625   */\n      dup2\n        /* \"#utility.yul\":4596:4626   */\n      tag_54\n      jump\t// in\n    tag_116:\n        /* \"#utility.yul\":4585:4626   */\n      swap2\n      pop\n        /* \"#utility.yul\":4775:4776   */\n      dup3\n        /* \"#utility.yul\":4766:4773   */\n      dup3\n        /* \"#utility.yul\":4762:4777   */\n      div\n        /* \"#utility.yul\":4759:4760   */\n      dup5\n        /* \"#utility.yul\":4756:4778   */\n      eq\n        /* \"#utility.yul\":4736:4737   */\n      dup4\n        /* \"#utility.yul\":4729:4738   */\n      iszero\n        /* \"#utility.yul\":4709:4792   */\n      or\n        /* \"#utility.yul\":4686:4825   */\n      tag_117\n      jumpi\n        /* \"#utility.yul\":4805:4823   */\n      tag_118\n      tag_61\n      jump\t// in\n    tag_118:\n        /* \"#utility.yul\":4686:4825   */\n    tag_117:\n        /* \"#utility.yul\":4470:4832   */\n      pop\n        /* \"#utility.yul\":4422:4832   */\n      swap3\n      swap2\n      pop\n      pop\n      jump\t// out\n        /* \"#utility.yul\":4838:5058   */\n    tag_65:\n        /* \"#utility.yul\":4978:5012   */\n      0x536166654d6174683a206d756c7469706c69636174696f6e206f766572666c6f\n        /* \"#utility.yul\":4974:4975   */\n      0x00\n        /* \"#utility.yul\":4966:4972   */\n      dup3\n        /* \"#utility.yul\":4962:4976   */\n      add\n        /* \"#utility.yul\":4955:5013   */\n      mstore\n        /* \"#utility.yul\":5047:5050   */\n      0x7700000000000000000000000000000000000000000000000000000000000000\n        /* \"#utility.yul\":5042:5044   */\n      0x20\n        /* \"#utility.yul\":5034:5040   */\n      dup3\n        /* \"#utility.yul\":5030:5045   */\n      add\n        /* \"#utility.yul\":5023:5051   */\n      mstore\n        /* \"#utility.yul\":4838:5058   */\n      pop\n      jump\t// out\n        /* \"#utility.yul\":5064:5430   */\n    tag_66:\n        /* \"#utility.yul\":5206:5209   */\n      0x00\n        /* \"#utility.yul\":5227:5294   */\n      tag_121\n        /* \"#utility.yul\":5291:5293   */\n      0x21\n        /* \"#utility.yul\":5286:5289   */\n      dup4\n        /* \"#utility.yul\":5227:5294   */\n      tag_58\n      jump\t// in\n    tag_121:\n        /* \"#utility.yul\":5220:5294   */\n      swap2\n      pop\n        /* \"#utility.yul\":5303:5396   */\n      tag_122\n        /* \"#utility.yul\":5392:5395   */\n      dup3\n        /* \"#utility.yul\":5303:5396   */\n      tag_65\n      jump\t// in\n    tag_122:\n        /* \"#utility.yul\":5421:5423   */\n      0x40\n        /* \"#utility.yul\":5416:5419   */\n      dup3\n        /* \"#utility.yul\":5412:5424   */\n      add\n        /* \"#utility.yul\":5405:5424   */\n      swap1\n      pop\n        /* \"#utility.yul\":5064:5430   */\n      swap2\n      swap1\n      pop\n      jump\t// out\n        /* \"#utility.yul\":5436:5855   */\n    tag_44:\n        /* \"#utility.yul\":5602:5606   */\n      0x00\n        /* \"#utility.yul\":5640:5642   */\n      0x20\n        /* \"#utility.yul\":5629:5638   */\n      dup3\n        /* \"#utility.yul\":5625:5643   */\n      add\n        /* \"#utility.yul\":5617:5643   */\n      swap1\n      pop\n        /* \"#utility.yul\":5689:5698   */\n      dup2\n        /* \"#utility.yul\":5683:5687   */\n      dup2\n        /* \"#utility.yul\":5679:5699   */\n      sub\n        /* \"#utility.yul\":5675:5676   */\n      0x00\n        /* \"#utility.yul\":5664:5673   */\n      dup4\n        /* \"#utility.yul\":5660:5677   */\n      add\n        /* \"#utility.yul\":5653:5700   */\n      mstore\n        /* \"#utility.yul\":5717:5848   */\n      tag_124\n        /* \"#utility.yul\":5843:5847   */\n      dup2\n        /* \"#utility.yul\":5717:5848   */\n      tag_66\n      jump\t// in\n    tag_124:\n        /* \"#utility.yul\":5709:5848   */\n      swap1\n      pop\n        /* \"#utility.yul\":5436:5855   */\n      swap2\n      swap1\n      pop\n      jump\t// out\n        /* \"#utility.yul\":5861:6052   */\n    tag_47:\n        /* \"#utility.yul\":5901:5904   */\n      0x00\n        /* \"#utility.yul\":5920:5940   */\n      tag_126\n        /* \"#utility.yul\":5938:5939   */\n      dup3\n        /* \"#utility.yul\":5920:5940   */\n      tag_54\n      jump\t// in\n    tag_126:\n        /* \"#utility.yul\":5915:5940   */\n      swap2\n      pop\n        /* \"#utility.yul\":5954:5974   */\n      tag_127\n        /* \"#utility.yul\":5972:5973   */\n      dup4\n        /* \"#utility.yul\":5954:5974   */\n      tag_54\n      jump\t// in\n    tag_127:\n        /* \"#utility.yul\":5949:5974   */\n      swap3\n      pop\n        /* \"#utility.yul\":5997:5998   */\n      dup3\n        /* \"#utility.yul\":5994:5995   */\n      dup3\n        /* \"#utility.yul\":5990:5999   */\n      add\n        /* \"#utility.yul\":5983:5999   */\n      swap1\n      pop\n        /* \"#utility.yul\":6018:6021   */\n      dup1\n        /* \"#utility.yul\":6015:6016   */\n      dup3\n        /* \"#utility.yul\":6012:6022   */\n      gt\n        /* \"#utility.yul\":6009:6045   */\n      iszero\n      tag_128\n      jumpi\n        /* \"#utility.yul\":6025:6043   */\n      tag_129\n      tag_61\n      jump\t// in\n    tag_129:\n        /* \"#utility.yul\":6009:6045   */\n    tag_128:\n        /* \"#utility.yul\":5861:6052   */\n      swap3\n      swap2\n      pop\n      pop\n      jump\t// out\n        /* \"#utility.yul\":6058:6235   */\n    tag_67:\n        /* \"#utility.yul\":6198:6227   */\n      0x536166654d6174683a206164646974696f6e206f766572666c6f770000000000\n        /* \"#utility.yul\":6194:6195   */\n      0x00\n        /* \"#utility.yul\":6186:6192   */\n      dup3\n        /* \"#utility.yul\":6182:6196   */\n      add\n        /* \"#utility.yul\":6175:6228   */\n      mstore\n        /* \"#utility.yul\":6058:6235   */\n      pop\n      jump\t// out\n        /* \"#utility.yul\":6241:6607   */\n    tag_68:\n        /* \"#utility.yul\":6383:6386   */\n      0x00\n        /* \"#utility.yul\":6404:6471   */\n      tag_132\n        /* \"#utility.yul\":6468:6470   */\n      0x1b\n        /* \"#utility.yul\":6463:6466   */\n      dup4\n        /* \"#utility.yul\":6404:6471   */\n      tag_58\n      jump\t// in\n    tag_132:\n        /* \"#utility.yul\":6397:6471   */\n      swap2\n      pop\n        /* \"#utility.yul\":6480:6573   */\n      tag_133\n        /* \"#utility.yul\":6569:6572   */\n      dup3\n        /* \"#utility.yul\":6480:6573   */\n      tag_67\n      jump\t// in\n    tag_133:\n        /* \"#utility.yul\":6598:6600   */\n      0x20\n        /* \"#utility.yul\":6593:6596   */\n      dup3\n        /* \"#utility.yul\":6589:6601   */\n      add\n        /* \"#utility.yul\":6582:6601   */\n      swap1\n      pop\n        /* \"#utility.yul\":6241:6607   */\n      swap2\n      swap1\n      pop\n      jump\t// out\n        /* \"#utility.yul\":6613:7032   */\n    tag_50:\n        /* \"#utility.yul\":6779:6783   */\n      0x00\n        /* \"#utility.yul\":6817:6819   */\n      0x20\n        /* \"#utility.yul\":6806:6815   */\n      dup3\n        /* \"#utility.yul\":6802:6820   */\n      add\n        /* \"#utility.yul\":6794:6820   */\n      swap1\n      pop\n        /* \"#utility.yul\":6866:6875   */\n      dup2\n        /* \"#utility.yul\":6860:6864   */\n      dup2\n        /* \"#utility.yul\":6856:6876   */\n      sub\n        /* \"#utility.yul\":6852:6853   */\n      0x00\n        /* \"#utility.yul\":6841:6850   */\n      dup4\n        /* \"#utility.yul\":6837:6854   */\n      add\n        /* \"#utility.yul\":6830:6877   */\n      mstore\n        /* \"#utility.yul\":6894:7025   */\n      tag_135\n        /* \"#utility.yul\":7020:7024   */\n      dup2\n        /* \"#utility.yul\":6894:7025   */\n      tag_68\n      jump\t// in\n    tag_135:\n        /* \"#utility.yul\":6886:7025   */\n      swap1\n      pop\n        /* \"#utility.yul\":6613:7032   */\n      swap2\n      swap1\n      pop\n      jump\t// out\n\n    auxdata: 0xa2646970667358221220f0d9102a8b59718af709a2d8f693dcfdfdae3215c99d0e0f986587642bc52bfa64736f6c634300081a0033\n}\n",
				"bytecode": {
					"linkReferences": {},
					"object": "6080604052348015600e575f80fd5b5061065b8061001c5f395ff3fe608060405234801561000f575f80fd5b506004361061004a575f3560e01c8063a293d1e81461004e578063b5931f7c1461007e578063d05c78da146100ae578063e6cb9013146100de575b5f80fd5b610068600480360381019061006391906102b8565b61010e565b6040516100759190610305565b60405180910390f35b610098600480360381019061009391906102b8565b610166565b6040516100a59190610305565b60405180910390f35b6100c860048036038101906100c391906102b8565b6101bd565b6040516100d59190610305565b60405180910390f35b6100f860048036038101906100f391906102b8565b610229565b6040516101059190610305565b60405180910390f35b5f82821115610152576040517f08c379a000000000000000000000000000000000000000000000000000000000815260040161014990610378565b60405180910390fd5b818361015e91906103c3565b905092915050565b5f8082116101a9576040517f08c379a00000000000000000000000000000000000000000000000000000000081526004016101a090610440565b60405180910390fd5b81836101b5919061048b565b905092915050565b5f81836101ca91906104bb565b90505f8314806101e457508183826101e2919061048b565b145b610223576040517f08c379a000000000000000000000000000000000000000000000000000000000815260040161021a9061056c565b60405180910390fd5b92915050565b5f8183610236919061058a565b90508281101561027b576040517f08c379a000000000000000000000000000000000000000000000000000000000815260040161027290610607565b60405180910390fd5b92915050565b5f80fd5b5f819050919050565b61029781610285565b81146102a1575f80fd5b50565b5f813590506102b28161028e565b92915050565b5f80604083850312156102ce576102cd610281565b5b5f6102db858286016102a4565b92505060206102ec858286016102a4565b9150509250929050565b6102ff81610285565b82525050565b5f6020820190506103185f8301846102f6565b92915050565b5f82825260208201905092915050565b7f536166654d6174683a207375627472616374696f6e206f766572666c6f7700005f82015250565b5f610362601e8361031e565b915061036d8261032e565b602082019050919050565b5f6020820190508181035f83015261038f81610356565b9050919050565b7f4e487b71000000000000000000000000000000000000000000000000000000005f52601160045260245ffd5b5f6103cd82610285565b91506103d883610285565b92508282039050818111156103f0576103ef610396565b5b92915050565b7f536166654d6174683a206469766973696f6e206279207a65726f0000000000005f82015250565b5f61042a601a8361031e565b9150610435826103f6565b602082019050919050565b5f6020820190508181035f8301526104578161041e565b9050919050565b7f4e487b71000000000000000000000000000000000000000000000000000000005f52601260045260245ffd5b5f61049582610285565b91506104a083610285565b9250826104b0576104af61045e565b5b828204905092915050565b5f6104c582610285565b91506104d083610285565b92508282026104de81610285565b915082820484148315176104f5576104f4610396565b5b5092915050565b7f536166654d6174683a206d756c7469706c69636174696f6e206f766572666c6f5f8201527f7700000000000000000000000000000000000000000000000000000000000000602082015250565b5f61055660218361031e565b9150610561826104fc565b604082019050919050565b5f6020820190508181035f8301526105838161054a565b9050919050565b5f61059482610285565b915061059f83610285565b92508282019050808211156105b7576105b6610396565b5b92915050565b7f536166654d6174683a206164646974696f6e206f766572666c6f7700000000005f82015250565b5f6105f1601b8361031e565b91506105fc826105bd565b602082019050919050565b5f6020820190508181035f83015261061e816105e5565b905091905056fea2646970667358221220f0d9102a8b59718af709a2d8f693dcfdfdae3215c99d0e0f986587642bc52bfa64736f6c634300081a0033",
					"opcodes": "PUSH1 0x80 PUSH1 0x40 MSTORE CALLVALUE DUP1 ISZERO PUSH1 0xE JUMPI PUSH0 DUP1 REVERT JUMPDEST POP PUSH2 0x65B DUP1 PUSH2 0x1C PUSH0 CODECOPY PUSH0 RETURN INVALID PUSH1 0x80 PUSH1 0x40 MSTORE CALLVALUE DUP1 ISZERO PUSH2 0xF JUMPI PUSH0 DUP1 REVERT JUMPDEST POP PUSH1 0x4 CALLDATASIZE LT PUSH2 0x4A JUMPI PUSH0 CALLDATALOAD PUSH1 0xE0 SHR DUP1 PUSH4 0xA293D1E8 EQ PUSH2 0x4E JUMPI DUP1 PUSH4 0xB5931F7C EQ PUSH2 0x7E JUMPI DUP1 PUSH4 0xD05C78DA EQ PUSH2 0xAE JUMPI DUP1 PUSH4 0xE6CB9013 EQ PUSH2 0xDE JUMPI JUMPDEST PUSH0 DUP1 REVERT JUMPDEST PUSH2 0x68 PUSH1 0x4 DUP1 CALLDATASIZE SUB DUP2 ADD SWAP1 PUSH2 0x63 SWAP2 SWAP1 PUSH2 0x2B8 JUMP JUMPDEST PUSH2 0x10E JUMP JUMPDEST PUSH1 0x40 MLOAD PUSH2 0x75 SWAP2 SWAP1 PUSH2 0x305 JUMP JUMPDEST PUSH1 0x40 MLOAD DUP1 SWAP2 SUB SWAP1 RETURN JUMPDEST PUSH2 0x98 PUSH1 0x4 DUP1 CALLDATASIZE SUB DUP2 ADD SWAP1 PUSH2 0x93 SWAP2 SWAP1 PUSH2 0x2B8 JUMP JUMPDEST PUSH2 0x166 JUMP JUMPDEST PUSH1 0x40 MLOAD PUSH2 0xA5 SWAP2 SWAP1 PUSH2 0x305 JUMP JUMPDEST PUSH1 0x40 MLOAD DUP1 SWAP2 SUB SWAP1 RETURN JUMPDEST PUSH2 0xC8 PUSH1 0x4 DUP1 CALLDATASIZE SUB DUP2 ADD SWAP1 PUSH2 0xC3 SWAP2 SWAP1 PUSH2 0x2B8 JUMP JUMPDEST PUSH2 0x1BD JUMP JUMPDEST PUSH1 0x40 MLOAD PUSH2 0xD5 SWAP2 SWAP1 PUSH2 0x305 JUMP JUMPDEST PUSH1 0x40 MLOAD DUP1 SWAP2 SUB SWAP1 RETURN JUMPDEST PUSH2 0xF8 PUSH1 0x4 DUP1 CALLDATASIZE SUB DUP2 ADD SWAP1 PUSH2 0xF3 SWAP2 SWAP1 PUSH2 0x2B8 JUMP JUMPDEST PUSH2 0x229 JUMP JUMPDEST PUSH1 0x40 MLOAD PUSH2 0x105 SWAP2 SWAP1 PUSH2 0x305 JUMP JUMPDEST PUSH1 0x40 MLOAD DUP1 SWAP2 SUB SWAP1 RETURN JUMPDEST PUSH0 DUP3 DUP3 GT ISZERO PUSH2 0x152 JUMPI PUSH1 0x40 MLOAD PUSH32 0x8C379A000000000000000000000000000000000000000000000000000000000 DUP2 MSTORE PUSH1 0x4 ADD PUSH2 0x149 SWAP1 PUSH2 0x378 JUMP JUMPDEST PUSH1 0x40 MLOAD DUP1 SWAP2 SUB SWAP1 REVERT JUMPDEST DUP2 DUP4 PUSH2 0x15E SWAP2 SWAP1 PUSH2 0x3C3 JUMP JUMPDEST SWAP1 POP SWAP3 SWAP2 POP POP JUMP JUMPDEST PUSH0 DUP1 DUP3 GT PUSH2 0x1A9 JUMPI PUSH1 0x40 MLOAD PUSH32 0x8C379A000000000000000000000000000000000000000000000000000000000 DUP2 MSTORE PUSH1 0x4 ADD PUSH2 0x1A0 SWAP1 PUSH2 0x440 JUMP JUMPDEST PUSH1 0x40 MLOAD DUP1 SWAP2 SUB SWAP1 REVERT JUMPDEST DUP2 DUP4 PUSH2 0x1B5 SWAP2 SWAP1 PUSH2 0x48B JUMP JUMPDEST SWAP1 POP SWAP3 SWAP2 POP POP JUMP JUMPDEST PUSH0 DUP2 DUP4 PUSH2 0x1CA SWAP2 SWAP1 PUSH2 0x4BB JUMP JUMPDEST SWAP1 POP PUSH0 DUP4 EQ DUP1 PUSH2 0x1E4 JUMPI POP DUP2 DUP4 DUP3 PUSH2 0x1E2 SWAP2 SWAP1 PUSH2 0x48B JUMP JUMPDEST EQ JUMPDEST PUSH2 0x223 JUMPI PUSH1 0x40 MLOAD PUSH32 0x8C379A000000000000000000000000000000000000000000000000000000000 DUP2 MSTORE PUSH1 0x4 ADD PUSH2 0x21A SWAP1 PUSH2 0x56C JUMP JUMPDEST PUSH1 0x40 MLOAD DUP1 SWAP2 SUB SWAP1 REVERT JUMPDEST SWAP3 SWAP2 POP POP JUMP JUMPDEST PUSH0 DUP2 DUP4 PUSH2 0x236 SWAP2 SWAP1 PUSH2 0x58A JUMP JUMPDEST SWAP1 POP DUP3 DUP2 LT ISZERO PUSH2 0x27B JUMPI PUSH1 0x40 MLOAD PUSH32 0x8C379A000000000000000000000000000000000000000000000000000000000 DUP2 MSTORE PUSH1 0x4 ADD PUSH2 0x272 SWAP1 PUSH2 0x607 JUMP JUMPDEST PUSH1 0x40 MLOAD DUP1 SWAP2 SUB SWAP1 REVERT JUMPDEST SWAP3 SWAP2 POP POP JUMP JUMPDEST PUSH0 DUP1 REVERT JUMPDEST PUSH0 DUP2 SWAP1 POP SWAP2 SWAP1 POP JUMP JUMPDEST PUSH2 0x297 DUP2 PUSH2 0x285 JUMP JUMPDEST DUP2 EQ PUSH2 0x2A1 JUMPI PUSH0 DUP1 REVERT JUMPDEST POP JUMP JUMPDEST PUSH0 DUP2 CALLDATALOAD SWAP1 POP PUSH2 0x2B2 DUP2 PUSH2 0x28E JUMP JUMPDEST SWAP3 SWAP2 POP POP JUMP JUMPDEST PUSH0 DUP1 PUSH1 0x40 DUP4 DUP6 SUB SLT ISZERO PUSH2 0x2CE JUMPI PUSH2 0x2CD PUSH2 0x281 JUMP JUMPDEST JUMPDEST PUSH0 PUSH2 0x2DB DUP6 DUP3 DUP7 ADD PUSH2 0x2A4 JUMP JUMPDEST SWAP3 POP POP PUSH1 0x20 PUSH2 0x2EC DUP6 DUP3 DUP7 ADD PUSH2 0x2A4 JUMP JUMPDEST SWAP2 POP POP SWAP3 POP SWAP3 SWAP1 POP JUMP JUMPDEST PUSH2 0x2FF DUP2 PUSH2 0x285 JUMP JUMPDEST DUP3 MSTORE POP POP JUMP JUMPDEST PUSH0 PUSH1 0x20 DUP3 ADD SWAP1 POP PUSH2 0x318 PUSH0 DUP4 ADD DUP5 PUSH2 0x2F6 JUMP JUMPDEST SWAP3 SWAP2 POP POP JUMP JUMPDEST PUSH0 DUP3 DUP3 MSTORE PUSH1 0x20 DUP3 ADD SWAP1 POP SWAP3 SWAP2 POP POP JUMP JUMPDEST PUSH32 0x536166654D6174683A207375627472616374696F6E206F766572666C6F770000 PUSH0 DUP3 ADD MSTORE POP JUMP JUMPDEST PUSH0 PUSH2 0x362 PUSH1 0x1E DUP4 PUSH2 0x31E JUMP JUMPDEST SWAP2 POP PUSH2 0x36D DUP3 PUSH2 0x32E JUMP JUMPDEST PUSH1 0x20 DUP3 ADD SWAP1 POP SWAP2 SWAP1 POP JUMP JUMPDEST PUSH0 PUSH1 0x20 DUP3 ADD SWAP1 POP DUP2 DUP2 SUB PUSH0 DUP4 ADD MSTORE PUSH2 0x38F DUP2 PUSH2 0x356 JUMP JUMPDEST SWAP1 POP SWAP2 SWAP1 POP JUMP JUMPDEST PUSH32 0x4E487B7100000000000000000000000000000000000000000000000000000000 PUSH0 MSTORE PUSH1 0x11 PUSH1 0x4 MSTORE PUSH1 0x24 PUSH0 REVERT JUMPDEST PUSH0 PUSH2 0x3CD DUP3 PUSH2 0x285 JUMP JUMPDEST SWAP2 POP PUSH2 0x3D8 DUP4 PUSH2 0x285 JUMP JUMPDEST SWAP3 POP DUP3 DUP3 SUB SWAP1 POP DUP2 DUP2 GT ISZERO PUSH2 0x3F0 JUMPI PUSH2 0x3EF PUSH2 0x396 JUMP JUMPDEST JUMPDEST SWAP3 SWAP2 POP POP JUMP JUMPDEST PUSH32 0x536166654D6174683A206469766973696F6E206279207A65726F000000000000 PUSH0 DUP3 ADD MSTORE POP JUMP JUMPDEST PUSH0 PUSH2 0x42A PUSH1 0x1A DUP4 PUSH2 0x31E JUMP JUMPDEST SWAP2 POP PUSH2 0x435 DUP3 PUSH2 0x3F6 JUMP JUMPDEST PUSH1 0x20 DUP3 ADD SWAP1 POP SWAP2 SWAP1 POP JUMP JUMPDEST PUSH0 PUSH1 0x20 DUP3 ADD SWAP1 POP DUP2 DUP2 SUB PUSH0 DUP4 ADD MSTORE PUSH2 0x457 DUP2 PUSH2 0x41E JUMP JUMPDEST SWAP1 POP SWAP2 SWAP1 POP JUMP JUMPDEST PUSH32 0x4E487B7100000000000000000000000000000000000000000000000000000000 PUSH0 MSTORE PUSH1 0x12 PUSH1 0x4 MSTORE PUSH1 0x24 PUSH0 REVERT JUMPDEST PUSH0 PUSH2 0x495 DUP3 PUSH2 0x285 JUMP JUMPDEST SWAP2 POP PUSH2 0x4A0 DUP4 PUSH2 0x285 JUMP JUMPDEST SWAP3 POP DUP3 PUSH2 0x4B0 JUMPI PUSH2 0x4AF PUSH2 0x45E JUMP JUMPDEST JUMPDEST DUP3 DUP3 DIV SWAP1 POP SWAP3 SWAP2 POP POP JUMP JUMPDEST PUSH0 PUSH2 0x4C5 DUP3 PUSH2 0x285 JUMP JUMPDEST SWAP2 POP PUSH2 0x4D0 DUP4 PUSH2 0x285 JUMP JUMPDEST SWAP3 POP DUP3 DUP3 MUL PUSH2 0x4DE DUP2 PUSH2 0x285 JUMP JUMPDEST SWAP2 POP DUP3 DUP3 DIV DUP5 EQ DUP4 ISZERO OR PUSH2 0x4F5 JUMPI PUSH2 0x4F4 PUSH2 0x396 JUMP JUMPDEST JUMPDEST POP SWAP3 SWAP2 POP POP JUMP JUMPDEST PUSH32 0x536166654D6174683A206D756C7469706C69636174696F6E206F766572666C6F PUSH0 DUP3 ADD MSTORE PUSH32 0x7700000000000000000000000000000000000000000000000000000000000000 PUSH1 0x20 DUP3 ADD MSTORE POP JUMP JUMPDEST PUSH0 PUSH2 0x556 PUSH1 0x21 DUP4 PUSH2 0x31E JUMP JUMPDEST SWAP2 POP PUSH2 0x561 DUP3 PUSH2 0x4FC JUMP JUMPDEST PUSH1 0x40 DUP3 ADD SWAP1 POP SWAP2 SWAP1 POP JUMP JUMPDEST PUSH0 PUSH1 0x20 DUP3 ADD SWAP1 POP DUP2 DUP2 SUB PUSH0 DUP4 ADD MSTORE PUSH2 0x583 DUP2 PUSH2 0x54A JUMP JUMPDEST SWAP1 POP SWAP2 SWAP1 POP JUMP JUMPDEST PUSH0 PUSH2 0x594 DUP3 PUSH2 0x285 JUMP JUMPDEST SWAP2 POP PUSH2 0x59F DUP4 PUSH2 0x285 JUMP JUMPDEST SWAP3 POP DUP3 DUP3 ADD SWAP1 POP DUP1 DUP3 GT ISZERO PUSH2 0x5B7 JUMPI PUSH2 0x5B6 PUSH2 0x396 JUMP JUMPDEST JUMPDEST SWAP3 SWAP2 POP POP JUMP JUMPDEST PUSH32 0x536166654D6174683A206164646974696F6E206F766572666C6F770000000000 PUSH0 DUP3 ADD MSTORE POP JUMP JUMPDEST PUSH0 PUSH2 0x5F1 PUSH1 0x1B DUP4 PUSH2 0x31E JUMP JUMPDEST SWAP2 POP PUSH2 0x5FC DUP3 PUSH2 0x5BD JUMP JUMPDEST PUSH1 0x20 DUP3 ADD SWAP1 POP SWAP2 SWAP1 POP JUMP JUMPDEST PUSH0 PUSH1 0x20 DUP3 ADD SWAP1 POP DUP2 DUP2 SUB PUSH0 DUP4 ADD MSTORE PUSH2 0x61E DUP2 PUSH2 0x5E5 JUMP JUMPDEST SWAP1 POP SWAP2 SWAP1 POP JUMP INVALID LOG2 PUSH5 0x6970667358 0x22 SLT KECCAK256 CREATE 0xD9 LT 0x2A DUP12 MSIZE PUSH18 0x8AF709A2D8F693DCFDFDAE3215C99D0E0F98 PUSH6 0x87642BC52BFA PUSH5 0x736F6C6343 STOP ADDMOD BYTE STOP CALLER "
				},
				"gasEstimates": {
					"creation": {
						"codeDepositCost": "325400",
						"executionCost": "360",
						"totalCost": "325760"
					},
					"external": {
						"safeAdd(uint256,uint256)": "infinite",
						"safeDiv(uint256,uint256)": "infinite",
						"safeMul(uint256,uint256)": "infinite",
						"safeSub(uint256,uint256)": "infinite"
					}
				},
				"methodIdentifiers": {
					"safeAdd(uint256,uint256)": "e6cb9013",
					"safeDiv(uint256,uint256)": "b5931f7c",
					"safeMul(uint256,uint256)": "d05c78da",
					"safeSub(uint256,uint256)": "a293d1e8"
				}
			},
			"storageLayout": {
				"storage": [],
				"types": null
			},
			"userdoc": {
				"kind": "user",
				"methods": {},
				"version": 1
			}
		}
	}
}