{
	"data": {
		"bytecode": {
			"linkReferences": {},
			"object": "6080604052348015600e575f5ffd5b506103a98061001c5f395ff3fe608060405234801561000f575f5ffd5b506004361061004a575f3560e01c8063a293d1e81461004e578063b5931f7c1461007e578063d05c78da146100ae578063e6cb9013146100de575b5f5ffd5b610068600480360381019061006391906101dc565b61010e565b6040516100759190610229565b60405180910390f35b610098600480360381019061009391906101dc565b61012f565b6040516100a59190610229565b60405180910390f35b6100c860048036038101906100c391906101dc565b61014f565b6040516100d59190610229565b60405180910390f35b6100f860048036038101906100f391906101dc565b610184565b6040516101059190610229565b60405180910390f35b5f8282111561011b575f5ffd5b8183610127919061026f565b905092915050565b5f5f821161013b575f5ffd5b818361014791906102cf565b905092915050565b5f818361015c91906102ff565b90505f831480610176575081838261017491906102cf565b145b61017e575f5ffd5b92915050565b5f81836101919190610340565b90508281101561019f575f5ffd5b92915050565b5f5ffd5b5f819050919050565b6101bb816101a9565b81146101c5575f5ffd5b50565b5f813590506101d6816101b2565b92915050565b5f5f604083850312156101f2576101f16101a5565b5b5f6101ff858286016101c8565b9250506020610210858286016101c8565b9150509250929050565b610223816101a9565b82525050565b5f60208201905061023c5f83018461021a565b92915050565b7f4e487b71000000000000000000000000000000000000000000000000000000005f52601160045260245ffd5b5f610279826101a9565b9150610284836101a9565b925082820390508181111561029c5761029b610242565b5b92915050565b7f4e487b71000000000000000000000000000000000000000000000000000000005f52601260045260245ffd5b5f6102d9826101a9565b91506102e4836101a9565b9250826102f4576102f36102a2565b5b828204905092915050565b5f610309826101a9565b9150610314836101a9565b9250828202610322816101a9565b9150828204841483151761033957610338610242565b5b5092915050565b5f61034a826101a9565b9150610355836101a9565b925082820190508082111561036d5761036c610242565b5b9291505056fea26469706673582212207940ddfdcbb91bc538902f44f75302f7c0e86696865f8a8d93067b2399b6309e64736f6c634300081b0033",
			"opcodes": "PUSH1 0x80 PUSH1 0x40 MSTORE CALLVALUE DUP1 ISZERO PUSH1 0xE JUMPI PUSH0 PUSH0 REVERT JUMPDEST POP PUSH2 0x3A9 DUP1 PUSH2 0x1C PUSH0 CODECOPY PUSH0 RETURN INVALID PUSH1 0x80 PUSH1 0x40 MSTORE CALLVALUE DUP1 ISZERO PUSH2 0xF JUMPI PUSH0 PUSH0 REVERT JUMPDEST POP PUSH1 0x4 CALLDATASIZE LT PUSH2 0x4A JUMPI PUSH0 CALLDATALOAD PUSH1 0xE0 SHR DUP1 PUSH4 0xA293D1E8 EQ PUSH2 0x4E JUMPI DUP1 PUSH4 0xB5931F7C EQ PUSH2 0x7E JUMPI DUP1 PUSH4 0xD05C78DA EQ PUSH2 0xAE JUMPI DUP1 PUSH4 0xE6CB9013 EQ PUSH2 0xDE JUMPI JUMPDEST PUSH0 PUSH0 REVERT JUMPDEST PUSH2 0x68 PUSH1 0x4 DUP1 CALLDATASIZE SUB DUP2 ADD SWAP1 PUSH2 0x63 SWAP2 SWAP1 PUSH2 0x1DC JUMP JUMPDEST PUSH2 0x10E JUMP JUMPDEST PUSH1 0x40 MLOAD PUSH2 0x75 SWAP2 SWAP1 PUSH2 0x229 JUMP JUMPDEST PUSH1 0x40 MLOAD DUP1 SWAP2 SUB SWAP1 RETURN JUMPDEST PUSH2 0x98 PUSH1 0x4 DUP1 CALLDATASIZE SUB DUP2 ADD SWAP1 PUSH2 0x93 SWAP2 SWAP1 PUSH2 0x1DC JUMP JUMPDEST PUSH2 0x12F JUMP JUMPDEST PUSH1 0x40 MLOAD PUSH2 0xA5 SWAP2 SWAP1 PUSH2 0x229 JUMP JUMPDEST PUSH1 0x40 MLOAD DUP1 SWAP2 SUB SWAP1 RETURN JUMPDEST PUSH2 0xC8 PUSH1 0x4 DUP1 CALLDATASIZE SUB DUP2 ADD SWAP1 PUSH2 0xC3 SWAP2 SWAP1 PUSH2 0x1DC JUMP JUMPDEST PUSH2 0x14F JUMP JUMPDEST PUSH1 0x40 MLOAD PUSH2 0xD5 SWAP2 SWAP1 PUSH2 0x229 JUMP JUMPDEST PUSH1 0x40 MLOAD DUP1 SWAP2 SUB SWAP1 RETURN JUMPDEST PUSH2 0xF8 PUSH1 0x4 DUP1 CALLDATASIZE SUB DUP2 ADD SWAP1 PUSH2 0xF3 SWAP2 SWAP1 PUSH2 0x1DC JUMP JUMPDEST PUSH2 0x184 JUMP JUMPDEST PUSH1 0x40 MLOAD PUSH2 0x105 SWAP2 SWAP1 PUSH2 0x229 JUMP JUMPDEST PUSH1 0x40 MLOAD DUP1 SWAP2 SUB SWAP1 RETURN JUMPDEST PUSH0 DUP3 DUP3 GT ISZERO PUSH2 0x11B JUMPI PUSH0 PUSH0 REVERT JUMPDEST DUP2 DUP4 PUSH2 0x127 SWAP2 SWAP1 PUSH2 0x26F JUMP JUMPDEST SWAP1 POP SWAP3 SWAP2 POP POP JUMP JUMPDEST PUSH0 PUSH0 DUP3 GT PUSH2 0x13B JUMPI PUSH0 PUSH0 REVERT JUMPDEST DUP2 DUP4 PUSH2 0x147 SWAP2 SWAP1 PUSH2 0x2CF JUMP JUMPDEST SWAP1 POP SWAP3 SWAP2 POP POP JUMP JUMPDEST PUSH0 DUP2 DUP4 PUSH2 0x15C SWAP2 SWAP1 PUSH2 0x2FF JUMP JUMPDEST SWAP1 POP PUSH0 DUP4 EQ DUP1 PUSH2 0x176 JUMPI POP DUP2 DUP4 DUP3 PUSH2 0x174 SWAP2 SWAP1 PUSH2 0x2CF JUMP JUMPDEST EQ JUMPDEST PUSH2 0x17E JUMPI PUSH0 PUSH0 REVERT JUMPDEST SWAP3 SWAP2 POP POP JUMP JUMPDEST PUSH0 DUP2 DUP4 PUSH2 0x191 SWAP2 SWAP1 PUSH2 0x340 JUMP JUMPDEST SWAP1 POP DUP3 DUP2 LT ISZERO PUSH2 0x19F JUMPI PUSH0 PUSH0 REVERT JUMPDEST SWAP3 SWAP2 POP POP JUMP JUMPDEST PUSH0 PUSH0 REVERT JUMPDEST PUSH0 DUP2 SWAP1 POP SWAP2 SWAP1 POP JUMP JUMPDEST PUSH2 0x1BB DUP2 PUSH2 0x1A9 JUMP JUMPDEST DUP2 EQ PUSH2 0x1C5 JUMPI PUSH0 PUSH0 REVERT JUMPDEST POP JUMP JUMPDEST PUSH0 DUP2 CALLDATALOAD SWAP1 POP PUSH2 0x1D6 DUP2 PUSH2 0x1B2 JUMP JUMPDEST SWAP3 SWAP2 POP POP JUMP JUMPDEST PUSH0 PUSH0 PUSH1 0x40 DUP4 DUP6 SUB SLT ISZERO PUSH2 0x1F2 JUMPI PUSH2 0x1F1 PUSH2 0x1A5 JUMP JUMPDEST JUMPDEST PUSH0 PUSH2 0x1FF DUP6 DUP3 DUP7 ADD PUSH2 0x1C8 JUMP JUMPDEST SWAP3 POP POP PUSH1 0x20 PUSH2 0x210 DUP6 DUP3 DUP7 ADD PUSH2 0x1C8 JUMP JUMPDEST SWAP2 POP POP SWAP3 POP SWAP3 SWAP1 POP JUMP JUMPDEST PUSH2 0x223 DUP2 PUSH2 0x1A9 JUMP JUMPDEST DUP3 MSTORE POP POP JUMP JUMPDEST PUSH0 PUSH1 0x20 DUP3 ADD SWAP1 POP PUSH2 0x23C PUSH0 DUP4 ADD DUP5 PUSH2 0x21A JUMP JUMPDEST SWAP3 SWAP2 POP POP JUMP JUMPDEST PUSH32 0x4E487B7100000000000000000000000000000000000000000000000000000000 PUSH0 MSTORE PUSH1 0x11 PUSH1 0x4 MSTORE PUSH1 0x24 PUSH0 REVERT JUMPDEST PUSH0 PUSH2 0x279 DUP3 PUSH2 0x1A9 JUMP JUMPDEST SWAP2 POP PUSH2 0x284 DUP4 PUSH2 0x1A9 JUMP JUMPDEST SWAP3 POP DUP3 DUP3 SUB SWAP1 POP DUP2 DUP2 GT ISZERO PUSH2 0x29C JUMPI PUSH2 0x29B PUSH2 0x242 JUMP JUMPDEST JUMPDEST SWAP3 SWAP2 POP POP JUMP JUMPDEST PUSH32 0x4E487B7100000000000000000000000000000000000000000000000000000000 PUSH0 MSTORE PUSH1 0x12 PUSH1 0x4 MSTORE PUSH1 0x24 PUSH0 REVERT JUMPDEST PUSH0 PUSH2 0x2D9 DUP3 PUSH2 0x1A9 JUMP JUMPDEST SWAP2 POP PUSH2 0x2E4 DUP4 PUSH2 0x1A9 JUMP JUMPDEST SWAP3 POP DUP3 PUSH2 0x2F4 JUMPI PUSH2 0x2F3 PUSH2 0x2A2 JUMP JUMPDEST JUMPDEST DUP3 DUP3 DIV SWAP1 POP SWAP3 SWAP2 POP POP JUMP JUMPDEST PUSH0 PUSH2 0x309 DUP3 PUSH2 0x1A9 JUMP JUMPDEST SWAP2 POP PUSH2 0x314 DUP4 PUSH2 0x1A9 JUMP JUMPDEST SWAP3 POP DUP3 DUP3 MUL PUSH2 0x322 DUP2 PUSH2 0x1A9 JUMP JUMPDEST SWAP2 POP DUP3 DUP3 DIV DUP5 EQ DUP4 ISZERO OR PUSH2 0x339 JUMPI PUSH2 0x338 PUSH2 0x242 JUMP JUMPDEST JUMPDEST POP SWAP3 SWAP2 POP POP JUMP JUMPDEST PUSH0 PUSH2 0x34A DUP3 PUSH2 0x1A9 JUMP JUMPDEST SWAP2 POP PUSH2 0x355 DUP4 PUSH2 0x1A9 JUMP JUMPDEST SWAP3 POP DUP3 DUP3 ADD SWAP1 POP DUP1 DUP3 GT ISZERO PUSH2 0x36D JUMPI PUSH2 0x36C PUSH2 0x242 JUMP JUMPDEST JUMPDEST SWAP3 SWAP2 POP POP JUMP INVALID LOG2 PUSH5 0x6970667358 0x22 SLT KECCAK256 PUSH26 0x40DDFDCBB91BC538902F44F75302F7C0E86696865F8A8D93067B 0x23 SWAP10 0xB6 ADDRESS SWAP15 PUSH5 0x736F6C6343 STOP ADDMOD SHL STOP CALLER "
		},
		"gasEstimates": {
			"creation": {
				"codeDepositCost": "187400",
				"executionCost": "230",
				"totalCost": "187630"
			},
			"external": {
				"safeAdd(uint256,uint256)": "infinite",
				"safeDiv(uint256,uint256)": "infinite",
				"safeMul(uint256,uint256)": "infinite",
				"safeSub(uint256,uint256)": "infinite"
			}
		},
		"methodIdentifiers": {
			"safeAdd(uint256,uint256)": "e6cb9013",
			"safeDiv(uint256,uint256)": "b5931f7c",
			"safeMul(uint256,uint256)": "d05c78da",
			"safeSub(uint256,uint256)": "a293d1e8"
		}
	},
	"abi": [
		{
			"inputs": [
				{
					"internalType": "uint256",
					"name": "a",
					"type": "uint256"
				},
				{
					"internalType": "uint256",
					"name": "b",
					"type": "uint256"
				}
			],
			"name": "safeAdd",
			"outputs": [
				{
					"internalType": "uint256",
					"name": "c",
					"type": "uint256"
				}
			],
			"stateMutability": "pure",
			"type": "function"
		},
		{
			"inputs": [
				{
					"internalType": "uint256",
					"name": "a",
					"type": "uint256"
				},
				{
					"internalType": "uint256",
					"name": "b",
					"type": "uint256"
				}
			],
			"name": "safeDiv",
			"outputs": [
				{
					"internalType": "uint256",
					"name": "c",
					"type": "uint256"
				}
			],
			"stateMutability": "pure",
			"type": "function"
		},
		{
			"inputs": [
				{
					"internalType": "uint256",
					"name": "a",
					"type": "uint256"
				},
				{
					"internalType": "uint256",
					"name": "b",
					"type": "uint256"
				}
			],
			"name": "safeMul",
			"outputs": [
				{
					"internalType": "uint256",
					"name": "c",
					"type": "uint256"
				}
			],
			"stateMutability": "pure",
			"type": "function"
		},
		{
			"inputs": [
				{
					"internalType": "uint256",
					"name": "a",
					"type": "uint256"
				},
				{
					"internalType": "uint256",
					"name": "b",
					"type": "uint256"
				}
			],
			"name": "safeSub",
			"outputs": [
				{
					"internalType": "uint256",
					"name": "c",
					"type": "uint256"
				}
			],
			"stateMutability": "pure",
			"type": "function"
		}
	]
}